{
	"contracts/Tipi_dannih.sol": {
		"Demo": {
			"abi": [
				{
					"inputs": [
						{
							"internalType": "string",
							"name": "newValueStr",
							"type": "string"
						}
					],
					"name": "demo",
					"outputs": [],
					"stateMutability": "nonpayable",
					"type": "function"
				},
				{
					"inputs": [
						{
							"internalType": "address",
							"name": "",
							"type": "address"
						}
					],
					"name": "getBalance",
					"outputs": [
						{
							"internalType": "uint256",
							"name": "",
							"type": "uint256"
						}
					],
					"stateMutability": "view",
					"type": "function"
				},
				{
					"inputs": [],
					"name": "myAddr",
					"outputs": [
						{
							"internalType": "address",
							"name": "",
							"type": "address"
						}
					],
					"stateMutability": "view",
					"type": "function"
				},
				{
					"inputs": [],
					"name": "myStr",
					"outputs": [
						{
							"internalType": "string",
							"name": "",
							"type": "string"
						}
					],
					"stateMutability": "view",
					"type": "function"
				}
			],
			"devdoc": {
				"kind": "dev",
				"methods": {},
				"version": 1
			},
			"evm": {
				"assembly": "    /* \"contracts/Tipi_dannih.sol\":62:447  contract Demo {\r... */\n  mstore(0x40, 0x80)\n    /* \"contracts/Tipi_dannih.sol\":107:149  0x5B38Da6a701c568545dCfcB03FcB875f56beddC4 */\n  0x5b38da6a701c568545dcfcb03fcb875f56beddc4\n    /* \"contracts/Tipi_dannih.sol\":83:149  address public myAddr = 0x5B38Da6a701c568545dCfcB03FcB875f56beddC4 */\n  0x00\n  dup1\n  0x0100\n  exp\n  dup2\n  sload\n  dup2\n  0xffffffffffffffffffffffffffffffffffffffff\n  mul\n  not\n  and\n  swap1\n  dup4\n  0xffffffffffffffffffffffffffffffffffffffff\n  and\n  mul\n  or\n  swap1\n  sstore\n  pop\n    /* \"contracts/Tipi_dannih.sol\":265:293  string public myStr = \"test\" */\n  mload(0x40)\n  dup1\n  0x40\n  add\n  0x40\n  mstore\n  dup1\n  0x04\n  dup2\n  mstore\n  0x20\n  add\n  0x7465737400000000000000000000000000000000000000000000000000000000\n  dup2\n  mstore\n  pop\n  0x01\n  swap1\n  dup1\n  mload\n  swap1\n  0x20\n  add\n  swap1\n  tag_1\n  swap3\n  swap2\n  swap1\n  tag_2\n  jump\t// in\ntag_1:\n  pop\n    /* \"contracts/Tipi_dannih.sol\":62:447  contract Demo {\r... */\n  callvalue\n  dup1\n  iszero\n  tag_3\n  jumpi\n  0x00\n  dup1\n  revert\ntag_3:\n  pop\n  jump(tag_4)\ntag_2:\n  dup3\n  dup1\n  sload\n  tag_5\n  swap1\n  tag_6\n  jump\t// in\ntag_5:\n  swap1\n  0x00\n  mstore\n  keccak256(0x00, 0x20)\n  swap1\n  0x1f\n  add\n  0x20\n  swap1\n  div\n  dup2\n  add\n  swap3\n  dup3\n  tag_8\n  jumpi\n  0x00\n  dup6\n  sstore\n  jump(tag_7)\ntag_8:\n  dup3\n  0x1f\n  lt\n  tag_9\n  jumpi\n  dup1\n  mload\n  not(0xff)\n  and\n  dup4\n  dup1\n  add\n  or\n  dup6\n  sstore\n  jump(tag_7)\ntag_9:\n  dup3\n  dup1\n  add\n  0x01\n  add\n  dup6\n  sstore\n  dup3\n  iszero\n  tag_7\n  jumpi\n  swap2\n  dup3\n  add\ntag_10:\n  dup3\n  dup2\n  gt\n  iszero\n  tag_11\n  jumpi\n  dup3\n  mload\n  dup3\n  sstore\n  swap2\n  0x20\n  add\n  swap2\n  swap1\n  0x01\n  add\n  swap1\n  jump(tag_10)\ntag_11:\ntag_7:\n  pop\n  swap1\n  pop\n  tag_12\n  swap2\n  swap1\n  tag_13\n  jump\t// in\ntag_12:\n  pop\n  swap1\n  jump\t// out\ntag_13:\ntag_14:\n  dup1\n  dup3\n  gt\n  iszero\n  tag_15\n  jumpi\n  0x00\n  dup2\n  0x00\n  swap1\n  sstore\n  pop\n  0x01\n  add\n  jump(tag_14)\ntag_15:\n  pop\n  swap1\n  jump\t// out\n    /* \"#utility.yul\":7:327   */\ntag_6:\n    /* \"#utility.yul\":51:57   */\n  0x00\n    /* \"#utility.yul\":88:89   */\n  0x02\n    /* \"#utility.yul\":82:86   */\n  dup3\n    /* \"#utility.yul\":78:90   */\n  div\n    /* \"#utility.yul\":68:90   */\n  swap1\n  pop\n    /* \"#utility.yul\":135:136   */\n  0x01\n    /* \"#utility.yul\":129:133   */\n  dup3\n    /* \"#utility.yul\":125:137   */\n  and\n    /* \"#utility.yul\":156:174   */\n  dup1\n    /* \"#utility.yul\":146:227   */\n  tag_18\n  jumpi\n    /* \"#utility.yul\":212:216   */\n  0x7f\n    /* \"#utility.yul\":204:210   */\n  dup3\n    /* \"#utility.yul\":200:217   */\n  and\n    /* \"#utility.yul\":190:217   */\n  swap2\n  pop\n    /* \"#utility.yul\":146:227   */\ntag_18:\n    /* \"#utility.yul\":274:276   */\n  0x20\n    /* \"#utility.yul\":266:272   */\n  dup3\n    /* \"#utility.yul\":263:277   */\n  lt\n    /* \"#utility.yul\":243:261   */\n  dup2\n    /* \"#utility.yul\":240:278   */\n  eq\n    /* \"#utility.yul\":237:321   */\n  iszero\n  tag_19\n  jumpi\n    /* \"#utility.yul\":293:311   */\n  tag_20\n  tag_21\n  jump\t// in\ntag_20:\n    /* \"#utility.yul\":237:321   */\ntag_19:\n    /* \"#utility.yul\":58:327   */\n  pop\n    /* \"#utility.yul\":7:327   */\n  swap2\n  swap1\n  pop\n  jump\t// out\n    /* \"#utility.yul\":333:513   */\ntag_21:\n    /* \"#utility.yul\":381:458   */\n  0x4e487b7100000000000000000000000000000000000000000000000000000000\n    /* \"#utility.yul\":378:379   */\n  0x00\n    /* \"#utility.yul\":371:459   */\n  mstore\n    /* \"#utility.yul\":478:482   */\n  0x22\n    /* \"#utility.yul\":475:476   */\n  0x04\n    /* \"#utility.yul\":468:483   */\n  mstore\n    /* \"#utility.yul\":502:506   */\n  0x24\n    /* \"#utility.yul\":499:500   */\n  0x00\n    /* \"#utility.yul\":492:507   */\n  revert\n    /* \"contracts/Tipi_dannih.sol\":62:447  contract Demo {\r... */\ntag_4:\n  dataSize(sub_0)\n  dup1\n  dataOffset(sub_0)\n  0x00\n  codecopy\n  0x00\n  return\nstop\n\nsub_0: assembly {\n        /* \"contracts/Tipi_dannih.sol\":62:447  contract Demo {\r... */\n      mstore(0x40, 0x80)\n      callvalue\n      dup1\n      iszero\n      tag_1\n      jumpi\n      0x00\n      dup1\n      revert\n    tag_1:\n      pop\n      jumpi(tag_2, lt(calldatasize, 0x04))\n      shr(0xe0, calldataload(0x00))\n      dup1\n      0x5a455c1c\n      eq\n      tag_3\n      jumpi\n      dup1\n      0x939a79ac\n      eq\n      tag_4\n      jumpi\n      dup1\n      0xe665b266\n      eq\n      tag_5\n      jumpi\n      dup1\n      0xf8b2cb4f\n      eq\n      tag_6\n      jumpi\n    tag_2:\n      0x00\n      dup1\n      revert\n        /* \"contracts/Tipi_dannih.sol\":265:293  string public myStr = \"test\" */\n    tag_3:\n      tag_7\n      tag_8\n      jump\t// in\n    tag_7:\n      mload(0x40)\n      tag_9\n      swap2\n      swap1\n      tag_10\n      jump\t// in\n    tag_9:\n      mload(0x40)\n      dup1\n      swap2\n      sub\n      swap1\n      return\n        /* \"contracts/Tipi_dannih.sol\":314:444  function demo(string memory newValueStr ) public {\r... */\n    tag_4:\n      tag_11\n      0x04\n      dup1\n      calldatasize\n      sub\n      dup2\n      add\n      swap1\n      tag_12\n      swap2\n      swap1\n      tag_13\n      jump\t// in\n    tag_12:\n      tag_14\n      jump\t// in\n    tag_11:\n      stop\n        /* \"contracts/Tipi_dannih.sol\":83:149  address public myAddr = 0x5B38Da6a701c568545dCfcB03FcB875f56beddC4 */\n    tag_5:\n      tag_15\n      tag_16\n      jump\t// in\n    tag_15:\n      mload(0x40)\n      tag_17\n      swap2\n      swap1\n      tag_18\n      jump\t// in\n    tag_17:\n      mload(0x40)\n      dup1\n      swap2\n      sub\n      swap1\n      return\n        /* \"contracts/Tipi_dannih.sol\":158:252  function getBalance(address ) public view returns(uint){\r... */\n    tag_6:\n      tag_19\n      0x04\n      dup1\n      calldatasize\n      sub\n      dup2\n      add\n      swap1\n      tag_20\n      swap2\n      swap1\n      tag_21\n      jump\t// in\n    tag_20:\n      tag_22\n      jump\t// in\n    tag_19:\n      mload(0x40)\n      tag_23\n      swap2\n      swap1\n      tag_24\n      jump\t// in\n    tag_23:\n      mload(0x40)\n      dup1\n      swap2\n      sub\n      swap1\n      return\n        /* \"contracts/Tipi_dannih.sol\":265:293  string public myStr = \"test\" */\n    tag_8:\n      0x01\n      dup1\n      sload\n      tag_25\n      swap1\n      tag_26\n      jump\t// in\n    tag_25:\n      dup1\n      0x1f\n      add\n      0x20\n      dup1\n      swap2\n      div\n      mul\n      0x20\n      add\n      mload(0x40)\n      swap1\n      dup2\n      add\n      0x40\n      mstore\n      dup1\n      swap3\n      swap2\n      swap1\n      dup2\n      dup2\n      mstore\n      0x20\n      add\n      dup3\n      dup1\n      sload\n      tag_27\n      swap1\n      tag_26\n      jump\t// in\n    tag_27:\n      dup1\n      iszero\n      tag_28\n      jumpi\n      dup1\n      0x1f\n      lt\n      tag_29\n      jumpi\n      0x0100\n      dup1\n      dup4\n      sload\n      div\n      mul\n      dup4\n      mstore\n      swap2\n      0x20\n      add\n      swap2\n      jump(tag_28)\n    tag_29:\n      dup3\n      add\n      swap2\n      swap1\n      0x00\n      mstore\n      keccak256(0x00, 0x20)\n      swap1\n    tag_30:\n      dup2\n      sload\n      dup2\n      mstore\n      swap1\n      0x01\n      add\n      swap1\n      0x20\n      add\n      dup1\n      dup4\n      gt\n      tag_30\n      jumpi\n      dup3\n      swap1\n      sub\n      0x1f\n      and\n      dup3\n      add\n      swap2\n    tag_28:\n      pop\n      pop\n      pop\n      pop\n      pop\n      dup2\n      jump\t// out\n        /* \"contracts/Tipi_dannih.sol\":314:444  function demo(string memory newValueStr ) public {\r... */\n    tag_14:\n        /* \"contracts/Tipi_dannih.sol\":374:397  string memory myTempStr */\n      0x00\n        /* \"contracts/Tipi_dannih.sol\":374:406  string memory myTempStr = \"temp\" */\n      mload(0x40)\n      dup1\n      0x40\n      add\n      0x40\n      mstore\n      dup1\n      0x04\n      dup2\n      mstore\n      0x20\n      add\n      0x74656d7000000000000000000000000000000000000000000000000000000000\n      dup2\n      mstore\n      pop\n      swap1\n      pop\n        /* \"contracts/Tipi_dannih.sol\":425:436  newValueStr */\n      dup2\n        /* \"contracts/Tipi_dannih.sol\":417:422  myStr */\n      0x01\n        /* \"contracts/Tipi_dannih.sol\":417:436  myStr = newValueStr */\n      swap1\n      dup1\n      mload\n      swap1\n      0x20\n      add\n      swap1\n      tag_32\n      swap3\n      swap2\n      swap1\n      tag_33\n      jump\t// in\n    tag_32:\n      pop\n        /* \"contracts/Tipi_dannih.sol\":363:444  {\r... */\n      pop\n        /* \"contracts/Tipi_dannih.sol\":314:444  function demo(string memory newValueStr ) public {\r... */\n      pop\n      jump\t// out\n        /* \"contracts/Tipi_dannih.sol\":83:149  address public myAddr = 0x5B38Da6a701c568545dCfcB03FcB875f56beddC4 */\n    tag_16:\n      0x00\n      dup1\n      sload\n      swap1\n      0x0100\n      exp\n      swap1\n      div\n      0xffffffffffffffffffffffffffffffffffffffff\n      and\n      dup2\n      jump\t// out\n        /* \"contracts/Tipi_dannih.sol\":158:252  function getBalance(address ) public view returns(uint){\r... */\n    tag_22:\n        /* \"contracts/Tipi_dannih.sol\":208:212  uint */\n      0x00\n        /* \"contracts/Tipi_dannih.sol\":230:236  myAddr */\n      dup1\n      0x00\n      swap1\n      sload\n      swap1\n      0x0100\n      exp\n      swap1\n      div\n      0xffffffffffffffffffffffffffffffffffffffff\n      and\n        /* \"contracts/Tipi_dannih.sol\":230:244  myAddr.balance */\n      0xffffffffffffffffffffffffffffffffffffffff\n      and\n      balance\n        /* \"contracts/Tipi_dannih.sol\":223:244  return myAddr.balance */\n      swap1\n      pop\n        /* \"contracts/Tipi_dannih.sol\":158:252  function getBalance(address ) public view returns(uint){\r... */\n      swap2\n      swap1\n      pop\n      jump\t// out\n    tag_33:\n      dup3\n      dup1\n      sload\n      tag_35\n      swap1\n      tag_26\n      jump\t// in\n    tag_35:\n      swap1\n      0x00\n      mstore\n      keccak256(0x00, 0x20)\n      swap1\n      0x1f\n      add\n      0x20\n      swap1\n      div\n      dup2\n      add\n      swap3\n      dup3\n      tag_37\n      jumpi\n      0x00\n      dup6\n      sstore\n      jump(tag_36)\n    tag_37:\n      dup3\n      0x1f\n      lt\n      tag_38\n      jumpi\n      dup1\n      mload\n      not(0xff)\n      and\n      dup4\n      dup1\n      add\n      or\n      dup6\n      sstore\n      jump(tag_36)\n    tag_38:\n      dup3\n      dup1\n      add\n      0x01\n      add\n      dup6\n      sstore\n      dup3\n      iszero\n      tag_36\n      jumpi\n      swap2\n      dup3\n      add\n    tag_39:\n      dup3\n      dup2\n      gt\n      iszero\n      tag_40\n      jumpi\n      dup3\n      mload\n      dup3\n      sstore\n      swap2\n      0x20\n      add\n      swap2\n      swap1\n      0x01\n      add\n      swap1\n      jump(tag_39)\n    tag_40:\n    tag_36:\n      pop\n      swap1\n      pop\n      tag_41\n      swap2\n      swap1\n      tag_42\n      jump\t// in\n    tag_41:\n      pop\n      swap1\n      jump\t// out\n    tag_42:\n    tag_43:\n      dup1\n      dup3\n      gt\n      iszero\n      tag_44\n      jumpi\n      0x00\n      dup2\n      0x00\n      swap1\n      sstore\n      pop\n      0x01\n      add\n      jump(tag_43)\n    tag_44:\n      pop\n      swap1\n      jump\t// out\n        /* \"#utility.yul\":7:419   */\n    tag_46:\n        /* \"#utility.yul\":85:90   */\n      0x00\n        /* \"#utility.yul\":110:176   */\n      tag_48\n        /* \"#utility.yul\":126:175   */\n      tag_49\n        /* \"#utility.yul\":168:174   */\n      dup5\n        /* \"#utility.yul\":126:175   */\n      tag_50\n      jump\t// in\n    tag_49:\n        /* \"#utility.yul\":110:176   */\n      tag_51\n      jump\t// in\n    tag_48:\n        /* \"#utility.yul\":101:176   */\n      swap1\n      pop\n        /* \"#utility.yul\":199:205   */\n      dup3\n        /* \"#utility.yul\":192:197   */\n      dup2\n        /* \"#utility.yul\":185:206   */\n      mstore\n        /* \"#utility.yul\":237:241   */\n      0x20\n        /* \"#utility.yul\":230:235   */\n      dup2\n        /* \"#utility.yul\":226:242   */\n      add\n        /* \"#utility.yul\":275:278   */\n      dup5\n        /* \"#utility.yul\":266:272   */\n      dup5\n        /* \"#utility.yul\":261:264   */\n      dup5\n        /* \"#utility.yul\":257:273   */\n      add\n        /* \"#utility.yul\":254:279   */\n      gt\n        /* \"#utility.yul\":251:363   */\n      iszero\n      tag_52\n      jumpi\n        /* \"#utility.yul\":282:361   */\n      tag_53\n      tag_54\n      jump\t// in\n    tag_53:\n        /* \"#utility.yul\":251:363   */\n    tag_52:\n        /* \"#utility.yul\":372:413   */\n      tag_55\n        /* \"#utility.yul\":406:412   */\n      dup5\n        /* \"#utility.yul\":401:404   */\n      dup3\n        /* \"#utility.yul\":396:399   */\n      dup6\n        /* \"#utility.yul\":372:413   */\n      tag_56\n      jump\t// in\n    tag_55:\n        /* \"#utility.yul\":91:419   */\n      pop\n        /* \"#utility.yul\":7:419   */\n      swap4\n      swap3\n      pop\n      pop\n      pop\n      jump\t// out\n        /* \"#utility.yul\":425:564   */\n    tag_57:\n        /* \"#utility.yul\":471:476   */\n      0x00\n        /* \"#utility.yul\":509:515   */\n      dup2\n        /* \"#utility.yul\":496:516   */\n      calldataload\n        /* \"#utility.yul\":487:516   */\n      swap1\n      pop\n        /* \"#utility.yul\":525:558   */\n      tag_59\n        /* \"#utility.yul\":552:557   */\n      dup2\n        /* \"#utility.yul\":525:558   */\n      tag_60\n      jump\t// in\n    tag_59:\n        /* \"#utility.yul\":425:564   */\n      swap3\n      swap2\n      pop\n      pop\n      jump\t// out\n        /* \"#utility.yul\":584:924   */\n    tag_61:\n        /* \"#utility.yul\":640:645   */\n      0x00\n        /* \"#utility.yul\":689:692   */\n      dup3\n        /* \"#utility.yul\":682:686   */\n      0x1f\n        /* \"#utility.yul\":674:680   */\n      dup4\n        /* \"#utility.yul\":670:687   */\n      add\n        /* \"#utility.yul\":666:693   */\n      slt\n        /* \"#utility.yul\":656:778   */\n      tag_63\n      jumpi\n        /* \"#utility.yul\":697:776   */\n      tag_64\n      tag_65\n      jump\t// in\n    tag_64:\n        /* \"#utility.yul\":656:778   */\n    tag_63:\n        /* \"#utility.yul\":814:820   */\n      dup2\n        /* \"#utility.yul\":801:821   */\n      calldataload\n        /* \"#utility.yul\":839:918   */\n      tag_66\n        /* \"#utility.yul\":914:917   */\n      dup5\n        /* \"#utility.yul\":906:912   */\n      dup3\n        /* \"#utility.yul\":899:903   */\n      0x20\n        /* \"#utility.yul\":891:897   */\n      dup7\n        /* \"#utility.yul\":887:904   */\n      add\n        /* \"#utility.yul\":839:918   */\n      tag_46\n      jump\t// in\n    tag_66:\n        /* \"#utility.yul\":830:918   */\n      swap2\n      pop\n        /* \"#utility.yul\":646:924   */\n      pop\n        /* \"#utility.yul\":584:924   */\n      swap3\n      swap2\n      pop\n      pop\n      jump\t// out\n        /* \"#utility.yul\":930:1259   */\n    tag_21:\n        /* \"#utility.yul\":989:995   */\n      0x00\n        /* \"#utility.yul\":1038:1040   */\n      0x20\n        /* \"#utility.yul\":1026:1035   */\n      dup3\n        /* \"#utility.yul\":1017:1024   */\n      dup5\n        /* \"#utility.yul\":1013:1036   */\n      sub\n        /* \"#utility.yul\":1009:1041   */\n      slt\n        /* \"#utility.yul\":1006:1125   */\n      iszero\n      tag_68\n      jumpi\n        /* \"#utility.yul\":1044:1123   */\n      tag_69\n      tag_70\n      jump\t// in\n    tag_69:\n        /* \"#utility.yul\":1006:1125   */\n    tag_68:\n        /* \"#utility.yul\":1164:1165   */\n      0x00\n        /* \"#utility.yul\":1189:1242   */\n      tag_71\n        /* \"#utility.yul\":1234:1241   */\n      dup5\n        /* \"#utility.yul\":1225:1231   */\n      dup3\n        /* \"#utility.yul\":1214:1223   */\n      dup6\n        /* \"#utility.yul\":1210:1232   */\n      add\n        /* \"#utility.yul\":1189:1242   */\n      tag_57\n      jump\t// in\n    tag_71:\n        /* \"#utility.yul\":1179:1242   */\n      swap2\n      pop\n        /* \"#utility.yul\":1135:1252   */\n      pop\n        /* \"#utility.yul\":930:1259   */\n      swap3\n      swap2\n      pop\n      pop\n      jump\t// out\n        /* \"#utility.yul\":1265:1774   */\n    tag_13:\n        /* \"#utility.yul\":1334:1340   */\n      0x00\n        /* \"#utility.yul\":1383:1385   */\n      0x20\n        /* \"#utility.yul\":1371:1380   */\n      dup3\n        /* \"#utility.yul\":1362:1369   */\n      dup5\n        /* \"#utility.yul\":1358:1381   */\n      sub\n        /* \"#utility.yul\":1354:1386   */\n      slt\n        /* \"#utility.yul\":1351:1470   */\n      iszero\n      tag_73\n      jumpi\n        /* \"#utility.yul\":1389:1468   */\n      tag_74\n      tag_70\n      jump\t// in\n    tag_74:\n        /* \"#utility.yul\":1351:1470   */\n    tag_73:\n        /* \"#utility.yul\":1537:1538   */\n      0x00\n        /* \"#utility.yul\":1526:1535   */\n      dup3\n        /* \"#utility.yul\":1522:1539   */\n      add\n        /* \"#utility.yul\":1509:1540   */\n      calldataload\n        /* \"#utility.yul\":1567:1585   */\n      0xffffffffffffffff\n        /* \"#utility.yul\":1559:1565   */\n      dup2\n        /* \"#utility.yul\":1556:1586   */\n      gt\n        /* \"#utility.yul\":1553:1670   */\n      iszero\n      tag_75\n      jumpi\n        /* \"#utility.yul\":1589:1668   */\n      tag_76\n      tag_77\n      jump\t// in\n    tag_76:\n        /* \"#utility.yul\":1553:1670   */\n    tag_75:\n        /* \"#utility.yul\":1694:1757   */\n      tag_78\n        /* \"#utility.yul\":1749:1756   */\n      dup5\n        /* \"#utility.yul\":1740:1746   */\n      dup3\n        /* \"#utility.yul\":1729:1738   */\n      dup6\n        /* \"#utility.yul\":1725:1747   */\n      add\n        /* \"#utility.yul\":1694:1757   */\n      tag_61\n      jump\t// in\n    tag_78:\n        /* \"#utility.yul\":1684:1757   */\n      swap2\n      pop\n        /* \"#utility.yul\":1480:1767   */\n      pop\n        /* \"#utility.yul\":1265:1774   */\n      swap3\n      swap2\n      pop\n      pop\n      jump\t// out\n        /* \"#utility.yul\":1780:1898   */\n    tag_79:\n        /* \"#utility.yul\":1867:1891   */\n      tag_81\n        /* \"#utility.yul\":1885:1890   */\n      dup2\n        /* \"#utility.yul\":1867:1891   */\n      tag_82\n      jump\t// in\n    tag_81:\n        /* \"#utility.yul\":1862:1865   */\n      dup3\n        /* \"#utility.yul\":1855:1892   */\n      mstore\n        /* \"#utility.yul\":1780:1898   */\n      pop\n      pop\n      jump\t// out\n        /* \"#utility.yul\":1904:2268   */\n    tag_83:\n        /* \"#utility.yul\":1992:1995   */\n      0x00\n        /* \"#utility.yul\":2020:2059   */\n      tag_85\n        /* \"#utility.yul\":2053:2058   */\n      dup3\n        /* \"#utility.yul\":2020:2059   */\n      tag_86\n      jump\t// in\n    tag_85:\n        /* \"#utility.yul\":2075:2146   */\n      tag_87\n        /* \"#utility.yul\":2139:2145   */\n      dup2\n        /* \"#utility.yul\":2134:2137   */\n      dup6\n        /* \"#utility.yul\":2075:2146   */\n      tag_88\n      jump\t// in\n    tag_87:\n        /* \"#utility.yul\":2068:2146   */\n      swap4\n      pop\n        /* \"#utility.yul\":2155:2207   */\n      tag_89\n        /* \"#utility.yul\":2200:2206   */\n      dup2\n        /* \"#utility.yul\":2195:2198   */\n      dup6\n        /* \"#utility.yul\":2188:2192   */\n      0x20\n        /* \"#utility.yul\":2181:2186   */\n      dup7\n        /* \"#utility.yul\":2177:2193   */\n      add\n        /* \"#utility.yul\":2155:2207   */\n      tag_90\n      jump\t// in\n    tag_89:\n        /* \"#utility.yul\":2232:2261   */\n      tag_91\n        /* \"#utility.yul\":2254:2260   */\n      dup2\n        /* \"#utility.yul\":2232:2261   */\n      tag_92\n      jump\t// in\n    tag_91:\n        /* \"#utility.yul\":2227:2230   */\n      dup5\n        /* \"#utility.yul\":2223:2262   */\n      add\n        /* \"#utility.yul\":2216:2262   */\n      swap2\n      pop\n        /* \"#utility.yul\":1996:2268   */\n      pop\n        /* \"#utility.yul\":1904:2268   */\n      swap3\n      swap2\n      pop\n      pop\n      jump\t// out\n        /* \"#utility.yul\":2274:2392   */\n    tag_93:\n        /* \"#utility.yul\":2361:2385   */\n      tag_95\n        /* \"#utility.yul\":2379:2384   */\n      dup2\n        /* \"#utility.yul\":2361:2385   */\n      tag_96\n      jump\t// in\n    tag_95:\n        /* \"#utility.yul\":2356:2359   */\n      dup3\n        /* \"#utility.yul\":2349:2386   */\n      mstore\n        /* \"#utility.yul\":2274:2392   */\n      pop\n      pop\n      jump\t// out\n        /* \"#utility.yul\":2398:2620   */\n    tag_18:\n        /* \"#utility.yul\":2491:2495   */\n      0x00\n        /* \"#utility.yul\":2529:2531   */\n      0x20\n        /* \"#utility.yul\":2518:2527   */\n      dup3\n        /* \"#utility.yul\":2514:2532   */\n      add\n        /* \"#utility.yul\":2506:2532   */\n      swap1\n      pop\n        /* \"#utility.yul\":2542:2613   */\n      tag_98\n        /* \"#utility.yul\":2610:2611   */\n      0x00\n        /* \"#utility.yul\":2599:2608   */\n      dup4\n        /* \"#utility.yul\":2595:2612   */\n      add\n        /* \"#utility.yul\":2586:2592   */\n      dup5\n        /* \"#utility.yul\":2542:2613   */\n      tag_79\n      jump\t// in\n    tag_98:\n        /* \"#utility.yul\":2398:2620   */\n      swap3\n      swap2\n      pop\n      pop\n      jump\t// out\n        /* \"#utility.yul\":2626:2939   */\n    tag_10:\n        /* \"#utility.yul\":2739:2743   */\n      0x00\n        /* \"#utility.yul\":2777:2779   */\n      0x20\n        /* \"#utility.yul\":2766:2775   */\n      dup3\n        /* \"#utility.yul\":2762:2780   */\n      add\n        /* \"#utility.yul\":2754:2780   */\n      swap1\n      pop\n        /* \"#utility.yul\":2826:2835   */\n      dup2\n        /* \"#utility.yul\":2820:2824   */\n      dup2\n        /* \"#utility.yul\":2816:2836   */\n      sub\n        /* \"#utility.yul\":2812:2813   */\n      0x00\n        /* \"#utility.yul\":2801:2810   */\n      dup4\n        /* \"#utility.yul\":2797:2814   */\n      add\n        /* \"#utility.yul\":2790:2837   */\n      mstore\n        /* \"#utility.yul\":2854:2932   */\n      tag_100\n        /* \"#utility.yul\":2927:2931   */\n      dup2\n        /* \"#utility.yul\":2918:2924   */\n      dup5\n        /* \"#utility.yul\":2854:2932   */\n      tag_83\n      jump\t// in\n    tag_100:\n        /* \"#utility.yul\":2846:2932   */\n      swap1\n      pop\n        /* \"#utility.yul\":2626:2939   */\n      swap3\n      swap2\n      pop\n      pop\n      jump\t// out\n        /* \"#utility.yul\":2945:3167   */\n    tag_24:\n        /* \"#utility.yul\":3038:3042   */\n      0x00\n        /* \"#utility.yul\":3076:3078   */\n      0x20\n        /* \"#utility.yul\":3065:3074   */\n      dup3\n        /* \"#utility.yul\":3061:3079   */\n      add\n        /* \"#utility.yul\":3053:3079   */\n      swap1\n      pop\n        /* \"#utility.yul\":3089:3160   */\n      tag_102\n        /* \"#utility.yul\":3157:3158   */\n      0x00\n        /* \"#utility.yul\":3146:3155   */\n      dup4\n        /* \"#utility.yul\":3142:3159   */\n      add\n        /* \"#utility.yul\":3133:3139   */\n      dup5\n        /* \"#utility.yul\":3089:3160   */\n      tag_93\n      jump\t// in\n    tag_102:\n        /* \"#utility.yul\":2945:3167   */\n      swap3\n      swap2\n      pop\n      pop\n      jump\t// out\n        /* \"#utility.yul\":3173:3302   */\n    tag_51:\n        /* \"#utility.yul\":3207:3213   */\n      0x00\n        /* \"#utility.yul\":3234:3254   */\n      tag_104\n      tag_105\n      jump\t// in\n    tag_104:\n        /* \"#utility.yul\":3224:3254   */\n      swap1\n      pop\n        /* \"#utility.yul\":3263:3296   */\n      tag_106\n        /* \"#utility.yul\":3291:3295   */\n      dup3\n        /* \"#utility.yul\":3283:3289   */\n      dup3\n        /* \"#utility.yul\":3263:3296   */\n      tag_107\n      jump\t// in\n    tag_106:\n        /* \"#utility.yul\":3173:3302   */\n      swap2\n      swap1\n      pop\n      jump\t// out\n        /* \"#utility.yul\":3308:3383   */\n    tag_105:\n        /* \"#utility.yul\":3341:3347   */\n      0x00\n        /* \"#utility.yul\":3374:3376   */\n      0x40\n        /* \"#utility.yul\":3368:3377   */\n      mload\n        /* \"#utility.yul\":3358:3377   */\n      swap1\n      pop\n        /* \"#utility.yul\":3308:3383   */\n      swap1\n      jump\t// out\n        /* \"#utility.yul\":3389:3697   */\n    tag_50:\n        /* \"#utility.yul\":3451:3455   */\n      0x00\n        /* \"#utility.yul\":3541:3559   */\n      0xffffffffffffffff\n        /* \"#utility.yul\":3533:3539   */\n      dup3\n        /* \"#utility.yul\":3530:3560   */\n      gt\n        /* \"#utility.yul\":3527:3583   */\n      iszero\n      tag_110\n      jumpi\n        /* \"#utility.yul\":3563:3581   */\n      tag_111\n      tag_112\n      jump\t// in\n    tag_111:\n        /* \"#utility.yul\":3527:3583   */\n    tag_110:\n        /* \"#utility.yul\":3601:3630   */\n      tag_113\n        /* \"#utility.yul\":3623:3629   */\n      dup3\n        /* \"#utility.yul\":3601:3630   */\n      tag_92\n      jump\t// in\n    tag_113:\n        /* \"#utility.yul\":3593:3630   */\n      swap1\n      pop\n        /* \"#utility.yul\":3685:3689   */\n      0x20\n        /* \"#utility.yul\":3679:3683   */\n      dup2\n        /* \"#utility.yul\":3675:3690   */\n      add\n        /* \"#utility.yul\":3667:3690   */\n      swap1\n      pop\n        /* \"#utility.yul\":3389:3697   */\n      swap2\n      swap1\n      pop\n      jump\t// out\n        /* \"#utility.yul\":3703:3802   */\n    tag_86:\n        /* \"#utility.yul\":3755:3761   */\n      0x00\n        /* \"#utility.yul\":3789:3794   */\n      dup2\n        /* \"#utility.yul\":3783:3795   */\n      mload\n        /* \"#utility.yul\":3773:3795   */\n      swap1\n      pop\n        /* \"#utility.yul\":3703:3802   */\n      swap2\n      swap1\n      pop\n      jump\t// out\n        /* \"#utility.yul\":3808:3977   */\n    tag_88:\n        /* \"#utility.yul\":3892:3903   */\n      0x00\n        /* \"#utility.yul\":3926:3932   */\n      dup3\n        /* \"#utility.yul\":3921:3924   */\n      dup3\n        /* \"#utility.yul\":3914:3933   */\n      mstore\n        /* \"#utility.yul\":3966:3970   */\n      0x20\n        /* \"#utility.yul\":3961:3964   */\n      dup3\n        /* \"#utility.yul\":3957:3971   */\n      add\n        /* \"#utility.yul\":3942:3971   */\n      swap1\n      pop\n        /* \"#utility.yul\":3808:3977   */\n      swap3\n      swap2\n      pop\n      pop\n      jump\t// out\n        /* \"#utility.yul\":3983:4079   */\n    tag_82:\n        /* \"#utility.yul\":4020:4027   */\n      0x00\n        /* \"#utility.yul\":4049:4073   */\n      tag_117\n        /* \"#utility.yul\":4067:4072   */\n      dup3\n        /* \"#utility.yul\":4049:4073   */\n      tag_118\n      jump\t// in\n    tag_117:\n        /* \"#utility.yul\":4038:4073   */\n      swap1\n      pop\n        /* \"#utility.yul\":3983:4079   */\n      swap2\n      swap1\n      pop\n      jump\t// out\n        /* \"#utility.yul\":4085:4211   */\n    tag_118:\n        /* \"#utility.yul\":4122:4129   */\n      0x00\n        /* \"#utility.yul\":4162:4204   */\n      0xffffffffffffffffffffffffffffffffffffffff\n        /* \"#utility.yul\":4155:4160   */\n      dup3\n        /* \"#utility.yul\":4151:4205   */\n      and\n        /* \"#utility.yul\":4140:4205   */\n      swap1\n      pop\n        /* \"#utility.yul\":4085:4211   */\n      swap2\n      swap1\n      pop\n      jump\t// out\n        /* \"#utility.yul\":4217:4294   */\n    tag_96:\n        /* \"#utility.yul\":4254:4261   */\n      0x00\n        /* \"#utility.yul\":4283:4288   */\n      dup2\n        /* \"#utility.yul\":4272:4288   */\n      swap1\n      pop\n        /* \"#utility.yul\":4217:4294   */\n      swap2\n      swap1\n      pop\n      jump\t// out\n        /* \"#utility.yul\":4300:4454   */\n    tag_56:\n        /* \"#utility.yul\":4384:4390   */\n      dup3\n        /* \"#utility.yul\":4379:4382   */\n      dup2\n        /* \"#utility.yul\":4374:4377   */\n      dup4\n        /* \"#utility.yul\":4361:4391   */\n      calldatacopy\n        /* \"#utility.yul\":4446:4447   */\n      0x00\n        /* \"#utility.yul\":4437:4443   */\n      dup4\n        /* \"#utility.yul\":4432:4435   */\n      dup4\n        /* \"#utility.yul\":4428:4444   */\n      add\n        /* \"#utility.yul\":4421:4448   */\n      mstore\n        /* \"#utility.yul\":4300:4454   */\n      pop\n      pop\n      pop\n      jump\t// out\n        /* \"#utility.yul\":4460:4767   */\n    tag_90:\n        /* \"#utility.yul\":4528:4529   */\n      0x00\n        /* \"#utility.yul\":4538:4651   */\n    tag_123:\n        /* \"#utility.yul\":4552:4558   */\n      dup4\n        /* \"#utility.yul\":4549:4550   */\n      dup2\n        /* \"#utility.yul\":4546:4559   */\n      lt\n        /* \"#utility.yul\":4538:4651   */\n      iszero\n      tag_125\n      jumpi\n        /* \"#utility.yul\":4637:4638   */\n      dup1\n        /* \"#utility.yul\":4632:4635   */\n      dup3\n        /* \"#utility.yul\":4628:4639   */\n      add\n        /* \"#utility.yul\":4622:4640   */\n      mload\n        /* \"#utility.yul\":4618:4619   */\n      dup2\n        /* \"#utility.yul\":4613:4616   */\n      dup5\n        /* \"#utility.yul\":4609:4620   */\n      add\n        /* \"#utility.yul\":4602:4641   */\n      mstore\n        /* \"#utility.yul\":4574:4576   */\n      0x20\n        /* \"#utility.yul\":4571:4572   */\n      dup2\n        /* \"#utility.yul\":4567:4577   */\n      add\n        /* \"#utility.yul\":4562:4577   */\n      swap1\n      pop\n        /* \"#utility.yul\":4538:4651   */\n      jump(tag_123)\n    tag_125:\n        /* \"#utility.yul\":4669:4675   */\n      dup4\n        /* \"#utility.yul\":4666:4667   */\n      dup2\n        /* \"#utility.yul\":4663:4676   */\n      gt\n        /* \"#utility.yul\":4660:4761   */\n      iszero\n      tag_126\n      jumpi\n        /* \"#utility.yul\":4749:4750   */\n      0x00\n        /* \"#utility.yul\":4740:4746   */\n      dup5\n        /* \"#utility.yul\":4735:4738   */\n      dup5\n        /* \"#utility.yul\":4731:4747   */\n      add\n        /* \"#utility.yul\":4724:4751   */\n      mstore\n        /* \"#utility.yul\":4660:4761   */\n    tag_126:\n        /* \"#utility.yul\":4509:4767   */\n      pop\n        /* \"#utility.yul\":4460:4767   */\n      pop\n      pop\n      pop\n      jump\t// out\n        /* \"#utility.yul\":4773:5093   */\n    tag_26:\n        /* \"#utility.yul\":4817:4823   */\n      0x00\n        /* \"#utility.yul\":4854:4855   */\n      0x02\n        /* \"#utility.yul\":4848:4852   */\n      dup3\n        /* \"#utility.yul\":4844:4856   */\n      div\n        /* \"#utility.yul\":4834:4856   */\n      swap1\n      pop\n        /* \"#utility.yul\":4901:4902   */\n      0x01\n        /* \"#utility.yul\":4895:4899   */\n      dup3\n        /* \"#utility.yul\":4891:4903   */\n      and\n        /* \"#utility.yul\":4922:4940   */\n      dup1\n        /* \"#utility.yul\":4912:4993   */\n      tag_128\n      jumpi\n        /* \"#utility.yul\":4978:4982   */\n      0x7f\n        /* \"#utility.yul\":4970:4976   */\n      dup3\n        /* \"#utility.yul\":4966:4983   */\n      and\n        /* \"#utility.yul\":4956:4983   */\n      swap2\n      pop\n        /* \"#utility.yul\":4912:4993   */\n    tag_128:\n        /* \"#utility.yul\":5040:5042   */\n      0x20\n        /* \"#utility.yul\":5032:5038   */\n      dup3\n        /* \"#utility.yul\":5029:5043   */\n      lt\n        /* \"#utility.yul\":5009:5027   */\n      dup2\n        /* \"#utility.yul\":5006:5044   */\n      eq\n        /* \"#utility.yul\":5003:5087   */\n      iszero\n      tag_129\n      jumpi\n        /* \"#utility.yul\":5059:5077   */\n      tag_130\n      tag_131\n      jump\t// in\n    tag_130:\n        /* \"#utility.yul\":5003:5087   */\n    tag_129:\n        /* \"#utility.yul\":4824:5093   */\n      pop\n        /* \"#utility.yul\":4773:5093   */\n      swap2\n      swap1\n      pop\n      jump\t// out\n        /* \"#utility.yul\":5099:5380   */\n    tag_107:\n        /* \"#utility.yul\":5182:5209   */\n      tag_133\n        /* \"#utility.yul\":5204:5208   */\n      dup3\n        /* \"#utility.yul\":5182:5209   */\n      tag_92\n      jump\t// in\n    tag_133:\n        /* \"#utility.yul\":5174:5180   */\n      dup2\n        /* \"#utility.yul\":5170:5210   */\n      add\n        /* \"#utility.yul\":5312:5318   */\n      dup2\n        /* \"#utility.yul\":5300:5310   */\n      dup2\n        /* \"#utility.yul\":5297:5319   */\n      lt\n        /* \"#utility.yul\":5276:5294   */\n      0xffffffffffffffff\n        /* \"#utility.yul\":5264:5274   */\n      dup3\n        /* \"#utility.yul\":5261:5295   */\n      gt\n        /* \"#utility.yul\":5258:5320   */\n      or\n        /* \"#utility.yul\":5255:5343   */\n      iszero\n      tag_134\n      jumpi\n        /* \"#utility.yul\":5323:5341   */\n      tag_135\n      tag_112\n      jump\t// in\n    tag_135:\n        /* \"#utility.yul\":5255:5343   */\n    tag_134:\n        /* \"#utility.yul\":5363:5373   */\n      dup1\n        /* \"#utility.yul\":5359:5361   */\n      0x40\n        /* \"#utility.yul\":5352:5374   */\n      mstore\n        /* \"#utility.yul\":5142:5380   */\n      pop\n        /* \"#utility.yul\":5099:5380   */\n      pop\n      pop\n      jump\t// out\n        /* \"#utility.yul\":5386:5566   */\n    tag_131:\n        /* \"#utility.yul\":5434:5511   */\n      0x4e487b7100000000000000000000000000000000000000000000000000000000\n        /* \"#utility.yul\":5431:5432   */\n      0x00\n        /* \"#utility.yul\":5424:5512   */\n      mstore\n        /* \"#utility.yul\":5531:5535   */\n      0x22\n        /* \"#utility.yul\":5528:5529   */\n      0x04\n        /* \"#utility.yul\":5521:5536   */\n      mstore\n        /* \"#utility.yul\":5555:5559   */\n      0x24\n        /* \"#utility.yul\":5552:5553   */\n      0x00\n        /* \"#utility.yul\":5545:5560   */\n      revert\n        /* \"#utility.yul\":5572:5752   */\n    tag_112:\n        /* \"#utility.yul\":5620:5697   */\n      0x4e487b7100000000000000000000000000000000000000000000000000000000\n        /* \"#utility.yul\":5617:5618   */\n      0x00\n        /* \"#utility.yul\":5610:5698   */\n      mstore\n        /* \"#utility.yul\":5717:5721   */\n      0x41\n        /* \"#utility.yul\":5714:5715   */\n      0x04\n        /* \"#utility.yul\":5707:5722   */\n      mstore\n        /* \"#utility.yul\":5741:5745   */\n      0x24\n        /* \"#utility.yul\":5738:5739   */\n      0x00\n        /* \"#utility.yul\":5731:5746   */\n      revert\n        /* \"#utility.yul\":5758:5875   */\n    tag_65:\n        /* \"#utility.yul\":5867:5868   */\n      0x00\n        /* \"#utility.yul\":5864:5865   */\n      dup1\n        /* \"#utility.yul\":5857:5869   */\n      revert\n        /* \"#utility.yul\":5881:5998   */\n    tag_54:\n        /* \"#utility.yul\":5990:5991   */\n      0x00\n        /* \"#utility.yul\":5987:5988   */\n      dup1\n        /* \"#utility.yul\":5980:5992   */\n      revert\n        /* \"#utility.yul\":6004:6121   */\n    tag_77:\n        /* \"#utility.yul\":6113:6114   */\n      0x00\n        /* \"#utility.yul\":6110:6111   */\n      dup1\n        /* \"#utility.yul\":6103:6115   */\n      revert\n        /* \"#utility.yul\":6127:6244   */\n    tag_70:\n        /* \"#utility.yul\":6236:6237   */\n      0x00\n        /* \"#utility.yul\":6233:6234   */\n      dup1\n        /* \"#utility.yul\":6226:6238   */\n      revert\n        /* \"#utility.yul\":6250:6352   */\n    tag_92:\n        /* \"#utility.yul\":6291:6297   */\n      0x00\n        /* \"#utility.yul\":6342:6344   */\n      0x1f\n        /* \"#utility.yul\":6338:6345   */\n      not\n        /* \"#utility.yul\":6333:6335   */\n      0x1f\n        /* \"#utility.yul\":6326:6331   */\n      dup4\n        /* \"#utility.yul\":6322:6336   */\n      add\n        /* \"#utility.yul\":6318:6346   */\n      and\n        /* \"#utility.yul\":6308:6346   */\n      swap1\n      pop\n        /* \"#utility.yul\":6250:6352   */\n      swap2\n      swap1\n      pop\n      jump\t// out\n        /* \"#utility.yul\":6358:6480   */\n    tag_60:\n        /* \"#utility.yul\":6431:6455   */\n      tag_144\n        /* \"#utility.yul\":6449:6454   */\n      dup2\n        /* \"#utility.yul\":6431:6455   */\n      tag_82\n      jump\t// in\n    tag_144:\n        /* \"#utility.yul\":6424:6429   */\n      dup2\n        /* \"#utility.yul\":6421:6456   */\n      eq\n        /* \"#utility.yul\":6411:6474   */\n      tag_145\n      jumpi\n        /* \"#utility.yul\":6470:6471   */\n      0x00\n        /* \"#utility.yul\":6467:6468   */\n      dup1\n        /* \"#utility.yul\":6460:6472   */\n      revert\n        /* \"#utility.yul\":6411:6474   */\n    tag_145:\n        /* \"#utility.yul\":6358:6480   */\n      pop\n      jump\t// out\n\n    auxdata: 0xa264697066735822122004342529f636e9d42c29f18394d5d9354b63e56df7096a1275a2c51ee965cba264736f6c63430008070033\n}\n",
				"bytecode": {
					"linkReferences": {},
					"object": "6080604052735b38da6a701c568545dcfcb03fcb875f56beddc46000806101000a81548173ffffffffffffffffffffffffffffffffffffffff021916908373ffffffffffffffffffffffffffffffffffffffff1602179055506040518060400160405280600481526020017f7465737400000000000000000000000000000000000000000000000000000000815250600190805190602001906100a39291906100b6565b503480156100b057600080fd5b506101ba565b8280546100c290610159565b90600052602060002090601f0160209004810192826100e4576000855561012b565b82601f106100fd57805160ff191683800117855561012b565b8280016001018555821561012b579182015b8281111561012a57825182559160200191906001019061010f565b5b509050610138919061013c565b5090565b5b8082111561015557600081600090555060010161013d565b5090565b6000600282049050600182168061017157607f821691505b602082108114156101855761018461018b565b5b50919050565b7f4e487b7100000000000000000000000000000000000000000000000000000000600052602260045260246000fd5b610692806101c96000396000f3fe608060405234801561001057600080fd5b506004361061004c5760003560e01c80635a455c1c14610051578063939a79ac1461006f578063e665b2661461008b578063f8b2cb4f146100a9575b600080fd5b6100596100d9565b6040516100669190610432565b60405180910390f35b61008960048036038101906100849190610377565b610167565b005b6100936101bc565b6040516100a09190610417565b60405180910390f35b6100c360048036038101906100be919061034a565b6101e0565b6040516100d09190610454565b60405180910390f35b600180546100e69061055f565b80601f01602080910402602001604051908101604052809291908181526020018280546101129061055f565b801561015f5780601f106101345761010080835404028352916020019161015f565b820191906000526020600020905b81548152906001019060200180831161014257829003601f168201915b505050505081565b60006040518060400160405280600481526020017f74656d7000000000000000000000000000000000000000000000000000000000815250905081600190805190602001906101b7929190610222565b505050565b60008054906101000a900473ffffffffffffffffffffffffffffffffffffffff1681565b60008060009054906101000a900473ffffffffffffffffffffffffffffffffffffffff1673ffffffffffffffffffffffffffffffffffffffff16319050919050565b82805461022e9061055f565b90600052602060002090601f0160209004810192826102505760008555610297565b82601f1061026957805160ff1916838001178555610297565b82800160010185558215610297579182015b8281111561029657825182559160200191906001019061027b565b5b5090506102a491906102a8565b5090565b5b808211156102c15760008160009055506001016102a9565b5090565b60006102d86102d384610494565b61046f565b9050828152602081018484840111156102f4576102f3610625565b5b6102ff84828561051d565b509392505050565b60008135905061031681610645565b92915050565b600082601f83011261033157610330610620565b5b81356103418482602086016102c5565b91505092915050565b6000602082840312156103605761035f61062f565b5b600061036e84828501610307565b91505092915050565b60006020828403121561038d5761038c61062f565b5b600082013567ffffffffffffffff8111156103ab576103aa61062a565b5b6103b78482850161031c565b91505092915050565b6103c9816104e1565b82525050565b60006103da826104c5565b6103e481856104d0565b93506103f481856020860161052c565b6103fd81610634565b840191505092915050565b61041181610513565b82525050565b600060208201905061042c60008301846103c0565b92915050565b6000602082019050818103600083015261044c81846103cf565b905092915050565b60006020820190506104696000830184610408565b92915050565b600061047961048a565b90506104858282610591565b919050565b6000604051905090565b600067ffffffffffffffff8211156104af576104ae6105f1565b5b6104b882610634565b9050602081019050919050565b600081519050919050565b600082825260208201905092915050565b60006104ec826104f3565b9050919050565b600073ffffffffffffffffffffffffffffffffffffffff82169050919050565b6000819050919050565b82818337600083830152505050565b60005b8381101561054a57808201518184015260208101905061052f565b83811115610559576000848401525b50505050565b6000600282049050600182168061057757607f821691505b6020821081141561058b5761058a6105c2565b5b50919050565b61059a82610634565b810181811067ffffffffffffffff821117156105b9576105b86105f1565b5b80604052505050565b7f4e487b7100000000000000000000000000000000000000000000000000000000600052602260045260246000fd5b7f4e487b7100000000000000000000000000000000000000000000000000000000600052604160045260246000fd5b600080fd5b600080fd5b600080fd5b600080fd5b6000601f19601f8301169050919050565b61064e816104e1565b811461065957600080fd5b5056fea264697066735822122004342529f636e9d42c29f18394d5d9354b63e56df7096a1275a2c51ee965cba264736f6c63430008070033",
					"opcodes": "PUSH1 0x80 PUSH1 0x40 MSTORE PUSH20 0x5B38DA6A701C568545DCFCB03FCB875F56BEDDC4 PUSH1 0x0 DUP1 PUSH2 0x100 EXP DUP2 SLOAD DUP2 PUSH20 0xFFFFFFFFFFFFFFFFFFFFFFFFFFFFFFFFFFFFFFFF MUL NOT AND SWAP1 DUP4 PUSH20 0xFFFFFFFFFFFFFFFFFFFFFFFFFFFFFFFFFFFFFFFF AND MUL OR SWAP1 SSTORE POP PUSH1 0x40 MLOAD DUP1 PUSH1 0x40 ADD PUSH1 0x40 MSTORE DUP1 PUSH1 0x4 DUP2 MSTORE PUSH1 0x20 ADD PUSH32 0x7465737400000000000000000000000000000000000000000000000000000000 DUP2 MSTORE POP PUSH1 0x1 SWAP1 DUP1 MLOAD SWAP1 PUSH1 0x20 ADD SWAP1 PUSH2 0xA3 SWAP3 SWAP2 SWAP1 PUSH2 0xB6 JUMP JUMPDEST POP CALLVALUE DUP1 ISZERO PUSH2 0xB0 JUMPI PUSH1 0x0 DUP1 REVERT JUMPDEST POP PUSH2 0x1BA JUMP JUMPDEST DUP3 DUP1 SLOAD PUSH2 0xC2 SWAP1 PUSH2 0x159 JUMP JUMPDEST SWAP1 PUSH1 0x0 MSTORE PUSH1 0x20 PUSH1 0x0 KECCAK256 SWAP1 PUSH1 0x1F ADD PUSH1 0x20 SWAP1 DIV DUP2 ADD SWAP3 DUP3 PUSH2 0xE4 JUMPI PUSH1 0x0 DUP6 SSTORE PUSH2 0x12B JUMP JUMPDEST DUP3 PUSH1 0x1F LT PUSH2 0xFD JUMPI DUP1 MLOAD PUSH1 0xFF NOT AND DUP4 DUP1 ADD OR DUP6 SSTORE PUSH2 0x12B JUMP JUMPDEST DUP3 DUP1 ADD PUSH1 0x1 ADD DUP6 SSTORE DUP3 ISZERO PUSH2 0x12B JUMPI SWAP2 DUP3 ADD JUMPDEST DUP3 DUP2 GT ISZERO PUSH2 0x12A JUMPI DUP3 MLOAD DUP3 SSTORE SWAP2 PUSH1 0x20 ADD SWAP2 SWAP1 PUSH1 0x1 ADD SWAP1 PUSH2 0x10F JUMP JUMPDEST JUMPDEST POP SWAP1 POP PUSH2 0x138 SWAP2 SWAP1 PUSH2 0x13C JUMP JUMPDEST POP SWAP1 JUMP JUMPDEST JUMPDEST DUP1 DUP3 GT ISZERO PUSH2 0x155 JUMPI PUSH1 0x0 DUP2 PUSH1 0x0 SWAP1 SSTORE POP PUSH1 0x1 ADD PUSH2 0x13D JUMP JUMPDEST POP SWAP1 JUMP JUMPDEST PUSH1 0x0 PUSH1 0x2 DUP3 DIV SWAP1 POP PUSH1 0x1 DUP3 AND DUP1 PUSH2 0x171 JUMPI PUSH1 0x7F DUP3 AND SWAP2 POP JUMPDEST PUSH1 0x20 DUP3 LT DUP2 EQ ISZERO PUSH2 0x185 JUMPI PUSH2 0x184 PUSH2 0x18B JUMP JUMPDEST JUMPDEST POP SWAP2 SWAP1 POP JUMP JUMPDEST PUSH32 0x4E487B7100000000000000000000000000000000000000000000000000000000 PUSH1 0x0 MSTORE PUSH1 0x22 PUSH1 0x4 MSTORE PUSH1 0x24 PUSH1 0x0 REVERT JUMPDEST PUSH2 0x692 DUP1 PUSH2 0x1C9 PUSH1 0x0 CODECOPY PUSH1 0x0 RETURN INVALID PUSH1 0x80 PUSH1 0x40 MSTORE CALLVALUE DUP1 ISZERO PUSH2 0x10 JUMPI PUSH1 0x0 DUP1 REVERT JUMPDEST POP PUSH1 0x4 CALLDATASIZE LT PUSH2 0x4C JUMPI PUSH1 0x0 CALLDATALOAD PUSH1 0xE0 SHR DUP1 PUSH4 0x5A455C1C EQ PUSH2 0x51 JUMPI DUP1 PUSH4 0x939A79AC EQ PUSH2 0x6F JUMPI DUP1 PUSH4 0xE665B266 EQ PUSH2 0x8B JUMPI DUP1 PUSH4 0xF8B2CB4F EQ PUSH2 0xA9 JUMPI JUMPDEST PUSH1 0x0 DUP1 REVERT JUMPDEST PUSH2 0x59 PUSH2 0xD9 JUMP JUMPDEST PUSH1 0x40 MLOAD PUSH2 0x66 SWAP2 SWAP1 PUSH2 0x432 JUMP JUMPDEST PUSH1 0x40 MLOAD DUP1 SWAP2 SUB SWAP1 RETURN JUMPDEST PUSH2 0x89 PUSH1 0x4 DUP1 CALLDATASIZE SUB DUP2 ADD SWAP1 PUSH2 0x84 SWAP2 SWAP1 PUSH2 0x377 JUMP JUMPDEST PUSH2 0x167 JUMP JUMPDEST STOP JUMPDEST PUSH2 0x93 PUSH2 0x1BC JUMP JUMPDEST PUSH1 0x40 MLOAD PUSH2 0xA0 SWAP2 SWAP1 PUSH2 0x417 JUMP JUMPDEST PUSH1 0x40 MLOAD DUP1 SWAP2 SUB SWAP1 RETURN JUMPDEST PUSH2 0xC3 PUSH1 0x4 DUP1 CALLDATASIZE SUB DUP2 ADD SWAP1 PUSH2 0xBE SWAP2 SWAP1 PUSH2 0x34A JUMP JUMPDEST PUSH2 0x1E0 JUMP JUMPDEST PUSH1 0x40 MLOAD PUSH2 0xD0 SWAP2 SWAP1 PUSH2 0x454 JUMP JUMPDEST PUSH1 0x40 MLOAD DUP1 SWAP2 SUB SWAP1 RETURN JUMPDEST PUSH1 0x1 DUP1 SLOAD PUSH2 0xE6 SWAP1 PUSH2 0x55F JUMP JUMPDEST DUP1 PUSH1 0x1F ADD PUSH1 0x20 DUP1 SWAP2 DIV MUL PUSH1 0x20 ADD PUSH1 0x40 MLOAD SWAP1 DUP2 ADD PUSH1 0x40 MSTORE DUP1 SWAP3 SWAP2 SWAP1 DUP2 DUP2 MSTORE PUSH1 0x20 ADD DUP3 DUP1 SLOAD PUSH2 0x112 SWAP1 PUSH2 0x55F JUMP JUMPDEST DUP1 ISZERO PUSH2 0x15F JUMPI DUP1 PUSH1 0x1F LT PUSH2 0x134 JUMPI PUSH2 0x100 DUP1 DUP4 SLOAD DIV MUL DUP4 MSTORE SWAP2 PUSH1 0x20 ADD SWAP2 PUSH2 0x15F JUMP JUMPDEST DUP3 ADD SWAP2 SWAP1 PUSH1 0x0 MSTORE PUSH1 0x20 PUSH1 0x0 KECCAK256 SWAP1 JUMPDEST DUP2 SLOAD DUP2 MSTORE SWAP1 PUSH1 0x1 ADD SWAP1 PUSH1 0x20 ADD DUP1 DUP4 GT PUSH2 0x142 JUMPI DUP3 SWAP1 SUB PUSH1 0x1F AND DUP3 ADD SWAP2 JUMPDEST POP POP POP POP POP DUP2 JUMP JUMPDEST PUSH1 0x0 PUSH1 0x40 MLOAD DUP1 PUSH1 0x40 ADD PUSH1 0x40 MSTORE DUP1 PUSH1 0x4 DUP2 MSTORE PUSH1 0x20 ADD PUSH32 0x74656D7000000000000000000000000000000000000000000000000000000000 DUP2 MSTORE POP SWAP1 POP DUP2 PUSH1 0x1 SWAP1 DUP1 MLOAD SWAP1 PUSH1 0x20 ADD SWAP1 PUSH2 0x1B7 SWAP3 SWAP2 SWAP1 PUSH2 0x222 JUMP JUMPDEST POP POP POP JUMP JUMPDEST PUSH1 0x0 DUP1 SLOAD SWAP1 PUSH2 0x100 EXP SWAP1 DIV PUSH20 0xFFFFFFFFFFFFFFFFFFFFFFFFFFFFFFFFFFFFFFFF AND DUP2 JUMP JUMPDEST PUSH1 0x0 DUP1 PUSH1 0x0 SWAP1 SLOAD SWAP1 PUSH2 0x100 EXP SWAP1 DIV PUSH20 0xFFFFFFFFFFFFFFFFFFFFFFFFFFFFFFFFFFFFFFFF AND PUSH20 0xFFFFFFFFFFFFFFFFFFFFFFFFFFFFFFFFFFFFFFFF AND BALANCE SWAP1 POP SWAP2 SWAP1 POP JUMP JUMPDEST DUP3 DUP1 SLOAD PUSH2 0x22E SWAP1 PUSH2 0x55F JUMP JUMPDEST SWAP1 PUSH1 0x0 MSTORE PUSH1 0x20 PUSH1 0x0 KECCAK256 SWAP1 PUSH1 0x1F ADD PUSH1 0x20 SWAP1 DIV DUP2 ADD SWAP3 DUP3 PUSH2 0x250 JUMPI PUSH1 0x0 DUP6 SSTORE PUSH2 0x297 JUMP JUMPDEST DUP3 PUSH1 0x1F LT PUSH2 0x269 JUMPI DUP1 MLOAD PUSH1 0xFF NOT AND DUP4 DUP1 ADD OR DUP6 SSTORE PUSH2 0x297 JUMP JUMPDEST DUP3 DUP1 ADD PUSH1 0x1 ADD DUP6 SSTORE DUP3 ISZERO PUSH2 0x297 JUMPI SWAP2 DUP3 ADD JUMPDEST DUP3 DUP2 GT ISZERO PUSH2 0x296 JUMPI DUP3 MLOAD DUP3 SSTORE SWAP2 PUSH1 0x20 ADD SWAP2 SWAP1 PUSH1 0x1 ADD SWAP1 PUSH2 0x27B JUMP JUMPDEST JUMPDEST POP SWAP1 POP PUSH2 0x2A4 SWAP2 SWAP1 PUSH2 0x2A8 JUMP JUMPDEST POP SWAP1 JUMP JUMPDEST JUMPDEST DUP1 DUP3 GT ISZERO PUSH2 0x2C1 JUMPI PUSH1 0x0 DUP2 PUSH1 0x0 SWAP1 SSTORE POP PUSH1 0x1 ADD PUSH2 0x2A9 JUMP JUMPDEST POP SWAP1 JUMP JUMPDEST PUSH1 0x0 PUSH2 0x2D8 PUSH2 0x2D3 DUP5 PUSH2 0x494 JUMP JUMPDEST PUSH2 0x46F JUMP JUMPDEST SWAP1 POP DUP3 DUP2 MSTORE PUSH1 0x20 DUP2 ADD DUP5 DUP5 DUP5 ADD GT ISZERO PUSH2 0x2F4 JUMPI PUSH2 0x2F3 PUSH2 0x625 JUMP JUMPDEST JUMPDEST PUSH2 0x2FF DUP5 DUP3 DUP6 PUSH2 0x51D JUMP JUMPDEST POP SWAP4 SWAP3 POP POP POP JUMP JUMPDEST PUSH1 0x0 DUP2 CALLDATALOAD SWAP1 POP PUSH2 0x316 DUP2 PUSH2 0x645 JUMP JUMPDEST SWAP3 SWAP2 POP POP JUMP JUMPDEST PUSH1 0x0 DUP3 PUSH1 0x1F DUP4 ADD SLT PUSH2 0x331 JUMPI PUSH2 0x330 PUSH2 0x620 JUMP JUMPDEST JUMPDEST DUP2 CALLDATALOAD PUSH2 0x341 DUP5 DUP3 PUSH1 0x20 DUP7 ADD PUSH2 0x2C5 JUMP JUMPDEST SWAP2 POP POP SWAP3 SWAP2 POP POP JUMP JUMPDEST PUSH1 0x0 PUSH1 0x20 DUP3 DUP5 SUB SLT ISZERO PUSH2 0x360 JUMPI PUSH2 0x35F PUSH2 0x62F JUMP JUMPDEST JUMPDEST PUSH1 0x0 PUSH2 0x36E DUP5 DUP3 DUP6 ADD PUSH2 0x307 JUMP JUMPDEST SWAP2 POP POP SWAP3 SWAP2 POP POP JUMP JUMPDEST PUSH1 0x0 PUSH1 0x20 DUP3 DUP5 SUB SLT ISZERO PUSH2 0x38D JUMPI PUSH2 0x38C PUSH2 0x62F JUMP JUMPDEST JUMPDEST PUSH1 0x0 DUP3 ADD CALLDATALOAD PUSH8 0xFFFFFFFFFFFFFFFF DUP2 GT ISZERO PUSH2 0x3AB JUMPI PUSH2 0x3AA PUSH2 0x62A JUMP JUMPDEST JUMPDEST PUSH2 0x3B7 DUP5 DUP3 DUP6 ADD PUSH2 0x31C JUMP JUMPDEST SWAP2 POP POP SWAP3 SWAP2 POP POP JUMP JUMPDEST PUSH2 0x3C9 DUP2 PUSH2 0x4E1 JUMP JUMPDEST DUP3 MSTORE POP POP JUMP JUMPDEST PUSH1 0x0 PUSH2 0x3DA DUP3 PUSH2 0x4C5 JUMP JUMPDEST PUSH2 0x3E4 DUP2 DUP6 PUSH2 0x4D0 JUMP JUMPDEST SWAP4 POP PUSH2 0x3F4 DUP2 DUP6 PUSH1 0x20 DUP7 ADD PUSH2 0x52C JUMP JUMPDEST PUSH2 0x3FD DUP2 PUSH2 0x634 JUMP JUMPDEST DUP5 ADD SWAP2 POP POP SWAP3 SWAP2 POP POP JUMP JUMPDEST PUSH2 0x411 DUP2 PUSH2 0x513 JUMP JUMPDEST DUP3 MSTORE POP POP JUMP JUMPDEST PUSH1 0x0 PUSH1 0x20 DUP3 ADD SWAP1 POP PUSH2 0x42C PUSH1 0x0 DUP4 ADD DUP5 PUSH2 0x3C0 JUMP JUMPDEST SWAP3 SWAP2 POP POP JUMP JUMPDEST PUSH1 0x0 PUSH1 0x20 DUP3 ADD SWAP1 POP DUP2 DUP2 SUB PUSH1 0x0 DUP4 ADD MSTORE PUSH2 0x44C DUP2 DUP5 PUSH2 0x3CF JUMP JUMPDEST SWAP1 POP SWAP3 SWAP2 POP POP JUMP JUMPDEST PUSH1 0x0 PUSH1 0x20 DUP3 ADD SWAP1 POP PUSH2 0x469 PUSH1 0x0 DUP4 ADD DUP5 PUSH2 0x408 JUMP JUMPDEST SWAP3 SWAP2 POP POP JUMP JUMPDEST PUSH1 0x0 PUSH2 0x479 PUSH2 0x48A JUMP JUMPDEST SWAP1 POP PUSH2 0x485 DUP3 DUP3 PUSH2 0x591 JUMP JUMPDEST SWAP2 SWAP1 POP JUMP JUMPDEST PUSH1 0x0 PUSH1 0x40 MLOAD SWAP1 POP SWAP1 JUMP JUMPDEST PUSH1 0x0 PUSH8 0xFFFFFFFFFFFFFFFF DUP3 GT ISZERO PUSH2 0x4AF JUMPI PUSH2 0x4AE PUSH2 0x5F1 JUMP JUMPDEST JUMPDEST PUSH2 0x4B8 DUP3 PUSH2 0x634 JUMP JUMPDEST SWAP1 POP PUSH1 0x20 DUP2 ADD SWAP1 POP SWAP2 SWAP1 POP JUMP JUMPDEST PUSH1 0x0 DUP2 MLOAD SWAP1 POP SWAP2 SWAP1 POP JUMP JUMPDEST PUSH1 0x0 DUP3 DUP3 MSTORE PUSH1 0x20 DUP3 ADD SWAP1 POP SWAP3 SWAP2 POP POP JUMP JUMPDEST PUSH1 0x0 PUSH2 0x4EC DUP3 PUSH2 0x4F3 JUMP JUMPDEST SWAP1 POP SWAP2 SWAP1 POP JUMP JUMPDEST PUSH1 0x0 PUSH20 0xFFFFFFFFFFFFFFFFFFFFFFFFFFFFFFFFFFFFFFFF DUP3 AND SWAP1 POP SWAP2 SWAP1 POP JUMP JUMPDEST PUSH1 0x0 DUP2 SWAP1 POP SWAP2 SWAP1 POP JUMP JUMPDEST DUP3 DUP2 DUP4 CALLDATACOPY PUSH1 0x0 DUP4 DUP4 ADD MSTORE POP POP POP JUMP JUMPDEST PUSH1 0x0 JUMPDEST DUP4 DUP2 LT ISZERO PUSH2 0x54A JUMPI DUP1 DUP3 ADD MLOAD DUP2 DUP5 ADD MSTORE PUSH1 0x20 DUP2 ADD SWAP1 POP PUSH2 0x52F JUMP JUMPDEST DUP4 DUP2 GT ISZERO PUSH2 0x559 JUMPI PUSH1 0x0 DUP5 DUP5 ADD MSTORE JUMPDEST POP POP POP POP JUMP JUMPDEST PUSH1 0x0 PUSH1 0x2 DUP3 DIV SWAP1 POP PUSH1 0x1 DUP3 AND DUP1 PUSH2 0x577 JUMPI PUSH1 0x7F DUP3 AND SWAP2 POP JUMPDEST PUSH1 0x20 DUP3 LT DUP2 EQ ISZERO PUSH2 0x58B JUMPI PUSH2 0x58A PUSH2 0x5C2 JUMP JUMPDEST JUMPDEST POP SWAP2 SWAP1 POP JUMP JUMPDEST PUSH2 0x59A DUP3 PUSH2 0x634 JUMP JUMPDEST DUP2 ADD DUP2 DUP2 LT PUSH8 0xFFFFFFFFFFFFFFFF DUP3 GT OR ISZERO PUSH2 0x5B9 JUMPI PUSH2 0x5B8 PUSH2 0x5F1 JUMP JUMPDEST JUMPDEST DUP1 PUSH1 0x40 MSTORE POP POP POP JUMP JUMPDEST PUSH32 0x4E487B7100000000000000000000000000000000000000000000000000000000 PUSH1 0x0 MSTORE PUSH1 0x22 PUSH1 0x4 MSTORE PUSH1 0x24 PUSH1 0x0 REVERT JUMPDEST PUSH32 0x4E487B7100000000000000000000000000000000000000000000000000000000 PUSH1 0x0 MSTORE PUSH1 0x41 PUSH1 0x4 MSTORE PUSH1 0x24 PUSH1 0x0 REVERT JUMPDEST PUSH1 0x0 DUP1 REVERT JUMPDEST PUSH1 0x0 DUP1 REVERT JUMPDEST PUSH1 0x0 DUP1 REVERT JUMPDEST PUSH1 0x0 DUP1 REVERT JUMPDEST PUSH1 0x0 PUSH1 0x1F NOT PUSH1 0x1F DUP4 ADD AND SWAP1 POP SWAP2 SWAP1 POP JUMP JUMPDEST PUSH2 0x64E DUP2 PUSH2 0x4E1 JUMP JUMPDEST DUP2 EQ PUSH2 0x659 JUMPI PUSH1 0x0 DUP1 REVERT JUMPDEST POP JUMP INVALID LOG2 PUSH5 0x6970667358 0x22 SLT KECCAK256 DIV CALLVALUE 0x25 0x29 0xF6 CALLDATASIZE 0xE9 0xD4 0x2C 0x29 CALL DUP4 SWAP5 0xD5 0xD9 CALLDATALOAD 0x4B PUSH4 0xE56DF709 PUSH11 0x1275A2C51EE965CBA26473 PUSH16 0x6C634300080700330000000000000000 "
				},
				"gasEstimates": {
					"creation": {
						"codeDepositCost": "336400",
						"executionCost": "infinite",
						"totalCost": "infinite"
					},
					"external": {
						"demo(string)": "infinite",
						"getBalance(address)": "5437",
						"myAddr()": "2533",
						"myStr()": "infinite"
					}
				},
				"methodIdentifiers": {
					"demo(string)": "939a79ac",
					"getBalance(address)": "f8b2cb4f",
					"myAddr()": "e665b266",
					"myStr()": "5a455c1c"
				}
			},
			"storageLayout": {
				"storage": [
					{
						"astId": 4,
						"contract": "contracts/Tipi_dannih.sol:Demo",
						"label": "myAddr",
						"offset": 0,
						"slot": "0",
						"type": "t_address"
					},
					{
						"astId": 18,
						"contract": "contracts/Tipi_dannih.sol:Demo",
						"label": "myStr",
						"offset": 0,
						"slot": "1",
						"type": "t_string_storage"
					}
				],
				"types": {
					"t_address": {
						"encoding": "inplace",
						"label": "address",
						"numberOfBytes": "20"
					},
					"t_string_storage": {
						"encoding": "bytes",
						"label": "string",
						"numberOfBytes": "32"
					}
				}
			},
			"userdoc": {
				"kind": "user",
				"methods": {},
				"version": 1
			}
		}
	}
}