{
	"contracts/tipi2.sol": {
		"Demo": {
			"abi": [
				{
					"inputs": [
						{
							"internalType": "address",
							"name": "",
							"type": "address"
						}
					],
					"name": "balances",
					"outputs": [
						{
							"internalType": "uint256",
							"name": "totalPayments",
							"type": "uint256"
						}
					],
					"stateMutability": "view",
					"type": "function"
				},
				{
					"inputs": [],
					"name": "currentStatus",
					"outputs": [
						{
							"internalType": "enum Demo.Status",
							"name": "",
							"type": "uint8"
						}
					],
					"stateMutability": "view",
					"type": "function"
				},
				{
					"inputs": [],
					"name": "delivered",
					"outputs": [],
					"stateMutability": "nonpayable",
					"type": "function"
				},
				{
					"inputs": [],
					"name": "firstByte",
					"outputs": [
						{
							"internalType": "bytes1",
							"name": "",
							"type": "bytes1"
						}
					],
					"stateMutability": "view",
					"type": "function"
				},
				{
					"inputs": [],
					"name": "fixedSize",
					"outputs": [],
					"stateMutability": "nonpayable",
					"type": "function"
				},
				{
					"inputs": [
						{
							"internalType": "address",
							"name": "_addr",
							"type": "address"
						},
						{
							"internalType": "uint256",
							"name": "_index",
							"type": "uint256"
						}
					],
					"name": "getPayment",
					"outputs": [
						{
							"components": [
								{
									"internalType": "uint256",
									"name": "amount",
									"type": "uint256"
								},
								{
									"internalType": "uint256",
									"name": "timestamp",
									"type": "uint256"
								},
								{
									"internalType": "address",
									"name": "from",
									"type": "address"
								},
								{
									"internalType": "string",
									"name": "message",
									"type": "string"
								}
							],
							"internalType": "struct Demo.Payment",
							"name": "",
							"type": "tuple"
						}
					],
					"stateMutability": "view",
					"type": "function"
				},
				{
					"inputs": [
						{
							"internalType": "uint256",
							"name": "",
							"type": "uint256"
						},
						{
							"internalType": "uint256",
							"name": "",
							"type": "uint256"
						}
					],
					"name": "items",
					"outputs": [
						{
							"internalType": "uint256",
							"name": "",
							"type": "uint256"
						}
					],
					"stateMutability": "view",
					"type": "function"
				},
				{
					"inputs": [],
					"name": "myDynVar",
					"outputs": [
						{
							"internalType": "bytes",
							"name": "",
							"type": "bytes"
						}
					],
					"stateMutability": "view",
					"type": "function"
				},
				{
					"inputs": [],
					"name": "myVar",
					"outputs": [
						{
							"internalType": "bytes32",
							"name": "",
							"type": "bytes32"
						}
					],
					"stateMutability": "view",
					"type": "function"
				},
				{
					"inputs": [],
					"name": "paid",
					"outputs": [],
					"stateMutability": "nonpayable",
					"type": "function"
				},
				{
					"inputs": [
						{
							"internalType": "string",
							"name": "message",
							"type": "string"
						}
					],
					"name": "pay",
					"outputs": [],
					"stateMutability": "payable",
					"type": "function"
				},
				{
					"inputs": [],
					"name": "sampleMemory",
					"outputs": [
						{
							"internalType": "uint256[]",
							"name": "",
							"type": "uint256[]"
						}
					],
					"stateMutability": "view",
					"type": "function"
				}
			],
			"devdoc": {
				"kind": "dev",
				"methods": {},
				"version": 1
			},
			"evm": {
				"assembly": "    /* \"contracts/tipi2.sol\":62:1823  contract Demo {\r... */\n  mstore(0x40, 0x80)\n    /* \"contracts/tipi2.sol\":724:758  bytes32 public myVar = \"test here\" */\n  sstore(0x07, 0x7465737420686572650000000000000000000000000000000000000000000000)\n    /* \"contracts/tipi2.sol\":774:809  bytes public myDynVar = \"test here\" */\n  mload(0x40)\n  dup1\n  0x40\n  add\n  0x40\n  mstore\n  dup1\n  0x09\n  dup2\n  mstore\n  0x20\n  add\n  0x7465737420686572650000000000000000000000000000000000000000000000\n  dup2\n  mstore\n  pop\n  0x08\n  swap1\n  dup1\n  mload\n  swap1\n  0x20\n  add\n  swap1\n  tag_1\n  swap3\n  swap2\n  swap1\n  tag_2\n  jump\t// in\ntag_1:\n  pop\n    /* \"contracts/tipi2.sol\":62:1823  contract Demo {\r... */\n  callvalue\n  dup1\n  iszero\n  tag_3\n  jumpi\n  0x00\n  dup1\n  revert\ntag_3:\n  pop\n  jump(tag_4)\ntag_2:\n  dup3\n  dup1\n  sload\n  tag_5\n  swap1\n  tag_6\n  jump\t// in\ntag_5:\n  swap1\n  0x00\n  mstore\n  keccak256(0x00, 0x20)\n  swap1\n  0x1f\n  add\n  0x20\n  swap1\n  div\n  dup2\n  add\n  swap3\n  dup3\n  tag_8\n  jumpi\n  0x00\n  dup6\n  sstore\n  jump(tag_7)\ntag_8:\n  dup3\n  0x1f\n  lt\n  tag_9\n  jumpi\n  dup1\n  mload\n  not(0xff)\n  and\n  dup4\n  dup1\n  add\n  or\n  dup6\n  sstore\n  jump(tag_7)\ntag_9:\n  dup3\n  dup1\n  add\n  0x01\n  add\n  dup6\n  sstore\n  dup3\n  iszero\n  tag_7\n  jumpi\n  swap2\n  dup3\n  add\ntag_10:\n  dup3\n  dup2\n  gt\n  iszero\n  tag_11\n  jumpi\n  dup3\n  mload\n  dup3\n  sstore\n  swap2\n  0x20\n  add\n  swap2\n  swap1\n  0x01\n  add\n  swap1\n  jump(tag_10)\ntag_11:\ntag_7:\n  pop\n  swap1\n  pop\n  tag_12\n  swap2\n  swap1\n  tag_13\n  jump\t// in\ntag_12:\n  pop\n  swap1\n  jump\t// out\ntag_13:\ntag_14:\n  dup1\n  dup3\n  gt\n  iszero\n  tag_15\n  jumpi\n  0x00\n  dup2\n  0x00\n  swap1\n  sstore\n  pop\n  0x01\n  add\n  jump(tag_14)\ntag_15:\n  pop\n  swap1\n  jump\t// out\n    /* \"#utility.yul\":7:327   */\ntag_6:\n    /* \"#utility.yul\":51:57   */\n  0x00\n    /* \"#utility.yul\":88:89   */\n  0x02\n    /* \"#utility.yul\":82:86   */\n  dup3\n    /* \"#utility.yul\":78:90   */\n  div\n    /* \"#utility.yul\":68:90   */\n  swap1\n  pop\n    /* \"#utility.yul\":135:136   */\n  0x01\n    /* \"#utility.yul\":129:133   */\n  dup3\n    /* \"#utility.yul\":125:137   */\n  and\n    /* \"#utility.yul\":156:174   */\n  dup1\n    /* \"#utility.yul\":146:227   */\n  tag_18\n  jumpi\n    /* \"#utility.yul\":212:216   */\n  0x7f\n    /* \"#utility.yul\":204:210   */\n  dup3\n    /* \"#utility.yul\":200:217   */\n  and\n    /* \"#utility.yul\":190:217   */\n  swap2\n  pop\n    /* \"#utility.yul\":146:227   */\ntag_18:\n    /* \"#utility.yul\":274:276   */\n  0x20\n    /* \"#utility.yul\":266:272   */\n  dup3\n    /* \"#utility.yul\":263:277   */\n  lt\n    /* \"#utility.yul\":243:261   */\n  dup2\n    /* \"#utility.yul\":240:278   */\n  eq\n    /* \"#utility.yul\":237:321   */\n  iszero\n  tag_19\n  jumpi\n    /* \"#utility.yul\":293:311   */\n  tag_20\n  tag_21\n  jump\t// in\ntag_20:\n    /* \"#utility.yul\":237:321   */\ntag_19:\n    /* \"#utility.yul\":58:327   */\n  pop\n    /* \"#utility.yul\":7:327   */\n  swap2\n  swap1\n  pop\n  jump\t// out\n    /* \"#utility.yul\":333:513   */\ntag_21:\n    /* \"#utility.yul\":381:458   */\n  0x4e487b7100000000000000000000000000000000000000000000000000000000\n    /* \"#utility.yul\":378:379   */\n  0x00\n    /* \"#utility.yul\":371:459   */\n  mstore\n    /* \"#utility.yul\":478:482   */\n  0x22\n    /* \"#utility.yul\":475:476   */\n  0x04\n    /* \"#utility.yul\":468:483   */\n  mstore\n    /* \"#utility.yul\":502:506   */\n  0x24\n    /* \"#utility.yul\":499:500   */\n  0x00\n    /* \"#utility.yul\":492:507   */\n  revert\n    /* \"contracts/tipi2.sol\":62:1823  contract Demo {\r... */\ntag_4:\n  dataSize(sub_0)\n  dup1\n  dataOffset(sub_0)\n  0x00\n  codecopy\n  0x00\n  return\nstop\n\nsub_0: assembly {\n        /* \"contracts/tipi2.sol\":62:1823  contract Demo {\r... */\n      mstore(0x40, 0x80)\n      jumpi(tag_1, lt(calldatasize, 0x04))\n      shr(0xe0, calldataload(0x00))\n      dup1\n      0x977a767c\n      gt\n      tag_14\n      jumpi\n      dup1\n      0x977a767c\n      eq\n      tag_8\n      jumpi\n      dup1\n      0xa34343c9\n      eq\n      tag_9\n      jumpi\n      dup1\n      0xbbdfbfba\n      eq\n      tag_10\n      jumpi\n      dup1\n      0xc6b91540\n      eq\n      tag_11\n      jumpi\n      dup1\n      0xef8a9235\n      eq\n      tag_12\n      jumpi\n      dup1\n      0xffb1e210\n      eq\n      tag_13\n      jumpi\n      jump(tag_1)\n    tag_14:\n      dup1\n      0x27e235e3\n      eq\n      tag_2\n      jumpi\n      dup1\n      0x295b4e17\n      eq\n      tag_3\n      jumpi\n      dup1\n      0x2b66d72e\n      eq\n      tag_4\n      jumpi\n      dup1\n      0x31e838dd\n      eq\n      tag_5\n      jumpi\n      dup1\n      0x654c914f\n      eq\n      tag_6\n      jumpi\n      dup1\n      0x736172d3\n      eq\n      tag_7\n      jumpi\n    tag_1:\n      0x00\n      dup1\n      revert\n        /* \"contracts/tipi2.sol\":1222:1265  mapping(address => Balance) public balances */\n    tag_2:\n      callvalue\n      dup1\n      iszero\n      tag_15\n      jumpi\n      0x00\n      dup1\n      revert\n    tag_15:\n      pop\n      tag_16\n      0x04\n      dup1\n      calldatasize\n      sub\n      dup2\n      add\n      swap1\n      tag_17\n      swap2\n      swap1\n      tag_18\n      jump\t// in\n    tag_17:\n      tag_19\n      jump\t// in\n    tag_16:\n      mload(0x40)\n      tag_20\n      swap2\n      swap1\n      tag_21\n      jump\t// in\n    tag_20:\n      mload(0x40)\n      dup1\n      swap2\n      sub\n      swap1\n      return\n        /* \"contracts/tipi2.sol\":179:248  function paid() public {\r... */\n    tag_3:\n      callvalue\n      dup1\n      iszero\n      tag_22\n      jumpi\n      0x00\n      dup1\n      revert\n    tag_22:\n      pop\n      tag_23\n      tag_24\n      jump\t// in\n    tag_23:\n      stop\n        /* \"contracts/tipi2.sol\":1424:1820  function pay(string memory message) public payable {\r... */\n    tag_4:\n      tag_25\n      0x04\n      dup1\n      calldatasize\n      sub\n      dup2\n      add\n      swap1\n      tag_26\n      swap2\n      swap1\n      tag_27\n      jump\t// in\n    tag_26:\n      tag_28\n      jump\t// in\n    tag_25:\n      stop\n        /* \"contracts/tipi2.sol\":377:400  uint[3][2] public items */\n    tag_5:\n      callvalue\n      dup1\n      iszero\n      tag_29\n      jumpi\n      0x00\n      dup1\n      revert\n    tag_29:\n      pop\n      tag_30\n      0x04\n      dup1\n      calldatasize\n      sub\n      dup2\n      add\n      swap1\n      tag_31\n      swap2\n      swap1\n      tag_32\n      jump\t// in\n    tag_31:\n      tag_33\n      jump\t// in\n    tag_30:\n      mload(0x40)\n      tag_34\n      swap2\n      swap1\n      tag_21\n      jump\t// in\n    tag_34:\n      mload(0x40)\n      dup1\n      swap2\n      sub\n      swap1\n      return\n        /* \"contracts/tipi2.sol\":883:969  function firstByte() public view returns(bytes1) {\r... */\n    tag_6:\n      callvalue\n      dup1\n      iszero\n      tag_35\n      jumpi\n      0x00\n      dup1\n      revert\n    tag_35:\n      pop\n      tag_36\n      tag_37\n      jump\t// in\n    tag_36:\n      mload(0x40)\n      tag_38\n      swap2\n      swap1\n      tag_39\n      jump\t// in\n    tag_38:\n      mload(0x40)\n      dup1\n      swap2\n      sub\n      swap1\n      return\n        /* \"contracts/tipi2.sol\":409:519  function fixedSize() public {\r... */\n    tag_7:\n      callvalue\n      dup1\n      iszero\n      tag_40\n      jumpi\n      0x00\n      dup1\n      revert\n    tag_40:\n      pop\n      tag_41\n      tag_42\n      jump\t// in\n    tag_41:\n      stop\n        /* \"contracts/tipi2.sol\":1274:1416  function getPayment(address _addr, uint _index) public view returns(Payment memory) {\r... */\n    tag_8:\n      callvalue\n      dup1\n      iszero\n      tag_43\n      jumpi\n      0x00\n      dup1\n      revert\n    tag_43:\n      pop\n      tag_44\n      0x04\n      dup1\n      calldatasize\n      sub\n      dup2\n      add\n      swap1\n      tag_45\n      swap2\n      swap1\n      tag_46\n      jump\t// in\n    tag_45:\n      tag_47\n      jump\t// in\n    tag_44:\n      mload(0x40)\n      tag_48\n      swap2\n      swap1\n      tag_49\n      jump\t// in\n    tag_48:\n      mload(0x40)\n      dup1\n      swap2\n      sub\n      swap1\n      return\n        /* \"contracts/tipi2.sol\":531:703  function sampleMemory() public view returns(uint[] memory) {\r... */\n    tag_9:\n      callvalue\n      dup1\n      iszero\n      tag_50\n      jumpi\n      0x00\n      dup1\n      revert\n    tag_50:\n      pop\n      tag_51\n      tag_52\n      jump\t// in\n    tag_51:\n      mload(0x40)\n      tag_53\n      swap2\n      swap1\n      tag_54\n      jump\t// in\n    tag_53:\n      mload(0x40)\n      dup1\n      swap2\n      sub\n      swap1\n      return\n        /* \"contracts/tipi2.sol\":256:335  function delivered() public {\r... */\n    tag_10:\n      callvalue\n      dup1\n      iszero\n      tag_55\n      jumpi\n      0x00\n      dup1\n      revert\n    tag_55:\n      pop\n      tag_56\n      tag_57\n      jump\t// in\n    tag_56:\n      stop\n        /* \"contracts/tipi2.sol\":724:758  bytes32 public myVar = \"test here\" */\n    tag_11:\n      callvalue\n      dup1\n      iszero\n      tag_58\n      jumpi\n      0x00\n      dup1\n      revert\n    tag_58:\n      pop\n      tag_59\n      tag_60\n      jump\t// in\n    tag_59:\n      mload(0x40)\n      tag_61\n      swap2\n      swap1\n      tag_62\n      jump\t// in\n    tag_61:\n      mload(0x40)\n      dup1\n      swap2\n      sub\n      swap1\n      return\n        /* \"contracts/tipi2.sol\":143:170  Status public currentStatus */\n    tag_12:\n      callvalue\n      dup1\n      iszero\n      tag_63\n      jumpi\n      0x00\n      dup1\n      revert\n    tag_63:\n      pop\n      tag_64\n      tag_65\n      jump\t// in\n    tag_64:\n      mload(0x40)\n      tag_66\n      swap2\n      swap1\n      tag_67\n      jump\t// in\n    tag_66:\n      mload(0x40)\n      dup1\n      swap2\n      sub\n      swap1\n      return\n        /* \"contracts/tipi2.sol\":774:809  bytes public myDynVar = \"test here\" */\n    tag_13:\n      callvalue\n      dup1\n      iszero\n      tag_68\n      jumpi\n      0x00\n      dup1\n      revert\n    tag_68:\n      pop\n      tag_69\n      tag_70\n      jump\t// in\n    tag_69:\n      mload(0x40)\n      tag_71\n      swap2\n      swap1\n      tag_72\n      jump\t// in\n    tag_71:\n      mload(0x40)\n      dup1\n      swap2\n      sub\n      swap1\n      return\n        /* \"contracts/tipi2.sol\":1222:1265  mapping(address => Balance) public balances */\n    tag_19:\n      mstore(0x20, 0x09)\n      dup1\n      0x00\n      mstore\n      keccak256(0x00, 0x40)\n      0x00\n      swap2\n      pop\n      swap1\n      pop\n      dup1\n      0x00\n      add\n      sload\n      swap1\n      pop\n      dup2\n      jump\t// out\n        /* \"contracts/tipi2.sol\":179:248  function paid() public {\r... */\n    tag_24:\n        /* \"contracts/tipi2.sol\":229:240  Status.Paid */\n      0x00\n        /* \"contracts/tipi2.sol\":213:226  currentStatus */\n      dup1\n      0x00\n        /* \"contracts/tipi2.sol\":213:240  currentStatus = Status.Paid */\n      0x0100\n      exp\n      dup2\n      sload\n      dup2\n      0xff\n      mul\n      not\n      and\n      swap1\n      dup4\n      0x02\n      dup2\n      gt\n      iszero\n      tag_74\n      jumpi\n      tag_75\n      tag_76\n      jump\t// in\n    tag_75:\n    tag_74:\n      mul\n      or\n      swap1\n      sstore\n      pop\n        /* \"contracts/tipi2.sol\":179:248  function paid() public {\r... */\n      jump\t// out\n        /* \"contracts/tipi2.sol\":1424:1820  function pay(string memory message) public payable {\r... */\n    tag_28:\n        /* \"contracts/tipi2.sol\":1486:1501  uint paymentNum */\n      0x00\n        /* \"contracts/tipi2.sol\":1504:1512  balances */\n      0x09\n        /* \"contracts/tipi2.sol\":1504:1524  balances[msg.sender] */\n      0x00\n        /* \"contracts/tipi2.sol\":1513:1523  msg.sender */\n      caller\n        /* \"contracts/tipi2.sol\":1504:1524  balances[msg.sender] */\n      0xffffffffffffffffffffffffffffffffffffffff\n      and\n      0xffffffffffffffffffffffffffffffffffffffff\n      and\n      dup2\n      mstore\n      0x20\n      add\n      swap1\n      dup2\n      mstore\n      0x20\n      add\n      0x00\n      keccak256\n        /* \"contracts/tipi2.sol\":1504:1538  balances[msg.sender].totalPayments */\n      0x00\n      add\n      sload\n        /* \"contracts/tipi2.sol\":1486:1538  uint paymentNum = balances[msg.sender].totalPayments */\n      swap1\n      pop\n        /* \"contracts/tipi2.sol\":1549:1557  balances */\n      0x09\n        /* \"contracts/tipi2.sol\":1549:1569  balances[msg.sender] */\n      0x00\n        /* \"contracts/tipi2.sol\":1558:1568  msg.sender */\n      caller\n        /* \"contracts/tipi2.sol\":1549:1569  balances[msg.sender] */\n      0xffffffffffffffffffffffffffffffffffffffff\n      and\n      0xffffffffffffffffffffffffffffffffffffffff\n      and\n      dup2\n      mstore\n      0x20\n      add\n      swap1\n      dup2\n      mstore\n      0x20\n      add\n      0x00\n      keccak256\n        /* \"contracts/tipi2.sol\":1549:1583  balances[msg.sender].totalPayments */\n      0x00\n      add\n      0x00\n        /* \"contracts/tipi2.sol\":1549:1585  balances[msg.sender].totalPayments++ */\n      dup2\n      sload\n      dup1\n      swap3\n      swap2\n      swap1\n      tag_78\n      swap1\n      tag_79\n      jump\t// in\n    tag_78:\n      swap2\n      swap1\n      pop\n      sstore\n      pop\n        /* \"contracts/tipi2.sol\":1598:1623  Payment memory newPayment */\n      0x00\n        /* \"contracts/tipi2.sol\":1626:1745  Payment(\r... */\n      mload(0x40)\n      dup1\n      0x80\n      add\n      0x40\n      mstore\n      dup1\n        /* \"contracts/tipi2.sol\":1648:1657  msg.value */\n      callvalue\n        /* \"contracts/tipi2.sol\":1626:1745  Payment(\r... */\n      dup2\n      mstore\n      0x20\n      add\n        /* \"contracts/tipi2.sol\":1672:1687  block.timestamp */\n      timestamp\n        /* \"contracts/tipi2.sol\":1626:1745  Payment(\r... */\n      dup2\n      mstore\n      0x20\n      add\n        /* \"contracts/tipi2.sol\":1702:1712  msg.sender */\n      caller\n        /* \"contracts/tipi2.sol\":1626:1745  Payment(\r... */\n      0xffffffffffffffffffffffffffffffffffffffff\n      and\n      dup2\n      mstore\n      0x20\n      add\n        /* \"contracts/tipi2.sol\":1727:1734  message */\n      dup5\n        /* \"contracts/tipi2.sol\":1626:1745  Payment(\r... */\n      dup2\n      mstore\n      pop\n        /* \"contracts/tipi2.sol\":1598:1745  Payment memory newPayment = Payment(\r... */\n      swap1\n      pop\n        /* \"contracts/tipi2.sol\":1802:1812  newPayment */\n      dup1\n        /* \"contracts/tipi2.sol\":1758:1766  balances */\n      0x09\n        /* \"contracts/tipi2.sol\":1758:1778  balances[msg.sender] */\n      0x00\n        /* \"contracts/tipi2.sol\":1767:1777  msg.sender */\n      caller\n        /* \"contracts/tipi2.sol\":1758:1778  balances[msg.sender] */\n      0xffffffffffffffffffffffffffffffffffffffff\n      and\n      0xffffffffffffffffffffffffffffffffffffffff\n      and\n      dup2\n      mstore\n      0x20\n      add\n      swap1\n      dup2\n      mstore\n      0x20\n      add\n      0x00\n      keccak256\n        /* \"contracts/tipi2.sol\":1758:1787  balances[msg.sender].payments */\n      0x01\n      add\n        /* \"contracts/tipi2.sol\":1758:1799  balances[msg.sender].payments[paymentNum] */\n      0x00\n        /* \"contracts/tipi2.sol\":1788:1798  paymentNum */\n      dup5\n        /* \"contracts/tipi2.sol\":1758:1799  balances[msg.sender].payments[paymentNum] */\n      dup2\n      mstore\n      0x20\n      add\n      swap1\n      dup2\n      mstore\n      0x20\n      add\n      0x00\n      keccak256\n        /* \"contracts/tipi2.sol\":1758:1812  balances[msg.sender].payments[paymentNum] = newPayment */\n      0x00\n      dup3\n      add\n      mload\n      dup2\n      0x00\n      add\n      sstore\n      0x20\n      dup3\n      add\n      mload\n      dup2\n      0x01\n      add\n      sstore\n      0x40\n      dup3\n      add\n      mload\n      dup2\n      0x02\n      add\n      exp(0x0100, 0x00)\n      dup2\n      sload\n      dup2\n      0xffffffffffffffffffffffffffffffffffffffff\n      mul\n      not\n      and\n      swap1\n      dup4\n      0xffffffffffffffffffffffffffffffffffffffff\n      and\n      mul\n      or\n      swap1\n      sstore\n      pop\n      0x60\n      dup3\n      add\n      mload\n      dup2\n      0x03\n      add\n      swap1\n      dup1\n      mload\n      swap1\n      0x20\n      add\n      swap1\n      tag_80\n      swap3\n      swap2\n      swap1\n      tag_81\n      jump\t// in\n    tag_80:\n      pop\n      swap1\n      pop\n      pop\n        /* \"contracts/tipi2.sol\":1475:1820  {\r... */\n      pop\n      pop\n        /* \"contracts/tipi2.sol\":1424:1820  function pay(string memory message) public payable {\r... */\n      pop\n      jump\t// out\n        /* \"contracts/tipi2.sol\":377:400  uint[3][2] public items */\n    tag_33:\n      0x01\n      dup3\n      0x02\n      dup2\n      lt\n      tag_82\n      jumpi\n      0x00\n      dup1\n      revert\n    tag_82:\n      0x03\n      mul\n      add\n      dup2\n      0x03\n      dup2\n      lt\n      tag_84\n      jumpi\n      0x00\n      dup1\n      revert\n    tag_84:\n      add\n      0x00\n      swap2\n      pop\n      swap2\n      pop\n      pop\n      sload\n      dup2\n      jump\t// out\n        /* \"contracts/tipi2.sol\":883:969  function firstByte() public view returns(bytes1) {\r... */\n    tag_37:\n        /* \"contracts/tipi2.sol\":924:930  bytes1 */\n      0x00\n        /* \"contracts/tipi2.sol\":950:958  myDynVar */\n      0x08\n        /* \"contracts/tipi2.sol\":959:960  0 */\n      0x00\n        /* \"contracts/tipi2.sol\":950:961  myDynVar[0] */\n      dup2\n      sload\n      tag_87\n      swap1\n      tag_88\n      jump\t// in\n    tag_87:\n      dup2\n      lt\n      tag_89\n      jumpi\n      tag_90\n      tag_91\n      jump\t// in\n    tag_90:\n    tag_89:\n      dup2\n      sload\n      0x01\n      and\n      iszero\n      tag_92\n      jumpi\n      swap1\n      0x00\n      mstore\n      keccak256(0x00, 0x20)\n      swap1\n      0x20\n      swap2\n      dup3\n      dup3\n      div\n      add\n      swap2\n      swap1\n      mod\n    tag_92:\n      swap1\n      sload\n      swap1\n      byte\n      0x0100000000000000000000000000000000000000000000000000000000000000\n      mul\n        /* \"contracts/tipi2.sol\":943:961  return myDynVar[0] */\n      swap1\n      pop\n        /* \"contracts/tipi2.sol\":883:969  function firstByte() public view returns(bytes1) {\r... */\n      swap1\n      jump\t// out\n        /* \"contracts/tipi2.sol\":409:519  function fixedSize() public {\r... */\n    tag_42:\n        /* \"contracts/tipi2.sol\":448:511  items = [\r... */\n      mload(0x40)\n      dup1\n      0x40\n      add\n      0x40\n      mstore\n      dup1\n      mload(0x40)\n      dup1\n      0x60\n      add\n      0x40\n      mstore\n      dup1\n        /* \"contracts/tipi2.sol\":472:473  3 */\n      0x03\n        /* \"contracts/tipi2.sol\":448:511  items = [\r... */\n      0xff\n      and\n      dup2\n      mstore\n      0x20\n      add\n        /* \"contracts/tipi2.sol\":474:475  4 */\n      0x04\n        /* \"contracts/tipi2.sol\":448:511  items = [\r... */\n      0xff\n      and\n      dup2\n      mstore\n      0x20\n      add\n        /* \"contracts/tipi2.sol\":476:477  5 */\n      0x05\n        /* \"contracts/tipi2.sol\":448:511  items = [\r... */\n      0xff\n      and\n      dup2\n      mstore\n      pop\n      dup2\n      mstore\n      0x20\n      add\n      mload(0x40)\n      dup1\n      0x60\n      add\n      0x40\n      mstore\n      dup1\n        /* \"contracts/tipi2.sol\":494:495  6 */\n      0x06\n        /* \"contracts/tipi2.sol\":448:511  items = [\r... */\n      0xff\n      and\n      dup2\n      mstore\n      0x20\n      add\n        /* \"contracts/tipi2.sol\":496:497  7 */\n      0x07\n        /* \"contracts/tipi2.sol\":448:511  items = [\r... */\n      0xff\n      and\n      dup2\n      mstore\n      0x20\n      add\n        /* \"contracts/tipi2.sol\":498:499  8 */\n      0x08\n        /* \"contracts/tipi2.sol\":448:511  items = [\r... */\n      0xff\n      and\n      dup2\n      mstore\n      pop\n      dup2\n      mstore\n      pop\n        /* \"contracts/tipi2.sol\":448:453  items */\n      0x01\n        /* \"contracts/tipi2.sol\":448:511  items = [\r... */\n      swap1\n      0x02\n      tag_94\n      swap3\n      swap2\n      swap1\n      tag_95\n      jump\t// in\n    tag_94:\n      pop\n        /* \"contracts/tipi2.sol\":409:519  function fixedSize() public {\r... */\n      jump\t// out\n        /* \"contracts/tipi2.sol\":1274:1416  function getPayment(address _addr, uint _index) public view returns(Payment memory) {\r... */\n    tag_47:\n        /* \"contracts/tipi2.sol\":1342:1356  Payment memory */\n      tag_96\n      tag_97\n      jump\t// in\n    tag_96:\n        /* \"contracts/tipi2.sol\":1376:1384  balances */\n      0x09\n        /* \"contracts/tipi2.sol\":1376:1391  balances[_addr] */\n      0x00\n        /* \"contracts/tipi2.sol\":1385:1390  _addr */\n      dup5\n        /* \"contracts/tipi2.sol\":1376:1391  balances[_addr] */\n      0xffffffffffffffffffffffffffffffffffffffff\n      and\n      0xffffffffffffffffffffffffffffffffffffffff\n      and\n      dup2\n      mstore\n      0x20\n      add\n      swap1\n      dup2\n      mstore\n      0x20\n      add\n      0x00\n      keccak256\n        /* \"contracts/tipi2.sol\":1376:1400  balances[_addr].payments */\n      0x01\n      add\n        /* \"contracts/tipi2.sol\":1376:1408  balances[_addr].payments[_index] */\n      0x00\n        /* \"contracts/tipi2.sol\":1401:1407  _index */\n      dup4\n        /* \"contracts/tipi2.sol\":1376:1408  balances[_addr].payments[_index] */\n      dup2\n      mstore\n      0x20\n      add\n      swap1\n      dup2\n      mstore\n      0x20\n      add\n      0x00\n      keccak256\n        /* \"contracts/tipi2.sol\":1369:1408  return balances[_addr].payments[_index] */\n      mload(0x40)\n      dup1\n      0x80\n      add\n      0x40\n      mstore\n      swap1\n      dup2\n      0x00\n      dup3\n      add\n      sload\n      dup2\n      mstore\n      0x20\n      add\n      0x01\n      dup3\n      add\n      sload\n      dup2\n      mstore\n      0x20\n      add\n      0x02\n      dup3\n      add\n      0x00\n      swap1\n      sload\n      swap1\n      0x0100\n      exp\n      swap1\n      div\n      0xffffffffffffffffffffffffffffffffffffffff\n      and\n      0xffffffffffffffffffffffffffffffffffffffff\n      and\n      0xffffffffffffffffffffffffffffffffffffffff\n      and\n      dup2\n      mstore\n      0x20\n      add\n      0x03\n      dup3\n      add\n      dup1\n      sload\n      tag_99\n      swap1\n      tag_88\n      jump\t// in\n    tag_99:\n      dup1\n      0x1f\n      add\n      0x20\n      dup1\n      swap2\n      div\n      mul\n      0x20\n      add\n      mload(0x40)\n      swap1\n      dup2\n      add\n      0x40\n      mstore\n      dup1\n      swap3\n      swap2\n      swap1\n      dup2\n      dup2\n      mstore\n      0x20\n      add\n      dup3\n      dup1\n      sload\n      tag_100\n      swap1\n      tag_88\n      jump\t// in\n    tag_100:\n      dup1\n      iszero\n      tag_101\n      jumpi\n      dup1\n      0x1f\n      lt\n      tag_102\n      jumpi\n      0x0100\n      dup1\n      dup4\n      sload\n      div\n      mul\n      dup4\n      mstore\n      swap2\n      0x20\n      add\n      swap2\n      jump(tag_101)\n    tag_102:\n      dup3\n      add\n      swap2\n      swap1\n      0x00\n      mstore\n      keccak256(0x00, 0x20)\n      swap1\n    tag_103:\n      dup2\n      sload\n      dup2\n      mstore\n      swap1\n      0x01\n      add\n      swap1\n      0x20\n      add\n      dup1\n      dup4\n      gt\n      tag_103\n      jumpi\n      dup3\n      swap1\n      sub\n      0x1f\n      and\n      dup3\n      add\n      swap2\n    tag_101:\n      pop\n      pop\n      pop\n      pop\n      pop\n      dup2\n      mstore\n      pop\n      pop\n      swap1\n      pop\n        /* \"contracts/tipi2.sol\":1274:1416  function getPayment(address _addr, uint _index) public view returns(Payment memory) {\r... */\n      swap3\n      swap2\n      pop\n      pop\n      jump\t// out\n        /* \"contracts/tipi2.sol\":531:703  function sampleMemory() public view returns(uint[] memory) {\r... */\n    tag_52:\n        /* \"contracts/tipi2.sol\":575:588  uint[] memory */\n      0x60\n        /* \"contracts/tipi2.sol\":601:624  uint[] memory tempArray */\n      0x00\n        /* \"contracts/tipi2.sol\":638:640  10 */\n      0x0a\n        /* \"contracts/tipi2.sol\":627:641  new uint[](10) */\n      0xffffffffffffffff\n      dup2\n      gt\n      iszero\n      tag_105\n      jumpi\n      tag_106\n      tag_107\n      jump\t// in\n    tag_106:\n    tag_105:\n      mload(0x40)\n      swap1\n      dup1\n      dup3\n      mstore\n      dup1\n      0x20\n      mul\n      0x20\n      add\n      dup3\n      add\n      0x40\n      mstore\n      dup1\n      iszero\n      tag_108\n      jumpi\n      dup2\n      0x20\n      add\n      0x20\n      dup3\n      mul\n      dup1\n      calldatasize\n      dup4\n      calldatacopy\n      dup1\n      dup3\n      add\n      swap2\n      pop\n      pop\n      swap1\n      pop\n    tag_108:\n      pop\n        /* \"contracts/tipi2.sol\":601:641  uint[] memory tempArray = new uint[](10) */\n      swap1\n      pop\n        /* \"contracts/tipi2.sol\":667:668  1 */\n      0x01\n        /* \"contracts/tipi2.sol\":652:661  tempArray */\n      dup2\n        /* \"contracts/tipi2.sol\":662:663  0 */\n      0x00\n        /* \"contracts/tipi2.sol\":652:664  tempArray[0] */\n      dup2\n      mload\n      dup2\n      lt\n      tag_109\n      jumpi\n      tag_110\n      tag_91\n      jump\t// in\n    tag_110:\n    tag_109:\n      0x20\n      mul\n      0x20\n      add\n      add\n        /* \"contracts/tipi2.sol\":652:668  tempArray[0] = 1 */\n      dup2\n      dup2\n      mstore\n      pop\n      pop\n        /* \"contracts/tipi2.sol\":686:695  tempArray */\n      dup1\n        /* \"contracts/tipi2.sol\":679:695  return tempArray */\n      swap2\n      pop\n      pop\n        /* \"contracts/tipi2.sol\":531:703  function sampleMemory() public view returns(uint[] memory) {\r... */\n      swap1\n      jump\t// out\n        /* \"contracts/tipi2.sol\":256:335  function delivered() public {\r... */\n    tag_57:\n        /* \"contracts/tipi2.sol\":311:327  Status.Delivered */\n      0x01\n        /* \"contracts/tipi2.sol\":295:308  currentStatus */\n      0x00\n      dup1\n        /* \"contracts/tipi2.sol\":295:327  currentStatus = Status.Delivered */\n      0x0100\n      exp\n      dup2\n      sload\n      dup2\n      0xff\n      mul\n      not\n      and\n      swap1\n      dup4\n      0x02\n      dup2\n      gt\n      iszero\n      tag_112\n      jumpi\n      tag_113\n      tag_76\n      jump\t// in\n    tag_113:\n    tag_112:\n      mul\n      or\n      swap1\n      sstore\n      pop\n        /* \"contracts/tipi2.sol\":256:335  function delivered() public {\r... */\n      jump\t// out\n        /* \"contracts/tipi2.sol\":724:758  bytes32 public myVar = \"test here\" */\n    tag_60:\n      sload(0x07)\n      dup2\n      jump\t// out\n        /* \"contracts/tipi2.sol\":143:170  Status public currentStatus */\n    tag_65:\n      0x00\n      dup1\n      sload\n      swap1\n      0x0100\n      exp\n      swap1\n      div\n      0xff\n      and\n      dup2\n      jump\t// out\n        /* \"contracts/tipi2.sol\":774:809  bytes public myDynVar = \"test here\" */\n    tag_70:\n      0x08\n      dup1\n      sload\n      tag_114\n      swap1\n      tag_88\n      jump\t// in\n    tag_114:\n      dup1\n      0x1f\n      add\n      0x20\n      dup1\n      swap2\n      div\n      mul\n      0x20\n      add\n      mload(0x40)\n      swap1\n      dup2\n      add\n      0x40\n      mstore\n      dup1\n      swap3\n      swap2\n      swap1\n      dup2\n      dup2\n      mstore\n      0x20\n      add\n      dup3\n      dup1\n      sload\n      tag_115\n      swap1\n      tag_88\n      jump\t// in\n    tag_115:\n      dup1\n      iszero\n      tag_116\n      jumpi\n      dup1\n      0x1f\n      lt\n      tag_117\n      jumpi\n      0x0100\n      dup1\n      dup4\n      sload\n      div\n      mul\n      dup4\n      mstore\n      swap2\n      0x20\n      add\n      swap2\n      jump(tag_116)\n    tag_117:\n      dup3\n      add\n      swap2\n      swap1\n      0x00\n      mstore\n      keccak256(0x00, 0x20)\n      swap1\n    tag_118:\n      dup2\n      sload\n      dup2\n      mstore\n      swap1\n      0x01\n      add\n      swap1\n      0x20\n      add\n      dup1\n      dup4\n      gt\n      tag_118\n      jumpi\n      dup3\n      swap1\n      sub\n      0x1f\n      and\n      dup3\n      add\n      swap2\n    tag_116:\n      pop\n      pop\n      pop\n      pop\n      pop\n      dup2\n      jump\t// out\n    tag_81:\n      dup3\n      dup1\n      sload\n      tag_119\n      swap1\n      tag_88\n      jump\t// in\n    tag_119:\n      swap1\n      0x00\n      mstore\n      keccak256(0x00, 0x20)\n      swap1\n      0x1f\n      add\n      0x20\n      swap1\n      div\n      dup2\n      add\n      swap3\n      dup3\n      tag_121\n      jumpi\n      0x00\n      dup6\n      sstore\n      jump(tag_120)\n    tag_121:\n      dup3\n      0x1f\n      lt\n      tag_122\n      jumpi\n      dup1\n      mload\n      not(0xff)\n      and\n      dup4\n      dup1\n      add\n      or\n      dup6\n      sstore\n      jump(tag_120)\n    tag_122:\n      dup3\n      dup1\n      add\n      0x01\n      add\n      dup6\n      sstore\n      dup3\n      iszero\n      tag_120\n      jumpi\n      swap2\n      dup3\n      add\n    tag_123:\n      dup3\n      dup2\n      gt\n      iszero\n      tag_124\n      jumpi\n      dup3\n      mload\n      dup3\n      sstore\n      swap2\n      0x20\n      add\n      swap2\n      swap1\n      0x01\n      add\n      swap1\n      jump(tag_123)\n    tag_124:\n    tag_120:\n      pop\n      swap1\n      pop\n      tag_125\n      swap2\n      swap1\n      tag_126\n      jump\t// in\n    tag_125:\n      pop\n      swap1\n      jump\t// out\n    tag_95:\n      dup3\n      mul(0x03, 0x02)\n      dup2\n      add\n      swap3\n      dup3\n      iszero\n      tag_127\n      jumpi\n      swap2\n      0x20\n      mul\n      dup3\n      add\n    tag_128:\n      dup3\n      dup2\n      gt\n      iszero\n      tag_129\n      jumpi\n      dup3\n      mload\n      dup3\n      swap1\n      0x03\n      tag_130\n      swap3\n      swap2\n      swap1\n      tag_131\n      jump\t// in\n    tag_130:\n      pop\n      swap2\n      0x20\n      add\n      swap2\n      swap1\n      0x03\n      add\n      swap1\n      jump(tag_128)\n    tag_129:\n    tag_127:\n      pop\n      swap1\n      pop\n      tag_132\n      swap2\n      swap1\n      tag_133\n      jump\t// in\n    tag_132:\n      pop\n      swap1\n      jump\t// out\n    tag_97:\n      mload(0x40)\n      dup1\n      0x80\n      add\n      0x40\n      mstore\n      dup1\n      0x00\n      dup2\n      mstore\n      0x20\n      add\n      0x00\n      dup2\n      mstore\n      0x20\n      add\n      and(0xffffffffffffffffffffffffffffffffffffffff, 0x00)\n      dup2\n      mstore\n      0x20\n      add\n      0x60\n      dup2\n      mstore\n      pop\n      swap1\n      jump\t// out\n    tag_126:\n    tag_134:\n      dup1\n      dup3\n      gt\n      iszero\n      tag_135\n      jumpi\n      0x00\n      dup2\n      0x00\n      swap1\n      sstore\n      pop\n      0x01\n      add\n      jump(tag_134)\n    tag_135:\n      pop\n      swap1\n      jump\t// out\n    tag_131:\n      dup3\n      0x03\n      dup2\n      add\n      swap3\n      dup3\n      iszero\n      tag_136\n      jumpi\n      swap2\n      0x20\n      mul\n      dup3\n      add\n    tag_137:\n      dup3\n      dup2\n      gt\n      iszero\n      tag_138\n      jumpi\n      dup3\n      mload\n      dup3\n      swap1\n      0xff\n      and\n      swap1\n      sstore\n      swap2\n      0x20\n      add\n      swap2\n      swap1\n      0x01\n      add\n      swap1\n      jump(tag_137)\n    tag_138:\n    tag_136:\n      pop\n      swap1\n      pop\n      tag_139\n      swap2\n      swap1\n      tag_126\n      jump\t// in\n    tag_139:\n      pop\n      swap1\n      jump\t// out\n    tag_133:\n    tag_140:\n      dup1\n      dup3\n      gt\n      iszero\n      tag_141\n      jumpi\n      0x00\n      dup2\n      dup2\n      tag_142\n      swap2\n      swap1\n      tag_143\n      jump\t// in\n    tag_142:\n      pop\n      0x03\n      add\n      jump(tag_140)\n    tag_141:\n      pop\n      swap1\n      jump\t// out\n    tag_143:\n      pop\n      0x00\n      dup2\n      sstore\n      0x01\n      add\n      0x00\n      dup2\n      sstore\n      0x01\n      add\n      0x00\n      swap1\n      sstore\n      jump\t// out\n        /* \"#utility.yul\":7:419   */\n    tag_145:\n        /* \"#utility.yul\":85:90   */\n      0x00\n        /* \"#utility.yul\":110:176   */\n      tag_147\n        /* \"#utility.yul\":126:175   */\n      tag_148\n        /* \"#utility.yul\":168:174   */\n      dup5\n        /* \"#utility.yul\":126:175   */\n      tag_149\n      jump\t// in\n    tag_148:\n        /* \"#utility.yul\":110:176   */\n      tag_150\n      jump\t// in\n    tag_147:\n        /* \"#utility.yul\":101:176   */\n      swap1\n      pop\n        /* \"#utility.yul\":199:205   */\n      dup3\n        /* \"#utility.yul\":192:197   */\n      dup2\n        /* \"#utility.yul\":185:206   */\n      mstore\n        /* \"#utility.yul\":237:241   */\n      0x20\n        /* \"#utility.yul\":230:235   */\n      dup2\n        /* \"#utility.yul\":226:242   */\n      add\n        /* \"#utility.yul\":275:278   */\n      dup5\n        /* \"#utility.yul\":266:272   */\n      dup5\n        /* \"#utility.yul\":261:264   */\n      dup5\n        /* \"#utility.yul\":257:273   */\n      add\n        /* \"#utility.yul\":254:279   */\n      gt\n        /* \"#utility.yul\":251:363   */\n      iszero\n      tag_151\n      jumpi\n        /* \"#utility.yul\":282:361   */\n      tag_152\n      tag_153\n      jump\t// in\n    tag_152:\n        /* \"#utility.yul\":251:363   */\n    tag_151:\n        /* \"#utility.yul\":372:413   */\n      tag_154\n        /* \"#utility.yul\":406:412   */\n      dup5\n        /* \"#utility.yul\":401:404   */\n      dup3\n        /* \"#utility.yul\":396:399   */\n      dup6\n        /* \"#utility.yul\":372:413   */\n      tag_155\n      jump\t// in\n    tag_154:\n        /* \"#utility.yul\":91:419   */\n      pop\n        /* \"#utility.yul\":7:419   */\n      swap4\n      swap3\n      pop\n      pop\n      pop\n      jump\t// out\n        /* \"#utility.yul\":425:564   */\n    tag_156:\n        /* \"#utility.yul\":471:476   */\n      0x00\n        /* \"#utility.yul\":509:515   */\n      dup2\n        /* \"#utility.yul\":496:516   */\n      calldataload\n        /* \"#utility.yul\":487:516   */\n      swap1\n      pop\n        /* \"#utility.yul\":525:558   */\n      tag_158\n        /* \"#utility.yul\":552:557   */\n      dup2\n        /* \"#utility.yul\":525:558   */\n      tag_159\n      jump\t// in\n    tag_158:\n        /* \"#utility.yul\":425:564   */\n      swap3\n      swap2\n      pop\n      pop\n      jump\t// out\n        /* \"#utility.yul\":584:924   */\n    tag_160:\n        /* \"#utility.yul\":640:645   */\n      0x00\n        /* \"#utility.yul\":689:692   */\n      dup3\n        /* \"#utility.yul\":682:686   */\n      0x1f\n        /* \"#utility.yul\":674:680   */\n      dup4\n        /* \"#utility.yul\":670:687   */\n      add\n        /* \"#utility.yul\":666:693   */\n      slt\n        /* \"#utility.yul\":656:778   */\n      tag_162\n      jumpi\n        /* \"#utility.yul\":697:776   */\n      tag_163\n      tag_164\n      jump\t// in\n    tag_163:\n        /* \"#utility.yul\":656:778   */\n    tag_162:\n        /* \"#utility.yul\":814:820   */\n      dup2\n        /* \"#utility.yul\":801:821   */\n      calldataload\n        /* \"#utility.yul\":839:918   */\n      tag_165\n        /* \"#utility.yul\":914:917   */\n      dup5\n        /* \"#utility.yul\":906:912   */\n      dup3\n        /* \"#utility.yul\":899:903   */\n      0x20\n        /* \"#utility.yul\":891:897   */\n      dup7\n        /* \"#utility.yul\":887:904   */\n      add\n        /* \"#utility.yul\":839:918   */\n      tag_145\n      jump\t// in\n    tag_165:\n        /* \"#utility.yul\":830:918   */\n      swap2\n      pop\n        /* \"#utility.yul\":646:924   */\n      pop\n        /* \"#utility.yul\":584:924   */\n      swap3\n      swap2\n      pop\n      pop\n      jump\t// out\n        /* \"#utility.yul\":930:1069   */\n    tag_166:\n        /* \"#utility.yul\":976:981   */\n      0x00\n        /* \"#utility.yul\":1014:1020   */\n      dup2\n        /* \"#utility.yul\":1001:1021   */\n      calldataload\n        /* \"#utility.yul\":992:1021   */\n      swap1\n      pop\n        /* \"#utility.yul\":1030:1063   */\n      tag_168\n        /* \"#utility.yul\":1057:1062   */\n      dup2\n        /* \"#utility.yul\":1030:1063   */\n      tag_169\n      jump\t// in\n    tag_168:\n        /* \"#utility.yul\":930:1069   */\n      swap3\n      swap2\n      pop\n      pop\n      jump\t// out\n        /* \"#utility.yul\":1075:1404   */\n    tag_18:\n        /* \"#utility.yul\":1134:1140   */\n      0x00\n        /* \"#utility.yul\":1183:1185   */\n      0x20\n        /* \"#utility.yul\":1171:1180   */\n      dup3\n        /* \"#utility.yul\":1162:1169   */\n      dup5\n        /* \"#utility.yul\":1158:1181   */\n      sub\n        /* \"#utility.yul\":1154:1186   */\n      slt\n        /* \"#utility.yul\":1151:1270   */\n      iszero\n      tag_171\n      jumpi\n        /* \"#utility.yul\":1189:1268   */\n      tag_172\n      tag_173\n      jump\t// in\n    tag_172:\n        /* \"#utility.yul\":1151:1270   */\n    tag_171:\n        /* \"#utility.yul\":1309:1310   */\n      0x00\n        /* \"#utility.yul\":1334:1387   */\n      tag_174\n        /* \"#utility.yul\":1379:1386   */\n      dup5\n        /* \"#utility.yul\":1370:1376   */\n      dup3\n        /* \"#utility.yul\":1359:1368   */\n      dup6\n        /* \"#utility.yul\":1355:1377   */\n      add\n        /* \"#utility.yul\":1334:1387   */\n      tag_156\n      jump\t// in\n    tag_174:\n        /* \"#utility.yul\":1324:1387   */\n      swap2\n      pop\n        /* \"#utility.yul\":1280:1397   */\n      pop\n        /* \"#utility.yul\":1075:1404   */\n      swap3\n      swap2\n      pop\n      pop\n      jump\t// out\n        /* \"#utility.yul\":1410:1884   */\n    tag_46:\n        /* \"#utility.yul\":1478:1484   */\n      0x00\n        /* \"#utility.yul\":1486:1492   */\n      dup1\n        /* \"#utility.yul\":1535:1537   */\n      0x40\n        /* \"#utility.yul\":1523:1532   */\n      dup4\n        /* \"#utility.yul\":1514:1521   */\n      dup6\n        /* \"#utility.yul\":1510:1533   */\n      sub\n        /* \"#utility.yul\":1506:1538   */\n      slt\n        /* \"#utility.yul\":1503:1622   */\n      iszero\n      tag_176\n      jumpi\n        /* \"#utility.yul\":1541:1620   */\n      tag_177\n      tag_173\n      jump\t// in\n    tag_177:\n        /* \"#utility.yul\":1503:1622   */\n    tag_176:\n        /* \"#utility.yul\":1661:1662   */\n      0x00\n        /* \"#utility.yul\":1686:1739   */\n      tag_178\n        /* \"#utility.yul\":1731:1738   */\n      dup6\n        /* \"#utility.yul\":1722:1728   */\n      dup3\n        /* \"#utility.yul\":1711:1720   */\n      dup7\n        /* \"#utility.yul\":1707:1729   */\n      add\n        /* \"#utility.yul\":1686:1739   */\n      tag_156\n      jump\t// in\n    tag_178:\n        /* \"#utility.yul\":1676:1739   */\n      swap3\n      pop\n        /* \"#utility.yul\":1632:1749   */\n      pop\n        /* \"#utility.yul\":1788:1790   */\n      0x20\n        /* \"#utility.yul\":1814:1867   */\n      tag_179\n        /* \"#utility.yul\":1859:1866   */\n      dup6\n        /* \"#utility.yul\":1850:1856   */\n      dup3\n        /* \"#utility.yul\":1839:1848   */\n      dup7\n        /* \"#utility.yul\":1835:1857   */\n      add\n        /* \"#utility.yul\":1814:1867   */\n      tag_166\n      jump\t// in\n    tag_179:\n        /* \"#utility.yul\":1804:1867   */\n      swap2\n      pop\n        /* \"#utility.yul\":1759:1877   */\n      pop\n        /* \"#utility.yul\":1410:1884   */\n      swap3\n      pop\n      swap3\n      swap1\n      pop\n      jump\t// out\n        /* \"#utility.yul\":1890:2399   */\n    tag_27:\n        /* \"#utility.yul\":1959:1965   */\n      0x00\n        /* \"#utility.yul\":2008:2010   */\n      0x20\n        /* \"#utility.yul\":1996:2005   */\n      dup3\n        /* \"#utility.yul\":1987:1994   */\n      dup5\n        /* \"#utility.yul\":1983:2006   */\n      sub\n        /* \"#utility.yul\":1979:2011   */\n      slt\n        /* \"#utility.yul\":1976:2095   */\n      iszero\n      tag_181\n      jumpi\n        /* \"#utility.yul\":2014:2093   */\n      tag_182\n      tag_173\n      jump\t// in\n    tag_182:\n        /* \"#utility.yul\":1976:2095   */\n    tag_181:\n        /* \"#utility.yul\":2162:2163   */\n      0x00\n        /* \"#utility.yul\":2151:2160   */\n      dup3\n        /* \"#utility.yul\":2147:2164   */\n      add\n        /* \"#utility.yul\":2134:2165   */\n      calldataload\n        /* \"#utility.yul\":2192:2210   */\n      0xffffffffffffffff\n        /* \"#utility.yul\":2184:2190   */\n      dup2\n        /* \"#utility.yul\":2181:2211   */\n      gt\n        /* \"#utility.yul\":2178:2295   */\n      iszero\n      tag_183\n      jumpi\n        /* \"#utility.yul\":2214:2293   */\n      tag_184\n      tag_185\n      jump\t// in\n    tag_184:\n        /* \"#utility.yul\":2178:2295   */\n    tag_183:\n        /* \"#utility.yul\":2319:2382   */\n      tag_186\n        /* \"#utility.yul\":2374:2381   */\n      dup5\n        /* \"#utility.yul\":2365:2371   */\n      dup3\n        /* \"#utility.yul\":2354:2363   */\n      dup6\n        /* \"#utility.yul\":2350:2372   */\n      add\n        /* \"#utility.yul\":2319:2382   */\n      tag_160\n      jump\t// in\n    tag_186:\n        /* \"#utility.yul\":2309:2382   */\n      swap2\n      pop\n        /* \"#utility.yul\":2105:2392   */\n      pop\n        /* \"#utility.yul\":1890:2399   */\n      swap3\n      swap2\n      pop\n      pop\n      jump\t// out\n        /* \"#utility.yul\":2405:2879   */\n    tag_32:\n        /* \"#utility.yul\":2473:2479   */\n      0x00\n        /* \"#utility.yul\":2481:2487   */\n      dup1\n        /* \"#utility.yul\":2530:2532   */\n      0x40\n        /* \"#utility.yul\":2518:2527   */\n      dup4\n        /* \"#utility.yul\":2509:2516   */\n      dup6\n        /* \"#utility.yul\":2505:2528   */\n      sub\n        /* \"#utility.yul\":2501:2533   */\n      slt\n        /* \"#utility.yul\":2498:2617   */\n      iszero\n      tag_188\n      jumpi\n        /* \"#utility.yul\":2536:2615   */\n      tag_189\n      tag_173\n      jump\t// in\n    tag_189:\n        /* \"#utility.yul\":2498:2617   */\n    tag_188:\n        /* \"#utility.yul\":2656:2657   */\n      0x00\n        /* \"#utility.yul\":2681:2734   */\n      tag_190\n        /* \"#utility.yul\":2726:2733   */\n      dup6\n        /* \"#utility.yul\":2717:2723   */\n      dup3\n        /* \"#utility.yul\":2706:2715   */\n      dup7\n        /* \"#utility.yul\":2702:2724   */\n      add\n        /* \"#utility.yul\":2681:2734   */\n      tag_166\n      jump\t// in\n    tag_190:\n        /* \"#utility.yul\":2671:2734   */\n      swap3\n      pop\n        /* \"#utility.yul\":2627:2744   */\n      pop\n        /* \"#utility.yul\":2783:2785   */\n      0x20\n        /* \"#utility.yul\":2809:2862   */\n      tag_191\n        /* \"#utility.yul\":2854:2861   */\n      dup6\n        /* \"#utility.yul\":2845:2851   */\n      dup3\n        /* \"#utility.yul\":2834:2843   */\n      dup7\n        /* \"#utility.yul\":2830:2852   */\n      add\n        /* \"#utility.yul\":2809:2862   */\n      tag_166\n      jump\t// in\n    tag_191:\n        /* \"#utility.yul\":2799:2862   */\n      swap2\n      pop\n        /* \"#utility.yul\":2754:2872   */\n      pop\n        /* \"#utility.yul\":2405:2879   */\n      swap3\n      pop\n      swap3\n      swap1\n      pop\n      jump\t// out\n        /* \"#utility.yul\":2885:3064   */\n    tag_192:\n        /* \"#utility.yul\":2954:2964   */\n      0x00\n        /* \"#utility.yul\":2975:3021   */\n      tag_194\n        /* \"#utility.yul\":3017:3020   */\n      dup4\n        /* \"#utility.yul\":3009:3015   */\n      dup4\n        /* \"#utility.yul\":2975:3021   */\n      tag_195\n      jump\t// in\n    tag_194:\n        /* \"#utility.yul\":3053:3057   */\n      0x20\n        /* \"#utility.yul\":3048:3051   */\n      dup4\n        /* \"#utility.yul\":3044:3058   */\n      add\n        /* \"#utility.yul\":3030:3058   */\n      swap1\n      pop\n        /* \"#utility.yul\":2885:3064   */\n      swap3\n      swap2\n      pop\n      pop\n      jump\t// out\n        /* \"#utility.yul\":3070:3178   */\n    tag_196:\n        /* \"#utility.yul\":3147:3171   */\n      tag_198\n        /* \"#utility.yul\":3165:3170   */\n      dup2\n        /* \"#utility.yul\":3147:3171   */\n      tag_199\n      jump\t// in\n    tag_198:\n        /* \"#utility.yul\":3142:3145   */\n      dup3\n        /* \"#utility.yul\":3135:3172   */\n      mstore\n        /* \"#utility.yul\":3070:3178   */\n      pop\n      pop\n      jump\t// out\n        /* \"#utility.yul\":3214:3946   */\n    tag_200:\n        /* \"#utility.yul\":3333:3336   */\n      0x00\n        /* \"#utility.yul\":3362:3416   */\n      tag_202\n        /* \"#utility.yul\":3410:3415   */\n      dup3\n        /* \"#utility.yul\":3362:3416   */\n      tag_203\n      jump\t// in\n    tag_202:\n        /* \"#utility.yul\":3432:3518   */\n      tag_204\n        /* \"#utility.yul\":3511:3517   */\n      dup2\n        /* \"#utility.yul\":3506:3509   */\n      dup6\n        /* \"#utility.yul\":3432:3518   */\n      tag_205\n      jump\t// in\n    tag_204:\n        /* \"#utility.yul\":3425:3518   */\n      swap4\n      pop\n        /* \"#utility.yul\":3542:3598   */\n      tag_206\n        /* \"#utility.yul\":3592:3597   */\n      dup4\n        /* \"#utility.yul\":3542:3598   */\n      tag_207\n      jump\t// in\n    tag_206:\n        /* \"#utility.yul\":3621:3628   */\n      dup1\n        /* \"#utility.yul\":3652:3653   */\n      0x00\n        /* \"#utility.yul\":3637:3921   */\n    tag_208:\n        /* \"#utility.yul\":3662:3668   */\n      dup4\n        /* \"#utility.yul\":3659:3660   */\n      dup2\n        /* \"#utility.yul\":3656:3669   */\n      lt\n        /* \"#utility.yul\":3637:3921   */\n      iszero\n      tag_210\n      jumpi\n        /* \"#utility.yul\":3738:3744   */\n      dup2\n        /* \"#utility.yul\":3732:3745   */\n      mload\n        /* \"#utility.yul\":3765:3828   */\n      tag_211\n        /* \"#utility.yul\":3824:3827   */\n      dup9\n        /* \"#utility.yul\":3809:3822   */\n      dup3\n        /* \"#utility.yul\":3765:3828   */\n      tag_192\n      jump\t// in\n    tag_211:\n        /* \"#utility.yul\":3758:3828   */\n      swap8\n      pop\n        /* \"#utility.yul\":3851:3911   */\n      tag_212\n        /* \"#utility.yul\":3904:3910   */\n      dup4\n        /* \"#utility.yul\":3851:3911   */\n      tag_213\n      jump\t// in\n    tag_212:\n        /* \"#utility.yul\":3841:3911   */\n      swap3\n      pop\n        /* \"#utility.yul\":3697:3921   */\n      pop\n        /* \"#utility.yul\":3684:3685   */\n      0x01\n        /* \"#utility.yul\":3681:3682   */\n      dup2\n        /* \"#utility.yul\":3677:3686   */\n      add\n        /* \"#utility.yul\":3672:3686   */\n      swap1\n      pop\n        /* \"#utility.yul\":3637:3921   */\n      jump(tag_208)\n    tag_210:\n        /* \"#utility.yul\":3641:3655   */\n      pop\n        /* \"#utility.yul\":3937:3940   */\n      dup6\n        /* \"#utility.yul\":3930:3940   */\n      swap4\n      pop\n        /* \"#utility.yul\":3338:3946   */\n      pop\n      pop\n      pop\n        /* \"#utility.yul\":3214:3946   */\n      swap3\n      swap2\n      pop\n      pop\n      jump\t// out\n        /* \"#utility.yul\":3952:4067   */\n    tag_214:\n        /* \"#utility.yul\":4037:4060   */\n      tag_216\n        /* \"#utility.yul\":4054:4059   */\n      dup2\n        /* \"#utility.yul\":4037:4060   */\n      tag_217\n      jump\t// in\n    tag_216:\n        /* \"#utility.yul\":4032:4035   */\n      dup3\n        /* \"#utility.yul\":4025:4061   */\n      mstore\n        /* \"#utility.yul\":3952:4067   */\n      pop\n      pop\n      jump\t// out\n        /* \"#utility.yul\":4073:4191   */\n    tag_218:\n        /* \"#utility.yul\":4160:4184   */\n      tag_220\n        /* \"#utility.yul\":4178:4183   */\n      dup2\n        /* \"#utility.yul\":4160:4184   */\n      tag_221\n      jump\t// in\n    tag_220:\n        /* \"#utility.yul\":4155:4158   */\n      dup3\n        /* \"#utility.yul\":4148:4185   */\n      mstore\n        /* \"#utility.yul\":4073:4191   */\n      pop\n      pop\n      jump\t// out\n        /* \"#utility.yul\":4197:4557   */\n    tag_222:\n        /* \"#utility.yul\":4283:4286   */\n      0x00\n        /* \"#utility.yul\":4311:4349   */\n      tag_224\n        /* \"#utility.yul\":4343:4348   */\n      dup3\n        /* \"#utility.yul\":4311:4349   */\n      tag_225\n      jump\t// in\n    tag_224:\n        /* \"#utility.yul\":4365:4435   */\n      tag_226\n        /* \"#utility.yul\":4428:4434   */\n      dup2\n        /* \"#utility.yul\":4423:4426   */\n      dup6\n        /* \"#utility.yul\":4365:4435   */\n      tag_227\n      jump\t// in\n    tag_226:\n        /* \"#utility.yul\":4358:4435   */\n      swap4\n      pop\n        /* \"#utility.yul\":4444:4496   */\n      tag_228\n        /* \"#utility.yul\":4489:4495   */\n      dup2\n        /* \"#utility.yul\":4484:4487   */\n      dup6\n        /* \"#utility.yul\":4477:4481   */\n      0x20\n        /* \"#utility.yul\":4470:4475   */\n      dup7\n        /* \"#utility.yul\":4466:4482   */\n      add\n        /* \"#utility.yul\":4444:4496   */\n      tag_229\n      jump\t// in\n    tag_228:\n        /* \"#utility.yul\":4521:4550   */\n      tag_230\n        /* \"#utility.yul\":4543:4549   */\n      dup2\n        /* \"#utility.yul\":4521:4550   */\n      tag_231\n      jump\t// in\n    tag_230:\n        /* \"#utility.yul\":4516:4519   */\n      dup5\n        /* \"#utility.yul\":4512:4551   */\n      add\n        /* \"#utility.yul\":4505:4551   */\n      swap2\n      pop\n        /* \"#utility.yul\":4287:4557   */\n      pop\n        /* \"#utility.yul\":4197:4557   */\n      swap3\n      swap2\n      pop\n      pop\n      jump\t// out\n        /* \"#utility.yul\":4563:4706   */\n    tag_232:\n        /* \"#utility.yul\":4656:4699   */\n      tag_234\n        /* \"#utility.yul\":4693:4698   */\n      dup2\n        /* \"#utility.yul\":4656:4699   */\n      tag_235\n      jump\t// in\n    tag_234:\n        /* \"#utility.yul\":4651:4654   */\n      dup3\n        /* \"#utility.yul\":4644:4700   */\n      mstore\n        /* \"#utility.yul\":4563:4706   */\n      pop\n      pop\n      jump\t// out\n        /* \"#utility.yul\":4712:5056   */\n    tag_236:\n        /* \"#utility.yul\":4790:4793   */\n      0x00\n        /* \"#utility.yul\":4818:4857   */\n      tag_238\n        /* \"#utility.yul\":4851:4856   */\n      dup3\n        /* \"#utility.yul\":4818:4857   */\n      tag_239\n      jump\t// in\n    tag_238:\n        /* \"#utility.yul\":4873:4934   */\n      tag_240\n        /* \"#utility.yul\":4927:4933   */\n      dup2\n        /* \"#utility.yul\":4922:4925   */\n      dup6\n        /* \"#utility.yul\":4873:4934   */\n      tag_241\n      jump\t// in\n    tag_240:\n        /* \"#utility.yul\":4866:4934   */\n      swap4\n      pop\n        /* \"#utility.yul\":4943:4995   */\n      tag_242\n        /* \"#utility.yul\":4988:4994   */\n      dup2\n        /* \"#utility.yul\":4983:4986   */\n      dup6\n        /* \"#utility.yul\":4976:4980   */\n      0x20\n        /* \"#utility.yul\":4969:4974   */\n      dup7\n        /* \"#utility.yul\":4965:4981   */\n      add\n        /* \"#utility.yul\":4943:4995   */\n      tag_229\n      jump\t// in\n    tag_242:\n        /* \"#utility.yul\":5020:5049   */\n      tag_243\n        /* \"#utility.yul\":5042:5048   */\n      dup2\n        /* \"#utility.yul\":5020:5049   */\n      tag_231\n      jump\t// in\n    tag_243:\n        /* \"#utility.yul\":5015:5018   */\n      dup5\n        /* \"#utility.yul\":5011:5050   */\n      add\n        /* \"#utility.yul\":5004:5050   */\n      swap2\n      pop\n        /* \"#utility.yul\":4794:5056   */\n      pop\n        /* \"#utility.yul\":4712:5056   */\n      swap3\n      swap2\n      pop\n      pop\n      jump\t// out\n        /* \"#utility.yul\":5112:6072   */\n    tag_244:\n        /* \"#utility.yul\":5227:5230   */\n      0x00\n        /* \"#utility.yul\":5263:5267   */\n      0x80\n        /* \"#utility.yul\":5258:5261   */\n      dup4\n        /* \"#utility.yul\":5254:5268   */\n      add\n        /* \"#utility.yul\":5352:5356   */\n      0x00\n        /* \"#utility.yul\":5345:5350   */\n      dup4\n        /* \"#utility.yul\":5341:5357   */\n      add\n        /* \"#utility.yul\":5335:5358   */\n      mload\n        /* \"#utility.yul\":5371:5434   */\n      tag_246\n        /* \"#utility.yul\":5428:5432   */\n      0x00\n        /* \"#utility.yul\":5423:5426   */\n      dup7\n        /* \"#utility.yul\":5419:5433   */\n      add\n        /* \"#utility.yul\":5405:5417   */\n      dup3\n        /* \"#utility.yul\":5371:5434   */\n      tag_195\n      jump\t// in\n    tag_246:\n        /* \"#utility.yul\":5278:5444   */\n      pop\n        /* \"#utility.yul\":5531:5535   */\n      0x20\n        /* \"#utility.yul\":5524:5529   */\n      dup4\n        /* \"#utility.yul\":5520:5536   */\n      add\n        /* \"#utility.yul\":5514:5537   */\n      mload\n        /* \"#utility.yul\":5550:5613   */\n      tag_247\n        /* \"#utility.yul\":5607:5611   */\n      0x20\n        /* \"#utility.yul\":5602:5605   */\n      dup7\n        /* \"#utility.yul\":5598:5612   */\n      add\n        /* \"#utility.yul\":5584:5596   */\n      dup3\n        /* \"#utility.yul\":5550:5613   */\n      tag_195\n      jump\t// in\n    tag_247:\n        /* \"#utility.yul\":5454:5623   */\n      pop\n        /* \"#utility.yul\":5705:5709   */\n      0x40\n        /* \"#utility.yul\":5698:5703   */\n      dup4\n        /* \"#utility.yul\":5694:5710   */\n      add\n        /* \"#utility.yul\":5688:5711   */\n      mload\n        /* \"#utility.yul\":5724:5787   */\n      tag_248\n        /* \"#utility.yul\":5781:5785   */\n      0x40\n        /* \"#utility.yul\":5776:5779   */\n      dup7\n        /* \"#utility.yul\":5772:5786   */\n      add\n        /* \"#utility.yul\":5758:5770   */\n      dup3\n        /* \"#utility.yul\":5724:5787   */\n      tag_196\n      jump\t// in\n    tag_248:\n        /* \"#utility.yul\":5633:5797   */\n      pop\n        /* \"#utility.yul\":5882:5886   */\n      0x60\n        /* \"#utility.yul\":5875:5880   */\n      dup4\n        /* \"#utility.yul\":5871:5887   */\n      add\n        /* \"#utility.yul\":5865:5888   */\n      mload\n        /* \"#utility.yul\":5935:5938   */\n      dup5\n        /* \"#utility.yul\":5929:5933   */\n      dup3\n        /* \"#utility.yul\":5925:5939   */\n      sub\n        /* \"#utility.yul\":5918:5922   */\n      0x60\n        /* \"#utility.yul\":5913:5916   */\n      dup7\n        /* \"#utility.yul\":5909:5923   */\n      add\n        /* \"#utility.yul\":5902:5940   */\n      mstore\n        /* \"#utility.yul\":5961:6034   */\n      tag_249\n        /* \"#utility.yul\":6029:6033   */\n      dup3\n        /* \"#utility.yul\":6015:6027   */\n      dup3\n        /* \"#utility.yul\":5961:6034   */\n      tag_236\n      jump\t// in\n    tag_249:\n        /* \"#utility.yul\":5953:6034   */\n      swap2\n      pop\n        /* \"#utility.yul\":5807:6045   */\n      pop\n        /* \"#utility.yul\":6062:6066   */\n      dup1\n        /* \"#utility.yul\":6055:6066   */\n      swap2\n      pop\n        /* \"#utility.yul\":5232:6072   */\n      pop\n        /* \"#utility.yul\":5112:6072   */\n      swap3\n      swap2\n      pop\n      pop\n      jump\t// out\n        /* \"#utility.yul\":6078:6186   */\n    tag_195:\n        /* \"#utility.yul\":6155:6179   */\n      tag_251\n        /* \"#utility.yul\":6173:6178   */\n      dup2\n        /* \"#utility.yul\":6155:6179   */\n      tag_252\n      jump\t// in\n    tag_251:\n        /* \"#utility.yul\":6150:6153   */\n      dup3\n        /* \"#utility.yul\":6143:6180   */\n      mstore\n        /* \"#utility.yul\":6078:6186   */\n      pop\n      pop\n      jump\t// out\n        /* \"#utility.yul\":6192:6310   */\n    tag_253:\n        /* \"#utility.yul\":6279:6303   */\n      tag_255\n        /* \"#utility.yul\":6297:6302   */\n      dup2\n        /* \"#utility.yul\":6279:6303   */\n      tag_252\n      jump\t// in\n    tag_255:\n        /* \"#utility.yul\":6274:6277   */\n      dup3\n        /* \"#utility.yul\":6267:6304   */\n      mstore\n        /* \"#utility.yul\":6192:6310   */\n      pop\n      pop\n      jump\t// out\n        /* \"#utility.yul\":6316:6689   */\n    tag_54:\n        /* \"#utility.yul\":6459:6463   */\n      0x00\n        /* \"#utility.yul\":6497:6499   */\n      0x20\n        /* \"#utility.yul\":6486:6495   */\n      dup3\n        /* \"#utility.yul\":6482:6500   */\n      add\n        /* \"#utility.yul\":6474:6500   */\n      swap1\n      pop\n        /* \"#utility.yul\":6546:6555   */\n      dup2\n        /* \"#utility.yul\":6540:6544   */\n      dup2\n        /* \"#utility.yul\":6536:6556   */\n      sub\n        /* \"#utility.yul\":6532:6533   */\n      0x00\n        /* \"#utility.yul\":6521:6530   */\n      dup4\n        /* \"#utility.yul\":6517:6534   */\n      add\n        /* \"#utility.yul\":6510:6557   */\n      mstore\n        /* \"#utility.yul\":6574:6682   */\n      tag_257\n        /* \"#utility.yul\":6677:6681   */\n      dup2\n        /* \"#utility.yul\":6668:6674   */\n      dup5\n        /* \"#utility.yul\":6574:6682   */\n      tag_200\n      jump\t// in\n    tag_257:\n        /* \"#utility.yul\":6566:6682   */\n      swap1\n      pop\n        /* \"#utility.yul\":6316:6689   */\n      swap3\n      swap2\n      pop\n      pop\n      jump\t// out\n        /* \"#utility.yul\":6695:6913   */\n    tag_39:\n        /* \"#utility.yul\":6786:6790   */\n      0x00\n        /* \"#utility.yul\":6824:6826   */\n      0x20\n        /* \"#utility.yul\":6813:6822   */\n      dup3\n        /* \"#utility.yul\":6809:6827   */\n      add\n        /* \"#utility.yul\":6801:6827   */\n      swap1\n      pop\n        /* \"#utility.yul\":6837:6906   */\n      tag_259\n        /* \"#utility.yul\":6903:6904   */\n      0x00\n        /* \"#utility.yul\":6892:6901   */\n      dup4\n        /* \"#utility.yul\":6888:6905   */\n      add\n        /* \"#utility.yul\":6879:6885   */\n      dup5\n        /* \"#utility.yul\":6837:6906   */\n      tag_214\n      jump\t// in\n    tag_259:\n        /* \"#utility.yul\":6695:6913   */\n      swap3\n      swap2\n      pop\n      pop\n      jump\t// out\n        /* \"#utility.yul\":6919:7141   */\n    tag_62:\n        /* \"#utility.yul\":7012:7016   */\n      0x00\n        /* \"#utility.yul\":7050:7052   */\n      0x20\n        /* \"#utility.yul\":7039:7048   */\n      dup3\n        /* \"#utility.yul\":7035:7053   */\n      add\n        /* \"#utility.yul\":7027:7053   */\n      swap1\n      pop\n        /* \"#utility.yul\":7063:7134   */\n      tag_261\n        /* \"#utility.yul\":7131:7132   */\n      0x00\n        /* \"#utility.yul\":7120:7129   */\n      dup4\n        /* \"#utility.yul\":7116:7133   */\n      add\n        /* \"#utility.yul\":7107:7113   */\n      dup5\n        /* \"#utility.yul\":7063:7134   */\n      tag_218\n      jump\t// in\n    tag_261:\n        /* \"#utility.yul\":6919:7141   */\n      swap3\n      swap2\n      pop\n      pop\n      jump\t// out\n        /* \"#utility.yul\":7147:7456   */\n    tag_72:\n        /* \"#utility.yul\":7258:7262   */\n      0x00\n        /* \"#utility.yul\":7296:7298   */\n      0x20\n        /* \"#utility.yul\":7285:7294   */\n      dup3\n        /* \"#utility.yul\":7281:7299   */\n      add\n        /* \"#utility.yul\":7273:7299   */\n      swap1\n      pop\n        /* \"#utility.yul\":7345:7354   */\n      dup2\n        /* \"#utility.yul\":7339:7343   */\n      dup2\n        /* \"#utility.yul\":7335:7355   */\n      sub\n        /* \"#utility.yul\":7331:7332   */\n      0x00\n        /* \"#utility.yul\":7320:7329   */\n      dup4\n        /* \"#utility.yul\":7316:7333   */\n      add\n        /* \"#utility.yul\":7309:7356   */\n      mstore\n        /* \"#utility.yul\":7373:7449   */\n      tag_263\n        /* \"#utility.yul\":7444:7448   */\n      dup2\n        /* \"#utility.yul\":7435:7441   */\n      dup5\n        /* \"#utility.yul\":7373:7449   */\n      tag_222\n      jump\t// in\n    tag_263:\n        /* \"#utility.yul\":7365:7449   */\n      swap1\n      pop\n        /* \"#utility.yul\":7147:7456   */\n      swap3\n      swap2\n      pop\n      pop\n      jump\t// out\n        /* \"#utility.yul\":7462:7696   */\n    tag_67:\n        /* \"#utility.yul\":7561:7565   */\n      0x00\n        /* \"#utility.yul\":7599:7601   */\n      0x20\n        /* \"#utility.yul\":7588:7597   */\n      dup3\n        /* \"#utility.yul\":7584:7602   */\n      add\n        /* \"#utility.yul\":7576:7602   */\n      swap1\n      pop\n        /* \"#utility.yul\":7612:7689   */\n      tag_265\n        /* \"#utility.yul\":7686:7687   */\n      0x00\n        /* \"#utility.yul\":7675:7684   */\n      dup4\n        /* \"#utility.yul\":7671:7688   */\n      add\n        /* \"#utility.yul\":7662:7668   */\n      dup5\n        /* \"#utility.yul\":7612:7689   */\n      tag_232\n      jump\t// in\n    tag_265:\n        /* \"#utility.yul\":7462:7696   */\n      swap3\n      swap2\n      pop\n      pop\n      jump\t// out\n        /* \"#utility.yul\":7702:8067   */\n    tag_49:\n        /* \"#utility.yul\":7841:7845   */\n      0x00\n        /* \"#utility.yul\":7879:7881   */\n      0x20\n        /* \"#utility.yul\":7868:7877   */\n      dup3\n        /* \"#utility.yul\":7864:7882   */\n      add\n        /* \"#utility.yul\":7856:7882   */\n      swap1\n      pop\n        /* \"#utility.yul\":7928:7937   */\n      dup2\n        /* \"#utility.yul\":7922:7926   */\n      dup2\n        /* \"#utility.yul\":7918:7938   */\n      sub\n        /* \"#utility.yul\":7914:7915   */\n      0x00\n        /* \"#utility.yul\":7903:7912   */\n      dup4\n        /* \"#utility.yul\":7899:7916   */\n      add\n        /* \"#utility.yul\":7892:7939   */\n      mstore\n        /* \"#utility.yul\":7956:8060   */\n      tag_267\n        /* \"#utility.yul\":8055:8059   */\n      dup2\n        /* \"#utility.yul\":8046:8052   */\n      dup5\n        /* \"#utility.yul\":7956:8060   */\n      tag_244\n      jump\t// in\n    tag_267:\n        /* \"#utility.yul\":7948:8060   */\n      swap1\n      pop\n        /* \"#utility.yul\":7702:8067   */\n      swap3\n      swap2\n      pop\n      pop\n      jump\t// out\n        /* \"#utility.yul\":8073:8295   */\n    tag_21:\n        /* \"#utility.yul\":8166:8170   */\n      0x00\n        /* \"#utility.yul\":8204:8206   */\n      0x20\n        /* \"#utility.yul\":8193:8202   */\n      dup3\n        /* \"#utility.yul\":8189:8207   */\n      add\n        /* \"#utility.yul\":8181:8207   */\n      swap1\n      pop\n        /* \"#utility.yul\":8217:8288   */\n      tag_269\n        /* \"#utility.yul\":8285:8286   */\n      0x00\n        /* \"#utility.yul\":8274:8283   */\n      dup4\n        /* \"#utility.yul\":8270:8287   */\n      add\n        /* \"#utility.yul\":8261:8267   */\n      dup5\n        /* \"#utility.yul\":8217:8288   */\n      tag_253\n      jump\t// in\n    tag_269:\n        /* \"#utility.yul\":8073:8295   */\n      swap3\n      swap2\n      pop\n      pop\n      jump\t// out\n        /* \"#utility.yul\":8301:8430   */\n    tag_150:\n        /* \"#utility.yul\":8335:8341   */\n      0x00\n        /* \"#utility.yul\":8362:8382   */\n      tag_271\n      tag_272\n      jump\t// in\n    tag_271:\n        /* \"#utility.yul\":8352:8382   */\n      swap1\n      pop\n        /* \"#utility.yul\":8391:8424   */\n      tag_273\n        /* \"#utility.yul\":8419:8423   */\n      dup3\n        /* \"#utility.yul\":8411:8417   */\n      dup3\n        /* \"#utility.yul\":8391:8424   */\n      tag_274\n      jump\t// in\n    tag_273:\n        /* \"#utility.yul\":8301:8430   */\n      swap2\n      swap1\n      pop\n      jump\t// out\n        /* \"#utility.yul\":8436:8511   */\n    tag_272:\n        /* \"#utility.yul\":8469:8475   */\n      0x00\n        /* \"#utility.yul\":8502:8504   */\n      0x40\n        /* \"#utility.yul\":8496:8505   */\n      mload\n        /* \"#utility.yul\":8486:8505   */\n      swap1\n      pop\n        /* \"#utility.yul\":8436:8511   */\n      swap1\n      jump\t// out\n        /* \"#utility.yul\":8517:8825   */\n    tag_149:\n        /* \"#utility.yul\":8579:8583   */\n      0x00\n        /* \"#utility.yul\":8669:8687   */\n      0xffffffffffffffff\n        /* \"#utility.yul\":8661:8667   */\n      dup3\n        /* \"#utility.yul\":8658:8688   */\n      gt\n        /* \"#utility.yul\":8655:8711   */\n      iszero\n      tag_277\n      jumpi\n        /* \"#utility.yul\":8691:8709   */\n      tag_278\n      tag_107\n      jump\t// in\n    tag_278:\n        /* \"#utility.yul\":8655:8711   */\n    tag_277:\n        /* \"#utility.yul\":8729:8758   */\n      tag_279\n        /* \"#utility.yul\":8751:8757   */\n      dup3\n        /* \"#utility.yul\":8729:8758   */\n      tag_231\n      jump\t// in\n    tag_279:\n        /* \"#utility.yul\":8721:8758   */\n      swap1\n      pop\n        /* \"#utility.yul\":8813:8817   */\n      0x20\n        /* \"#utility.yul\":8807:8811   */\n      dup2\n        /* \"#utility.yul\":8803:8818   */\n      add\n        /* \"#utility.yul\":8795:8818   */\n      swap1\n      pop\n        /* \"#utility.yul\":8517:8825   */\n      swap2\n      swap1\n      pop\n      jump\t// out\n        /* \"#utility.yul\":8831:8963   */\n    tag_207:\n        /* \"#utility.yul\":8898:8902   */\n      0x00\n        /* \"#utility.yul\":8921:8924   */\n      dup2\n        /* \"#utility.yul\":8913:8924   */\n      swap1\n      pop\n        /* \"#utility.yul\":8951:8955   */\n      0x20\n        /* \"#utility.yul\":8946:8949   */\n      dup3\n        /* \"#utility.yul\":8942:8956   */\n      add\n        /* \"#utility.yul\":8934:8956   */\n      swap1\n      pop\n        /* \"#utility.yul\":8831:8963   */\n      swap2\n      swap1\n      pop\n      jump\t// out\n        /* \"#utility.yul\":8969:9083   */\n    tag_203:\n        /* \"#utility.yul\":9036:9042   */\n      0x00\n        /* \"#utility.yul\":9070:9075   */\n      dup2\n        /* \"#utility.yul\":9064:9076   */\n      mload\n        /* \"#utility.yul\":9054:9076   */\n      swap1\n      pop\n        /* \"#utility.yul\":8969:9083   */\n      swap2\n      swap1\n      pop\n      jump\t// out\n        /* \"#utility.yul\":9089:9187   */\n    tag_225:\n        /* \"#utility.yul\":9140:9146   */\n      0x00\n        /* \"#utility.yul\":9174:9179   */\n      dup2\n        /* \"#utility.yul\":9168:9180   */\n      mload\n        /* \"#utility.yul\":9158:9180   */\n      swap1\n      pop\n        /* \"#utility.yul\":9089:9187   */\n      swap2\n      swap1\n      pop\n      jump\t// out\n        /* \"#utility.yul\":9193:9292   */\n    tag_239:\n        /* \"#utility.yul\":9245:9251   */\n      0x00\n        /* \"#utility.yul\":9279:9284   */\n      dup2\n        /* \"#utility.yul\":9273:9285   */\n      mload\n        /* \"#utility.yul\":9263:9285   */\n      swap1\n      pop\n        /* \"#utility.yul\":9193:9292   */\n      swap2\n      swap1\n      pop\n      jump\t// out\n        /* \"#utility.yul\":9298:9411   */\n    tag_213:\n        /* \"#utility.yul\":9368:9372   */\n      0x00\n        /* \"#utility.yul\":9400:9404   */\n      0x20\n        /* \"#utility.yul\":9395:9398   */\n      dup3\n        /* \"#utility.yul\":9391:9405   */\n      add\n        /* \"#utility.yul\":9383:9405   */\n      swap1\n      pop\n        /* \"#utility.yul\":9298:9411   */\n      swap2\n      swap1\n      pop\n      jump\t// out\n        /* \"#utility.yul\":9417:9601   */\n    tag_205:\n        /* \"#utility.yul\":9516:9527   */\n      0x00\n        /* \"#utility.yul\":9550:9556   */\n      dup3\n        /* \"#utility.yul\":9545:9548   */\n      dup3\n        /* \"#utility.yul\":9538:9557   */\n      mstore\n        /* \"#utility.yul\":9590:9594   */\n      0x20\n        /* \"#utility.yul\":9585:9588   */\n      dup3\n        /* \"#utility.yul\":9581:9595   */\n      add\n        /* \"#utility.yul\":9566:9595   */\n      swap1\n      pop\n        /* \"#utility.yul\":9417:9601   */\n      swap3\n      swap2\n      pop\n      pop\n      jump\t// out\n        /* \"#utility.yul\":9607:9775   */\n    tag_227:\n        /* \"#utility.yul\":9690:9701   */\n      0x00\n        /* \"#utility.yul\":9724:9730   */\n      dup3\n        /* \"#utility.yul\":9719:9722   */\n      dup3\n        /* \"#utility.yul\":9712:9731   */\n      mstore\n        /* \"#utility.yul\":9764:9768   */\n      0x20\n        /* \"#utility.yul\":9759:9762   */\n      dup3\n        /* \"#utility.yul\":9755:9769   */\n      add\n        /* \"#utility.yul\":9740:9769   */\n      swap1\n      pop\n        /* \"#utility.yul\":9607:9775   */\n      swap3\n      swap2\n      pop\n      pop\n      jump\t// out\n        /* \"#utility.yul\":9781:9940   */\n    tag_241:\n        /* \"#utility.yul\":9855:9866   */\n      0x00\n        /* \"#utility.yul\":9889:9895   */\n      dup3\n        /* \"#utility.yul\":9884:9887   */\n      dup3\n        /* \"#utility.yul\":9877:9896   */\n      mstore\n        /* \"#utility.yul\":9929:9933   */\n      0x20\n        /* \"#utility.yul\":9924:9927   */\n      dup3\n        /* \"#utility.yul\":9920:9934   */\n      add\n        /* \"#utility.yul\":9905:9934   */\n      swap1\n      pop\n        /* \"#utility.yul\":9781:9940   */\n      swap3\n      swap2\n      pop\n      pop\n      jump\t// out\n        /* \"#utility.yul\":9946:10042   */\n    tag_199:\n        /* \"#utility.yul\":9983:9990   */\n      0x00\n        /* \"#utility.yul\":10012:10036   */\n      tag_289\n        /* \"#utility.yul\":10030:10035   */\n      dup3\n        /* \"#utility.yul\":10012:10036   */\n      tag_290\n      jump\t// in\n    tag_289:\n        /* \"#utility.yul\":10001:10036   */\n      swap1\n      pop\n        /* \"#utility.yul\":9946:10042   */\n      swap2\n      swap1\n      pop\n      jump\t// out\n        /* \"#utility.yul\":10048:10197   */\n    tag_217:\n        /* \"#utility.yul\":10084:10091   */\n      0x00\n        /* \"#utility.yul\":10124:10190   */\n      0xff00000000000000000000000000000000000000000000000000000000000000\n        /* \"#utility.yul\":10117:10122   */\n      dup3\n        /* \"#utility.yul\":10113:10191   */\n      and\n        /* \"#utility.yul\":10102:10191   */\n      swap1\n      pop\n        /* \"#utility.yul\":10048:10197   */\n      swap2\n      swap1\n      pop\n      jump\t// out\n        /* \"#utility.yul\":10203:10280   */\n    tag_221:\n        /* \"#utility.yul\":10240:10247   */\n      0x00\n        /* \"#utility.yul\":10269:10274   */\n      dup2\n        /* \"#utility.yul\":10258:10274   */\n      swap1\n      pop\n        /* \"#utility.yul\":10203:10280   */\n      swap2\n      swap1\n      pop\n      jump\t// out\n        /* \"#utility.yul\":10286:10413   */\n    tag_293:\n        /* \"#utility.yul\":10331:10338   */\n      0x00\n        /* \"#utility.yul\":10360:10365   */\n      dup2\n        /* \"#utility.yul\":10349:10365   */\n      swap1\n      pop\n        /* \"#utility.yul\":10366:10407   */\n      tag_295\n        /* \"#utility.yul\":10401:10406   */\n      dup3\n        /* \"#utility.yul\":10366:10407   */\n      tag_296\n      jump\t// in\n    tag_295:\n        /* \"#utility.yul\":10286:10413   */\n      swap2\n      swap1\n      pop\n      jump\t// out\n        /* \"#utility.yul\":10419:10545   */\n    tag_290:\n        /* \"#utility.yul\":10456:10463   */\n      0x00\n        /* \"#utility.yul\":10496:10538   */\n      0xffffffffffffffffffffffffffffffffffffffff\n        /* \"#utility.yul\":10489:10494   */\n      dup3\n        /* \"#utility.yul\":10485:10539   */\n      and\n        /* \"#utility.yul\":10474:10539   */\n      swap1\n      pop\n        /* \"#utility.yul\":10419:10545   */\n      swap2\n      swap1\n      pop\n      jump\t// out\n        /* \"#utility.yul\":10551:10628   */\n    tag_252:\n        /* \"#utility.yul\":10588:10595   */\n      0x00\n        /* \"#utility.yul\":10617:10622   */\n      dup2\n        /* \"#utility.yul\":10606:10622   */\n      swap1\n      pop\n        /* \"#utility.yul\":10551:10628   */\n      swap2\n      swap1\n      pop\n      jump\t// out\n        /* \"#utility.yul\":10634:10761   */\n    tag_235:\n        /* \"#utility.yul\":10690:10699   */\n      0x00\n        /* \"#utility.yul\":10723:10755   */\n      tag_300\n        /* \"#utility.yul\":10749:10754   */\n      dup3\n        /* \"#utility.yul\":10723:10755   */\n      tag_293\n      jump\t// in\n    tag_300:\n        /* \"#utility.yul\":10710:10755   */\n      swap1\n      pop\n        /* \"#utility.yul\":10634:10761   */\n      swap2\n      swap1\n      pop\n      jump\t// out\n        /* \"#utility.yul\":10767:10921   */\n    tag_155:\n        /* \"#utility.yul\":10851:10857   */\n      dup3\n        /* \"#utility.yul\":10846:10849   */\n      dup2\n        /* \"#utility.yul\":10841:10844   */\n      dup4\n        /* \"#utility.yul\":10828:10858   */\n      calldatacopy\n        /* \"#utility.yul\":10913:10914   */\n      0x00\n        /* \"#utility.yul\":10904:10910   */\n      dup4\n        /* \"#utility.yul\":10899:10902   */\n      dup4\n        /* \"#utility.yul\":10895:10911   */\n      add\n        /* \"#utility.yul\":10888:10915   */\n      mstore\n        /* \"#utility.yul\":10767:10921   */\n      pop\n      pop\n      pop\n      jump\t// out\n        /* \"#utility.yul\":10927:11234   */\n    tag_229:\n        /* \"#utility.yul\":10995:10996   */\n      0x00\n        /* \"#utility.yul\":11005:11118   */\n    tag_303:\n        /* \"#utility.yul\":11019:11025   */\n      dup4\n        /* \"#utility.yul\":11016:11017   */\n      dup2\n        /* \"#utility.yul\":11013:11026   */\n      lt\n        /* \"#utility.yul\":11005:11118   */\n      iszero\n      tag_305\n      jumpi\n        /* \"#utility.yul\":11104:11105   */\n      dup1\n        /* \"#utility.yul\":11099:11102   */\n      dup3\n        /* \"#utility.yul\":11095:11106   */\n      add\n        /* \"#utility.yul\":11089:11107   */\n      mload\n        /* \"#utility.yul\":11085:11086   */\n      dup2\n        /* \"#utility.yul\":11080:11083   */\n      dup5\n        /* \"#utility.yul\":11076:11087   */\n      add\n        /* \"#utility.yul\":11069:11108   */\n      mstore\n        /* \"#utility.yul\":11041:11043   */\n      0x20\n        /* \"#utility.yul\":11038:11039   */\n      dup2\n        /* \"#utility.yul\":11034:11044   */\n      add\n        /* \"#utility.yul\":11029:11044   */\n      swap1\n      pop\n        /* \"#utility.yul\":11005:11118   */\n      jump(tag_303)\n    tag_305:\n        /* \"#utility.yul\":11136:11142   */\n      dup4\n        /* \"#utility.yul\":11133:11134   */\n      dup2\n        /* \"#utility.yul\":11130:11143   */\n      gt\n        /* \"#utility.yul\":11127:11228   */\n      iszero\n      tag_306\n      jumpi\n        /* \"#utility.yul\":11216:11217   */\n      0x00\n        /* \"#utility.yul\":11207:11213   */\n      dup5\n        /* \"#utility.yul\":11202:11205   */\n      dup5\n        /* \"#utility.yul\":11198:11214   */\n      add\n        /* \"#utility.yul\":11191:11218   */\n      mstore\n        /* \"#utility.yul\":11127:11228   */\n    tag_306:\n        /* \"#utility.yul\":10976:11234   */\n      pop\n        /* \"#utility.yul\":10927:11234   */\n      pop\n      pop\n      pop\n      jump\t// out\n        /* \"#utility.yul\":11240:11560   */\n    tag_88:\n        /* \"#utility.yul\":11284:11290   */\n      0x00\n        /* \"#utility.yul\":11321:11322   */\n      0x02\n        /* \"#utility.yul\":11315:11319   */\n      dup3\n        /* \"#utility.yul\":11311:11323   */\n      div\n        /* \"#utility.yul\":11301:11323   */\n      swap1\n      pop\n        /* \"#utility.yul\":11368:11369   */\n      0x01\n        /* \"#utility.yul\":11362:11366   */\n      dup3\n        /* \"#utility.yul\":11358:11370   */\n      and\n        /* \"#utility.yul\":11389:11407   */\n      dup1\n        /* \"#utility.yul\":11379:11460   */\n      tag_308\n      jumpi\n        /* \"#utility.yul\":11445:11449   */\n      0x7f\n        /* \"#utility.yul\":11437:11443   */\n      dup3\n        /* \"#utility.yul\":11433:11450   */\n      and\n        /* \"#utility.yul\":11423:11450   */\n      swap2\n      pop\n        /* \"#utility.yul\":11379:11460   */\n    tag_308:\n        /* \"#utility.yul\":11507:11509   */\n      0x20\n        /* \"#utility.yul\":11499:11505   */\n      dup3\n        /* \"#utility.yul\":11496:11510   */\n      lt\n        /* \"#utility.yul\":11476:11494   */\n      dup2\n        /* \"#utility.yul\":11473:11511   */\n      eq\n        /* \"#utility.yul\":11470:11554   */\n      iszero\n      tag_309\n      jumpi\n        /* \"#utility.yul\":11526:11544   */\n      tag_310\n      tag_311\n      jump\t// in\n    tag_310:\n        /* \"#utility.yul\":11470:11554   */\n    tag_309:\n        /* \"#utility.yul\":11291:11560   */\n      pop\n        /* \"#utility.yul\":11240:11560   */\n      swap2\n      swap1\n      pop\n      jump\t// out\n        /* \"#utility.yul\":11566:11847   */\n    tag_274:\n        /* \"#utility.yul\":11649:11676   */\n      tag_313\n        /* \"#utility.yul\":11671:11675   */\n      dup3\n        /* \"#utility.yul\":11649:11676   */\n      tag_231\n      jump\t// in\n    tag_313:\n        /* \"#utility.yul\":11641:11647   */\n      dup2\n        /* \"#utility.yul\":11637:11677   */\n      add\n        /* \"#utility.yul\":11779:11785   */\n      dup2\n        /* \"#utility.yul\":11767:11777   */\n      dup2\n        /* \"#utility.yul\":11764:11786   */\n      lt\n        /* \"#utility.yul\":11743:11761   */\n      0xffffffffffffffff\n        /* \"#utility.yul\":11731:11741   */\n      dup3\n        /* \"#utility.yul\":11728:11762   */\n      gt\n        /* \"#utility.yul\":11725:11787   */\n      or\n        /* \"#utility.yul\":11722:11810   */\n      iszero\n      tag_314\n      jumpi\n        /* \"#utility.yul\":11790:11808   */\n      tag_315\n      tag_107\n      jump\t// in\n    tag_315:\n        /* \"#utility.yul\":11722:11810   */\n    tag_314:\n        /* \"#utility.yul\":11830:11840   */\n      dup1\n        /* \"#utility.yul\":11826:11828   */\n      0x40\n        /* \"#utility.yul\":11819:11841   */\n      mstore\n        /* \"#utility.yul\":11609:11847   */\n      pop\n        /* \"#utility.yul\":11566:11847   */\n      pop\n      pop\n      jump\t// out\n        /* \"#utility.yul\":11853:12086   */\n    tag_79:\n        /* \"#utility.yul\":11892:11895   */\n      0x00\n        /* \"#utility.yul\":11915:11939   */\n      tag_317\n        /* \"#utility.yul\":11933:11938   */\n      dup3\n        /* \"#utility.yul\":11915:11939   */\n      tag_252\n      jump\t// in\n    tag_317:\n        /* \"#utility.yul\":11906:11939   */\n      swap2\n      pop\n        /* \"#utility.yul\":11961:12027   */\n      0xffffffffffffffffffffffffffffffffffffffffffffffffffffffffffffffff\n        /* \"#utility.yul\":11954:11959   */\n      dup3\n        /* \"#utility.yul\":11951:12028   */\n      eq\n        /* \"#utility.yul\":11948:12051   */\n      iszero\n      tag_318\n      jumpi\n        /* \"#utility.yul\":12031:12049   */\n      tag_319\n      tag_320\n      jump\t// in\n    tag_319:\n        /* \"#utility.yul\":11948:12051   */\n    tag_318:\n        /* \"#utility.yul\":12078:12079   */\n      0x01\n        /* \"#utility.yul\":12071:12076   */\n      dup3\n        /* \"#utility.yul\":12067:12080   */\n      add\n        /* \"#utility.yul\":12060:12080   */\n      swap1\n      pop\n        /* \"#utility.yul\":11853:12086   */\n      swap2\n      swap1\n      pop\n      jump\t// out\n        /* \"#utility.yul\":12092:12272   */\n    tag_320:\n        /* \"#utility.yul\":12140:12217   */\n      0x4e487b7100000000000000000000000000000000000000000000000000000000\n        /* \"#utility.yul\":12137:12138   */\n      0x00\n        /* \"#utility.yul\":12130:12218   */\n      mstore\n        /* \"#utility.yul\":12237:12241   */\n      0x11\n        /* \"#utility.yul\":12234:12235   */\n      0x04\n        /* \"#utility.yul\":12227:12242   */\n      mstore\n        /* \"#utility.yul\":12261:12265   */\n      0x24\n        /* \"#utility.yul\":12258:12259   */\n      0x00\n        /* \"#utility.yul\":12251:12266   */\n      revert\n        /* \"#utility.yul\":12278:12458   */\n    tag_76:\n        /* \"#utility.yul\":12326:12403   */\n      0x4e487b7100000000000000000000000000000000000000000000000000000000\n        /* \"#utility.yul\":12323:12324   */\n      0x00\n        /* \"#utility.yul\":12316:12404   */\n      mstore\n        /* \"#utility.yul\":12423:12427   */\n      0x21\n        /* \"#utility.yul\":12420:12421   */\n      0x04\n        /* \"#utility.yul\":12413:12428   */\n      mstore\n        /* \"#utility.yul\":12447:12451   */\n      0x24\n        /* \"#utility.yul\":12444:12445   */\n      0x00\n        /* \"#utility.yul\":12437:12452   */\n      revert\n        /* \"#utility.yul\":12464:12644   */\n    tag_311:\n        /* \"#utility.yul\":12512:12589   */\n      0x4e487b7100000000000000000000000000000000000000000000000000000000\n        /* \"#utility.yul\":12509:12510   */\n      0x00\n        /* \"#utility.yul\":12502:12590   */\n      mstore\n        /* \"#utility.yul\":12609:12613   */\n      0x22\n        /* \"#utility.yul\":12606:12607   */\n      0x04\n        /* \"#utility.yul\":12599:12614   */\n      mstore\n        /* \"#utility.yul\":12633:12637   */\n      0x24\n        /* \"#utility.yul\":12630:12631   */\n      0x00\n        /* \"#utility.yul\":12623:12638   */\n      revert\n        /* \"#utility.yul\":12650:12830   */\n    tag_91:\n        /* \"#utility.yul\":12698:12775   */\n      0x4e487b7100000000000000000000000000000000000000000000000000000000\n        /* \"#utility.yul\":12695:12696   */\n      0x00\n        /* \"#utility.yul\":12688:12776   */\n      mstore\n        /* \"#utility.yul\":12795:12799   */\n      0x32\n        /* \"#utility.yul\":12792:12793   */\n      0x04\n        /* \"#utility.yul\":12785:12800   */\n      mstore\n        /* \"#utility.yul\":12819:12823   */\n      0x24\n        /* \"#utility.yul\":12816:12817   */\n      0x00\n        /* \"#utility.yul\":12809:12824   */\n      revert\n        /* \"#utility.yul\":12836:13016   */\n    tag_107:\n        /* \"#utility.yul\":12884:12961   */\n      0x4e487b7100000000000000000000000000000000000000000000000000000000\n        /* \"#utility.yul\":12881:12882   */\n      0x00\n        /* \"#utility.yul\":12874:12962   */\n      mstore\n        /* \"#utility.yul\":12981:12985   */\n      0x41\n        /* \"#utility.yul\":12978:12979   */\n      0x04\n        /* \"#utility.yul\":12971:12986   */\n      mstore\n        /* \"#utility.yul\":13005:13009   */\n      0x24\n        /* \"#utility.yul\":13002:13003   */\n      0x00\n        /* \"#utility.yul\":12995:13010   */\n      revert\n        /* \"#utility.yul\":13022:13139   */\n    tag_164:\n        /* \"#utility.yul\":13131:13132   */\n      0x00\n        /* \"#utility.yul\":13128:13129   */\n      dup1\n        /* \"#utility.yul\":13121:13133   */\n      revert\n        /* \"#utility.yul\":13145:13262   */\n    tag_153:\n        /* \"#utility.yul\":13254:13255   */\n      0x00\n        /* \"#utility.yul\":13251:13252   */\n      dup1\n        /* \"#utility.yul\":13244:13256   */\n      revert\n        /* \"#utility.yul\":13268:13385   */\n    tag_185:\n        /* \"#utility.yul\":13377:13378   */\n      0x00\n        /* \"#utility.yul\":13374:13375   */\n      dup1\n        /* \"#utility.yul\":13367:13379   */\n      revert\n        /* \"#utility.yul\":13391:13508   */\n    tag_173:\n        /* \"#utility.yul\":13500:13501   */\n      0x00\n        /* \"#utility.yul\":13497:13498   */\n      dup1\n        /* \"#utility.yul\":13490:13502   */\n      revert\n        /* \"#utility.yul\":13514:13616   */\n    tag_231:\n        /* \"#utility.yul\":13555:13561   */\n      0x00\n        /* \"#utility.yul\":13606:13608   */\n      0x1f\n        /* \"#utility.yul\":13602:13609   */\n      not\n        /* \"#utility.yul\":13597:13599   */\n      0x1f\n        /* \"#utility.yul\":13590:13595   */\n      dup4\n        /* \"#utility.yul\":13586:13600   */\n      add\n        /* \"#utility.yul\":13582:13610   */\n      and\n        /* \"#utility.yul\":13572:13610   */\n      swap1\n      pop\n        /* \"#utility.yul\":13514:13616   */\n      swap2\n      swap1\n      pop\n      jump\t// out\n        /* \"#utility.yul\":13622:13735   */\n    tag_296:\n        /* \"#utility.yul\":13703:13704   */\n      0x03\n        /* \"#utility.yul\":13696:13701   */\n      dup2\n        /* \"#utility.yul\":13693:13705   */\n      lt\n        /* \"#utility.yul\":13683:13729   */\n      tag_332\n      jumpi\n        /* \"#utility.yul\":13709:13727   */\n      tag_333\n      tag_76\n      jump\t// in\n    tag_333:\n        /* \"#utility.yul\":13683:13729   */\n    tag_332:\n        /* \"#utility.yul\":13622:13735   */\n      pop\n      jump\t// out\n        /* \"#utility.yul\":13741:13863   */\n    tag_159:\n        /* \"#utility.yul\":13814:13838   */\n      tag_335\n        /* \"#utility.yul\":13832:13837   */\n      dup2\n        /* \"#utility.yul\":13814:13838   */\n      tag_199\n      jump\t// in\n    tag_335:\n        /* \"#utility.yul\":13807:13812   */\n      dup2\n        /* \"#utility.yul\":13804:13839   */\n      eq\n        /* \"#utility.yul\":13794:13857   */\n      tag_336\n      jumpi\n        /* \"#utility.yul\":13853:13854   */\n      0x00\n        /* \"#utility.yul\":13850:13851   */\n      dup1\n        /* \"#utility.yul\":13843:13855   */\n      revert\n        /* \"#utility.yul\":13794:13857   */\n    tag_336:\n        /* \"#utility.yul\":13741:13863   */\n      pop\n      jump\t// out\n        /* \"#utility.yul\":13869:13991   */\n    tag_169:\n        /* \"#utility.yul\":13942:13966   */\n      tag_338\n        /* \"#utility.yul\":13960:13965   */\n      dup2\n        /* \"#utility.yul\":13942:13966   */\n      tag_252\n      jump\t// in\n    tag_338:\n        /* \"#utility.yul\":13935:13940   */\n      dup2\n        /* \"#utility.yul\":13932:13967   */\n      eq\n        /* \"#utility.yul\":13922:13985   */\n      tag_339\n      jumpi\n        /* \"#utility.yul\":13981:13982   */\n      0x00\n        /* \"#utility.yul\":13978:13979   */\n      dup1\n        /* \"#utility.yul\":13971:13983   */\n      revert\n        /* \"#utility.yul\":13922:13985   */\n    tag_339:\n        /* \"#utility.yul\":13869:13991   */\n      pop\n      jump\t// out\n\n    auxdata: 0xa26469706673582212204ce50cce126d69ccc8bf2f1dcb93d339df6cf4ad639fe2827724f7a4e261747f64736f6c63430008070033\n}\n",
				"bytecode": {
					"linkReferences": {},
					"object": "60806040527f74657374206865726500000000000000000000000000000000000000000000006007556040518060400160405280600981526020017f746573742068657265000000000000000000000000000000000000000000000081525060089080519060200190620000759291906200008a565b503480156200008357600080fd5b506200019f565b82805462000098906200013a565b90600052602060002090601f016020900481019282620000bc576000855562000108565b82601f10620000d757805160ff191683800117855562000108565b8280016001018555821562000108579182015b8281111562000107578251825591602001919060010190620000ea565b5b5090506200011791906200011b565b5090565b5b80821115620001365760008160009055506001016200011c565b5090565b600060028204905060018216806200015357607f821691505b602082108114156200016a576200016962000170565b5b50919050565b7f4e487b7100000000000000000000000000000000000000000000000000000000600052602260045260246000fd5b6111de80620001af6000396000f3fe6080604052600436106100a75760003560e01c8063977a767c11610064578063977a767c1461019b578063a34343c9146101d8578063bbdfbfba14610203578063c6b915401461021a578063ef8a923514610245578063ffb1e21014610270576100a7565b806327e235e3146100ac578063295b4e17146100e95780632b66d72e1461010057806331e838dd1461011c578063654c914f14610159578063736172d314610184575b600080fd5b3480156100b857600080fd5b506100d360048036038101906100ce9190610a9d565b61029b565b6040516100e09190610def565b60405180910390f35b3480156100f557600080fd5b506100fe6102b9565b005b61011a60048036038101906101159190610b0a565b6102e5565b005b34801561012857600080fd5b50610143600480360381019061013e9190610b53565b610493565b6040516101509190610def565b60405180910390f35b34801561016557600080fd5b5061016e6104c1565b60405161017b9190610d5a565b60405180910390f35b34801561019057600080fd5b5061019961052b565b005b3480156101a757600080fd5b506101c260048036038101906101bd9190610aca565b61059f565b6040516101cf9190610dcd565b60405180910390f35b3480156101e457600080fd5b506101ed610709565b6040516101fa9190610d38565b60405180910390f35b34801561020f57600080fd5b50610218610782565b005b34801561022657600080fd5b5061022f6107ae565b60405161023c9190610d75565b60405180910390f35b34801561025157600080fd5b5061025a6107b4565b6040516102679190610db2565b60405180910390f35b34801561027c57600080fd5b506102856107c5565b6040516102929190610d90565b60405180910390f35b60096020528060005260406000206000915090508060000154905081565b60008060006101000a81548160ff021916908360028111156102de576102dd611085565b5b0217905550565b6000600960003373ffffffffffffffffffffffffffffffffffffffff1673ffffffffffffffffffffffffffffffffffffffff168152602001908152602001600020600001549050600960003373ffffffffffffffffffffffffffffffffffffffff1673ffffffffffffffffffffffffffffffffffffffff168152602001908152602001600020600001600081548092919061037f9061100d565b9190505550600060405180608001604052803481526020014281526020013373ffffffffffffffffffffffffffffffffffffffff16815260200184815250905080600960003373ffffffffffffffffffffffffffffffffffffffff1673ffffffffffffffffffffffffffffffffffffffff1681526020019081526020016000206001016000848152602001908152602001600020600082015181600001556020820151816001015560408201518160020160006101000a81548173ffffffffffffffffffffffffffffffffffffffff021916908373ffffffffffffffffffffffffffffffffffffffff160217905550606082015181600301908051906020019061048a929190610853565b50905050505050565b600182600281106104a357600080fd5b6003020181600381106104b557600080fd5b01600091509150505481565b60006008600081546104d290610faa565b81106104e1576104e06110e3565b5b8154600116156105005790600052602060002090602091828204019190065b9054901a7f010000000000000000000000000000000000000000000000000000000000000002905090565b60405180604001604052806040518060600160405280600360ff168152602001600460ff168152602001600560ff1681525081526020016040518060600160405280600660ff168152602001600760ff168152602001600860ff16815250815250600190600261059c9291906108d9565b50565b6105a761092a565b600960008473ffffffffffffffffffffffffffffffffffffffff1673ffffffffffffffffffffffffffffffffffffffff168152602001908152602001600020600101600083815260200190815260200160002060405180608001604052908160008201548152602001600182015481526020016002820160009054906101000a900473ffffffffffffffffffffffffffffffffffffffff1673ffffffffffffffffffffffffffffffffffffffff1673ffffffffffffffffffffffffffffffffffffffff16815260200160038201805461067f90610faa565b80601f01602080910402602001604051908101604052809291908181526020018280546106ab90610faa565b80156106f85780601f106106cd576101008083540402835291602001916106f8565b820191906000526020600020905b8154815290600101906020018083116106db57829003601f168201915b505050505081525050905092915050565b60606000600a67ffffffffffffffff81111561072857610727611112565b5b6040519080825280602002602001820160405280156107565781602001602082028036833780820191505090505b50905060018160008151811061076f5761076e6110e3565b5b6020026020010181815250508091505090565b60016000806101000a81548160ff021916908360028111156107a7576107a6611085565b5b0217905550565b60075481565b60008054906101000a900460ff1681565b600880546107d290610faa565b80601f01602080910402602001604051908101604052809291908181526020018280546107fe90610faa565b801561084b5780601f106108205761010080835404028352916020019161084b565b820191906000526020600020905b81548152906001019060200180831161082e57829003601f168201915b505050505081565b82805461085f90610faa565b90600052602060002090601f01602090048101928261088157600085556108c8565b82601f1061089a57805160ff19168380011785556108c8565b828001600101855582156108c8579182015b828111156108c75782518255916020019190600101906108ac565b5b5090506108d59190610968565b5090565b8260026003028101928215610919579160200282015b8281111561091857825182906003610908929190610985565b50916020019190600301906108ef565b5b50905061092691906109ca565b5090565b60405180608001604052806000815260200160008152602001600073ffffffffffffffffffffffffffffffffffffffff168152602001606081525090565b5b80821115610981576000816000905550600101610969565b5090565b82600381019282156109b9579160200282015b828111156109b8578251829060ff16905591602001919060010190610998565b5b5090506109c69190610968565b5090565b5b808211156109ea57600081816109e191906109ee565b506003016109cb565b5090565b50600081556001016000815560010160009055565b6000610a16610a1184610e2f565b610e0a565b905082815260208101848484011115610a3257610a31611146565b5b610a3d848285610f68565b509392505050565b600081359050610a548161117a565b92915050565b600082601f830112610a6f57610a6e611141565b5b8135610a7f848260208601610a03565b91505092915050565b600081359050610a9781611191565b92915050565b600060208284031215610ab357610ab2611150565b5b6000610ac184828501610a45565b91505092915050565b60008060408385031215610ae157610ae0611150565b5b6000610aef85828601610a45565b9250506020610b0085828601610a88565b9150509250929050565b600060208284031215610b2057610b1f611150565b5b600082013567ffffffffffffffff811115610b3e57610b3d61114b565b5b610b4a84828501610a5a565b91505092915050565b60008060408385031215610b6a57610b69611150565b5b6000610b7885828601610a88565b9250506020610b8985828601610a88565b9150509250929050565b6000610b9f8383610d1a565b60208301905092915050565b610bb481610ed1565b82525050565b6000610bc582610e70565b610bcf8185610e9e565b9350610bda83610e60565b8060005b83811015610c0b578151610bf28882610b93565b9750610bfd83610e91565b925050600181019050610bde565b5085935050505092915050565b610c2181610ee3565b82525050565b610c3081610f0f565b82525050565b6000610c4182610e7b565b610c4b8185610eaf565b9350610c5b818560208601610f77565b610c6481611155565b840191505092915050565b610c7881610f56565b82525050565b6000610c8982610e86565b610c938185610ec0565b9350610ca3818560208601610f77565b610cac81611155565b840191505092915050565b6000608083016000830151610ccf6000860182610d1a565b506020830151610ce26020860182610d1a565b506040830151610cf56040860182610bab565b5060608301518482036060860152610d0d8282610c7e565b9150508091505092915050565b610d2381610f4c565b82525050565b610d3281610f4c565b82525050565b60006020820190508181036000830152610d528184610bba565b905092915050565b6000602082019050610d6f6000830184610c18565b92915050565b6000602082019050610d8a6000830184610c27565b92915050565b60006020820190508181036000830152610daa8184610c36565b905092915050565b6000602082019050610dc76000830184610c6f565b92915050565b60006020820190508181036000830152610de78184610cb7565b905092915050565b6000602082019050610e046000830184610d29565b92915050565b6000610e14610e25565b9050610e208282610fdc565b919050565b6000604051905090565b600067ffffffffffffffff821115610e4a57610e49611112565b5b610e5382611155565b9050602081019050919050565b6000819050602082019050919050565b600081519050919050565b600081519050919050565b600081519050919050565b6000602082019050919050565b600082825260208201905092915050565b600082825260208201905092915050565b600082825260208201905092915050565b6000610edc82610f2c565b9050919050565b60007fff0000000000000000000000000000000000000000000000000000000000000082169050919050565b6000819050919050565b6000819050610f2782611166565b919050565b600073ffffffffffffffffffffffffffffffffffffffff82169050919050565b6000819050919050565b6000610f6182610f19565b9050919050565b82818337600083830152505050565b60005b83811015610f95578082015181840152602081019050610f7a565b83811115610fa4576000848401525b50505050565b60006002820490506001821680610fc257607f821691505b60208210811415610fd657610fd56110b4565b5b50919050565b610fe582611155565b810181811067ffffffffffffffff8211171561100457611003611112565b5b80604052505050565b600061101882610f4c565b91507fffffffffffffffffffffffffffffffffffffffffffffffffffffffffffffffff82141561104b5761104a611056565b5b600182019050919050565b7f4e487b7100000000000000000000000000000000000000000000000000000000600052601160045260246000fd5b7f4e487b7100000000000000000000000000000000000000000000000000000000600052602160045260246000fd5b7f4e487b7100000000000000000000000000000000000000000000000000000000600052602260045260246000fd5b7f4e487b7100000000000000000000000000000000000000000000000000000000600052603260045260246000fd5b7f4e487b7100000000000000000000000000000000000000000000000000000000600052604160045260246000fd5b600080fd5b600080fd5b600080fd5b600080fd5b6000601f19601f8301169050919050565b6003811061117757611176611085565b5b50565b61118381610ed1565b811461118e57600080fd5b50565b61119a81610f4c565b81146111a557600080fd5b5056fea26469706673582212204ce50cce126d69ccc8bf2f1dcb93d339df6cf4ad639fe2827724f7a4e261747f64736f6c63430008070033",
					"opcodes": "PUSH1 0x80 PUSH1 0x40 MSTORE PUSH32 0x7465737420686572650000000000000000000000000000000000000000000000 PUSH1 0x7 SSTORE PUSH1 0x40 MLOAD DUP1 PUSH1 0x40 ADD PUSH1 0x40 MSTORE DUP1 PUSH1 0x9 DUP2 MSTORE PUSH1 0x20 ADD PUSH32 0x7465737420686572650000000000000000000000000000000000000000000000 DUP2 MSTORE POP PUSH1 0x8 SWAP1 DUP1 MLOAD SWAP1 PUSH1 0x20 ADD SWAP1 PUSH3 0x75 SWAP3 SWAP2 SWAP1 PUSH3 0x8A JUMP JUMPDEST POP CALLVALUE DUP1 ISZERO PUSH3 0x83 JUMPI PUSH1 0x0 DUP1 REVERT JUMPDEST POP PUSH3 0x19F JUMP JUMPDEST DUP3 DUP1 SLOAD PUSH3 0x98 SWAP1 PUSH3 0x13A JUMP JUMPDEST SWAP1 PUSH1 0x0 MSTORE PUSH1 0x20 PUSH1 0x0 KECCAK256 SWAP1 PUSH1 0x1F ADD PUSH1 0x20 SWAP1 DIV DUP2 ADD SWAP3 DUP3 PUSH3 0xBC JUMPI PUSH1 0x0 DUP6 SSTORE PUSH3 0x108 JUMP JUMPDEST DUP3 PUSH1 0x1F LT PUSH3 0xD7 JUMPI DUP1 MLOAD PUSH1 0xFF NOT AND DUP4 DUP1 ADD OR DUP6 SSTORE PUSH3 0x108 JUMP JUMPDEST DUP3 DUP1 ADD PUSH1 0x1 ADD DUP6 SSTORE DUP3 ISZERO PUSH3 0x108 JUMPI SWAP2 DUP3 ADD JUMPDEST DUP3 DUP2 GT ISZERO PUSH3 0x107 JUMPI DUP3 MLOAD DUP3 SSTORE SWAP2 PUSH1 0x20 ADD SWAP2 SWAP1 PUSH1 0x1 ADD SWAP1 PUSH3 0xEA JUMP JUMPDEST JUMPDEST POP SWAP1 POP PUSH3 0x117 SWAP2 SWAP1 PUSH3 0x11B JUMP JUMPDEST POP SWAP1 JUMP JUMPDEST JUMPDEST DUP1 DUP3 GT ISZERO PUSH3 0x136 JUMPI PUSH1 0x0 DUP2 PUSH1 0x0 SWAP1 SSTORE POP PUSH1 0x1 ADD PUSH3 0x11C JUMP JUMPDEST POP SWAP1 JUMP JUMPDEST PUSH1 0x0 PUSH1 0x2 DUP3 DIV SWAP1 POP PUSH1 0x1 DUP3 AND DUP1 PUSH3 0x153 JUMPI PUSH1 0x7F DUP3 AND SWAP2 POP JUMPDEST PUSH1 0x20 DUP3 LT DUP2 EQ ISZERO PUSH3 0x16A JUMPI PUSH3 0x169 PUSH3 0x170 JUMP JUMPDEST JUMPDEST POP SWAP2 SWAP1 POP JUMP JUMPDEST PUSH32 0x4E487B7100000000000000000000000000000000000000000000000000000000 PUSH1 0x0 MSTORE PUSH1 0x22 PUSH1 0x4 MSTORE PUSH1 0x24 PUSH1 0x0 REVERT JUMPDEST PUSH2 0x11DE DUP1 PUSH3 0x1AF PUSH1 0x0 CODECOPY PUSH1 0x0 RETURN INVALID PUSH1 0x80 PUSH1 0x40 MSTORE PUSH1 0x4 CALLDATASIZE LT PUSH2 0xA7 JUMPI PUSH1 0x0 CALLDATALOAD PUSH1 0xE0 SHR DUP1 PUSH4 0x977A767C GT PUSH2 0x64 JUMPI DUP1 PUSH4 0x977A767C EQ PUSH2 0x19B JUMPI DUP1 PUSH4 0xA34343C9 EQ PUSH2 0x1D8 JUMPI DUP1 PUSH4 0xBBDFBFBA EQ PUSH2 0x203 JUMPI DUP1 PUSH4 0xC6B91540 EQ PUSH2 0x21A JUMPI DUP1 PUSH4 0xEF8A9235 EQ PUSH2 0x245 JUMPI DUP1 PUSH4 0xFFB1E210 EQ PUSH2 0x270 JUMPI PUSH2 0xA7 JUMP JUMPDEST DUP1 PUSH4 0x27E235E3 EQ PUSH2 0xAC JUMPI DUP1 PUSH4 0x295B4E17 EQ PUSH2 0xE9 JUMPI DUP1 PUSH4 0x2B66D72E EQ PUSH2 0x100 JUMPI DUP1 PUSH4 0x31E838DD EQ PUSH2 0x11C JUMPI DUP1 PUSH4 0x654C914F EQ PUSH2 0x159 JUMPI DUP1 PUSH4 0x736172D3 EQ PUSH2 0x184 JUMPI JUMPDEST PUSH1 0x0 DUP1 REVERT JUMPDEST CALLVALUE DUP1 ISZERO PUSH2 0xB8 JUMPI PUSH1 0x0 DUP1 REVERT JUMPDEST POP PUSH2 0xD3 PUSH1 0x4 DUP1 CALLDATASIZE SUB DUP2 ADD SWAP1 PUSH2 0xCE SWAP2 SWAP1 PUSH2 0xA9D JUMP JUMPDEST PUSH2 0x29B JUMP JUMPDEST PUSH1 0x40 MLOAD PUSH2 0xE0 SWAP2 SWAP1 PUSH2 0xDEF JUMP JUMPDEST PUSH1 0x40 MLOAD DUP1 SWAP2 SUB SWAP1 RETURN JUMPDEST CALLVALUE DUP1 ISZERO PUSH2 0xF5 JUMPI PUSH1 0x0 DUP1 REVERT JUMPDEST POP PUSH2 0xFE PUSH2 0x2B9 JUMP JUMPDEST STOP JUMPDEST PUSH2 0x11A PUSH1 0x4 DUP1 CALLDATASIZE SUB DUP2 ADD SWAP1 PUSH2 0x115 SWAP2 SWAP1 PUSH2 0xB0A JUMP JUMPDEST PUSH2 0x2E5 JUMP JUMPDEST STOP JUMPDEST CALLVALUE DUP1 ISZERO PUSH2 0x128 JUMPI PUSH1 0x0 DUP1 REVERT JUMPDEST POP PUSH2 0x143 PUSH1 0x4 DUP1 CALLDATASIZE SUB DUP2 ADD SWAP1 PUSH2 0x13E SWAP2 SWAP1 PUSH2 0xB53 JUMP JUMPDEST PUSH2 0x493 JUMP JUMPDEST PUSH1 0x40 MLOAD PUSH2 0x150 SWAP2 SWAP1 PUSH2 0xDEF JUMP JUMPDEST PUSH1 0x40 MLOAD DUP1 SWAP2 SUB SWAP1 RETURN JUMPDEST CALLVALUE DUP1 ISZERO PUSH2 0x165 JUMPI PUSH1 0x0 DUP1 REVERT JUMPDEST POP PUSH2 0x16E PUSH2 0x4C1 JUMP JUMPDEST PUSH1 0x40 MLOAD PUSH2 0x17B SWAP2 SWAP1 PUSH2 0xD5A JUMP JUMPDEST PUSH1 0x40 MLOAD DUP1 SWAP2 SUB SWAP1 RETURN JUMPDEST CALLVALUE DUP1 ISZERO PUSH2 0x190 JUMPI PUSH1 0x0 DUP1 REVERT JUMPDEST POP PUSH2 0x199 PUSH2 0x52B JUMP JUMPDEST STOP JUMPDEST CALLVALUE DUP1 ISZERO PUSH2 0x1A7 JUMPI PUSH1 0x0 DUP1 REVERT JUMPDEST POP PUSH2 0x1C2 PUSH1 0x4 DUP1 CALLDATASIZE SUB DUP2 ADD SWAP1 PUSH2 0x1BD SWAP2 SWAP1 PUSH2 0xACA JUMP JUMPDEST PUSH2 0x59F JUMP JUMPDEST PUSH1 0x40 MLOAD PUSH2 0x1CF SWAP2 SWAP1 PUSH2 0xDCD JUMP JUMPDEST PUSH1 0x40 MLOAD DUP1 SWAP2 SUB SWAP1 RETURN JUMPDEST CALLVALUE DUP1 ISZERO PUSH2 0x1E4 JUMPI PUSH1 0x0 DUP1 REVERT JUMPDEST POP PUSH2 0x1ED PUSH2 0x709 JUMP JUMPDEST PUSH1 0x40 MLOAD PUSH2 0x1FA SWAP2 SWAP1 PUSH2 0xD38 JUMP JUMPDEST PUSH1 0x40 MLOAD DUP1 SWAP2 SUB SWAP1 RETURN JUMPDEST CALLVALUE DUP1 ISZERO PUSH2 0x20F JUMPI PUSH1 0x0 DUP1 REVERT JUMPDEST POP PUSH2 0x218 PUSH2 0x782 JUMP JUMPDEST STOP JUMPDEST CALLVALUE DUP1 ISZERO PUSH2 0x226 JUMPI PUSH1 0x0 DUP1 REVERT JUMPDEST POP PUSH2 0x22F PUSH2 0x7AE JUMP JUMPDEST PUSH1 0x40 MLOAD PUSH2 0x23C SWAP2 SWAP1 PUSH2 0xD75 JUMP JUMPDEST PUSH1 0x40 MLOAD DUP1 SWAP2 SUB SWAP1 RETURN JUMPDEST CALLVALUE DUP1 ISZERO PUSH2 0x251 JUMPI PUSH1 0x0 DUP1 REVERT JUMPDEST POP PUSH2 0x25A PUSH2 0x7B4 JUMP JUMPDEST PUSH1 0x40 MLOAD PUSH2 0x267 SWAP2 SWAP1 PUSH2 0xDB2 JUMP JUMPDEST PUSH1 0x40 MLOAD DUP1 SWAP2 SUB SWAP1 RETURN JUMPDEST CALLVALUE DUP1 ISZERO PUSH2 0x27C JUMPI PUSH1 0x0 DUP1 REVERT JUMPDEST POP PUSH2 0x285 PUSH2 0x7C5 JUMP JUMPDEST PUSH1 0x40 MLOAD PUSH2 0x292 SWAP2 SWAP1 PUSH2 0xD90 JUMP JUMPDEST PUSH1 0x40 MLOAD DUP1 SWAP2 SUB SWAP1 RETURN JUMPDEST PUSH1 0x9 PUSH1 0x20 MSTORE DUP1 PUSH1 0x0 MSTORE PUSH1 0x40 PUSH1 0x0 KECCAK256 PUSH1 0x0 SWAP2 POP SWAP1 POP DUP1 PUSH1 0x0 ADD SLOAD SWAP1 POP DUP2 JUMP JUMPDEST PUSH1 0x0 DUP1 PUSH1 0x0 PUSH2 0x100 EXP DUP2 SLOAD DUP2 PUSH1 0xFF MUL NOT AND SWAP1 DUP4 PUSH1 0x2 DUP2 GT ISZERO PUSH2 0x2DE JUMPI PUSH2 0x2DD PUSH2 0x1085 JUMP JUMPDEST JUMPDEST MUL OR SWAP1 SSTORE POP JUMP JUMPDEST PUSH1 0x0 PUSH1 0x9 PUSH1 0x0 CALLER PUSH20 0xFFFFFFFFFFFFFFFFFFFFFFFFFFFFFFFFFFFFFFFF AND PUSH20 0xFFFFFFFFFFFFFFFFFFFFFFFFFFFFFFFFFFFFFFFF AND DUP2 MSTORE PUSH1 0x20 ADD SWAP1 DUP2 MSTORE PUSH1 0x20 ADD PUSH1 0x0 KECCAK256 PUSH1 0x0 ADD SLOAD SWAP1 POP PUSH1 0x9 PUSH1 0x0 CALLER PUSH20 0xFFFFFFFFFFFFFFFFFFFFFFFFFFFFFFFFFFFFFFFF AND PUSH20 0xFFFFFFFFFFFFFFFFFFFFFFFFFFFFFFFFFFFFFFFF AND DUP2 MSTORE PUSH1 0x20 ADD SWAP1 DUP2 MSTORE PUSH1 0x20 ADD PUSH1 0x0 KECCAK256 PUSH1 0x0 ADD PUSH1 0x0 DUP2 SLOAD DUP1 SWAP3 SWAP2 SWAP1 PUSH2 0x37F SWAP1 PUSH2 0x100D JUMP JUMPDEST SWAP2 SWAP1 POP SSTORE POP PUSH1 0x0 PUSH1 0x40 MLOAD DUP1 PUSH1 0x80 ADD PUSH1 0x40 MSTORE DUP1 CALLVALUE DUP2 MSTORE PUSH1 0x20 ADD TIMESTAMP DUP2 MSTORE PUSH1 0x20 ADD CALLER PUSH20 0xFFFFFFFFFFFFFFFFFFFFFFFFFFFFFFFFFFFFFFFF AND DUP2 MSTORE PUSH1 0x20 ADD DUP5 DUP2 MSTORE POP SWAP1 POP DUP1 PUSH1 0x9 PUSH1 0x0 CALLER PUSH20 0xFFFFFFFFFFFFFFFFFFFFFFFFFFFFFFFFFFFFFFFF AND PUSH20 0xFFFFFFFFFFFFFFFFFFFFFFFFFFFFFFFFFFFFFFFF AND DUP2 MSTORE PUSH1 0x20 ADD SWAP1 DUP2 MSTORE PUSH1 0x20 ADD PUSH1 0x0 KECCAK256 PUSH1 0x1 ADD PUSH1 0x0 DUP5 DUP2 MSTORE PUSH1 0x20 ADD SWAP1 DUP2 MSTORE PUSH1 0x20 ADD PUSH1 0x0 KECCAK256 PUSH1 0x0 DUP3 ADD MLOAD DUP2 PUSH1 0x0 ADD SSTORE PUSH1 0x20 DUP3 ADD MLOAD DUP2 PUSH1 0x1 ADD SSTORE PUSH1 0x40 DUP3 ADD MLOAD DUP2 PUSH1 0x2 ADD PUSH1 0x0 PUSH2 0x100 EXP DUP2 SLOAD DUP2 PUSH20 0xFFFFFFFFFFFFFFFFFFFFFFFFFFFFFFFFFFFFFFFF MUL NOT AND SWAP1 DUP4 PUSH20 0xFFFFFFFFFFFFFFFFFFFFFFFFFFFFFFFFFFFFFFFF AND MUL OR SWAP1 SSTORE POP PUSH1 0x60 DUP3 ADD MLOAD DUP2 PUSH1 0x3 ADD SWAP1 DUP1 MLOAD SWAP1 PUSH1 0x20 ADD SWAP1 PUSH2 0x48A SWAP3 SWAP2 SWAP1 PUSH2 0x853 JUMP JUMPDEST POP SWAP1 POP POP POP POP POP JUMP JUMPDEST PUSH1 0x1 DUP3 PUSH1 0x2 DUP2 LT PUSH2 0x4A3 JUMPI PUSH1 0x0 DUP1 REVERT JUMPDEST PUSH1 0x3 MUL ADD DUP2 PUSH1 0x3 DUP2 LT PUSH2 0x4B5 JUMPI PUSH1 0x0 DUP1 REVERT JUMPDEST ADD PUSH1 0x0 SWAP2 POP SWAP2 POP POP SLOAD DUP2 JUMP JUMPDEST PUSH1 0x0 PUSH1 0x8 PUSH1 0x0 DUP2 SLOAD PUSH2 0x4D2 SWAP1 PUSH2 0xFAA JUMP JUMPDEST DUP2 LT PUSH2 0x4E1 JUMPI PUSH2 0x4E0 PUSH2 0x10E3 JUMP JUMPDEST JUMPDEST DUP2 SLOAD PUSH1 0x1 AND ISZERO PUSH2 0x500 JUMPI SWAP1 PUSH1 0x0 MSTORE PUSH1 0x20 PUSH1 0x0 KECCAK256 SWAP1 PUSH1 0x20 SWAP2 DUP3 DUP3 DIV ADD SWAP2 SWAP1 MOD JUMPDEST SWAP1 SLOAD SWAP1 BYTE PUSH32 0x100000000000000000000000000000000000000000000000000000000000000 MUL SWAP1 POP SWAP1 JUMP JUMPDEST PUSH1 0x40 MLOAD DUP1 PUSH1 0x40 ADD PUSH1 0x40 MSTORE DUP1 PUSH1 0x40 MLOAD DUP1 PUSH1 0x60 ADD PUSH1 0x40 MSTORE DUP1 PUSH1 0x3 PUSH1 0xFF AND DUP2 MSTORE PUSH1 0x20 ADD PUSH1 0x4 PUSH1 0xFF AND DUP2 MSTORE PUSH1 0x20 ADD PUSH1 0x5 PUSH1 0xFF AND DUP2 MSTORE POP DUP2 MSTORE PUSH1 0x20 ADD PUSH1 0x40 MLOAD DUP1 PUSH1 0x60 ADD PUSH1 0x40 MSTORE DUP1 PUSH1 0x6 PUSH1 0xFF AND DUP2 MSTORE PUSH1 0x20 ADD PUSH1 0x7 PUSH1 0xFF AND DUP2 MSTORE PUSH1 0x20 ADD PUSH1 0x8 PUSH1 0xFF AND DUP2 MSTORE POP DUP2 MSTORE POP PUSH1 0x1 SWAP1 PUSH1 0x2 PUSH2 0x59C SWAP3 SWAP2 SWAP1 PUSH2 0x8D9 JUMP JUMPDEST POP JUMP JUMPDEST PUSH2 0x5A7 PUSH2 0x92A JUMP JUMPDEST PUSH1 0x9 PUSH1 0x0 DUP5 PUSH20 0xFFFFFFFFFFFFFFFFFFFFFFFFFFFFFFFFFFFFFFFF AND PUSH20 0xFFFFFFFFFFFFFFFFFFFFFFFFFFFFFFFFFFFFFFFF AND DUP2 MSTORE PUSH1 0x20 ADD SWAP1 DUP2 MSTORE PUSH1 0x20 ADD PUSH1 0x0 KECCAK256 PUSH1 0x1 ADD PUSH1 0x0 DUP4 DUP2 MSTORE PUSH1 0x20 ADD SWAP1 DUP2 MSTORE PUSH1 0x20 ADD PUSH1 0x0 KECCAK256 PUSH1 0x40 MLOAD DUP1 PUSH1 0x80 ADD PUSH1 0x40 MSTORE SWAP1 DUP2 PUSH1 0x0 DUP3 ADD SLOAD DUP2 MSTORE PUSH1 0x20 ADD PUSH1 0x1 DUP3 ADD SLOAD DUP2 MSTORE PUSH1 0x20 ADD PUSH1 0x2 DUP3 ADD PUSH1 0x0 SWAP1 SLOAD SWAP1 PUSH2 0x100 EXP SWAP1 DIV PUSH20 0xFFFFFFFFFFFFFFFFFFFFFFFFFFFFFFFFFFFFFFFF AND PUSH20 0xFFFFFFFFFFFFFFFFFFFFFFFFFFFFFFFFFFFFFFFF AND PUSH20 0xFFFFFFFFFFFFFFFFFFFFFFFFFFFFFFFFFFFFFFFF AND DUP2 MSTORE PUSH1 0x20 ADD PUSH1 0x3 DUP3 ADD DUP1 SLOAD PUSH2 0x67F SWAP1 PUSH2 0xFAA JUMP JUMPDEST DUP1 PUSH1 0x1F ADD PUSH1 0x20 DUP1 SWAP2 DIV MUL PUSH1 0x20 ADD PUSH1 0x40 MLOAD SWAP1 DUP2 ADD PUSH1 0x40 MSTORE DUP1 SWAP3 SWAP2 SWAP1 DUP2 DUP2 MSTORE PUSH1 0x20 ADD DUP3 DUP1 SLOAD PUSH2 0x6AB SWAP1 PUSH2 0xFAA JUMP JUMPDEST DUP1 ISZERO PUSH2 0x6F8 JUMPI DUP1 PUSH1 0x1F LT PUSH2 0x6CD JUMPI PUSH2 0x100 DUP1 DUP4 SLOAD DIV MUL DUP4 MSTORE SWAP2 PUSH1 0x20 ADD SWAP2 PUSH2 0x6F8 JUMP JUMPDEST DUP3 ADD SWAP2 SWAP1 PUSH1 0x0 MSTORE PUSH1 0x20 PUSH1 0x0 KECCAK256 SWAP1 JUMPDEST DUP2 SLOAD DUP2 MSTORE SWAP1 PUSH1 0x1 ADD SWAP1 PUSH1 0x20 ADD DUP1 DUP4 GT PUSH2 0x6DB JUMPI DUP3 SWAP1 SUB PUSH1 0x1F AND DUP3 ADD SWAP2 JUMPDEST POP POP POP POP POP DUP2 MSTORE POP POP SWAP1 POP SWAP3 SWAP2 POP POP JUMP JUMPDEST PUSH1 0x60 PUSH1 0x0 PUSH1 0xA PUSH8 0xFFFFFFFFFFFFFFFF DUP2 GT ISZERO PUSH2 0x728 JUMPI PUSH2 0x727 PUSH2 0x1112 JUMP JUMPDEST JUMPDEST PUSH1 0x40 MLOAD SWAP1 DUP1 DUP3 MSTORE DUP1 PUSH1 0x20 MUL PUSH1 0x20 ADD DUP3 ADD PUSH1 0x40 MSTORE DUP1 ISZERO PUSH2 0x756 JUMPI DUP2 PUSH1 0x20 ADD PUSH1 0x20 DUP3 MUL DUP1 CALLDATASIZE DUP4 CALLDATACOPY DUP1 DUP3 ADD SWAP2 POP POP SWAP1 POP JUMPDEST POP SWAP1 POP PUSH1 0x1 DUP2 PUSH1 0x0 DUP2 MLOAD DUP2 LT PUSH2 0x76F JUMPI PUSH2 0x76E PUSH2 0x10E3 JUMP JUMPDEST JUMPDEST PUSH1 0x20 MUL PUSH1 0x20 ADD ADD DUP2 DUP2 MSTORE POP POP DUP1 SWAP2 POP POP SWAP1 JUMP JUMPDEST PUSH1 0x1 PUSH1 0x0 DUP1 PUSH2 0x100 EXP DUP2 SLOAD DUP2 PUSH1 0xFF MUL NOT AND SWAP1 DUP4 PUSH1 0x2 DUP2 GT ISZERO PUSH2 0x7A7 JUMPI PUSH2 0x7A6 PUSH2 0x1085 JUMP JUMPDEST JUMPDEST MUL OR SWAP1 SSTORE POP JUMP JUMPDEST PUSH1 0x7 SLOAD DUP2 JUMP JUMPDEST PUSH1 0x0 DUP1 SLOAD SWAP1 PUSH2 0x100 EXP SWAP1 DIV PUSH1 0xFF AND DUP2 JUMP JUMPDEST PUSH1 0x8 DUP1 SLOAD PUSH2 0x7D2 SWAP1 PUSH2 0xFAA JUMP JUMPDEST DUP1 PUSH1 0x1F ADD PUSH1 0x20 DUP1 SWAP2 DIV MUL PUSH1 0x20 ADD PUSH1 0x40 MLOAD SWAP1 DUP2 ADD PUSH1 0x40 MSTORE DUP1 SWAP3 SWAP2 SWAP1 DUP2 DUP2 MSTORE PUSH1 0x20 ADD DUP3 DUP1 SLOAD PUSH2 0x7FE SWAP1 PUSH2 0xFAA JUMP JUMPDEST DUP1 ISZERO PUSH2 0x84B JUMPI DUP1 PUSH1 0x1F LT PUSH2 0x820 JUMPI PUSH2 0x100 DUP1 DUP4 SLOAD DIV MUL DUP4 MSTORE SWAP2 PUSH1 0x20 ADD SWAP2 PUSH2 0x84B JUMP JUMPDEST DUP3 ADD SWAP2 SWAP1 PUSH1 0x0 MSTORE PUSH1 0x20 PUSH1 0x0 KECCAK256 SWAP1 JUMPDEST DUP2 SLOAD DUP2 MSTORE SWAP1 PUSH1 0x1 ADD SWAP1 PUSH1 0x20 ADD DUP1 DUP4 GT PUSH2 0x82E JUMPI DUP3 SWAP1 SUB PUSH1 0x1F AND DUP3 ADD SWAP2 JUMPDEST POP POP POP POP POP DUP2 JUMP JUMPDEST DUP3 DUP1 SLOAD PUSH2 0x85F SWAP1 PUSH2 0xFAA JUMP JUMPDEST SWAP1 PUSH1 0x0 MSTORE PUSH1 0x20 PUSH1 0x0 KECCAK256 SWAP1 PUSH1 0x1F ADD PUSH1 0x20 SWAP1 DIV DUP2 ADD SWAP3 DUP3 PUSH2 0x881 JUMPI PUSH1 0x0 DUP6 SSTORE PUSH2 0x8C8 JUMP JUMPDEST DUP3 PUSH1 0x1F LT PUSH2 0x89A JUMPI DUP1 MLOAD PUSH1 0xFF NOT AND DUP4 DUP1 ADD OR DUP6 SSTORE PUSH2 0x8C8 JUMP JUMPDEST DUP3 DUP1 ADD PUSH1 0x1 ADD DUP6 SSTORE DUP3 ISZERO PUSH2 0x8C8 JUMPI SWAP2 DUP3 ADD JUMPDEST DUP3 DUP2 GT ISZERO PUSH2 0x8C7 JUMPI DUP3 MLOAD DUP3 SSTORE SWAP2 PUSH1 0x20 ADD SWAP2 SWAP1 PUSH1 0x1 ADD SWAP1 PUSH2 0x8AC JUMP JUMPDEST JUMPDEST POP SWAP1 POP PUSH2 0x8D5 SWAP2 SWAP1 PUSH2 0x968 JUMP JUMPDEST POP SWAP1 JUMP JUMPDEST DUP3 PUSH1 0x2 PUSH1 0x3 MUL DUP2 ADD SWAP3 DUP3 ISZERO PUSH2 0x919 JUMPI SWAP2 PUSH1 0x20 MUL DUP3 ADD JUMPDEST DUP3 DUP2 GT ISZERO PUSH2 0x918 JUMPI DUP3 MLOAD DUP3 SWAP1 PUSH1 0x3 PUSH2 0x908 SWAP3 SWAP2 SWAP1 PUSH2 0x985 JUMP JUMPDEST POP SWAP2 PUSH1 0x20 ADD SWAP2 SWAP1 PUSH1 0x3 ADD SWAP1 PUSH2 0x8EF JUMP JUMPDEST JUMPDEST POP SWAP1 POP PUSH2 0x926 SWAP2 SWAP1 PUSH2 0x9CA JUMP JUMPDEST POP SWAP1 JUMP JUMPDEST PUSH1 0x40 MLOAD DUP1 PUSH1 0x80 ADD PUSH1 0x40 MSTORE DUP1 PUSH1 0x0 DUP2 MSTORE PUSH1 0x20 ADD PUSH1 0x0 DUP2 MSTORE PUSH1 0x20 ADD PUSH1 0x0 PUSH20 0xFFFFFFFFFFFFFFFFFFFFFFFFFFFFFFFFFFFFFFFF AND DUP2 MSTORE PUSH1 0x20 ADD PUSH1 0x60 DUP2 MSTORE POP SWAP1 JUMP JUMPDEST JUMPDEST DUP1 DUP3 GT ISZERO PUSH2 0x981 JUMPI PUSH1 0x0 DUP2 PUSH1 0x0 SWAP1 SSTORE POP PUSH1 0x1 ADD PUSH2 0x969 JUMP JUMPDEST POP SWAP1 JUMP JUMPDEST DUP3 PUSH1 0x3 DUP2 ADD SWAP3 DUP3 ISZERO PUSH2 0x9B9 JUMPI SWAP2 PUSH1 0x20 MUL DUP3 ADD JUMPDEST DUP3 DUP2 GT ISZERO PUSH2 0x9B8 JUMPI DUP3 MLOAD DUP3 SWAP1 PUSH1 0xFF AND SWAP1 SSTORE SWAP2 PUSH1 0x20 ADD SWAP2 SWAP1 PUSH1 0x1 ADD SWAP1 PUSH2 0x998 JUMP JUMPDEST JUMPDEST POP SWAP1 POP PUSH2 0x9C6 SWAP2 SWAP1 PUSH2 0x968 JUMP JUMPDEST POP SWAP1 JUMP JUMPDEST JUMPDEST DUP1 DUP3 GT ISZERO PUSH2 0x9EA JUMPI PUSH1 0x0 DUP2 DUP2 PUSH2 0x9E1 SWAP2 SWAP1 PUSH2 0x9EE JUMP JUMPDEST POP PUSH1 0x3 ADD PUSH2 0x9CB JUMP JUMPDEST POP SWAP1 JUMP JUMPDEST POP PUSH1 0x0 DUP2 SSTORE PUSH1 0x1 ADD PUSH1 0x0 DUP2 SSTORE PUSH1 0x1 ADD PUSH1 0x0 SWAP1 SSTORE JUMP JUMPDEST PUSH1 0x0 PUSH2 0xA16 PUSH2 0xA11 DUP5 PUSH2 0xE2F JUMP JUMPDEST PUSH2 0xE0A JUMP JUMPDEST SWAP1 POP DUP3 DUP2 MSTORE PUSH1 0x20 DUP2 ADD DUP5 DUP5 DUP5 ADD GT ISZERO PUSH2 0xA32 JUMPI PUSH2 0xA31 PUSH2 0x1146 JUMP JUMPDEST JUMPDEST PUSH2 0xA3D DUP5 DUP3 DUP6 PUSH2 0xF68 JUMP JUMPDEST POP SWAP4 SWAP3 POP POP POP JUMP JUMPDEST PUSH1 0x0 DUP2 CALLDATALOAD SWAP1 POP PUSH2 0xA54 DUP2 PUSH2 0x117A JUMP JUMPDEST SWAP3 SWAP2 POP POP JUMP JUMPDEST PUSH1 0x0 DUP3 PUSH1 0x1F DUP4 ADD SLT PUSH2 0xA6F JUMPI PUSH2 0xA6E PUSH2 0x1141 JUMP JUMPDEST JUMPDEST DUP2 CALLDATALOAD PUSH2 0xA7F DUP5 DUP3 PUSH1 0x20 DUP7 ADD PUSH2 0xA03 JUMP JUMPDEST SWAP2 POP POP SWAP3 SWAP2 POP POP JUMP JUMPDEST PUSH1 0x0 DUP2 CALLDATALOAD SWAP1 POP PUSH2 0xA97 DUP2 PUSH2 0x1191 JUMP JUMPDEST SWAP3 SWAP2 POP POP JUMP JUMPDEST PUSH1 0x0 PUSH1 0x20 DUP3 DUP5 SUB SLT ISZERO PUSH2 0xAB3 JUMPI PUSH2 0xAB2 PUSH2 0x1150 JUMP JUMPDEST JUMPDEST PUSH1 0x0 PUSH2 0xAC1 DUP5 DUP3 DUP6 ADD PUSH2 0xA45 JUMP JUMPDEST SWAP2 POP POP SWAP3 SWAP2 POP POP JUMP JUMPDEST PUSH1 0x0 DUP1 PUSH1 0x40 DUP4 DUP6 SUB SLT ISZERO PUSH2 0xAE1 JUMPI PUSH2 0xAE0 PUSH2 0x1150 JUMP JUMPDEST JUMPDEST PUSH1 0x0 PUSH2 0xAEF DUP6 DUP3 DUP7 ADD PUSH2 0xA45 JUMP JUMPDEST SWAP3 POP POP PUSH1 0x20 PUSH2 0xB00 DUP6 DUP3 DUP7 ADD PUSH2 0xA88 JUMP JUMPDEST SWAP2 POP POP SWAP3 POP SWAP3 SWAP1 POP JUMP JUMPDEST PUSH1 0x0 PUSH1 0x20 DUP3 DUP5 SUB SLT ISZERO PUSH2 0xB20 JUMPI PUSH2 0xB1F PUSH2 0x1150 JUMP JUMPDEST JUMPDEST PUSH1 0x0 DUP3 ADD CALLDATALOAD PUSH8 0xFFFFFFFFFFFFFFFF DUP2 GT ISZERO PUSH2 0xB3E JUMPI PUSH2 0xB3D PUSH2 0x114B JUMP JUMPDEST JUMPDEST PUSH2 0xB4A DUP5 DUP3 DUP6 ADD PUSH2 0xA5A JUMP JUMPDEST SWAP2 POP POP SWAP3 SWAP2 POP POP JUMP JUMPDEST PUSH1 0x0 DUP1 PUSH1 0x40 DUP4 DUP6 SUB SLT ISZERO PUSH2 0xB6A JUMPI PUSH2 0xB69 PUSH2 0x1150 JUMP JUMPDEST JUMPDEST PUSH1 0x0 PUSH2 0xB78 DUP6 DUP3 DUP7 ADD PUSH2 0xA88 JUMP JUMPDEST SWAP3 POP POP PUSH1 0x20 PUSH2 0xB89 DUP6 DUP3 DUP7 ADD PUSH2 0xA88 JUMP JUMPDEST SWAP2 POP POP SWAP3 POP SWAP3 SWAP1 POP JUMP JUMPDEST PUSH1 0x0 PUSH2 0xB9F DUP4 DUP4 PUSH2 0xD1A JUMP JUMPDEST PUSH1 0x20 DUP4 ADD SWAP1 POP SWAP3 SWAP2 POP POP JUMP JUMPDEST PUSH2 0xBB4 DUP2 PUSH2 0xED1 JUMP JUMPDEST DUP3 MSTORE POP POP JUMP JUMPDEST PUSH1 0x0 PUSH2 0xBC5 DUP3 PUSH2 0xE70 JUMP JUMPDEST PUSH2 0xBCF DUP2 DUP6 PUSH2 0xE9E JUMP JUMPDEST SWAP4 POP PUSH2 0xBDA DUP4 PUSH2 0xE60 JUMP JUMPDEST DUP1 PUSH1 0x0 JUMPDEST DUP4 DUP2 LT ISZERO PUSH2 0xC0B JUMPI DUP2 MLOAD PUSH2 0xBF2 DUP9 DUP3 PUSH2 0xB93 JUMP JUMPDEST SWAP8 POP PUSH2 0xBFD DUP4 PUSH2 0xE91 JUMP JUMPDEST SWAP3 POP POP PUSH1 0x1 DUP2 ADD SWAP1 POP PUSH2 0xBDE JUMP JUMPDEST POP DUP6 SWAP4 POP POP POP POP SWAP3 SWAP2 POP POP JUMP JUMPDEST PUSH2 0xC21 DUP2 PUSH2 0xEE3 JUMP JUMPDEST DUP3 MSTORE POP POP JUMP JUMPDEST PUSH2 0xC30 DUP2 PUSH2 0xF0F JUMP JUMPDEST DUP3 MSTORE POP POP JUMP JUMPDEST PUSH1 0x0 PUSH2 0xC41 DUP3 PUSH2 0xE7B JUMP JUMPDEST PUSH2 0xC4B DUP2 DUP6 PUSH2 0xEAF JUMP JUMPDEST SWAP4 POP PUSH2 0xC5B DUP2 DUP6 PUSH1 0x20 DUP7 ADD PUSH2 0xF77 JUMP JUMPDEST PUSH2 0xC64 DUP2 PUSH2 0x1155 JUMP JUMPDEST DUP5 ADD SWAP2 POP POP SWAP3 SWAP2 POP POP JUMP JUMPDEST PUSH2 0xC78 DUP2 PUSH2 0xF56 JUMP JUMPDEST DUP3 MSTORE POP POP JUMP JUMPDEST PUSH1 0x0 PUSH2 0xC89 DUP3 PUSH2 0xE86 JUMP JUMPDEST PUSH2 0xC93 DUP2 DUP6 PUSH2 0xEC0 JUMP JUMPDEST SWAP4 POP PUSH2 0xCA3 DUP2 DUP6 PUSH1 0x20 DUP7 ADD PUSH2 0xF77 JUMP JUMPDEST PUSH2 0xCAC DUP2 PUSH2 0x1155 JUMP JUMPDEST DUP5 ADD SWAP2 POP POP SWAP3 SWAP2 POP POP JUMP JUMPDEST PUSH1 0x0 PUSH1 0x80 DUP4 ADD PUSH1 0x0 DUP4 ADD MLOAD PUSH2 0xCCF PUSH1 0x0 DUP7 ADD DUP3 PUSH2 0xD1A JUMP JUMPDEST POP PUSH1 0x20 DUP4 ADD MLOAD PUSH2 0xCE2 PUSH1 0x20 DUP7 ADD DUP3 PUSH2 0xD1A JUMP JUMPDEST POP PUSH1 0x40 DUP4 ADD MLOAD PUSH2 0xCF5 PUSH1 0x40 DUP7 ADD DUP3 PUSH2 0xBAB JUMP JUMPDEST POP PUSH1 0x60 DUP4 ADD MLOAD DUP5 DUP3 SUB PUSH1 0x60 DUP7 ADD MSTORE PUSH2 0xD0D DUP3 DUP3 PUSH2 0xC7E JUMP JUMPDEST SWAP2 POP POP DUP1 SWAP2 POP POP SWAP3 SWAP2 POP POP JUMP JUMPDEST PUSH2 0xD23 DUP2 PUSH2 0xF4C JUMP JUMPDEST DUP3 MSTORE POP POP JUMP JUMPDEST PUSH2 0xD32 DUP2 PUSH2 0xF4C JUMP JUMPDEST DUP3 MSTORE POP POP JUMP JUMPDEST PUSH1 0x0 PUSH1 0x20 DUP3 ADD SWAP1 POP DUP2 DUP2 SUB PUSH1 0x0 DUP4 ADD MSTORE PUSH2 0xD52 DUP2 DUP5 PUSH2 0xBBA JUMP JUMPDEST SWAP1 POP SWAP3 SWAP2 POP POP JUMP JUMPDEST PUSH1 0x0 PUSH1 0x20 DUP3 ADD SWAP1 POP PUSH2 0xD6F PUSH1 0x0 DUP4 ADD DUP5 PUSH2 0xC18 JUMP JUMPDEST SWAP3 SWAP2 POP POP JUMP JUMPDEST PUSH1 0x0 PUSH1 0x20 DUP3 ADD SWAP1 POP PUSH2 0xD8A PUSH1 0x0 DUP4 ADD DUP5 PUSH2 0xC27 JUMP JUMPDEST SWAP3 SWAP2 POP POP JUMP JUMPDEST PUSH1 0x0 PUSH1 0x20 DUP3 ADD SWAP1 POP DUP2 DUP2 SUB PUSH1 0x0 DUP4 ADD MSTORE PUSH2 0xDAA DUP2 DUP5 PUSH2 0xC36 JUMP JUMPDEST SWAP1 POP SWAP3 SWAP2 POP POP JUMP JUMPDEST PUSH1 0x0 PUSH1 0x20 DUP3 ADD SWAP1 POP PUSH2 0xDC7 PUSH1 0x0 DUP4 ADD DUP5 PUSH2 0xC6F JUMP JUMPDEST SWAP3 SWAP2 POP POP JUMP JUMPDEST PUSH1 0x0 PUSH1 0x20 DUP3 ADD SWAP1 POP DUP2 DUP2 SUB PUSH1 0x0 DUP4 ADD MSTORE PUSH2 0xDE7 DUP2 DUP5 PUSH2 0xCB7 JUMP JUMPDEST SWAP1 POP SWAP3 SWAP2 POP POP JUMP JUMPDEST PUSH1 0x0 PUSH1 0x20 DUP3 ADD SWAP1 POP PUSH2 0xE04 PUSH1 0x0 DUP4 ADD DUP5 PUSH2 0xD29 JUMP JUMPDEST SWAP3 SWAP2 POP POP JUMP JUMPDEST PUSH1 0x0 PUSH2 0xE14 PUSH2 0xE25 JUMP JUMPDEST SWAP1 POP PUSH2 0xE20 DUP3 DUP3 PUSH2 0xFDC JUMP JUMPDEST SWAP2 SWAP1 POP JUMP JUMPDEST PUSH1 0x0 PUSH1 0x40 MLOAD SWAP1 POP SWAP1 JUMP JUMPDEST PUSH1 0x0 PUSH8 0xFFFFFFFFFFFFFFFF DUP3 GT ISZERO PUSH2 0xE4A JUMPI PUSH2 0xE49 PUSH2 0x1112 JUMP JUMPDEST JUMPDEST PUSH2 0xE53 DUP3 PUSH2 0x1155 JUMP JUMPDEST SWAP1 POP PUSH1 0x20 DUP2 ADD SWAP1 POP SWAP2 SWAP1 POP JUMP JUMPDEST PUSH1 0x0 DUP2 SWAP1 POP PUSH1 0x20 DUP3 ADD SWAP1 POP SWAP2 SWAP1 POP JUMP JUMPDEST PUSH1 0x0 DUP2 MLOAD SWAP1 POP SWAP2 SWAP1 POP JUMP JUMPDEST PUSH1 0x0 DUP2 MLOAD SWAP1 POP SWAP2 SWAP1 POP JUMP JUMPDEST PUSH1 0x0 DUP2 MLOAD SWAP1 POP SWAP2 SWAP1 POP JUMP JUMPDEST PUSH1 0x0 PUSH1 0x20 DUP3 ADD SWAP1 POP SWAP2 SWAP1 POP JUMP JUMPDEST PUSH1 0x0 DUP3 DUP3 MSTORE PUSH1 0x20 DUP3 ADD SWAP1 POP SWAP3 SWAP2 POP POP JUMP JUMPDEST PUSH1 0x0 DUP3 DUP3 MSTORE PUSH1 0x20 DUP3 ADD SWAP1 POP SWAP3 SWAP2 POP POP JUMP JUMPDEST PUSH1 0x0 DUP3 DUP3 MSTORE PUSH1 0x20 DUP3 ADD SWAP1 POP SWAP3 SWAP2 POP POP JUMP JUMPDEST PUSH1 0x0 PUSH2 0xEDC DUP3 PUSH2 0xF2C JUMP JUMPDEST SWAP1 POP SWAP2 SWAP1 POP JUMP JUMPDEST PUSH1 0x0 PUSH32 0xFF00000000000000000000000000000000000000000000000000000000000000 DUP3 AND SWAP1 POP SWAP2 SWAP1 POP JUMP JUMPDEST PUSH1 0x0 DUP2 SWAP1 POP SWAP2 SWAP1 POP JUMP JUMPDEST PUSH1 0x0 DUP2 SWAP1 POP PUSH2 0xF27 DUP3 PUSH2 0x1166 JUMP JUMPDEST SWAP2 SWAP1 POP JUMP JUMPDEST PUSH1 0x0 PUSH20 0xFFFFFFFFFFFFFFFFFFFFFFFFFFFFFFFFFFFFFFFF DUP3 AND SWAP1 POP SWAP2 SWAP1 POP JUMP JUMPDEST PUSH1 0x0 DUP2 SWAP1 POP SWAP2 SWAP1 POP JUMP JUMPDEST PUSH1 0x0 PUSH2 0xF61 DUP3 PUSH2 0xF19 JUMP JUMPDEST SWAP1 POP SWAP2 SWAP1 POP JUMP JUMPDEST DUP3 DUP2 DUP4 CALLDATACOPY PUSH1 0x0 DUP4 DUP4 ADD MSTORE POP POP POP JUMP JUMPDEST PUSH1 0x0 JUMPDEST DUP4 DUP2 LT ISZERO PUSH2 0xF95 JUMPI DUP1 DUP3 ADD MLOAD DUP2 DUP5 ADD MSTORE PUSH1 0x20 DUP2 ADD SWAP1 POP PUSH2 0xF7A JUMP JUMPDEST DUP4 DUP2 GT ISZERO PUSH2 0xFA4 JUMPI PUSH1 0x0 DUP5 DUP5 ADD MSTORE JUMPDEST POP POP POP POP JUMP JUMPDEST PUSH1 0x0 PUSH1 0x2 DUP3 DIV SWAP1 POP PUSH1 0x1 DUP3 AND DUP1 PUSH2 0xFC2 JUMPI PUSH1 0x7F DUP3 AND SWAP2 POP JUMPDEST PUSH1 0x20 DUP3 LT DUP2 EQ ISZERO PUSH2 0xFD6 JUMPI PUSH2 0xFD5 PUSH2 0x10B4 JUMP JUMPDEST JUMPDEST POP SWAP2 SWAP1 POP JUMP JUMPDEST PUSH2 0xFE5 DUP3 PUSH2 0x1155 JUMP JUMPDEST DUP2 ADD DUP2 DUP2 LT PUSH8 0xFFFFFFFFFFFFFFFF DUP3 GT OR ISZERO PUSH2 0x1004 JUMPI PUSH2 0x1003 PUSH2 0x1112 JUMP JUMPDEST JUMPDEST DUP1 PUSH1 0x40 MSTORE POP POP POP JUMP JUMPDEST PUSH1 0x0 PUSH2 0x1018 DUP3 PUSH2 0xF4C JUMP JUMPDEST SWAP2 POP PUSH32 0xFFFFFFFFFFFFFFFFFFFFFFFFFFFFFFFFFFFFFFFFFFFFFFFFFFFFFFFFFFFFFFFF DUP3 EQ ISZERO PUSH2 0x104B JUMPI PUSH2 0x104A PUSH2 0x1056 JUMP JUMPDEST JUMPDEST PUSH1 0x1 DUP3 ADD SWAP1 POP SWAP2 SWAP1 POP JUMP JUMPDEST PUSH32 0x4E487B7100000000000000000000000000000000000000000000000000000000 PUSH1 0x0 MSTORE PUSH1 0x11 PUSH1 0x4 MSTORE PUSH1 0x24 PUSH1 0x0 REVERT JUMPDEST PUSH32 0x4E487B7100000000000000000000000000000000000000000000000000000000 PUSH1 0x0 MSTORE PUSH1 0x21 PUSH1 0x4 MSTORE PUSH1 0x24 PUSH1 0x0 REVERT JUMPDEST PUSH32 0x4E487B7100000000000000000000000000000000000000000000000000000000 PUSH1 0x0 MSTORE PUSH1 0x22 PUSH1 0x4 MSTORE PUSH1 0x24 PUSH1 0x0 REVERT JUMPDEST PUSH32 0x4E487B7100000000000000000000000000000000000000000000000000000000 PUSH1 0x0 MSTORE PUSH1 0x32 PUSH1 0x4 MSTORE PUSH1 0x24 PUSH1 0x0 REVERT JUMPDEST PUSH32 0x4E487B7100000000000000000000000000000000000000000000000000000000 PUSH1 0x0 MSTORE PUSH1 0x41 PUSH1 0x4 MSTORE PUSH1 0x24 PUSH1 0x0 REVERT JUMPDEST PUSH1 0x0 DUP1 REVERT JUMPDEST PUSH1 0x0 DUP1 REVERT JUMPDEST PUSH1 0x0 DUP1 REVERT JUMPDEST PUSH1 0x0 DUP1 REVERT JUMPDEST PUSH1 0x0 PUSH1 0x1F NOT PUSH1 0x1F DUP4 ADD AND SWAP1 POP SWAP2 SWAP1 POP JUMP JUMPDEST PUSH1 0x3 DUP2 LT PUSH2 0x1177 JUMPI PUSH2 0x1176 PUSH2 0x1085 JUMP JUMPDEST JUMPDEST POP JUMP JUMPDEST PUSH2 0x1183 DUP2 PUSH2 0xED1 JUMP JUMPDEST DUP2 EQ PUSH2 0x118E JUMPI PUSH1 0x0 DUP1 REVERT JUMPDEST POP JUMP JUMPDEST PUSH2 0x119A DUP2 PUSH2 0xF4C JUMP JUMPDEST DUP2 EQ PUSH2 0x11A5 JUMPI PUSH1 0x0 DUP1 REVERT JUMPDEST POP JUMP INVALID LOG2 PUSH5 0x6970667358 0x22 SLT KECCAK256 0x4C 0xE5 0xC 0xCE SLT PUSH14 0x69CCC8BF2F1DCB93D339DF6CF4AD PUSH4 0x9FE28277 0x24 0xF7 LOG4 0xE2 PUSH2 0x747F PUSH5 0x736F6C6343 STOP ADDMOD SMOD STOP CALLER "
				},
				"gasEstimates": {
					"creation": {
						"codeDepositCost": "914800",
						"executionCost": "infinite",
						"totalCost": "infinite"
					},
					"external": {
						"balances(address)": "2829",
						"currentStatus()": "2645",
						"delivered()": "24475",
						"firstByte()": "7014",
						"fixedSize()": "infinite",
						"getPayment(address,uint256)": "infinite",
						"items(uint256,uint256)": "infinite",
						"myDynVar()": "infinite",
						"myVar()": "2495",
						"paid()": "24454",
						"pay(string)": "infinite",
						"sampleMemory()": "infinite"
					}
				},
				"methodIdentifiers": {
					"balances(address)": "27e235e3",
					"currentStatus()": "ef8a9235",
					"delivered()": "bbdfbfba",
					"firstByte()": "654c914f",
					"fixedSize()": "736172d3",
					"getPayment(address,uint256)": "977a767c",
					"items(uint256,uint256)": "31e838dd",
					"myDynVar()": "ffb1e210",
					"myVar()": "c6b91540",
					"paid()": "295b4e17",
					"pay(string)": "2b66d72e",
					"sampleMemory()": "a34343c9"
				}
			},
			"storageLayout": {
				"storage": [
					{
						"astId": 8,
						"contract": "contracts/tipi2.sol:Demo",
						"label": "currentStatus",
						"offset": 0,
						"slot": "0",
						"type": "t_enum(Status)5"
					},
					{
						"astId": 32,
						"contract": "contracts/tipi2.sol:Demo",
						"label": "items",
						"offset": 0,
						"slot": "1",
						"type": "t_array(t_array(t_uint256)3_storage)2_storage"
					},
					{
						"astId": 77,
						"contract": "contracts/tipi2.sol:Demo",
						"label": "myVar",
						"offset": 0,
						"slot": "7",
						"type": "t_bytes32"
					},
					{
						"astId": 80,
						"contract": "contracts/tipi2.sol:Demo",
						"label": "myDynVar",
						"offset": 0,
						"slot": "8",
						"type": "t_bytes_storage"
					},
					{
						"astId": 112,
						"contract": "contracts/tipi2.sol:Demo",
						"label": "balances",
						"offset": 0,
						"slot": "9",
						"type": "t_mapping(t_address,t_struct(Balance)107_storage)"
					}
				],
				"types": {
					"t_address": {
						"encoding": "inplace",
						"label": "address",
						"numberOfBytes": "20"
					},
					"t_array(t_array(t_uint256)3_storage)2_storage": {
						"base": "t_array(t_uint256)3_storage",
						"encoding": "inplace",
						"label": "uint256[3][2]",
						"numberOfBytes": "192"
					},
					"t_array(t_uint256)3_storage": {
						"base": "t_uint256",
						"encoding": "inplace",
						"label": "uint256[3]",
						"numberOfBytes": "96"
					},
					"t_bytes32": {
						"encoding": "inplace",
						"label": "bytes32",
						"numberOfBytes": "32"
					},
					"t_bytes_storage": {
						"encoding": "bytes",
						"label": "bytes",
						"numberOfBytes": "32"
					},
					"t_enum(Status)5": {
						"encoding": "inplace",
						"label": "enum Demo.Status",
						"numberOfBytes": "1"
					},
					"t_mapping(t_address,t_struct(Balance)107_storage)": {
						"encoding": "mapping",
						"key": "t_address",
						"label": "mapping(address => struct Demo.Balance)",
						"numberOfBytes": "32",
						"value": "t_struct(Balance)107_storage"
					},
					"t_mapping(t_uint256,t_struct(Payment)99_storage)": {
						"encoding": "mapping",
						"key": "t_uint256",
						"label": "mapping(uint256 => struct Demo.Payment)",
						"numberOfBytes": "32",
						"value": "t_struct(Payment)99_storage"
					},
					"t_string_storage": {
						"encoding": "bytes",
						"label": "string",
						"numberOfBytes": "32"
					},
					"t_struct(Balance)107_storage": {
						"encoding": "inplace",
						"label": "struct Demo.Balance",
						"members": [
							{
								"astId": 101,
								"contract": "contracts/tipi2.sol:Demo",
								"label": "totalPayments",
								"offset": 0,
								"slot": "0",
								"type": "t_uint256"
							},
							{
								"astId": 106,
								"contract": "contracts/tipi2.sol:Demo",
								"label": "payments",
								"offset": 0,
								"slot": "1",
								"type": "t_mapping(t_uint256,t_struct(Payment)99_storage)"
							}
						],
						"numberOfBytes": "64"
					},
					"t_struct(Payment)99_storage": {
						"encoding": "inplace",
						"label": "struct Demo.Payment",
						"members": [
							{
								"astId": 92,
								"contract": "contracts/tipi2.sol:Demo",
								"label": "amount",
								"offset": 0,
								"slot": "0",
								"type": "t_uint256"
							},
							{
								"astId": 94,
								"contract": "contracts/tipi2.sol:Demo",
								"label": "timestamp",
								"offset": 0,
								"slot": "1",
								"type": "t_uint256"
							},
							{
								"astId": 96,
								"contract": "contracts/tipi2.sol:Demo",
								"label": "from",
								"offset": 0,
								"slot": "2",
								"type": "t_address"
							},
							{
								"astId": 98,
								"contract": "contracts/tipi2.sol:Demo",
								"label": "message",
								"offset": 0,
								"slot": "3",
								"type": "t_string_storage"
							}
						],
						"numberOfBytes": "128"
					},
					"t_uint256": {
						"encoding": "inplace",
						"label": "uint256",
						"numberOfBytes": "32"
					}
				}
			},
			"userdoc": {
				"kind": "user",
				"methods": {},
				"version": 1
			}
		}
	}
}