{
	"contracts/tipi2.sol": {
		"Demo": {
			"abi": [
				{
					"inputs": [
						{
							"internalType": "address",
							"name": "",
							"type": "address"
						}
					],
					"name": "balances",
					"outputs": [
						{
							"internalType": "uint256",
							"name": "totalPayments",
							"type": "uint256"
						}
					],
					"stateMutability": "view",
					"type": "function"
				},
				{
					"inputs": [],
					"name": "firstByte",
					"outputs": [
						{
							"internalType": "bytes1",
							"name": "",
							"type": "bytes1"
						}
					],
					"stateMutability": "view",
					"type": "function"
				},
				{
					"inputs": [
						{
							"internalType": "address",
							"name": "_addr",
							"type": "address"
						},
						{
							"internalType": "uint256",
							"name": "_index",
							"type": "uint256"
						}
					],
					"name": "getPayment",
					"outputs": [
						{
							"components": [
								{
									"internalType": "uint256",
									"name": "amount",
									"type": "uint256"
								},
								{
									"internalType": "uint256",
									"name": "timestamp",
									"type": "uint256"
								},
								{
									"internalType": "address",
									"name": "from",
									"type": "address"
								},
								{
									"internalType": "string",
									"name": "message",
									"type": "string"
								}
							],
							"internalType": "struct Demo.Payment",
							"name": "",
							"type": "tuple"
						}
					],
					"stateMutability": "view",
					"type": "function"
				},
				{
					"inputs": [],
					"name": "myDynVar",
					"outputs": [
						{
							"internalType": "bytes",
							"name": "",
							"type": "bytes"
						}
					],
					"stateMutability": "view",
					"type": "function"
				},
				{
					"inputs": [],
					"name": "myVar",
					"outputs": [
						{
							"internalType": "bytes32",
							"name": "",
							"type": "bytes32"
						}
					],
					"stateMutability": "view",
					"type": "function"
				},
				{
					"inputs": [
						{
							"internalType": "string",
							"name": "message",
							"type": "string"
						}
					],
					"name": "pay",
					"outputs": [],
					"stateMutability": "payable",
					"type": "function"
				},
				{
					"inputs": [],
					"name": "sampleMemory",
					"outputs": [
						{
							"internalType": "uint256[]",
							"name": "",
							"type": "uint256[]"
						}
					],
					"stateMutability": "view",
					"type": "function"
				}
			],
			"devdoc": {
				"kind": "dev",
				"methods": {},
				"version": 1
			},
			"evm": {
				"assembly": "    /* \"contracts/tipi2.sol\":62:1387  contract Demo {\r... */\n  mstore(0x40, 0x80)\n    /* \"contracts/tipi2.sol\":288:322  bytes32 public myVar = \"test here\" */\n  sstore(0x00, 0x7465737420686572650000000000000000000000000000000000000000000000)\n    /* \"contracts/tipi2.sol\":338:373  bytes public myDynVar = \"test here\" */\n  mload(0x40)\n  dup1\n  0x40\n  add\n  0x40\n  mstore\n  dup1\n  0x09\n  dup2\n  mstore\n  0x20\n  add\n  0x7465737420686572650000000000000000000000000000000000000000000000\n  dup2\n  mstore\n  pop\n  0x01\n  swap1\n  dup1\n  mload\n  swap1\n  0x20\n  add\n  swap1\n  tag_1\n  swap3\n  swap2\n  swap1\n  tag_2\n  jump\t// in\ntag_1:\n  pop\n    /* \"contracts/tipi2.sol\":62:1387  contract Demo {\r... */\n  callvalue\n  dup1\n  iszero\n  tag_3\n  jumpi\n  0x00\n  dup1\n  revert\ntag_3:\n  pop\n  jump(tag_4)\ntag_2:\n  dup3\n  dup1\n  sload\n  tag_5\n  swap1\n  tag_6\n  jump\t// in\ntag_5:\n  swap1\n  0x00\n  mstore\n  keccak256(0x00, 0x20)\n  swap1\n  0x1f\n  add\n  0x20\n  swap1\n  div\n  dup2\n  add\n  swap3\n  dup3\n  tag_8\n  jumpi\n  0x00\n  dup6\n  sstore\n  jump(tag_7)\ntag_8:\n  dup3\n  0x1f\n  lt\n  tag_9\n  jumpi\n  dup1\n  mload\n  not(0xff)\n  and\n  dup4\n  dup1\n  add\n  or\n  dup6\n  sstore\n  jump(tag_7)\ntag_9:\n  dup3\n  dup1\n  add\n  0x01\n  add\n  dup6\n  sstore\n  dup3\n  iszero\n  tag_7\n  jumpi\n  swap2\n  dup3\n  add\ntag_10:\n  dup3\n  dup2\n  gt\n  iszero\n  tag_11\n  jumpi\n  dup3\n  mload\n  dup3\n  sstore\n  swap2\n  0x20\n  add\n  swap2\n  swap1\n  0x01\n  add\n  swap1\n  jump(tag_10)\ntag_11:\ntag_7:\n  pop\n  swap1\n  pop\n  tag_12\n  swap2\n  swap1\n  tag_13\n  jump\t// in\ntag_12:\n  pop\n  swap1\n  jump\t// out\ntag_13:\ntag_14:\n  dup1\n  dup3\n  gt\n  iszero\n  tag_15\n  jumpi\n  0x00\n  dup2\n  0x00\n  swap1\n  sstore\n  pop\n  0x01\n  add\n  jump(tag_14)\ntag_15:\n  pop\n  swap1\n  jump\t// out\n    /* \"#utility.yul\":7:327   */\ntag_6:\n    /* \"#utility.yul\":51:57   */\n  0x00\n    /* \"#utility.yul\":88:89   */\n  0x02\n    /* \"#utility.yul\":82:86   */\n  dup3\n    /* \"#utility.yul\":78:90   */\n  div\n    /* \"#utility.yul\":68:90   */\n  swap1\n  pop\n    /* \"#utility.yul\":135:136   */\n  0x01\n    /* \"#utility.yul\":129:133   */\n  dup3\n    /* \"#utility.yul\":125:137   */\n  and\n    /* \"#utility.yul\":156:174   */\n  dup1\n    /* \"#utility.yul\":146:227   */\n  tag_18\n  jumpi\n    /* \"#utility.yul\":212:216   */\n  0x7f\n    /* \"#utility.yul\":204:210   */\n  dup3\n    /* \"#utility.yul\":200:217   */\n  and\n    /* \"#utility.yul\":190:217   */\n  swap2\n  pop\n    /* \"#utility.yul\":146:227   */\ntag_18:\n    /* \"#utility.yul\":274:276   */\n  0x20\n    /* \"#utility.yul\":266:272   */\n  dup3\n    /* \"#utility.yul\":263:277   */\n  lt\n    /* \"#utility.yul\":243:261   */\n  dup2\n    /* \"#utility.yul\":240:278   */\n  eq\n    /* \"#utility.yul\":237:321   */\n  iszero\n  tag_19\n  jumpi\n    /* \"#utility.yul\":293:311   */\n  tag_20\n  tag_21\n  jump\t// in\ntag_20:\n    /* \"#utility.yul\":237:321   */\ntag_19:\n    /* \"#utility.yul\":58:327   */\n  pop\n    /* \"#utility.yul\":7:327   */\n  swap2\n  swap1\n  pop\n  jump\t// out\n    /* \"#utility.yul\":333:513   */\ntag_21:\n    /* \"#utility.yul\":381:458   */\n  0x4e487b7100000000000000000000000000000000000000000000000000000000\n    /* \"#utility.yul\":378:379   */\n  0x00\n    /* \"#utility.yul\":371:459   */\n  mstore\n    /* \"#utility.yul\":478:482   */\n  0x22\n    /* \"#utility.yul\":475:476   */\n  0x04\n    /* \"#utility.yul\":468:483   */\n  mstore\n    /* \"#utility.yul\":502:506   */\n  0x24\n    /* \"#utility.yul\":499:500   */\n  0x00\n    /* \"#utility.yul\":492:507   */\n  revert\n    /* \"contracts/tipi2.sol\":62:1387  contract Demo {\r... */\ntag_4:\n  dataSize(sub_0)\n  dup1\n  dataOffset(sub_0)\n  0x00\n  codecopy\n  0x00\n  return\nstop\n\nsub_0: assembly {\n        /* \"contracts/tipi2.sol\":62:1387  contract Demo {\r... */\n      mstore(0x40, 0x80)\n      jumpi(tag_1, lt(calldatasize, 0x04))\n      shr(0xe0, calldataload(0x00))\n      dup1\n      0x977a767c\n      gt\n      tag_9\n      jumpi\n      dup1\n      0x977a767c\n      eq\n      tag_5\n      jumpi\n      dup1\n      0xa34343c9\n      eq\n      tag_6\n      jumpi\n      dup1\n      0xc6b91540\n      eq\n      tag_7\n      jumpi\n      dup1\n      0xffb1e210\n      eq\n      tag_8\n      jumpi\n      jump(tag_1)\n    tag_9:\n      dup1\n      0x27e235e3\n      eq\n      tag_2\n      jumpi\n      dup1\n      0x2b66d72e\n      eq\n      tag_3\n      jumpi\n      dup1\n      0x654c914f\n      eq\n      tag_4\n      jumpi\n    tag_1:\n      0x00\n      dup1\n      revert\n        /* \"contracts/tipi2.sol\":786:829  mapping(address => Balance) public balances */\n    tag_2:\n      callvalue\n      dup1\n      iszero\n      tag_10\n      jumpi\n      0x00\n      dup1\n      revert\n    tag_10:\n      pop\n      tag_11\n      0x04\n      dup1\n      calldatasize\n      sub\n      dup2\n      add\n      swap1\n      tag_12\n      swap2\n      swap1\n      tag_13\n      jump\t// in\n    tag_12:\n      tag_14\n      jump\t// in\n    tag_11:\n      mload(0x40)\n      tag_15\n      swap2\n      swap1\n      tag_16\n      jump\t// in\n    tag_15:\n      mload(0x40)\n      dup1\n      swap2\n      sub\n      swap1\n      return\n        /* \"contracts/tipi2.sol\":988:1384  function pay(string memory message) public payable {\r... */\n    tag_3:\n      tag_17\n      0x04\n      dup1\n      calldatasize\n      sub\n      dup2\n      add\n      swap1\n      tag_18\n      swap2\n      swap1\n      tag_19\n      jump\t// in\n    tag_18:\n      tag_20\n      jump\t// in\n    tag_17:\n      stop\n        /* \"contracts/tipi2.sol\":447:533  function firstByte() public view returns(bytes1) {\r... */\n    tag_4:\n      callvalue\n      dup1\n      iszero\n      tag_21\n      jumpi\n      0x00\n      dup1\n      revert\n    tag_21:\n      pop\n      tag_22\n      tag_23\n      jump\t// in\n    tag_22:\n      mload(0x40)\n      tag_24\n      swap2\n      swap1\n      tag_25\n      jump\t// in\n    tag_24:\n      mload(0x40)\n      dup1\n      swap2\n      sub\n      swap1\n      return\n        /* \"contracts/tipi2.sol\":838:980  function getPayment(address _addr, uint _index) public view returns(Payment memory) {\r... */\n    tag_5:\n      callvalue\n      dup1\n      iszero\n      tag_26\n      jumpi\n      0x00\n      dup1\n      revert\n    tag_26:\n      pop\n      tag_27\n      0x04\n      dup1\n      calldatasize\n      sub\n      dup2\n      add\n      swap1\n      tag_28\n      swap2\n      swap1\n      tag_29\n      jump\t// in\n    tag_28:\n      tag_30\n      jump\t// in\n    tag_27:\n      mload(0x40)\n      tag_31\n      swap2\n      swap1\n      tag_32\n      jump\t// in\n    tag_31:\n      mload(0x40)\n      dup1\n      swap2\n      sub\n      swap1\n      return\n        /* \"contracts/tipi2.sol\":95:267  function sampleMemory() public view returns(uint[] memory) {\r... */\n    tag_6:\n      callvalue\n      dup1\n      iszero\n      tag_33\n      jumpi\n      0x00\n      dup1\n      revert\n    tag_33:\n      pop\n      tag_34\n      tag_35\n      jump\t// in\n    tag_34:\n      mload(0x40)\n      tag_36\n      swap2\n      swap1\n      tag_37\n      jump\t// in\n    tag_36:\n      mload(0x40)\n      dup1\n      swap2\n      sub\n      swap1\n      return\n        /* \"contracts/tipi2.sol\":288:322  bytes32 public myVar = \"test here\" */\n    tag_7:\n      callvalue\n      dup1\n      iszero\n      tag_38\n      jumpi\n      0x00\n      dup1\n      revert\n    tag_38:\n      pop\n      tag_39\n      tag_40\n      jump\t// in\n    tag_39:\n      mload(0x40)\n      tag_41\n      swap2\n      swap1\n      tag_42\n      jump\t// in\n    tag_41:\n      mload(0x40)\n      dup1\n      swap2\n      sub\n      swap1\n      return\n        /* \"contracts/tipi2.sol\":338:373  bytes public myDynVar = \"test here\" */\n    tag_8:\n      callvalue\n      dup1\n      iszero\n      tag_43\n      jumpi\n      0x00\n      dup1\n      revert\n    tag_43:\n      pop\n      tag_44\n      tag_45\n      jump\t// in\n    tag_44:\n      mload(0x40)\n      tag_46\n      swap2\n      swap1\n      tag_47\n      jump\t// in\n    tag_46:\n      mload(0x40)\n      dup1\n      swap2\n      sub\n      swap1\n      return\n        /* \"contracts/tipi2.sol\":786:829  mapping(address => Balance) public balances */\n    tag_14:\n      mstore(0x20, 0x02)\n      dup1\n      0x00\n      mstore\n      keccak256(0x00, 0x40)\n      0x00\n      swap2\n      pop\n      swap1\n      pop\n      dup1\n      0x00\n      add\n      sload\n      swap1\n      pop\n      dup2\n      jump\t// out\n        /* \"contracts/tipi2.sol\":988:1384  function pay(string memory message) public payable {\r... */\n    tag_20:\n        /* \"contracts/tipi2.sol\":1050:1065  uint paymentNum */\n      0x00\n        /* \"contracts/tipi2.sol\":1068:1076  balances */\n      0x02\n        /* \"contracts/tipi2.sol\":1068:1088  balances[msg.sender] */\n      0x00\n        /* \"contracts/tipi2.sol\":1077:1087  msg.sender */\n      caller\n        /* \"contracts/tipi2.sol\":1068:1088  balances[msg.sender] */\n      0xffffffffffffffffffffffffffffffffffffffff\n      and\n      0xffffffffffffffffffffffffffffffffffffffff\n      and\n      dup2\n      mstore\n      0x20\n      add\n      swap1\n      dup2\n      mstore\n      0x20\n      add\n      0x00\n      keccak256\n        /* \"contracts/tipi2.sol\":1068:1102  balances[msg.sender].totalPayments */\n      0x00\n      add\n      sload\n        /* \"contracts/tipi2.sol\":1050:1102  uint paymentNum = balances[msg.sender].totalPayments */\n      swap1\n      pop\n        /* \"contracts/tipi2.sol\":1113:1121  balances */\n      0x02\n        /* \"contracts/tipi2.sol\":1113:1133  balances[msg.sender] */\n      0x00\n        /* \"contracts/tipi2.sol\":1122:1132  msg.sender */\n      caller\n        /* \"contracts/tipi2.sol\":1113:1133  balances[msg.sender] */\n      0xffffffffffffffffffffffffffffffffffffffff\n      and\n      0xffffffffffffffffffffffffffffffffffffffff\n      and\n      dup2\n      mstore\n      0x20\n      add\n      swap1\n      dup2\n      mstore\n      0x20\n      add\n      0x00\n      keccak256\n        /* \"contracts/tipi2.sol\":1113:1147  balances[msg.sender].totalPayments */\n      0x00\n      add\n      0x00\n        /* \"contracts/tipi2.sol\":1113:1149  balances[msg.sender].totalPayments++ */\n      dup2\n      sload\n      dup1\n      swap3\n      swap2\n      swap1\n      tag_49\n      swap1\n      tag_50\n      jump\t// in\n    tag_49:\n      swap2\n      swap1\n      pop\n      sstore\n      pop\n        /* \"contracts/tipi2.sol\":1162:1187  Payment memory newPayment */\n      0x00\n        /* \"contracts/tipi2.sol\":1190:1309  Payment(\r... */\n      mload(0x40)\n      dup1\n      0x80\n      add\n      0x40\n      mstore\n      dup1\n        /* \"contracts/tipi2.sol\":1212:1221  msg.value */\n      callvalue\n        /* \"contracts/tipi2.sol\":1190:1309  Payment(\r... */\n      dup2\n      mstore\n      0x20\n      add\n        /* \"contracts/tipi2.sol\":1236:1251  block.timestamp */\n      timestamp\n        /* \"contracts/tipi2.sol\":1190:1309  Payment(\r... */\n      dup2\n      mstore\n      0x20\n      add\n        /* \"contracts/tipi2.sol\":1266:1276  msg.sender */\n      caller\n        /* \"contracts/tipi2.sol\":1190:1309  Payment(\r... */\n      0xffffffffffffffffffffffffffffffffffffffff\n      and\n      dup2\n      mstore\n      0x20\n      add\n        /* \"contracts/tipi2.sol\":1291:1298  message */\n      dup5\n        /* \"contracts/tipi2.sol\":1190:1309  Payment(\r... */\n      dup2\n      mstore\n      pop\n        /* \"contracts/tipi2.sol\":1162:1309  Payment memory newPayment = Payment(\r... */\n      swap1\n      pop\n        /* \"contracts/tipi2.sol\":1366:1376  newPayment */\n      dup1\n        /* \"contracts/tipi2.sol\":1322:1330  balances */\n      0x02\n        /* \"contracts/tipi2.sol\":1322:1342  balances[msg.sender] */\n      0x00\n        /* \"contracts/tipi2.sol\":1331:1341  msg.sender */\n      caller\n        /* \"contracts/tipi2.sol\":1322:1342  balances[msg.sender] */\n      0xffffffffffffffffffffffffffffffffffffffff\n      and\n      0xffffffffffffffffffffffffffffffffffffffff\n      and\n      dup2\n      mstore\n      0x20\n      add\n      swap1\n      dup2\n      mstore\n      0x20\n      add\n      0x00\n      keccak256\n        /* \"contracts/tipi2.sol\":1322:1351  balances[msg.sender].payments */\n      0x01\n      add\n        /* \"contracts/tipi2.sol\":1322:1363  balances[msg.sender].payments[paymentNum] */\n      0x00\n        /* \"contracts/tipi2.sol\":1352:1362  paymentNum */\n      dup5\n        /* \"contracts/tipi2.sol\":1322:1363  balances[msg.sender].payments[paymentNum] */\n      dup2\n      mstore\n      0x20\n      add\n      swap1\n      dup2\n      mstore\n      0x20\n      add\n      0x00\n      keccak256\n        /* \"contracts/tipi2.sol\":1322:1376  balances[msg.sender].payments[paymentNum] = newPayment */\n      0x00\n      dup3\n      add\n      mload\n      dup2\n      0x00\n      add\n      sstore\n      0x20\n      dup3\n      add\n      mload\n      dup2\n      0x01\n      add\n      sstore\n      0x40\n      dup3\n      add\n      mload\n      dup2\n      0x02\n      add\n      exp(0x0100, 0x00)\n      dup2\n      sload\n      dup2\n      0xffffffffffffffffffffffffffffffffffffffff\n      mul\n      not\n      and\n      swap1\n      dup4\n      0xffffffffffffffffffffffffffffffffffffffff\n      and\n      mul\n      or\n      swap1\n      sstore\n      pop\n      0x60\n      dup3\n      add\n      mload\n      dup2\n      0x03\n      add\n      swap1\n      dup1\n      mload\n      swap1\n      0x20\n      add\n      swap1\n      tag_51\n      swap3\n      swap2\n      swap1\n      tag_52\n      jump\t// in\n    tag_51:\n      pop\n      swap1\n      pop\n      pop\n        /* \"contracts/tipi2.sol\":1039:1384  {\r... */\n      pop\n      pop\n        /* \"contracts/tipi2.sol\":988:1384  function pay(string memory message) public payable {\r... */\n      pop\n      jump\t// out\n        /* \"contracts/tipi2.sol\":447:533  function firstByte() public view returns(bytes1) {\r... */\n    tag_23:\n        /* \"contracts/tipi2.sol\":488:494  bytes1 */\n      0x00\n        /* \"contracts/tipi2.sol\":514:522  myDynVar */\n      0x01\n        /* \"contracts/tipi2.sol\":523:524  0 */\n      0x00\n        /* \"contracts/tipi2.sol\":514:525  myDynVar[0] */\n      dup2\n      sload\n      tag_54\n      swap1\n      tag_55\n      jump\t// in\n    tag_54:\n      dup2\n      lt\n      tag_56\n      jumpi\n      tag_57\n      tag_58\n      jump\t// in\n    tag_57:\n    tag_56:\n      dup2\n      sload\n      0x01\n      and\n      iszero\n      tag_59\n      jumpi\n      swap1\n      0x00\n      mstore\n      keccak256(0x00, 0x20)\n      swap1\n      0x20\n      swap2\n      dup3\n      dup3\n      div\n      add\n      swap2\n      swap1\n      mod\n    tag_59:\n      swap1\n      sload\n      swap1\n      byte\n      0x0100000000000000000000000000000000000000000000000000000000000000\n      mul\n        /* \"contracts/tipi2.sol\":507:525  return myDynVar[0] */\n      swap1\n      pop\n        /* \"contracts/tipi2.sol\":447:533  function firstByte() public view returns(bytes1) {\r... */\n      swap1\n      jump\t// out\n        /* \"contracts/tipi2.sol\":838:980  function getPayment(address _addr, uint _index) public view returns(Payment memory) {\r... */\n    tag_30:\n        /* \"contracts/tipi2.sol\":906:920  Payment memory */\n      tag_60\n      tag_61\n      jump\t// in\n    tag_60:\n        /* \"contracts/tipi2.sol\":940:948  balances */\n      0x02\n        /* \"contracts/tipi2.sol\":940:955  balances[_addr] */\n      0x00\n        /* \"contracts/tipi2.sol\":949:954  _addr */\n      dup5\n        /* \"contracts/tipi2.sol\":940:955  balances[_addr] */\n      0xffffffffffffffffffffffffffffffffffffffff\n      and\n      0xffffffffffffffffffffffffffffffffffffffff\n      and\n      dup2\n      mstore\n      0x20\n      add\n      swap1\n      dup2\n      mstore\n      0x20\n      add\n      0x00\n      keccak256\n        /* \"contracts/tipi2.sol\":940:964  balances[_addr].payments */\n      0x01\n      add\n        /* \"contracts/tipi2.sol\":940:972  balances[_addr].payments[_index] */\n      0x00\n        /* \"contracts/tipi2.sol\":965:971  _index */\n      dup4\n        /* \"contracts/tipi2.sol\":940:972  balances[_addr].payments[_index] */\n      dup2\n      mstore\n      0x20\n      add\n      swap1\n      dup2\n      mstore\n      0x20\n      add\n      0x00\n      keccak256\n        /* \"contracts/tipi2.sol\":933:972  return balances[_addr].payments[_index] */\n      mload(0x40)\n      dup1\n      0x80\n      add\n      0x40\n      mstore\n      swap1\n      dup2\n      0x00\n      dup3\n      add\n      sload\n      dup2\n      mstore\n      0x20\n      add\n      0x01\n      dup3\n      add\n      sload\n      dup2\n      mstore\n      0x20\n      add\n      0x02\n      dup3\n      add\n      0x00\n      swap1\n      sload\n      swap1\n      0x0100\n      exp\n      swap1\n      div\n      0xffffffffffffffffffffffffffffffffffffffff\n      and\n      0xffffffffffffffffffffffffffffffffffffffff\n      and\n      0xffffffffffffffffffffffffffffffffffffffff\n      and\n      dup2\n      mstore\n      0x20\n      add\n      0x03\n      dup3\n      add\n      dup1\n      sload\n      tag_63\n      swap1\n      tag_55\n      jump\t// in\n    tag_63:\n      dup1\n      0x1f\n      add\n      0x20\n      dup1\n      swap2\n      div\n      mul\n      0x20\n      add\n      mload(0x40)\n      swap1\n      dup2\n      add\n      0x40\n      mstore\n      dup1\n      swap3\n      swap2\n      swap1\n      dup2\n      dup2\n      mstore\n      0x20\n      add\n      dup3\n      dup1\n      sload\n      tag_64\n      swap1\n      tag_55\n      jump\t// in\n    tag_64:\n      dup1\n      iszero\n      tag_65\n      jumpi\n      dup1\n      0x1f\n      lt\n      tag_66\n      jumpi\n      0x0100\n      dup1\n      dup4\n      sload\n      div\n      mul\n      dup4\n      mstore\n      swap2\n      0x20\n      add\n      swap2\n      jump(tag_65)\n    tag_66:\n      dup3\n      add\n      swap2\n      swap1\n      0x00\n      mstore\n      keccak256(0x00, 0x20)\n      swap1\n    tag_67:\n      dup2\n      sload\n      dup2\n      mstore\n      swap1\n      0x01\n      add\n      swap1\n      0x20\n      add\n      dup1\n      dup4\n      gt\n      tag_67\n      jumpi\n      dup3\n      swap1\n      sub\n      0x1f\n      and\n      dup3\n      add\n      swap2\n    tag_65:\n      pop\n      pop\n      pop\n      pop\n      pop\n      dup2\n      mstore\n      pop\n      pop\n      swap1\n      pop\n        /* \"contracts/tipi2.sol\":838:980  function getPayment(address _addr, uint _index) public view returns(Payment memory) {\r... */\n      swap3\n      swap2\n      pop\n      pop\n      jump\t// out\n        /* \"contracts/tipi2.sol\":95:267  function sampleMemory() public view returns(uint[] memory) {\r... */\n    tag_35:\n        /* \"contracts/tipi2.sol\":139:152  uint[] memory */\n      0x60\n        /* \"contracts/tipi2.sol\":165:188  uint[] memory tempArray */\n      0x00\n        /* \"contracts/tipi2.sol\":202:204  10 */\n      0x0a\n        /* \"contracts/tipi2.sol\":191:205  new uint[](10) */\n      0xffffffffffffffff\n      dup2\n      gt\n      iszero\n      tag_69\n      jumpi\n      tag_70\n      tag_71\n      jump\t// in\n    tag_70:\n    tag_69:\n      mload(0x40)\n      swap1\n      dup1\n      dup3\n      mstore\n      dup1\n      0x20\n      mul\n      0x20\n      add\n      dup3\n      add\n      0x40\n      mstore\n      dup1\n      iszero\n      tag_72\n      jumpi\n      dup2\n      0x20\n      add\n      0x20\n      dup3\n      mul\n      dup1\n      calldatasize\n      dup4\n      calldatacopy\n      dup1\n      dup3\n      add\n      swap2\n      pop\n      pop\n      swap1\n      pop\n    tag_72:\n      pop\n        /* \"contracts/tipi2.sol\":165:205  uint[] memory tempArray = new uint[](10) */\n      swap1\n      pop\n        /* \"contracts/tipi2.sol\":231:232  1 */\n      0x01\n        /* \"contracts/tipi2.sol\":216:225  tempArray */\n      dup2\n        /* \"contracts/tipi2.sol\":226:227  0 */\n      0x00\n        /* \"contracts/tipi2.sol\":216:228  tempArray[0] */\n      dup2\n      mload\n      dup2\n      lt\n      tag_73\n      jumpi\n      tag_74\n      tag_58\n      jump\t// in\n    tag_74:\n    tag_73:\n      0x20\n      mul\n      0x20\n      add\n      add\n        /* \"contracts/tipi2.sol\":216:232  tempArray[0] = 1 */\n      dup2\n      dup2\n      mstore\n      pop\n      pop\n        /* \"contracts/tipi2.sol\":250:259  tempArray */\n      dup1\n        /* \"contracts/tipi2.sol\":243:259  return tempArray */\n      swap2\n      pop\n      pop\n        /* \"contracts/tipi2.sol\":95:267  function sampleMemory() public view returns(uint[] memory) {\r... */\n      swap1\n      jump\t// out\n        /* \"contracts/tipi2.sol\":288:322  bytes32 public myVar = \"test here\" */\n    tag_40:\n      sload(0x00)\n      dup2\n      jump\t// out\n        /* \"contracts/tipi2.sol\":338:373  bytes public myDynVar = \"test here\" */\n    tag_45:\n      0x01\n      dup1\n      sload\n      tag_75\n      swap1\n      tag_55\n      jump\t// in\n    tag_75:\n      dup1\n      0x1f\n      add\n      0x20\n      dup1\n      swap2\n      div\n      mul\n      0x20\n      add\n      mload(0x40)\n      swap1\n      dup2\n      add\n      0x40\n      mstore\n      dup1\n      swap3\n      swap2\n      swap1\n      dup2\n      dup2\n      mstore\n      0x20\n      add\n      dup3\n      dup1\n      sload\n      tag_76\n      swap1\n      tag_55\n      jump\t// in\n    tag_76:\n      dup1\n      iszero\n      tag_77\n      jumpi\n      dup1\n      0x1f\n      lt\n      tag_78\n      jumpi\n      0x0100\n      dup1\n      dup4\n      sload\n      div\n      mul\n      dup4\n      mstore\n      swap2\n      0x20\n      add\n      swap2\n      jump(tag_77)\n    tag_78:\n      dup3\n      add\n      swap2\n      swap1\n      0x00\n      mstore\n      keccak256(0x00, 0x20)\n      swap1\n    tag_79:\n      dup2\n      sload\n      dup2\n      mstore\n      swap1\n      0x01\n      add\n      swap1\n      0x20\n      add\n      dup1\n      dup4\n      gt\n      tag_79\n      jumpi\n      dup3\n      swap1\n      sub\n      0x1f\n      and\n      dup3\n      add\n      swap2\n    tag_77:\n      pop\n      pop\n      pop\n      pop\n      pop\n      dup2\n      jump\t// out\n    tag_52:\n      dup3\n      dup1\n      sload\n      tag_80\n      swap1\n      tag_55\n      jump\t// in\n    tag_80:\n      swap1\n      0x00\n      mstore\n      keccak256(0x00, 0x20)\n      swap1\n      0x1f\n      add\n      0x20\n      swap1\n      div\n      dup2\n      add\n      swap3\n      dup3\n      tag_82\n      jumpi\n      0x00\n      dup6\n      sstore\n      jump(tag_81)\n    tag_82:\n      dup3\n      0x1f\n      lt\n      tag_83\n      jumpi\n      dup1\n      mload\n      not(0xff)\n      and\n      dup4\n      dup1\n      add\n      or\n      dup6\n      sstore\n      jump(tag_81)\n    tag_83:\n      dup3\n      dup1\n      add\n      0x01\n      add\n      dup6\n      sstore\n      dup3\n      iszero\n      tag_81\n      jumpi\n      swap2\n      dup3\n      add\n    tag_84:\n      dup3\n      dup2\n      gt\n      iszero\n      tag_85\n      jumpi\n      dup3\n      mload\n      dup3\n      sstore\n      swap2\n      0x20\n      add\n      swap2\n      swap1\n      0x01\n      add\n      swap1\n      jump(tag_84)\n    tag_85:\n    tag_81:\n      pop\n      swap1\n      pop\n      tag_86\n      swap2\n      swap1\n      tag_87\n      jump\t// in\n    tag_86:\n      pop\n      swap1\n      jump\t// out\n    tag_61:\n      mload(0x40)\n      dup1\n      0x80\n      add\n      0x40\n      mstore\n      dup1\n      0x00\n      dup2\n      mstore\n      0x20\n      add\n      0x00\n      dup2\n      mstore\n      0x20\n      add\n      and(0xffffffffffffffffffffffffffffffffffffffff, 0x00)\n      dup2\n      mstore\n      0x20\n      add\n      0x60\n      dup2\n      mstore\n      pop\n      swap1\n      jump\t// out\n    tag_87:\n    tag_88:\n      dup1\n      dup3\n      gt\n      iszero\n      tag_89\n      jumpi\n      0x00\n      dup2\n      0x00\n      swap1\n      sstore\n      pop\n      0x01\n      add\n      jump(tag_88)\n    tag_89:\n      pop\n      swap1\n      jump\t// out\n        /* \"#utility.yul\":7:419   */\n    tag_91:\n        /* \"#utility.yul\":85:90   */\n      0x00\n        /* \"#utility.yul\":110:176   */\n      tag_93\n        /* \"#utility.yul\":126:175   */\n      tag_94\n        /* \"#utility.yul\":168:174   */\n      dup5\n        /* \"#utility.yul\":126:175   */\n      tag_95\n      jump\t// in\n    tag_94:\n        /* \"#utility.yul\":110:176   */\n      tag_96\n      jump\t// in\n    tag_93:\n        /* \"#utility.yul\":101:176   */\n      swap1\n      pop\n        /* \"#utility.yul\":199:205   */\n      dup3\n        /* \"#utility.yul\":192:197   */\n      dup2\n        /* \"#utility.yul\":185:206   */\n      mstore\n        /* \"#utility.yul\":237:241   */\n      0x20\n        /* \"#utility.yul\":230:235   */\n      dup2\n        /* \"#utility.yul\":226:242   */\n      add\n        /* \"#utility.yul\":275:278   */\n      dup5\n        /* \"#utility.yul\":266:272   */\n      dup5\n        /* \"#utility.yul\":261:264   */\n      dup5\n        /* \"#utility.yul\":257:273   */\n      add\n        /* \"#utility.yul\":254:279   */\n      gt\n        /* \"#utility.yul\":251:363   */\n      iszero\n      tag_97\n      jumpi\n        /* \"#utility.yul\":282:361   */\n      tag_98\n      tag_99\n      jump\t// in\n    tag_98:\n        /* \"#utility.yul\":251:363   */\n    tag_97:\n        /* \"#utility.yul\":372:413   */\n      tag_100\n        /* \"#utility.yul\":406:412   */\n      dup5\n        /* \"#utility.yul\":401:404   */\n      dup3\n        /* \"#utility.yul\":396:399   */\n      dup6\n        /* \"#utility.yul\":372:413   */\n      tag_101\n      jump\t// in\n    tag_100:\n        /* \"#utility.yul\":91:419   */\n      pop\n        /* \"#utility.yul\":7:419   */\n      swap4\n      swap3\n      pop\n      pop\n      pop\n      jump\t// out\n        /* \"#utility.yul\":425:564   */\n    tag_102:\n        /* \"#utility.yul\":471:476   */\n      0x00\n        /* \"#utility.yul\":509:515   */\n      dup2\n        /* \"#utility.yul\":496:516   */\n      calldataload\n        /* \"#utility.yul\":487:516   */\n      swap1\n      pop\n        /* \"#utility.yul\":525:558   */\n      tag_104\n        /* \"#utility.yul\":552:557   */\n      dup2\n        /* \"#utility.yul\":525:558   */\n      tag_105\n      jump\t// in\n    tag_104:\n        /* \"#utility.yul\":425:564   */\n      swap3\n      swap2\n      pop\n      pop\n      jump\t// out\n        /* \"#utility.yul\":584:924   */\n    tag_106:\n        /* \"#utility.yul\":640:645   */\n      0x00\n        /* \"#utility.yul\":689:692   */\n      dup3\n        /* \"#utility.yul\":682:686   */\n      0x1f\n        /* \"#utility.yul\":674:680   */\n      dup4\n        /* \"#utility.yul\":670:687   */\n      add\n        /* \"#utility.yul\":666:693   */\n      slt\n        /* \"#utility.yul\":656:778   */\n      tag_108\n      jumpi\n        /* \"#utility.yul\":697:776   */\n      tag_109\n      tag_110\n      jump\t// in\n    tag_109:\n        /* \"#utility.yul\":656:778   */\n    tag_108:\n        /* \"#utility.yul\":814:820   */\n      dup2\n        /* \"#utility.yul\":801:821   */\n      calldataload\n        /* \"#utility.yul\":839:918   */\n      tag_111\n        /* \"#utility.yul\":914:917   */\n      dup5\n        /* \"#utility.yul\":906:912   */\n      dup3\n        /* \"#utility.yul\":899:903   */\n      0x20\n        /* \"#utility.yul\":891:897   */\n      dup7\n        /* \"#utility.yul\":887:904   */\n      add\n        /* \"#utility.yul\":839:918   */\n      tag_91\n      jump\t// in\n    tag_111:\n        /* \"#utility.yul\":830:918   */\n      swap2\n      pop\n        /* \"#utility.yul\":646:924   */\n      pop\n        /* \"#utility.yul\":584:924   */\n      swap3\n      swap2\n      pop\n      pop\n      jump\t// out\n        /* \"#utility.yul\":930:1069   */\n    tag_112:\n        /* \"#utility.yul\":976:981   */\n      0x00\n        /* \"#utility.yul\":1014:1020   */\n      dup2\n        /* \"#utility.yul\":1001:1021   */\n      calldataload\n        /* \"#utility.yul\":992:1021   */\n      swap1\n      pop\n        /* \"#utility.yul\":1030:1063   */\n      tag_114\n        /* \"#utility.yul\":1057:1062   */\n      dup2\n        /* \"#utility.yul\":1030:1063   */\n      tag_115\n      jump\t// in\n    tag_114:\n        /* \"#utility.yul\":930:1069   */\n      swap3\n      swap2\n      pop\n      pop\n      jump\t// out\n        /* \"#utility.yul\":1075:1404   */\n    tag_13:\n        /* \"#utility.yul\":1134:1140   */\n      0x00\n        /* \"#utility.yul\":1183:1185   */\n      0x20\n        /* \"#utility.yul\":1171:1180   */\n      dup3\n        /* \"#utility.yul\":1162:1169   */\n      dup5\n        /* \"#utility.yul\":1158:1181   */\n      sub\n        /* \"#utility.yul\":1154:1186   */\n      slt\n        /* \"#utility.yul\":1151:1270   */\n      iszero\n      tag_117\n      jumpi\n        /* \"#utility.yul\":1189:1268   */\n      tag_118\n      tag_119\n      jump\t// in\n    tag_118:\n        /* \"#utility.yul\":1151:1270   */\n    tag_117:\n        /* \"#utility.yul\":1309:1310   */\n      0x00\n        /* \"#utility.yul\":1334:1387   */\n      tag_120\n        /* \"#utility.yul\":1379:1386   */\n      dup5\n        /* \"#utility.yul\":1370:1376   */\n      dup3\n        /* \"#utility.yul\":1359:1368   */\n      dup6\n        /* \"#utility.yul\":1355:1377   */\n      add\n        /* \"#utility.yul\":1334:1387   */\n      tag_102\n      jump\t// in\n    tag_120:\n        /* \"#utility.yul\":1324:1387   */\n      swap2\n      pop\n        /* \"#utility.yul\":1280:1397   */\n      pop\n        /* \"#utility.yul\":1075:1404   */\n      swap3\n      swap2\n      pop\n      pop\n      jump\t// out\n        /* \"#utility.yul\":1410:1884   */\n    tag_29:\n        /* \"#utility.yul\":1478:1484   */\n      0x00\n        /* \"#utility.yul\":1486:1492   */\n      dup1\n        /* \"#utility.yul\":1535:1537   */\n      0x40\n        /* \"#utility.yul\":1523:1532   */\n      dup4\n        /* \"#utility.yul\":1514:1521   */\n      dup6\n        /* \"#utility.yul\":1510:1533   */\n      sub\n        /* \"#utility.yul\":1506:1538   */\n      slt\n        /* \"#utility.yul\":1503:1622   */\n      iszero\n      tag_122\n      jumpi\n        /* \"#utility.yul\":1541:1620   */\n      tag_123\n      tag_119\n      jump\t// in\n    tag_123:\n        /* \"#utility.yul\":1503:1622   */\n    tag_122:\n        /* \"#utility.yul\":1661:1662   */\n      0x00\n        /* \"#utility.yul\":1686:1739   */\n      tag_124\n        /* \"#utility.yul\":1731:1738   */\n      dup6\n        /* \"#utility.yul\":1722:1728   */\n      dup3\n        /* \"#utility.yul\":1711:1720   */\n      dup7\n        /* \"#utility.yul\":1707:1729   */\n      add\n        /* \"#utility.yul\":1686:1739   */\n      tag_102\n      jump\t// in\n    tag_124:\n        /* \"#utility.yul\":1676:1739   */\n      swap3\n      pop\n        /* \"#utility.yul\":1632:1749   */\n      pop\n        /* \"#utility.yul\":1788:1790   */\n      0x20\n        /* \"#utility.yul\":1814:1867   */\n      tag_125\n        /* \"#utility.yul\":1859:1866   */\n      dup6\n        /* \"#utility.yul\":1850:1856   */\n      dup3\n        /* \"#utility.yul\":1839:1848   */\n      dup7\n        /* \"#utility.yul\":1835:1857   */\n      add\n        /* \"#utility.yul\":1814:1867   */\n      tag_112\n      jump\t// in\n    tag_125:\n        /* \"#utility.yul\":1804:1867   */\n      swap2\n      pop\n        /* \"#utility.yul\":1759:1877   */\n      pop\n        /* \"#utility.yul\":1410:1884   */\n      swap3\n      pop\n      swap3\n      swap1\n      pop\n      jump\t// out\n        /* \"#utility.yul\":1890:2399   */\n    tag_19:\n        /* \"#utility.yul\":1959:1965   */\n      0x00\n        /* \"#utility.yul\":2008:2010   */\n      0x20\n        /* \"#utility.yul\":1996:2005   */\n      dup3\n        /* \"#utility.yul\":1987:1994   */\n      dup5\n        /* \"#utility.yul\":1983:2006   */\n      sub\n        /* \"#utility.yul\":1979:2011   */\n      slt\n        /* \"#utility.yul\":1976:2095   */\n      iszero\n      tag_127\n      jumpi\n        /* \"#utility.yul\":2014:2093   */\n      tag_128\n      tag_119\n      jump\t// in\n    tag_128:\n        /* \"#utility.yul\":1976:2095   */\n    tag_127:\n        /* \"#utility.yul\":2162:2163   */\n      0x00\n        /* \"#utility.yul\":2151:2160   */\n      dup3\n        /* \"#utility.yul\":2147:2164   */\n      add\n        /* \"#utility.yul\":2134:2165   */\n      calldataload\n        /* \"#utility.yul\":2192:2210   */\n      0xffffffffffffffff\n        /* \"#utility.yul\":2184:2190   */\n      dup2\n        /* \"#utility.yul\":2181:2211   */\n      gt\n        /* \"#utility.yul\":2178:2295   */\n      iszero\n      tag_129\n      jumpi\n        /* \"#utility.yul\":2214:2293   */\n      tag_130\n      tag_131\n      jump\t// in\n    tag_130:\n        /* \"#utility.yul\":2178:2295   */\n    tag_129:\n        /* \"#utility.yul\":2319:2382   */\n      tag_132\n        /* \"#utility.yul\":2374:2381   */\n      dup5\n        /* \"#utility.yul\":2365:2371   */\n      dup3\n        /* \"#utility.yul\":2354:2363   */\n      dup6\n        /* \"#utility.yul\":2350:2372   */\n      add\n        /* \"#utility.yul\":2319:2382   */\n      tag_106\n      jump\t// in\n    tag_132:\n        /* \"#utility.yul\":2309:2382   */\n      swap2\n      pop\n        /* \"#utility.yul\":2105:2392   */\n      pop\n        /* \"#utility.yul\":1890:2399   */\n      swap3\n      swap2\n      pop\n      pop\n      jump\t// out\n        /* \"#utility.yul\":2405:2584   */\n    tag_133:\n        /* \"#utility.yul\":2474:2484   */\n      0x00\n        /* \"#utility.yul\":2495:2541   */\n      tag_135\n        /* \"#utility.yul\":2537:2540   */\n      dup4\n        /* \"#utility.yul\":2529:2535   */\n      dup4\n        /* \"#utility.yul\":2495:2541   */\n      tag_136\n      jump\t// in\n    tag_135:\n        /* \"#utility.yul\":2573:2577   */\n      0x20\n        /* \"#utility.yul\":2568:2571   */\n      dup4\n        /* \"#utility.yul\":2564:2578   */\n      add\n        /* \"#utility.yul\":2550:2578   */\n      swap1\n      pop\n        /* \"#utility.yul\":2405:2584   */\n      swap3\n      swap2\n      pop\n      pop\n      jump\t// out\n        /* \"#utility.yul\":2590:2698   */\n    tag_137:\n        /* \"#utility.yul\":2667:2691   */\n      tag_139\n        /* \"#utility.yul\":2685:2690   */\n      dup2\n        /* \"#utility.yul\":2667:2691   */\n      tag_140\n      jump\t// in\n    tag_139:\n        /* \"#utility.yul\":2662:2665   */\n      dup3\n        /* \"#utility.yul\":2655:2692   */\n      mstore\n        /* \"#utility.yul\":2590:2698   */\n      pop\n      pop\n      jump\t// out\n        /* \"#utility.yul\":2734:3466   */\n    tag_141:\n        /* \"#utility.yul\":2853:2856   */\n      0x00\n        /* \"#utility.yul\":2882:2936   */\n      tag_143\n        /* \"#utility.yul\":2930:2935   */\n      dup3\n        /* \"#utility.yul\":2882:2936   */\n      tag_144\n      jump\t// in\n    tag_143:\n        /* \"#utility.yul\":2952:3038   */\n      tag_145\n        /* \"#utility.yul\":3031:3037   */\n      dup2\n        /* \"#utility.yul\":3026:3029   */\n      dup6\n        /* \"#utility.yul\":2952:3038   */\n      tag_146\n      jump\t// in\n    tag_145:\n        /* \"#utility.yul\":2945:3038   */\n      swap4\n      pop\n        /* \"#utility.yul\":3062:3118   */\n      tag_147\n        /* \"#utility.yul\":3112:3117   */\n      dup4\n        /* \"#utility.yul\":3062:3118   */\n      tag_148\n      jump\t// in\n    tag_147:\n        /* \"#utility.yul\":3141:3148   */\n      dup1\n        /* \"#utility.yul\":3172:3173   */\n      0x00\n        /* \"#utility.yul\":3157:3441   */\n    tag_149:\n        /* \"#utility.yul\":3182:3188   */\n      dup4\n        /* \"#utility.yul\":3179:3180   */\n      dup2\n        /* \"#utility.yul\":3176:3189   */\n      lt\n        /* \"#utility.yul\":3157:3441   */\n      iszero\n      tag_151\n      jumpi\n        /* \"#utility.yul\":3258:3264   */\n      dup2\n        /* \"#utility.yul\":3252:3265   */\n      mload\n        /* \"#utility.yul\":3285:3348   */\n      tag_152\n        /* \"#utility.yul\":3344:3347   */\n      dup9\n        /* \"#utility.yul\":3329:3342   */\n      dup3\n        /* \"#utility.yul\":3285:3348   */\n      tag_133\n      jump\t// in\n    tag_152:\n        /* \"#utility.yul\":3278:3348   */\n      swap8\n      pop\n        /* \"#utility.yul\":3371:3431   */\n      tag_153\n        /* \"#utility.yul\":3424:3430   */\n      dup4\n        /* \"#utility.yul\":3371:3431   */\n      tag_154\n      jump\t// in\n    tag_153:\n        /* \"#utility.yul\":3361:3431   */\n      swap3\n      pop\n        /* \"#utility.yul\":3217:3441   */\n      pop\n        /* \"#utility.yul\":3204:3205   */\n      0x01\n        /* \"#utility.yul\":3201:3202   */\n      dup2\n        /* \"#utility.yul\":3197:3206   */\n      add\n        /* \"#utility.yul\":3192:3206   */\n      swap1\n      pop\n        /* \"#utility.yul\":3157:3441   */\n      jump(tag_149)\n    tag_151:\n        /* \"#utility.yul\":3161:3175   */\n      pop\n        /* \"#utility.yul\":3457:3460   */\n      dup6\n        /* \"#utility.yul\":3450:3460   */\n      swap4\n      pop\n        /* \"#utility.yul\":2858:3466   */\n      pop\n      pop\n      pop\n        /* \"#utility.yul\":2734:3466   */\n      swap3\n      swap2\n      pop\n      pop\n      jump\t// out\n        /* \"#utility.yul\":3472:3587   */\n    tag_155:\n        /* \"#utility.yul\":3557:3580   */\n      tag_157\n        /* \"#utility.yul\":3574:3579   */\n      dup2\n        /* \"#utility.yul\":3557:3580   */\n      tag_158\n      jump\t// in\n    tag_157:\n        /* \"#utility.yul\":3552:3555   */\n      dup3\n        /* \"#utility.yul\":3545:3581   */\n      mstore\n        /* \"#utility.yul\":3472:3587   */\n      pop\n      pop\n      jump\t// out\n        /* \"#utility.yul\":3593:3711   */\n    tag_159:\n        /* \"#utility.yul\":3680:3704   */\n      tag_161\n        /* \"#utility.yul\":3698:3703   */\n      dup2\n        /* \"#utility.yul\":3680:3704   */\n      tag_162\n      jump\t// in\n    tag_161:\n        /* \"#utility.yul\":3675:3678   */\n      dup3\n        /* \"#utility.yul\":3668:3705   */\n      mstore\n        /* \"#utility.yul\":3593:3711   */\n      pop\n      pop\n      jump\t// out\n        /* \"#utility.yul\":3717:4077   */\n    tag_163:\n        /* \"#utility.yul\":3803:3806   */\n      0x00\n        /* \"#utility.yul\":3831:3869   */\n      tag_165\n        /* \"#utility.yul\":3863:3868   */\n      dup3\n        /* \"#utility.yul\":3831:3869   */\n      tag_166\n      jump\t// in\n    tag_165:\n        /* \"#utility.yul\":3885:3955   */\n      tag_167\n        /* \"#utility.yul\":3948:3954   */\n      dup2\n        /* \"#utility.yul\":3943:3946   */\n      dup6\n        /* \"#utility.yul\":3885:3955   */\n      tag_168\n      jump\t// in\n    tag_167:\n        /* \"#utility.yul\":3878:3955   */\n      swap4\n      pop\n        /* \"#utility.yul\":3964:4016   */\n      tag_169\n        /* \"#utility.yul\":4009:4015   */\n      dup2\n        /* \"#utility.yul\":4004:4007   */\n      dup6\n        /* \"#utility.yul\":3997:4001   */\n      0x20\n        /* \"#utility.yul\":3990:3995   */\n      dup7\n        /* \"#utility.yul\":3986:4002   */\n      add\n        /* \"#utility.yul\":3964:4016   */\n      tag_170\n      jump\t// in\n    tag_169:\n        /* \"#utility.yul\":4041:4070   */\n      tag_171\n        /* \"#utility.yul\":4063:4069   */\n      dup2\n        /* \"#utility.yul\":4041:4070   */\n      tag_172\n      jump\t// in\n    tag_171:\n        /* \"#utility.yul\":4036:4039   */\n      dup5\n        /* \"#utility.yul\":4032:4071   */\n      add\n        /* \"#utility.yul\":4025:4071   */\n      swap2\n      pop\n        /* \"#utility.yul\":3807:4077   */\n      pop\n        /* \"#utility.yul\":3717:4077   */\n      swap3\n      swap2\n      pop\n      pop\n      jump\t// out\n        /* \"#utility.yul\":4083:4427   */\n    tag_173:\n        /* \"#utility.yul\":4161:4164   */\n      0x00\n        /* \"#utility.yul\":4189:4228   */\n      tag_175\n        /* \"#utility.yul\":4222:4227   */\n      dup3\n        /* \"#utility.yul\":4189:4228   */\n      tag_176\n      jump\t// in\n    tag_175:\n        /* \"#utility.yul\":4244:4305   */\n      tag_177\n        /* \"#utility.yul\":4298:4304   */\n      dup2\n        /* \"#utility.yul\":4293:4296   */\n      dup6\n        /* \"#utility.yul\":4244:4305   */\n      tag_178\n      jump\t// in\n    tag_177:\n        /* \"#utility.yul\":4237:4305   */\n      swap4\n      pop\n        /* \"#utility.yul\":4314:4366   */\n      tag_179\n        /* \"#utility.yul\":4359:4365   */\n      dup2\n        /* \"#utility.yul\":4354:4357   */\n      dup6\n        /* \"#utility.yul\":4347:4351   */\n      0x20\n        /* \"#utility.yul\":4340:4345   */\n      dup7\n        /* \"#utility.yul\":4336:4352   */\n      add\n        /* \"#utility.yul\":4314:4366   */\n      tag_170\n      jump\t// in\n    tag_179:\n        /* \"#utility.yul\":4391:4420   */\n      tag_180\n        /* \"#utility.yul\":4413:4419   */\n      dup2\n        /* \"#utility.yul\":4391:4420   */\n      tag_172\n      jump\t// in\n    tag_180:\n        /* \"#utility.yul\":4386:4389   */\n      dup5\n        /* \"#utility.yul\":4382:4421   */\n      add\n        /* \"#utility.yul\":4375:4421   */\n      swap2\n      pop\n        /* \"#utility.yul\":4165:4427   */\n      pop\n        /* \"#utility.yul\":4083:4427   */\n      swap3\n      swap2\n      pop\n      pop\n      jump\t// out\n        /* \"#utility.yul\":4483:5443   */\n    tag_181:\n        /* \"#utility.yul\":4598:4601   */\n      0x00\n        /* \"#utility.yul\":4634:4638   */\n      0x80\n        /* \"#utility.yul\":4629:4632   */\n      dup4\n        /* \"#utility.yul\":4625:4639   */\n      add\n        /* \"#utility.yul\":4723:4727   */\n      0x00\n        /* \"#utility.yul\":4716:4721   */\n      dup4\n        /* \"#utility.yul\":4712:4728   */\n      add\n        /* \"#utility.yul\":4706:4729   */\n      mload\n        /* \"#utility.yul\":4742:4805   */\n      tag_183\n        /* \"#utility.yul\":4799:4803   */\n      0x00\n        /* \"#utility.yul\":4794:4797   */\n      dup7\n        /* \"#utility.yul\":4790:4804   */\n      add\n        /* \"#utility.yul\":4776:4788   */\n      dup3\n        /* \"#utility.yul\":4742:4805   */\n      tag_136\n      jump\t// in\n    tag_183:\n        /* \"#utility.yul\":4649:4815   */\n      pop\n        /* \"#utility.yul\":4902:4906   */\n      0x20\n        /* \"#utility.yul\":4895:4900   */\n      dup4\n        /* \"#utility.yul\":4891:4907   */\n      add\n        /* \"#utility.yul\":4885:4908   */\n      mload\n        /* \"#utility.yul\":4921:4984   */\n      tag_184\n        /* \"#utility.yul\":4978:4982   */\n      0x20\n        /* \"#utility.yul\":4973:4976   */\n      dup7\n        /* \"#utility.yul\":4969:4983   */\n      add\n        /* \"#utility.yul\":4955:4967   */\n      dup3\n        /* \"#utility.yul\":4921:4984   */\n      tag_136\n      jump\t// in\n    tag_184:\n        /* \"#utility.yul\":4825:4994   */\n      pop\n        /* \"#utility.yul\":5076:5080   */\n      0x40\n        /* \"#utility.yul\":5069:5074   */\n      dup4\n        /* \"#utility.yul\":5065:5081   */\n      add\n        /* \"#utility.yul\":5059:5082   */\n      mload\n        /* \"#utility.yul\":5095:5158   */\n      tag_185\n        /* \"#utility.yul\":5152:5156   */\n      0x40\n        /* \"#utility.yul\":5147:5150   */\n      dup7\n        /* \"#utility.yul\":5143:5157   */\n      add\n        /* \"#utility.yul\":5129:5141   */\n      dup3\n        /* \"#utility.yul\":5095:5158   */\n      tag_137\n      jump\t// in\n    tag_185:\n        /* \"#utility.yul\":5004:5168   */\n      pop\n        /* \"#utility.yul\":5253:5257   */\n      0x60\n        /* \"#utility.yul\":5246:5251   */\n      dup4\n        /* \"#utility.yul\":5242:5258   */\n      add\n        /* \"#utility.yul\":5236:5259   */\n      mload\n        /* \"#utility.yul\":5306:5309   */\n      dup5\n        /* \"#utility.yul\":5300:5304   */\n      dup3\n        /* \"#utility.yul\":5296:5310   */\n      sub\n        /* \"#utility.yul\":5289:5293   */\n      0x60\n        /* \"#utility.yul\":5284:5287   */\n      dup7\n        /* \"#utility.yul\":5280:5294   */\n      add\n        /* \"#utility.yul\":5273:5311   */\n      mstore\n        /* \"#utility.yul\":5332:5405   */\n      tag_186\n        /* \"#utility.yul\":5400:5404   */\n      dup3\n        /* \"#utility.yul\":5386:5398   */\n      dup3\n        /* \"#utility.yul\":5332:5405   */\n      tag_173\n      jump\t// in\n    tag_186:\n        /* \"#utility.yul\":5324:5405   */\n      swap2\n      pop\n        /* \"#utility.yul\":5178:5416   */\n      pop\n        /* \"#utility.yul\":5433:5437   */\n      dup1\n        /* \"#utility.yul\":5426:5437   */\n      swap2\n      pop\n        /* \"#utility.yul\":4603:5443   */\n      pop\n        /* \"#utility.yul\":4483:5443   */\n      swap3\n      swap2\n      pop\n      pop\n      jump\t// out\n        /* \"#utility.yul\":5449:5557   */\n    tag_136:\n        /* \"#utility.yul\":5526:5550   */\n      tag_188\n        /* \"#utility.yul\":5544:5549   */\n      dup2\n        /* \"#utility.yul\":5526:5550   */\n      tag_189\n      jump\t// in\n    tag_188:\n        /* \"#utility.yul\":5521:5524   */\n      dup3\n        /* \"#utility.yul\":5514:5551   */\n      mstore\n        /* \"#utility.yul\":5449:5557   */\n      pop\n      pop\n      jump\t// out\n        /* \"#utility.yul\":5563:5681   */\n    tag_190:\n        /* \"#utility.yul\":5650:5674   */\n      tag_192\n        /* \"#utility.yul\":5668:5673   */\n      dup2\n        /* \"#utility.yul\":5650:5674   */\n      tag_189\n      jump\t// in\n    tag_192:\n        /* \"#utility.yul\":5645:5648   */\n      dup3\n        /* \"#utility.yul\":5638:5675   */\n      mstore\n        /* \"#utility.yul\":5563:5681   */\n      pop\n      pop\n      jump\t// out\n        /* \"#utility.yul\":5687:6060   */\n    tag_37:\n        /* \"#utility.yul\":5830:5834   */\n      0x00\n        /* \"#utility.yul\":5868:5870   */\n      0x20\n        /* \"#utility.yul\":5857:5866   */\n      dup3\n        /* \"#utility.yul\":5853:5871   */\n      add\n        /* \"#utility.yul\":5845:5871   */\n      swap1\n      pop\n        /* \"#utility.yul\":5917:5926   */\n      dup2\n        /* \"#utility.yul\":5911:5915   */\n      dup2\n        /* \"#utility.yul\":5907:5927   */\n      sub\n        /* \"#utility.yul\":5903:5904   */\n      0x00\n        /* \"#utility.yul\":5892:5901   */\n      dup4\n        /* \"#utility.yul\":5888:5905   */\n      add\n        /* \"#utility.yul\":5881:5928   */\n      mstore\n        /* \"#utility.yul\":5945:6053   */\n      tag_194\n        /* \"#utility.yul\":6048:6052   */\n      dup2\n        /* \"#utility.yul\":6039:6045   */\n      dup5\n        /* \"#utility.yul\":5945:6053   */\n      tag_141\n      jump\t// in\n    tag_194:\n        /* \"#utility.yul\":5937:6053   */\n      swap1\n      pop\n        /* \"#utility.yul\":5687:6060   */\n      swap3\n      swap2\n      pop\n      pop\n      jump\t// out\n        /* \"#utility.yul\":6066:6284   */\n    tag_25:\n        /* \"#utility.yul\":6157:6161   */\n      0x00\n        /* \"#utility.yul\":6195:6197   */\n      0x20\n        /* \"#utility.yul\":6184:6193   */\n      dup3\n        /* \"#utility.yul\":6180:6198   */\n      add\n        /* \"#utility.yul\":6172:6198   */\n      swap1\n      pop\n        /* \"#utility.yul\":6208:6277   */\n      tag_196\n        /* \"#utility.yul\":6274:6275   */\n      0x00\n        /* \"#utility.yul\":6263:6272   */\n      dup4\n        /* \"#utility.yul\":6259:6276   */\n      add\n        /* \"#utility.yul\":6250:6256   */\n      dup5\n        /* \"#utility.yul\":6208:6277   */\n      tag_155\n      jump\t// in\n    tag_196:\n        /* \"#utility.yul\":6066:6284   */\n      swap3\n      swap2\n      pop\n      pop\n      jump\t// out\n        /* \"#utility.yul\":6290:6512   */\n    tag_42:\n        /* \"#utility.yul\":6383:6387   */\n      0x00\n        /* \"#utility.yul\":6421:6423   */\n      0x20\n        /* \"#utility.yul\":6410:6419   */\n      dup3\n        /* \"#utility.yul\":6406:6424   */\n      add\n        /* \"#utility.yul\":6398:6424   */\n      swap1\n      pop\n        /* \"#utility.yul\":6434:6505   */\n      tag_198\n        /* \"#utility.yul\":6502:6503   */\n      0x00\n        /* \"#utility.yul\":6491:6500   */\n      dup4\n        /* \"#utility.yul\":6487:6504   */\n      add\n        /* \"#utility.yul\":6478:6484   */\n      dup5\n        /* \"#utility.yul\":6434:6505   */\n      tag_159\n      jump\t// in\n    tag_198:\n        /* \"#utility.yul\":6290:6512   */\n      swap3\n      swap2\n      pop\n      pop\n      jump\t// out\n        /* \"#utility.yul\":6518:6827   */\n    tag_47:\n        /* \"#utility.yul\":6629:6633   */\n      0x00\n        /* \"#utility.yul\":6667:6669   */\n      0x20\n        /* \"#utility.yul\":6656:6665   */\n      dup3\n        /* \"#utility.yul\":6652:6670   */\n      add\n        /* \"#utility.yul\":6644:6670   */\n      swap1\n      pop\n        /* \"#utility.yul\":6716:6725   */\n      dup2\n        /* \"#utility.yul\":6710:6714   */\n      dup2\n        /* \"#utility.yul\":6706:6726   */\n      sub\n        /* \"#utility.yul\":6702:6703   */\n      0x00\n        /* \"#utility.yul\":6691:6700   */\n      dup4\n        /* \"#utility.yul\":6687:6704   */\n      add\n        /* \"#utility.yul\":6680:6727   */\n      mstore\n        /* \"#utility.yul\":6744:6820   */\n      tag_200\n        /* \"#utility.yul\":6815:6819   */\n      dup2\n        /* \"#utility.yul\":6806:6812   */\n      dup5\n        /* \"#utility.yul\":6744:6820   */\n      tag_163\n      jump\t// in\n    tag_200:\n        /* \"#utility.yul\":6736:6820   */\n      swap1\n      pop\n        /* \"#utility.yul\":6518:6827   */\n      swap3\n      swap2\n      pop\n      pop\n      jump\t// out\n        /* \"#utility.yul\":6833:7198   */\n    tag_32:\n        /* \"#utility.yul\":6972:6976   */\n      0x00\n        /* \"#utility.yul\":7010:7012   */\n      0x20\n        /* \"#utility.yul\":6999:7008   */\n      dup3\n        /* \"#utility.yul\":6995:7013   */\n      add\n        /* \"#utility.yul\":6987:7013   */\n      swap1\n      pop\n        /* \"#utility.yul\":7059:7068   */\n      dup2\n        /* \"#utility.yul\":7053:7057   */\n      dup2\n        /* \"#utility.yul\":7049:7069   */\n      sub\n        /* \"#utility.yul\":7045:7046   */\n      0x00\n        /* \"#utility.yul\":7034:7043   */\n      dup4\n        /* \"#utility.yul\":7030:7047   */\n      add\n        /* \"#utility.yul\":7023:7070   */\n      mstore\n        /* \"#utility.yul\":7087:7191   */\n      tag_202\n        /* \"#utility.yul\":7186:7190   */\n      dup2\n        /* \"#utility.yul\":7177:7183   */\n      dup5\n        /* \"#utility.yul\":7087:7191   */\n      tag_181\n      jump\t// in\n    tag_202:\n        /* \"#utility.yul\":7079:7191   */\n      swap1\n      pop\n        /* \"#utility.yul\":6833:7198   */\n      swap3\n      swap2\n      pop\n      pop\n      jump\t// out\n        /* \"#utility.yul\":7204:7426   */\n    tag_16:\n        /* \"#utility.yul\":7297:7301   */\n      0x00\n        /* \"#utility.yul\":7335:7337   */\n      0x20\n        /* \"#utility.yul\":7324:7333   */\n      dup3\n        /* \"#utility.yul\":7320:7338   */\n      add\n        /* \"#utility.yul\":7312:7338   */\n      swap1\n      pop\n        /* \"#utility.yul\":7348:7419   */\n      tag_204\n        /* \"#utility.yul\":7416:7417   */\n      0x00\n        /* \"#utility.yul\":7405:7414   */\n      dup4\n        /* \"#utility.yul\":7401:7418   */\n      add\n        /* \"#utility.yul\":7392:7398   */\n      dup5\n        /* \"#utility.yul\":7348:7419   */\n      tag_190\n      jump\t// in\n    tag_204:\n        /* \"#utility.yul\":7204:7426   */\n      swap3\n      swap2\n      pop\n      pop\n      jump\t// out\n        /* \"#utility.yul\":7432:7561   */\n    tag_96:\n        /* \"#utility.yul\":7466:7472   */\n      0x00\n        /* \"#utility.yul\":7493:7513   */\n      tag_206\n      tag_207\n      jump\t// in\n    tag_206:\n        /* \"#utility.yul\":7483:7513   */\n      swap1\n      pop\n        /* \"#utility.yul\":7522:7555   */\n      tag_208\n        /* \"#utility.yul\":7550:7554   */\n      dup3\n        /* \"#utility.yul\":7542:7548   */\n      dup3\n        /* \"#utility.yul\":7522:7555   */\n      tag_209\n      jump\t// in\n    tag_208:\n        /* \"#utility.yul\":7432:7561   */\n      swap2\n      swap1\n      pop\n      jump\t// out\n        /* \"#utility.yul\":7567:7642   */\n    tag_207:\n        /* \"#utility.yul\":7600:7606   */\n      0x00\n        /* \"#utility.yul\":7633:7635   */\n      0x40\n        /* \"#utility.yul\":7627:7636   */\n      mload\n        /* \"#utility.yul\":7617:7636   */\n      swap1\n      pop\n        /* \"#utility.yul\":7567:7642   */\n      swap1\n      jump\t// out\n        /* \"#utility.yul\":7648:7956   */\n    tag_95:\n        /* \"#utility.yul\":7710:7714   */\n      0x00\n        /* \"#utility.yul\":7800:7818   */\n      0xffffffffffffffff\n        /* \"#utility.yul\":7792:7798   */\n      dup3\n        /* \"#utility.yul\":7789:7819   */\n      gt\n        /* \"#utility.yul\":7786:7842   */\n      iszero\n      tag_212\n      jumpi\n        /* \"#utility.yul\":7822:7840   */\n      tag_213\n      tag_71\n      jump\t// in\n    tag_213:\n        /* \"#utility.yul\":7786:7842   */\n    tag_212:\n        /* \"#utility.yul\":7860:7889   */\n      tag_214\n        /* \"#utility.yul\":7882:7888   */\n      dup3\n        /* \"#utility.yul\":7860:7889   */\n      tag_172\n      jump\t// in\n    tag_214:\n        /* \"#utility.yul\":7852:7889   */\n      swap1\n      pop\n        /* \"#utility.yul\":7944:7948   */\n      0x20\n        /* \"#utility.yul\":7938:7942   */\n      dup2\n        /* \"#utility.yul\":7934:7949   */\n      add\n        /* \"#utility.yul\":7926:7949   */\n      swap1\n      pop\n        /* \"#utility.yul\":7648:7956   */\n      swap2\n      swap1\n      pop\n      jump\t// out\n        /* \"#utility.yul\":7962:8094   */\n    tag_148:\n        /* \"#utility.yul\":8029:8033   */\n      0x00\n        /* \"#utility.yul\":8052:8055   */\n      dup2\n        /* \"#utility.yul\":8044:8055   */\n      swap1\n      pop\n        /* \"#utility.yul\":8082:8086   */\n      0x20\n        /* \"#utility.yul\":8077:8080   */\n      dup3\n        /* \"#utility.yul\":8073:8087   */\n      add\n        /* \"#utility.yul\":8065:8087   */\n      swap1\n      pop\n        /* \"#utility.yul\":7962:8094   */\n      swap2\n      swap1\n      pop\n      jump\t// out\n        /* \"#utility.yul\":8100:8214   */\n    tag_144:\n        /* \"#utility.yul\":8167:8173   */\n      0x00\n        /* \"#utility.yul\":8201:8206   */\n      dup2\n        /* \"#utility.yul\":8195:8207   */\n      mload\n        /* \"#utility.yul\":8185:8207   */\n      swap1\n      pop\n        /* \"#utility.yul\":8100:8214   */\n      swap2\n      swap1\n      pop\n      jump\t// out\n        /* \"#utility.yul\":8220:8318   */\n    tag_166:\n        /* \"#utility.yul\":8271:8277   */\n      0x00\n        /* \"#utility.yul\":8305:8310   */\n      dup2\n        /* \"#utility.yul\":8299:8311   */\n      mload\n        /* \"#utility.yul\":8289:8311   */\n      swap1\n      pop\n        /* \"#utility.yul\":8220:8318   */\n      swap2\n      swap1\n      pop\n      jump\t// out\n        /* \"#utility.yul\":8324:8423   */\n    tag_176:\n        /* \"#utility.yul\":8376:8382   */\n      0x00\n        /* \"#utility.yul\":8410:8415   */\n      dup2\n        /* \"#utility.yul\":8404:8416   */\n      mload\n        /* \"#utility.yul\":8394:8416   */\n      swap1\n      pop\n        /* \"#utility.yul\":8324:8423   */\n      swap2\n      swap1\n      pop\n      jump\t// out\n        /* \"#utility.yul\":8429:8542   */\n    tag_154:\n        /* \"#utility.yul\":8499:8503   */\n      0x00\n        /* \"#utility.yul\":8531:8535   */\n      0x20\n        /* \"#utility.yul\":8526:8529   */\n      dup3\n        /* \"#utility.yul\":8522:8536   */\n      add\n        /* \"#utility.yul\":8514:8536   */\n      swap1\n      pop\n        /* \"#utility.yul\":8429:8542   */\n      swap2\n      swap1\n      pop\n      jump\t// out\n        /* \"#utility.yul\":8548:8732   */\n    tag_146:\n        /* \"#utility.yul\":8647:8658   */\n      0x00\n        /* \"#utility.yul\":8681:8687   */\n      dup3\n        /* \"#utility.yul\":8676:8679   */\n      dup3\n        /* \"#utility.yul\":8669:8688   */\n      mstore\n        /* \"#utility.yul\":8721:8725   */\n      0x20\n        /* \"#utility.yul\":8716:8719   */\n      dup3\n        /* \"#utility.yul\":8712:8726   */\n      add\n        /* \"#utility.yul\":8697:8726   */\n      swap1\n      pop\n        /* \"#utility.yul\":8548:8732   */\n      swap3\n      swap2\n      pop\n      pop\n      jump\t// out\n        /* \"#utility.yul\":8738:8906   */\n    tag_168:\n        /* \"#utility.yul\":8821:8832   */\n      0x00\n        /* \"#utility.yul\":8855:8861   */\n      dup3\n        /* \"#utility.yul\":8850:8853   */\n      dup3\n        /* \"#utility.yul\":8843:8862   */\n      mstore\n        /* \"#utility.yul\":8895:8899   */\n      0x20\n        /* \"#utility.yul\":8890:8893   */\n      dup3\n        /* \"#utility.yul\":8886:8900   */\n      add\n        /* \"#utility.yul\":8871:8900   */\n      swap1\n      pop\n        /* \"#utility.yul\":8738:8906   */\n      swap3\n      swap2\n      pop\n      pop\n      jump\t// out\n        /* \"#utility.yul\":8912:9071   */\n    tag_178:\n        /* \"#utility.yul\":8986:8997   */\n      0x00\n        /* \"#utility.yul\":9020:9026   */\n      dup3\n        /* \"#utility.yul\":9015:9018   */\n      dup3\n        /* \"#utility.yul\":9008:9027   */\n      mstore\n        /* \"#utility.yul\":9060:9064   */\n      0x20\n        /* \"#utility.yul\":9055:9058   */\n      dup3\n        /* \"#utility.yul\":9051:9065   */\n      add\n        /* \"#utility.yul\":9036:9065   */\n      swap1\n      pop\n        /* \"#utility.yul\":8912:9071   */\n      swap3\n      swap2\n      pop\n      pop\n      jump\t// out\n        /* \"#utility.yul\":9077:9173   */\n    tag_140:\n        /* \"#utility.yul\":9114:9121   */\n      0x00\n        /* \"#utility.yul\":9143:9167   */\n      tag_224\n        /* \"#utility.yul\":9161:9166   */\n      dup3\n        /* \"#utility.yul\":9143:9167   */\n      tag_225\n      jump\t// in\n    tag_224:\n        /* \"#utility.yul\":9132:9167   */\n      swap1\n      pop\n        /* \"#utility.yul\":9077:9173   */\n      swap2\n      swap1\n      pop\n      jump\t// out\n        /* \"#utility.yul\":9179:9328   */\n    tag_158:\n        /* \"#utility.yul\":9215:9222   */\n      0x00\n        /* \"#utility.yul\":9255:9321   */\n      0xff00000000000000000000000000000000000000000000000000000000000000\n        /* \"#utility.yul\":9248:9253   */\n      dup3\n        /* \"#utility.yul\":9244:9322   */\n      and\n        /* \"#utility.yul\":9233:9322   */\n      swap1\n      pop\n        /* \"#utility.yul\":9179:9328   */\n      swap2\n      swap1\n      pop\n      jump\t// out\n        /* \"#utility.yul\":9334:9411   */\n    tag_162:\n        /* \"#utility.yul\":9371:9378   */\n      0x00\n        /* \"#utility.yul\":9400:9405   */\n      dup2\n        /* \"#utility.yul\":9389:9405   */\n      swap1\n      pop\n        /* \"#utility.yul\":9334:9411   */\n      swap2\n      swap1\n      pop\n      jump\t// out\n        /* \"#utility.yul\":9417:9543   */\n    tag_225:\n        /* \"#utility.yul\":9454:9461   */\n      0x00\n        /* \"#utility.yul\":9494:9536   */\n      0xffffffffffffffffffffffffffffffffffffffff\n        /* \"#utility.yul\":9487:9492   */\n      dup3\n        /* \"#utility.yul\":9483:9537   */\n      and\n        /* \"#utility.yul\":9472:9537   */\n      swap1\n      pop\n        /* \"#utility.yul\":9417:9543   */\n      swap2\n      swap1\n      pop\n      jump\t// out\n        /* \"#utility.yul\":9549:9626   */\n    tag_189:\n        /* \"#utility.yul\":9586:9593   */\n      0x00\n        /* \"#utility.yul\":9615:9620   */\n      dup2\n        /* \"#utility.yul\":9604:9620   */\n      swap1\n      pop\n        /* \"#utility.yul\":9549:9626   */\n      swap2\n      swap1\n      pop\n      jump\t// out\n        /* \"#utility.yul\":9632:9786   */\n    tag_101:\n        /* \"#utility.yul\":9716:9722   */\n      dup3\n        /* \"#utility.yul\":9711:9714   */\n      dup2\n        /* \"#utility.yul\":9706:9709   */\n      dup4\n        /* \"#utility.yul\":9693:9723   */\n      calldatacopy\n        /* \"#utility.yul\":9778:9779   */\n      0x00\n        /* \"#utility.yul\":9769:9775   */\n      dup4\n        /* \"#utility.yul\":9764:9767   */\n      dup4\n        /* \"#utility.yul\":9760:9776   */\n      add\n        /* \"#utility.yul\":9753:9780   */\n      mstore\n        /* \"#utility.yul\":9632:9786   */\n      pop\n      pop\n      pop\n      jump\t// out\n        /* \"#utility.yul\":9792:10099   */\n    tag_170:\n        /* \"#utility.yul\":9860:9861   */\n      0x00\n        /* \"#utility.yul\":9870:9983   */\n    tag_232:\n        /* \"#utility.yul\":9884:9890   */\n      dup4\n        /* \"#utility.yul\":9881:9882   */\n      dup2\n        /* \"#utility.yul\":9878:9891   */\n      lt\n        /* \"#utility.yul\":9870:9983   */\n      iszero\n      tag_234\n      jumpi\n        /* \"#utility.yul\":9969:9970   */\n      dup1\n        /* \"#utility.yul\":9964:9967   */\n      dup3\n        /* \"#utility.yul\":9960:9971   */\n      add\n        /* \"#utility.yul\":9954:9972   */\n      mload\n        /* \"#utility.yul\":9950:9951   */\n      dup2\n        /* \"#utility.yul\":9945:9948   */\n      dup5\n        /* \"#utility.yul\":9941:9952   */\n      add\n        /* \"#utility.yul\":9934:9973   */\n      mstore\n        /* \"#utility.yul\":9906:9908   */\n      0x20\n        /* \"#utility.yul\":9903:9904   */\n      dup2\n        /* \"#utility.yul\":9899:9909   */\n      add\n        /* \"#utility.yul\":9894:9909   */\n      swap1\n      pop\n        /* \"#utility.yul\":9870:9983   */\n      jump(tag_232)\n    tag_234:\n        /* \"#utility.yul\":10001:10007   */\n      dup4\n        /* \"#utility.yul\":9998:9999   */\n      dup2\n        /* \"#utility.yul\":9995:10008   */\n      gt\n        /* \"#utility.yul\":9992:10093   */\n      iszero\n      tag_235\n      jumpi\n        /* \"#utility.yul\":10081:10082   */\n      0x00\n        /* \"#utility.yul\":10072:10078   */\n      dup5\n        /* \"#utility.yul\":10067:10070   */\n      dup5\n        /* \"#utility.yul\":10063:10079   */\n      add\n        /* \"#utility.yul\":10056:10083   */\n      mstore\n        /* \"#utility.yul\":9992:10093   */\n    tag_235:\n        /* \"#utility.yul\":9841:10099   */\n      pop\n        /* \"#utility.yul\":9792:10099   */\n      pop\n      pop\n      pop\n      jump\t// out\n        /* \"#utility.yul\":10105:10425   */\n    tag_55:\n        /* \"#utility.yul\":10149:10155   */\n      0x00\n        /* \"#utility.yul\":10186:10187   */\n      0x02\n        /* \"#utility.yul\":10180:10184   */\n      dup3\n        /* \"#utility.yul\":10176:10188   */\n      div\n        /* \"#utility.yul\":10166:10188   */\n      swap1\n      pop\n        /* \"#utility.yul\":10233:10234   */\n      0x01\n        /* \"#utility.yul\":10227:10231   */\n      dup3\n        /* \"#utility.yul\":10223:10235   */\n      and\n        /* \"#utility.yul\":10254:10272   */\n      dup1\n        /* \"#utility.yul\":10244:10325   */\n      tag_237\n      jumpi\n        /* \"#utility.yul\":10310:10314   */\n      0x7f\n        /* \"#utility.yul\":10302:10308   */\n      dup3\n        /* \"#utility.yul\":10298:10315   */\n      and\n        /* \"#utility.yul\":10288:10315   */\n      swap2\n      pop\n        /* \"#utility.yul\":10244:10325   */\n    tag_237:\n        /* \"#utility.yul\":10372:10374   */\n      0x20\n        /* \"#utility.yul\":10364:10370   */\n      dup3\n        /* \"#utility.yul\":10361:10375   */\n      lt\n        /* \"#utility.yul\":10341:10359   */\n      dup2\n        /* \"#utility.yul\":10338:10376   */\n      eq\n        /* \"#utility.yul\":10335:10419   */\n      iszero\n      tag_238\n      jumpi\n        /* \"#utility.yul\":10391:10409   */\n      tag_239\n      tag_240\n      jump\t// in\n    tag_239:\n        /* \"#utility.yul\":10335:10419   */\n    tag_238:\n        /* \"#utility.yul\":10156:10425   */\n      pop\n        /* \"#utility.yul\":10105:10425   */\n      swap2\n      swap1\n      pop\n      jump\t// out\n        /* \"#utility.yul\":10431:10712   */\n    tag_209:\n        /* \"#utility.yul\":10514:10541   */\n      tag_242\n        /* \"#utility.yul\":10536:10540   */\n      dup3\n        /* \"#utility.yul\":10514:10541   */\n      tag_172\n      jump\t// in\n    tag_242:\n        /* \"#utility.yul\":10506:10512   */\n      dup2\n        /* \"#utility.yul\":10502:10542   */\n      add\n        /* \"#utility.yul\":10644:10650   */\n      dup2\n        /* \"#utility.yul\":10632:10642   */\n      dup2\n        /* \"#utility.yul\":10629:10651   */\n      lt\n        /* \"#utility.yul\":10608:10626   */\n      0xffffffffffffffff\n        /* \"#utility.yul\":10596:10606   */\n      dup3\n        /* \"#utility.yul\":10593:10627   */\n      gt\n        /* \"#utility.yul\":10590:10652   */\n      or\n        /* \"#utility.yul\":10587:10675   */\n      iszero\n      tag_243\n      jumpi\n        /* \"#utility.yul\":10655:10673   */\n      tag_244\n      tag_71\n      jump\t// in\n    tag_244:\n        /* \"#utility.yul\":10587:10675   */\n    tag_243:\n        /* \"#utility.yul\":10695:10705   */\n      dup1\n        /* \"#utility.yul\":10691:10693   */\n      0x40\n        /* \"#utility.yul\":10684:10706   */\n      mstore\n        /* \"#utility.yul\":10474:10712   */\n      pop\n        /* \"#utility.yul\":10431:10712   */\n      pop\n      pop\n      jump\t// out\n        /* \"#utility.yul\":10718:10951   */\n    tag_50:\n        /* \"#utility.yul\":10757:10760   */\n      0x00\n        /* \"#utility.yul\":10780:10804   */\n      tag_246\n        /* \"#utility.yul\":10798:10803   */\n      dup3\n        /* \"#utility.yul\":10780:10804   */\n      tag_189\n      jump\t// in\n    tag_246:\n        /* \"#utility.yul\":10771:10804   */\n      swap2\n      pop\n        /* \"#utility.yul\":10826:10892   */\n      0xffffffffffffffffffffffffffffffffffffffffffffffffffffffffffffffff\n        /* \"#utility.yul\":10819:10824   */\n      dup3\n        /* \"#utility.yul\":10816:10893   */\n      eq\n        /* \"#utility.yul\":10813:10916   */\n      iszero\n      tag_247\n      jumpi\n        /* \"#utility.yul\":10896:10914   */\n      tag_248\n      tag_249\n      jump\t// in\n    tag_248:\n        /* \"#utility.yul\":10813:10916   */\n    tag_247:\n        /* \"#utility.yul\":10943:10944   */\n      0x01\n        /* \"#utility.yul\":10936:10941   */\n      dup3\n        /* \"#utility.yul\":10932:10945   */\n      add\n        /* \"#utility.yul\":10925:10945   */\n      swap1\n      pop\n        /* \"#utility.yul\":10718:10951   */\n      swap2\n      swap1\n      pop\n      jump\t// out\n        /* \"#utility.yul\":10957:11137   */\n    tag_249:\n        /* \"#utility.yul\":11005:11082   */\n      0x4e487b7100000000000000000000000000000000000000000000000000000000\n        /* \"#utility.yul\":11002:11003   */\n      0x00\n        /* \"#utility.yul\":10995:11083   */\n      mstore\n        /* \"#utility.yul\":11102:11106   */\n      0x11\n        /* \"#utility.yul\":11099:11100   */\n      0x04\n        /* \"#utility.yul\":11092:11107   */\n      mstore\n        /* \"#utility.yul\":11126:11130   */\n      0x24\n        /* \"#utility.yul\":11123:11124   */\n      0x00\n        /* \"#utility.yul\":11116:11131   */\n      revert\n        /* \"#utility.yul\":11143:11323   */\n    tag_240:\n        /* \"#utility.yul\":11191:11268   */\n      0x4e487b7100000000000000000000000000000000000000000000000000000000\n        /* \"#utility.yul\":11188:11189   */\n      0x00\n        /* \"#utility.yul\":11181:11269   */\n      mstore\n        /* \"#utility.yul\":11288:11292   */\n      0x22\n        /* \"#utility.yul\":11285:11286   */\n      0x04\n        /* \"#utility.yul\":11278:11293   */\n      mstore\n        /* \"#utility.yul\":11312:11316   */\n      0x24\n        /* \"#utility.yul\":11309:11310   */\n      0x00\n        /* \"#utility.yul\":11302:11317   */\n      revert\n        /* \"#utility.yul\":11329:11509   */\n    tag_58:\n        /* \"#utility.yul\":11377:11454   */\n      0x4e487b7100000000000000000000000000000000000000000000000000000000\n        /* \"#utility.yul\":11374:11375   */\n      0x00\n        /* \"#utility.yul\":11367:11455   */\n      mstore\n        /* \"#utility.yul\":11474:11478   */\n      0x32\n        /* \"#utility.yul\":11471:11472   */\n      0x04\n        /* \"#utility.yul\":11464:11479   */\n      mstore\n        /* \"#utility.yul\":11498:11502   */\n      0x24\n        /* \"#utility.yul\":11495:11496   */\n      0x00\n        /* \"#utility.yul\":11488:11503   */\n      revert\n        /* \"#utility.yul\":11515:11695   */\n    tag_71:\n        /* \"#utility.yul\":11563:11640   */\n      0x4e487b7100000000000000000000000000000000000000000000000000000000\n        /* \"#utility.yul\":11560:11561   */\n      0x00\n        /* \"#utility.yul\":11553:11641   */\n      mstore\n        /* \"#utility.yul\":11660:11664   */\n      0x41\n        /* \"#utility.yul\":11657:11658   */\n      0x04\n        /* \"#utility.yul\":11650:11665   */\n      mstore\n        /* \"#utility.yul\":11684:11688   */\n      0x24\n        /* \"#utility.yul\":11681:11682   */\n      0x00\n        /* \"#utility.yul\":11674:11689   */\n      revert\n        /* \"#utility.yul\":11701:11818   */\n    tag_110:\n        /* \"#utility.yul\":11810:11811   */\n      0x00\n        /* \"#utility.yul\":11807:11808   */\n      dup1\n        /* \"#utility.yul\":11800:11812   */\n      revert\n        /* \"#utility.yul\":11824:11941   */\n    tag_99:\n        /* \"#utility.yul\":11933:11934   */\n      0x00\n        /* \"#utility.yul\":11930:11931   */\n      dup1\n        /* \"#utility.yul\":11923:11935   */\n      revert\n        /* \"#utility.yul\":11947:12064   */\n    tag_131:\n        /* \"#utility.yul\":12056:12057   */\n      0x00\n        /* \"#utility.yul\":12053:12054   */\n      dup1\n        /* \"#utility.yul\":12046:12058   */\n      revert\n        /* \"#utility.yul\":12070:12187   */\n    tag_119:\n        /* \"#utility.yul\":12179:12180   */\n      0x00\n        /* \"#utility.yul\":12176:12177   */\n      dup1\n        /* \"#utility.yul\":12169:12181   */\n      revert\n        /* \"#utility.yul\":12193:12295   */\n    tag_172:\n        /* \"#utility.yul\":12234:12240   */\n      0x00\n        /* \"#utility.yul\":12285:12287   */\n      0x1f\n        /* \"#utility.yul\":12281:12288   */\n      not\n        /* \"#utility.yul\":12276:12278   */\n      0x1f\n        /* \"#utility.yul\":12269:12274   */\n      dup4\n        /* \"#utility.yul\":12265:12279   */\n      add\n        /* \"#utility.yul\":12261:12289   */\n      and\n        /* \"#utility.yul\":12251:12289   */\n      swap1\n      pop\n        /* \"#utility.yul\":12193:12295   */\n      swap2\n      swap1\n      pop\n      jump\t// out\n        /* \"#utility.yul\":12301:12423   */\n    tag_105:\n        /* \"#utility.yul\":12374:12398   */\n      tag_260\n        /* \"#utility.yul\":12392:12397   */\n      dup2\n        /* \"#utility.yul\":12374:12398   */\n      tag_140\n      jump\t// in\n    tag_260:\n        /* \"#utility.yul\":12367:12372   */\n      dup2\n        /* \"#utility.yul\":12364:12399   */\n      eq\n        /* \"#utility.yul\":12354:12417   */\n      tag_261\n      jumpi\n        /* \"#utility.yul\":12413:12414   */\n      0x00\n        /* \"#utility.yul\":12410:12411   */\n      dup1\n        /* \"#utility.yul\":12403:12415   */\n      revert\n        /* \"#utility.yul\":12354:12417   */\n    tag_261:\n        /* \"#utility.yul\":12301:12423   */\n      pop\n      jump\t// out\n        /* \"#utility.yul\":12429:12551   */\n    tag_115:\n        /* \"#utility.yul\":12502:12526   */\n      tag_263\n        /* \"#utility.yul\":12520:12525   */\n      dup2\n        /* \"#utility.yul\":12502:12526   */\n      tag_189\n      jump\t// in\n    tag_263:\n        /* \"#utility.yul\":12495:12500   */\n      dup2\n        /* \"#utility.yul\":12492:12527   */\n      eq\n        /* \"#utility.yul\":12482:12545   */\n      tag_264\n      jumpi\n        /* \"#utility.yul\":12541:12542   */\n      0x00\n        /* \"#utility.yul\":12538:12539   */\n      dup1\n        /* \"#utility.yul\":12531:12543   */\n      revert\n        /* \"#utility.yul\":12482:12545   */\n    tag_264:\n        /* \"#utility.yul\":12429:12551   */\n      pop\n      jump\t// out\n\n    auxdata: 0xa2646970667358221220101d47a7331988709a7c624895ba1e68f8d1cd59d178a5bc13e2eae7fb63ea2d64736f6c63430008070033\n}\n",
				"bytecode": {
					"linkReferences": {},
					"object": "60806040527f74657374206865726500000000000000000000000000000000000000000000006000556040518060400160405280600981526020017f746573742068657265000000000000000000000000000000000000000000000081525060019080519060200190620000759291906200008a565b503480156200008357600080fd5b506200019f565b82805462000098906200013a565b90600052602060002090601f016020900481019282620000bc576000855562000108565b82601f10620000d757805160ff191683800117855562000108565b8280016001018555821562000108579182015b8281111562000107578251825591602001919060010190620000ea565b5b5090506200011791906200011b565b5090565b5b80821115620001365760008160009055506001016200011c565b5090565b600060028204905060018216806200015357607f821691505b602082108114156200016a576200016962000170565b5b50919050565b7f4e487b7100000000000000000000000000000000000000000000000000000000600052602260045260246000fd5b610e4e80620001af6000396000f3fe6080604052600436106100705760003560e01c8063977a767c1161004e578063977a767c146100f9578063a34343c914610136578063c6b9154014610161578063ffb1e2101461018c57610070565b806327e235e3146100755780632b66d72e146100b2578063654c914f146100ce575b600080fd5b34801561008157600080fd5b5061009c600480360381019061009791906107df565b6101b7565b6040516100a99190610ac7565b60405180910390f35b6100cc60048036038101906100c7919061084c565b6101d5565b005b3480156100da57600080fd5b506100e3610383565b6040516100f09190610a4d565b60405180910390f35b34801561010557600080fd5b50610120600480360381019061011b919061080c565b6103ed565b60405161012d9190610aa5565b60405180910390f35b34801561014257600080fd5b5061014b610557565b6040516101589190610a2b565b60405180910390f35b34801561016d57600080fd5b506101766105d0565b6040516101839190610a68565b60405180910390f35b34801561019857600080fd5b506101a16105d6565b6040516101ae9190610a83565b60405180910390f35b60026020528060005260406000206000915090508060000154905081565b6000600260003373ffffffffffffffffffffffffffffffffffffffff1673ffffffffffffffffffffffffffffffffffffffff168152602001908152602001600020600001549050600260003373ffffffffffffffffffffffffffffffffffffffff1673ffffffffffffffffffffffffffffffffffffffff168152602001908152602001600020600001600081548092919061026f90610cc0565b9190505550600060405180608001604052803481526020014281526020013373ffffffffffffffffffffffffffffffffffffffff16815260200184815250905080600260003373ffffffffffffffffffffffffffffffffffffffff1673ffffffffffffffffffffffffffffffffffffffff1681526020019081526020016000206001016000848152602001908152602001600020600082015181600001556020820151816001015560408201518160020160006101000a81548173ffffffffffffffffffffffffffffffffffffffff021916908373ffffffffffffffffffffffffffffffffffffffff160217905550606082015181600301908051906020019061037a929190610664565b50905050505050565b600060016000815461039490610c5d565b81106103a3576103a2610d67565b5b8154600116156103c25790600052602060002090602091828204019190065b9054901a7f010000000000000000000000000000000000000000000000000000000000000002905090565b6103f56106ea565b600260008473ffffffffffffffffffffffffffffffffffffffff1673ffffffffffffffffffffffffffffffffffffffff168152602001908152602001600020600101600083815260200190815260200160002060405180608001604052908160008201548152602001600182015481526020016002820160009054906101000a900473ffffffffffffffffffffffffffffffffffffffff1673ffffffffffffffffffffffffffffffffffffffff1673ffffffffffffffffffffffffffffffffffffffff1681526020016003820180546104cd90610c5d565b80601f01602080910402602001604051908101604052809291908181526020018280546104f990610c5d565b80156105465780601f1061051b57610100808354040283529160200191610546565b820191906000526020600020905b81548152906001019060200180831161052957829003601f168201915b505050505081525050905092915050565b60606000600a67ffffffffffffffff81111561057657610575610d96565b5b6040519080825280602002602001820160405280156105a45781602001602082028036833780820191505090505b5090506001816000815181106105bd576105bc610d67565b5b6020026020010181815250508091505090565b60005481565b600180546105e390610c5d565b80601f016020809104026020016040519081016040528092919081815260200182805461060f90610c5d565b801561065c5780601f106106315761010080835404028352916020019161065c565b820191906000526020600020905b81548152906001019060200180831161063f57829003601f168201915b505050505081565b82805461067090610c5d565b90600052602060002090601f01602090048101928261069257600085556106d9565b82601f106106ab57805160ff19168380011785556106d9565b828001600101855582156106d9579182015b828111156106d85782518255916020019190600101906106bd565b5b5090506106e69190610728565b5090565b60405180608001604052806000815260200160008152602001600073ffffffffffffffffffffffffffffffffffffffff168152602001606081525090565b5b80821115610741576000816000905550600101610729565b5090565b600061075861075384610b07565b610ae2565b90508281526020810184848401111561077457610773610dca565b5b61077f848285610c1b565b509392505050565b60008135905061079681610dea565b92915050565b600082601f8301126107b1576107b0610dc5565b5b81356107c1848260208601610745565b91505092915050565b6000813590506107d981610e01565b92915050565b6000602082840312156107f5576107f4610dd4565b5b600061080384828501610787565b91505092915050565b6000806040838503121561082357610822610dd4565b5b600061083185828601610787565b9250506020610842858286016107ca565b9150509250929050565b60006020828403121561086257610861610dd4565b5b600082013567ffffffffffffffff8111156108805761087f610dcf565b5b61088c8482850161079c565b91505092915050565b60006108a18383610a0d565b60208301905092915050565b6108b681610ba9565b82525050565b60006108c782610b48565b6108d18185610b76565b93506108dc83610b38565b8060005b8381101561090d5781516108f48882610895565b97506108ff83610b69565b9250506001810190506108e0565b5085935050505092915050565b61092381610bbb565b82525050565b61093281610be7565b82525050565b600061094382610b53565b61094d8185610b87565b935061095d818560208601610c2a565b61096681610dd9565b840191505092915050565b600061097c82610b5e565b6109868185610b98565b9350610996818560208601610c2a565b61099f81610dd9565b840191505092915050565b60006080830160008301516109c26000860182610a0d565b5060208301516109d56020860182610a0d565b5060408301516109e860408601826108ad565b5060608301518482036060860152610a008282610971565b9150508091505092915050565b610a1681610c11565b82525050565b610a2581610c11565b82525050565b60006020820190508181036000830152610a4581846108bc565b905092915050565b6000602082019050610a62600083018461091a565b92915050565b6000602082019050610a7d6000830184610929565b92915050565b60006020820190508181036000830152610a9d8184610938565b905092915050565b60006020820190508181036000830152610abf81846109aa565b905092915050565b6000602082019050610adc6000830184610a1c565b92915050565b6000610aec610afd565b9050610af88282610c8f565b919050565b6000604051905090565b600067ffffffffffffffff821115610b2257610b21610d96565b5b610b2b82610dd9565b9050602081019050919050565b6000819050602082019050919050565b600081519050919050565b600081519050919050565b600081519050919050565b6000602082019050919050565b600082825260208201905092915050565b600082825260208201905092915050565b600082825260208201905092915050565b6000610bb482610bf1565b9050919050565b60007fff0000000000000000000000000000000000000000000000000000000000000082169050919050565b6000819050919050565b600073ffffffffffffffffffffffffffffffffffffffff82169050919050565b6000819050919050565b82818337600083830152505050565b60005b83811015610c48578082015181840152602081019050610c2d565b83811115610c57576000848401525b50505050565b60006002820490506001821680610c7557607f821691505b60208210811415610c8957610c88610d38565b5b50919050565b610c9882610dd9565b810181811067ffffffffffffffff82111715610cb757610cb6610d96565b5b80604052505050565b6000610ccb82610c11565b91507fffffffffffffffffffffffffffffffffffffffffffffffffffffffffffffffff821415610cfe57610cfd610d09565b5b600182019050919050565b7f4e487b7100000000000000000000000000000000000000000000000000000000600052601160045260246000fd5b7f4e487b7100000000000000000000000000000000000000000000000000000000600052602260045260246000fd5b7f4e487b7100000000000000000000000000000000000000000000000000000000600052603260045260246000fd5b7f4e487b7100000000000000000000000000000000000000000000000000000000600052604160045260246000fd5b600080fd5b600080fd5b600080fd5b600080fd5b6000601f19601f8301169050919050565b610df381610ba9565b8114610dfe57600080fd5b50565b610e0a81610c11565b8114610e1557600080fd5b5056fea2646970667358221220101d47a7331988709a7c624895ba1e68f8d1cd59d178a5bc13e2eae7fb63ea2d64736f6c63430008070033",
					"opcodes": "PUSH1 0x80 PUSH1 0x40 MSTORE PUSH32 0x7465737420686572650000000000000000000000000000000000000000000000 PUSH1 0x0 SSTORE PUSH1 0x40 MLOAD DUP1 PUSH1 0x40 ADD PUSH1 0x40 MSTORE DUP1 PUSH1 0x9 DUP2 MSTORE PUSH1 0x20 ADD PUSH32 0x7465737420686572650000000000000000000000000000000000000000000000 DUP2 MSTORE POP PUSH1 0x1 SWAP1 DUP1 MLOAD SWAP1 PUSH1 0x20 ADD SWAP1 PUSH3 0x75 SWAP3 SWAP2 SWAP1 PUSH3 0x8A JUMP JUMPDEST POP CALLVALUE DUP1 ISZERO PUSH3 0x83 JUMPI PUSH1 0x0 DUP1 REVERT JUMPDEST POP PUSH3 0x19F JUMP JUMPDEST DUP3 DUP1 SLOAD PUSH3 0x98 SWAP1 PUSH3 0x13A JUMP JUMPDEST SWAP1 PUSH1 0x0 MSTORE PUSH1 0x20 PUSH1 0x0 KECCAK256 SWAP1 PUSH1 0x1F ADD PUSH1 0x20 SWAP1 DIV DUP2 ADD SWAP3 DUP3 PUSH3 0xBC JUMPI PUSH1 0x0 DUP6 SSTORE PUSH3 0x108 JUMP JUMPDEST DUP3 PUSH1 0x1F LT PUSH3 0xD7 JUMPI DUP1 MLOAD PUSH1 0xFF NOT AND DUP4 DUP1 ADD OR DUP6 SSTORE PUSH3 0x108 JUMP JUMPDEST DUP3 DUP1 ADD PUSH1 0x1 ADD DUP6 SSTORE DUP3 ISZERO PUSH3 0x108 JUMPI SWAP2 DUP3 ADD JUMPDEST DUP3 DUP2 GT ISZERO PUSH3 0x107 JUMPI DUP3 MLOAD DUP3 SSTORE SWAP2 PUSH1 0x20 ADD SWAP2 SWAP1 PUSH1 0x1 ADD SWAP1 PUSH3 0xEA JUMP JUMPDEST JUMPDEST POP SWAP1 POP PUSH3 0x117 SWAP2 SWAP1 PUSH3 0x11B JUMP JUMPDEST POP SWAP1 JUMP JUMPDEST JUMPDEST DUP1 DUP3 GT ISZERO PUSH3 0x136 JUMPI PUSH1 0x0 DUP2 PUSH1 0x0 SWAP1 SSTORE POP PUSH1 0x1 ADD PUSH3 0x11C JUMP JUMPDEST POP SWAP1 JUMP JUMPDEST PUSH1 0x0 PUSH1 0x2 DUP3 DIV SWAP1 POP PUSH1 0x1 DUP3 AND DUP1 PUSH3 0x153 JUMPI PUSH1 0x7F DUP3 AND SWAP2 POP JUMPDEST PUSH1 0x20 DUP3 LT DUP2 EQ ISZERO PUSH3 0x16A JUMPI PUSH3 0x169 PUSH3 0x170 JUMP JUMPDEST JUMPDEST POP SWAP2 SWAP1 POP JUMP JUMPDEST PUSH32 0x4E487B7100000000000000000000000000000000000000000000000000000000 PUSH1 0x0 MSTORE PUSH1 0x22 PUSH1 0x4 MSTORE PUSH1 0x24 PUSH1 0x0 REVERT JUMPDEST PUSH2 0xE4E DUP1 PUSH3 0x1AF PUSH1 0x0 CODECOPY PUSH1 0x0 RETURN INVALID PUSH1 0x80 PUSH1 0x40 MSTORE PUSH1 0x4 CALLDATASIZE LT PUSH2 0x70 JUMPI PUSH1 0x0 CALLDATALOAD PUSH1 0xE0 SHR DUP1 PUSH4 0x977A767C GT PUSH2 0x4E JUMPI DUP1 PUSH4 0x977A767C EQ PUSH2 0xF9 JUMPI DUP1 PUSH4 0xA34343C9 EQ PUSH2 0x136 JUMPI DUP1 PUSH4 0xC6B91540 EQ PUSH2 0x161 JUMPI DUP1 PUSH4 0xFFB1E210 EQ PUSH2 0x18C JUMPI PUSH2 0x70 JUMP JUMPDEST DUP1 PUSH4 0x27E235E3 EQ PUSH2 0x75 JUMPI DUP1 PUSH4 0x2B66D72E EQ PUSH2 0xB2 JUMPI DUP1 PUSH4 0x654C914F EQ PUSH2 0xCE JUMPI JUMPDEST PUSH1 0x0 DUP1 REVERT JUMPDEST CALLVALUE DUP1 ISZERO PUSH2 0x81 JUMPI PUSH1 0x0 DUP1 REVERT JUMPDEST POP PUSH2 0x9C PUSH1 0x4 DUP1 CALLDATASIZE SUB DUP2 ADD SWAP1 PUSH2 0x97 SWAP2 SWAP1 PUSH2 0x7DF JUMP JUMPDEST PUSH2 0x1B7 JUMP JUMPDEST PUSH1 0x40 MLOAD PUSH2 0xA9 SWAP2 SWAP1 PUSH2 0xAC7 JUMP JUMPDEST PUSH1 0x40 MLOAD DUP1 SWAP2 SUB SWAP1 RETURN JUMPDEST PUSH2 0xCC PUSH1 0x4 DUP1 CALLDATASIZE SUB DUP2 ADD SWAP1 PUSH2 0xC7 SWAP2 SWAP1 PUSH2 0x84C JUMP JUMPDEST PUSH2 0x1D5 JUMP JUMPDEST STOP JUMPDEST CALLVALUE DUP1 ISZERO PUSH2 0xDA JUMPI PUSH1 0x0 DUP1 REVERT JUMPDEST POP PUSH2 0xE3 PUSH2 0x383 JUMP JUMPDEST PUSH1 0x40 MLOAD PUSH2 0xF0 SWAP2 SWAP1 PUSH2 0xA4D JUMP JUMPDEST PUSH1 0x40 MLOAD DUP1 SWAP2 SUB SWAP1 RETURN JUMPDEST CALLVALUE DUP1 ISZERO PUSH2 0x105 JUMPI PUSH1 0x0 DUP1 REVERT JUMPDEST POP PUSH2 0x120 PUSH1 0x4 DUP1 CALLDATASIZE SUB DUP2 ADD SWAP1 PUSH2 0x11B SWAP2 SWAP1 PUSH2 0x80C JUMP JUMPDEST PUSH2 0x3ED JUMP JUMPDEST PUSH1 0x40 MLOAD PUSH2 0x12D SWAP2 SWAP1 PUSH2 0xAA5 JUMP JUMPDEST PUSH1 0x40 MLOAD DUP1 SWAP2 SUB SWAP1 RETURN JUMPDEST CALLVALUE DUP1 ISZERO PUSH2 0x142 JUMPI PUSH1 0x0 DUP1 REVERT JUMPDEST POP PUSH2 0x14B PUSH2 0x557 JUMP JUMPDEST PUSH1 0x40 MLOAD PUSH2 0x158 SWAP2 SWAP1 PUSH2 0xA2B JUMP JUMPDEST PUSH1 0x40 MLOAD DUP1 SWAP2 SUB SWAP1 RETURN JUMPDEST CALLVALUE DUP1 ISZERO PUSH2 0x16D JUMPI PUSH1 0x0 DUP1 REVERT JUMPDEST POP PUSH2 0x176 PUSH2 0x5D0 JUMP JUMPDEST PUSH1 0x40 MLOAD PUSH2 0x183 SWAP2 SWAP1 PUSH2 0xA68 JUMP JUMPDEST PUSH1 0x40 MLOAD DUP1 SWAP2 SUB SWAP1 RETURN JUMPDEST CALLVALUE DUP1 ISZERO PUSH2 0x198 JUMPI PUSH1 0x0 DUP1 REVERT JUMPDEST POP PUSH2 0x1A1 PUSH2 0x5D6 JUMP JUMPDEST PUSH1 0x40 MLOAD PUSH2 0x1AE SWAP2 SWAP1 PUSH2 0xA83 JUMP JUMPDEST PUSH1 0x40 MLOAD DUP1 SWAP2 SUB SWAP1 RETURN JUMPDEST PUSH1 0x2 PUSH1 0x20 MSTORE DUP1 PUSH1 0x0 MSTORE PUSH1 0x40 PUSH1 0x0 KECCAK256 PUSH1 0x0 SWAP2 POP SWAP1 POP DUP1 PUSH1 0x0 ADD SLOAD SWAP1 POP DUP2 JUMP JUMPDEST PUSH1 0x0 PUSH1 0x2 PUSH1 0x0 CALLER PUSH20 0xFFFFFFFFFFFFFFFFFFFFFFFFFFFFFFFFFFFFFFFF AND PUSH20 0xFFFFFFFFFFFFFFFFFFFFFFFFFFFFFFFFFFFFFFFF AND DUP2 MSTORE PUSH1 0x20 ADD SWAP1 DUP2 MSTORE PUSH1 0x20 ADD PUSH1 0x0 KECCAK256 PUSH1 0x0 ADD SLOAD SWAP1 POP PUSH1 0x2 PUSH1 0x0 CALLER PUSH20 0xFFFFFFFFFFFFFFFFFFFFFFFFFFFFFFFFFFFFFFFF AND PUSH20 0xFFFFFFFFFFFFFFFFFFFFFFFFFFFFFFFFFFFFFFFF AND DUP2 MSTORE PUSH1 0x20 ADD SWAP1 DUP2 MSTORE PUSH1 0x20 ADD PUSH1 0x0 KECCAK256 PUSH1 0x0 ADD PUSH1 0x0 DUP2 SLOAD DUP1 SWAP3 SWAP2 SWAP1 PUSH2 0x26F SWAP1 PUSH2 0xCC0 JUMP JUMPDEST SWAP2 SWAP1 POP SSTORE POP PUSH1 0x0 PUSH1 0x40 MLOAD DUP1 PUSH1 0x80 ADD PUSH1 0x40 MSTORE DUP1 CALLVALUE DUP2 MSTORE PUSH1 0x20 ADD TIMESTAMP DUP2 MSTORE PUSH1 0x20 ADD CALLER PUSH20 0xFFFFFFFFFFFFFFFFFFFFFFFFFFFFFFFFFFFFFFFF AND DUP2 MSTORE PUSH1 0x20 ADD DUP5 DUP2 MSTORE POP SWAP1 POP DUP1 PUSH1 0x2 PUSH1 0x0 CALLER PUSH20 0xFFFFFFFFFFFFFFFFFFFFFFFFFFFFFFFFFFFFFFFF AND PUSH20 0xFFFFFFFFFFFFFFFFFFFFFFFFFFFFFFFFFFFFFFFF AND DUP2 MSTORE PUSH1 0x20 ADD SWAP1 DUP2 MSTORE PUSH1 0x20 ADD PUSH1 0x0 KECCAK256 PUSH1 0x1 ADD PUSH1 0x0 DUP5 DUP2 MSTORE PUSH1 0x20 ADD SWAP1 DUP2 MSTORE PUSH1 0x20 ADD PUSH1 0x0 KECCAK256 PUSH1 0x0 DUP3 ADD MLOAD DUP2 PUSH1 0x0 ADD SSTORE PUSH1 0x20 DUP3 ADD MLOAD DUP2 PUSH1 0x1 ADD SSTORE PUSH1 0x40 DUP3 ADD MLOAD DUP2 PUSH1 0x2 ADD PUSH1 0x0 PUSH2 0x100 EXP DUP2 SLOAD DUP2 PUSH20 0xFFFFFFFFFFFFFFFFFFFFFFFFFFFFFFFFFFFFFFFF MUL NOT AND SWAP1 DUP4 PUSH20 0xFFFFFFFFFFFFFFFFFFFFFFFFFFFFFFFFFFFFFFFF AND MUL OR SWAP1 SSTORE POP PUSH1 0x60 DUP3 ADD MLOAD DUP2 PUSH1 0x3 ADD SWAP1 DUP1 MLOAD SWAP1 PUSH1 0x20 ADD SWAP1 PUSH2 0x37A SWAP3 SWAP2 SWAP1 PUSH2 0x664 JUMP JUMPDEST POP SWAP1 POP POP POP POP POP JUMP JUMPDEST PUSH1 0x0 PUSH1 0x1 PUSH1 0x0 DUP2 SLOAD PUSH2 0x394 SWAP1 PUSH2 0xC5D JUMP JUMPDEST DUP2 LT PUSH2 0x3A3 JUMPI PUSH2 0x3A2 PUSH2 0xD67 JUMP JUMPDEST JUMPDEST DUP2 SLOAD PUSH1 0x1 AND ISZERO PUSH2 0x3C2 JUMPI SWAP1 PUSH1 0x0 MSTORE PUSH1 0x20 PUSH1 0x0 KECCAK256 SWAP1 PUSH1 0x20 SWAP2 DUP3 DUP3 DIV ADD SWAP2 SWAP1 MOD JUMPDEST SWAP1 SLOAD SWAP1 BYTE PUSH32 0x100000000000000000000000000000000000000000000000000000000000000 MUL SWAP1 POP SWAP1 JUMP JUMPDEST PUSH2 0x3F5 PUSH2 0x6EA JUMP JUMPDEST PUSH1 0x2 PUSH1 0x0 DUP5 PUSH20 0xFFFFFFFFFFFFFFFFFFFFFFFFFFFFFFFFFFFFFFFF AND PUSH20 0xFFFFFFFFFFFFFFFFFFFFFFFFFFFFFFFFFFFFFFFF AND DUP2 MSTORE PUSH1 0x20 ADD SWAP1 DUP2 MSTORE PUSH1 0x20 ADD PUSH1 0x0 KECCAK256 PUSH1 0x1 ADD PUSH1 0x0 DUP4 DUP2 MSTORE PUSH1 0x20 ADD SWAP1 DUP2 MSTORE PUSH1 0x20 ADD PUSH1 0x0 KECCAK256 PUSH1 0x40 MLOAD DUP1 PUSH1 0x80 ADD PUSH1 0x40 MSTORE SWAP1 DUP2 PUSH1 0x0 DUP3 ADD SLOAD DUP2 MSTORE PUSH1 0x20 ADD PUSH1 0x1 DUP3 ADD SLOAD DUP2 MSTORE PUSH1 0x20 ADD PUSH1 0x2 DUP3 ADD PUSH1 0x0 SWAP1 SLOAD SWAP1 PUSH2 0x100 EXP SWAP1 DIV PUSH20 0xFFFFFFFFFFFFFFFFFFFFFFFFFFFFFFFFFFFFFFFF AND PUSH20 0xFFFFFFFFFFFFFFFFFFFFFFFFFFFFFFFFFFFFFFFF AND PUSH20 0xFFFFFFFFFFFFFFFFFFFFFFFFFFFFFFFFFFFFFFFF AND DUP2 MSTORE PUSH1 0x20 ADD PUSH1 0x3 DUP3 ADD DUP1 SLOAD PUSH2 0x4CD SWAP1 PUSH2 0xC5D JUMP JUMPDEST DUP1 PUSH1 0x1F ADD PUSH1 0x20 DUP1 SWAP2 DIV MUL PUSH1 0x20 ADD PUSH1 0x40 MLOAD SWAP1 DUP2 ADD PUSH1 0x40 MSTORE DUP1 SWAP3 SWAP2 SWAP1 DUP2 DUP2 MSTORE PUSH1 0x20 ADD DUP3 DUP1 SLOAD PUSH2 0x4F9 SWAP1 PUSH2 0xC5D JUMP JUMPDEST DUP1 ISZERO PUSH2 0x546 JUMPI DUP1 PUSH1 0x1F LT PUSH2 0x51B JUMPI PUSH2 0x100 DUP1 DUP4 SLOAD DIV MUL DUP4 MSTORE SWAP2 PUSH1 0x20 ADD SWAP2 PUSH2 0x546 JUMP JUMPDEST DUP3 ADD SWAP2 SWAP1 PUSH1 0x0 MSTORE PUSH1 0x20 PUSH1 0x0 KECCAK256 SWAP1 JUMPDEST DUP2 SLOAD DUP2 MSTORE SWAP1 PUSH1 0x1 ADD SWAP1 PUSH1 0x20 ADD DUP1 DUP4 GT PUSH2 0x529 JUMPI DUP3 SWAP1 SUB PUSH1 0x1F AND DUP3 ADD SWAP2 JUMPDEST POP POP POP POP POP DUP2 MSTORE POP POP SWAP1 POP SWAP3 SWAP2 POP POP JUMP JUMPDEST PUSH1 0x60 PUSH1 0x0 PUSH1 0xA PUSH8 0xFFFFFFFFFFFFFFFF DUP2 GT ISZERO PUSH2 0x576 JUMPI PUSH2 0x575 PUSH2 0xD96 JUMP JUMPDEST JUMPDEST PUSH1 0x40 MLOAD SWAP1 DUP1 DUP3 MSTORE DUP1 PUSH1 0x20 MUL PUSH1 0x20 ADD DUP3 ADD PUSH1 0x40 MSTORE DUP1 ISZERO PUSH2 0x5A4 JUMPI DUP2 PUSH1 0x20 ADD PUSH1 0x20 DUP3 MUL DUP1 CALLDATASIZE DUP4 CALLDATACOPY DUP1 DUP3 ADD SWAP2 POP POP SWAP1 POP JUMPDEST POP SWAP1 POP PUSH1 0x1 DUP2 PUSH1 0x0 DUP2 MLOAD DUP2 LT PUSH2 0x5BD JUMPI PUSH2 0x5BC PUSH2 0xD67 JUMP JUMPDEST JUMPDEST PUSH1 0x20 MUL PUSH1 0x20 ADD ADD DUP2 DUP2 MSTORE POP POP DUP1 SWAP2 POP POP SWAP1 JUMP JUMPDEST PUSH1 0x0 SLOAD DUP2 JUMP JUMPDEST PUSH1 0x1 DUP1 SLOAD PUSH2 0x5E3 SWAP1 PUSH2 0xC5D JUMP JUMPDEST DUP1 PUSH1 0x1F ADD PUSH1 0x20 DUP1 SWAP2 DIV MUL PUSH1 0x20 ADD PUSH1 0x40 MLOAD SWAP1 DUP2 ADD PUSH1 0x40 MSTORE DUP1 SWAP3 SWAP2 SWAP1 DUP2 DUP2 MSTORE PUSH1 0x20 ADD DUP3 DUP1 SLOAD PUSH2 0x60F SWAP1 PUSH2 0xC5D JUMP JUMPDEST DUP1 ISZERO PUSH2 0x65C JUMPI DUP1 PUSH1 0x1F LT PUSH2 0x631 JUMPI PUSH2 0x100 DUP1 DUP4 SLOAD DIV MUL DUP4 MSTORE SWAP2 PUSH1 0x20 ADD SWAP2 PUSH2 0x65C JUMP JUMPDEST DUP3 ADD SWAP2 SWAP1 PUSH1 0x0 MSTORE PUSH1 0x20 PUSH1 0x0 KECCAK256 SWAP1 JUMPDEST DUP2 SLOAD DUP2 MSTORE SWAP1 PUSH1 0x1 ADD SWAP1 PUSH1 0x20 ADD DUP1 DUP4 GT PUSH2 0x63F JUMPI DUP3 SWAP1 SUB PUSH1 0x1F AND DUP3 ADD SWAP2 JUMPDEST POP POP POP POP POP DUP2 JUMP JUMPDEST DUP3 DUP1 SLOAD PUSH2 0x670 SWAP1 PUSH2 0xC5D JUMP JUMPDEST SWAP1 PUSH1 0x0 MSTORE PUSH1 0x20 PUSH1 0x0 KECCAK256 SWAP1 PUSH1 0x1F ADD PUSH1 0x20 SWAP1 DIV DUP2 ADD SWAP3 DUP3 PUSH2 0x692 JUMPI PUSH1 0x0 DUP6 SSTORE PUSH2 0x6D9 JUMP JUMPDEST DUP3 PUSH1 0x1F LT PUSH2 0x6AB JUMPI DUP1 MLOAD PUSH1 0xFF NOT AND DUP4 DUP1 ADD OR DUP6 SSTORE PUSH2 0x6D9 JUMP JUMPDEST DUP3 DUP1 ADD PUSH1 0x1 ADD DUP6 SSTORE DUP3 ISZERO PUSH2 0x6D9 JUMPI SWAP2 DUP3 ADD JUMPDEST DUP3 DUP2 GT ISZERO PUSH2 0x6D8 JUMPI DUP3 MLOAD DUP3 SSTORE SWAP2 PUSH1 0x20 ADD SWAP2 SWAP1 PUSH1 0x1 ADD SWAP1 PUSH2 0x6BD JUMP JUMPDEST JUMPDEST POP SWAP1 POP PUSH2 0x6E6 SWAP2 SWAP1 PUSH2 0x728 JUMP JUMPDEST POP SWAP1 JUMP JUMPDEST PUSH1 0x40 MLOAD DUP1 PUSH1 0x80 ADD PUSH1 0x40 MSTORE DUP1 PUSH1 0x0 DUP2 MSTORE PUSH1 0x20 ADD PUSH1 0x0 DUP2 MSTORE PUSH1 0x20 ADD PUSH1 0x0 PUSH20 0xFFFFFFFFFFFFFFFFFFFFFFFFFFFFFFFFFFFFFFFF AND DUP2 MSTORE PUSH1 0x20 ADD PUSH1 0x60 DUP2 MSTORE POP SWAP1 JUMP JUMPDEST JUMPDEST DUP1 DUP3 GT ISZERO PUSH2 0x741 JUMPI PUSH1 0x0 DUP2 PUSH1 0x0 SWAP1 SSTORE POP PUSH1 0x1 ADD PUSH2 0x729 JUMP JUMPDEST POP SWAP1 JUMP JUMPDEST PUSH1 0x0 PUSH2 0x758 PUSH2 0x753 DUP5 PUSH2 0xB07 JUMP JUMPDEST PUSH2 0xAE2 JUMP JUMPDEST SWAP1 POP DUP3 DUP2 MSTORE PUSH1 0x20 DUP2 ADD DUP5 DUP5 DUP5 ADD GT ISZERO PUSH2 0x774 JUMPI PUSH2 0x773 PUSH2 0xDCA JUMP JUMPDEST JUMPDEST PUSH2 0x77F DUP5 DUP3 DUP6 PUSH2 0xC1B JUMP JUMPDEST POP SWAP4 SWAP3 POP POP POP JUMP JUMPDEST PUSH1 0x0 DUP2 CALLDATALOAD SWAP1 POP PUSH2 0x796 DUP2 PUSH2 0xDEA JUMP JUMPDEST SWAP3 SWAP2 POP POP JUMP JUMPDEST PUSH1 0x0 DUP3 PUSH1 0x1F DUP4 ADD SLT PUSH2 0x7B1 JUMPI PUSH2 0x7B0 PUSH2 0xDC5 JUMP JUMPDEST JUMPDEST DUP2 CALLDATALOAD PUSH2 0x7C1 DUP5 DUP3 PUSH1 0x20 DUP7 ADD PUSH2 0x745 JUMP JUMPDEST SWAP2 POP POP SWAP3 SWAP2 POP POP JUMP JUMPDEST PUSH1 0x0 DUP2 CALLDATALOAD SWAP1 POP PUSH2 0x7D9 DUP2 PUSH2 0xE01 JUMP JUMPDEST SWAP3 SWAP2 POP POP JUMP JUMPDEST PUSH1 0x0 PUSH1 0x20 DUP3 DUP5 SUB SLT ISZERO PUSH2 0x7F5 JUMPI PUSH2 0x7F4 PUSH2 0xDD4 JUMP JUMPDEST JUMPDEST PUSH1 0x0 PUSH2 0x803 DUP5 DUP3 DUP6 ADD PUSH2 0x787 JUMP JUMPDEST SWAP2 POP POP SWAP3 SWAP2 POP POP JUMP JUMPDEST PUSH1 0x0 DUP1 PUSH1 0x40 DUP4 DUP6 SUB SLT ISZERO PUSH2 0x823 JUMPI PUSH2 0x822 PUSH2 0xDD4 JUMP JUMPDEST JUMPDEST PUSH1 0x0 PUSH2 0x831 DUP6 DUP3 DUP7 ADD PUSH2 0x787 JUMP JUMPDEST SWAP3 POP POP PUSH1 0x20 PUSH2 0x842 DUP6 DUP3 DUP7 ADD PUSH2 0x7CA JUMP JUMPDEST SWAP2 POP POP SWAP3 POP SWAP3 SWAP1 POP JUMP JUMPDEST PUSH1 0x0 PUSH1 0x20 DUP3 DUP5 SUB SLT ISZERO PUSH2 0x862 JUMPI PUSH2 0x861 PUSH2 0xDD4 JUMP JUMPDEST JUMPDEST PUSH1 0x0 DUP3 ADD CALLDATALOAD PUSH8 0xFFFFFFFFFFFFFFFF DUP2 GT ISZERO PUSH2 0x880 JUMPI PUSH2 0x87F PUSH2 0xDCF JUMP JUMPDEST JUMPDEST PUSH2 0x88C DUP5 DUP3 DUP6 ADD PUSH2 0x79C JUMP JUMPDEST SWAP2 POP POP SWAP3 SWAP2 POP POP JUMP JUMPDEST PUSH1 0x0 PUSH2 0x8A1 DUP4 DUP4 PUSH2 0xA0D JUMP JUMPDEST PUSH1 0x20 DUP4 ADD SWAP1 POP SWAP3 SWAP2 POP POP JUMP JUMPDEST PUSH2 0x8B6 DUP2 PUSH2 0xBA9 JUMP JUMPDEST DUP3 MSTORE POP POP JUMP JUMPDEST PUSH1 0x0 PUSH2 0x8C7 DUP3 PUSH2 0xB48 JUMP JUMPDEST PUSH2 0x8D1 DUP2 DUP6 PUSH2 0xB76 JUMP JUMPDEST SWAP4 POP PUSH2 0x8DC DUP4 PUSH2 0xB38 JUMP JUMPDEST DUP1 PUSH1 0x0 JUMPDEST DUP4 DUP2 LT ISZERO PUSH2 0x90D JUMPI DUP2 MLOAD PUSH2 0x8F4 DUP9 DUP3 PUSH2 0x895 JUMP JUMPDEST SWAP8 POP PUSH2 0x8FF DUP4 PUSH2 0xB69 JUMP JUMPDEST SWAP3 POP POP PUSH1 0x1 DUP2 ADD SWAP1 POP PUSH2 0x8E0 JUMP JUMPDEST POP DUP6 SWAP4 POP POP POP POP SWAP3 SWAP2 POP POP JUMP JUMPDEST PUSH2 0x923 DUP2 PUSH2 0xBBB JUMP JUMPDEST DUP3 MSTORE POP POP JUMP JUMPDEST PUSH2 0x932 DUP2 PUSH2 0xBE7 JUMP JUMPDEST DUP3 MSTORE POP POP JUMP JUMPDEST PUSH1 0x0 PUSH2 0x943 DUP3 PUSH2 0xB53 JUMP JUMPDEST PUSH2 0x94D DUP2 DUP6 PUSH2 0xB87 JUMP JUMPDEST SWAP4 POP PUSH2 0x95D DUP2 DUP6 PUSH1 0x20 DUP7 ADD PUSH2 0xC2A JUMP JUMPDEST PUSH2 0x966 DUP2 PUSH2 0xDD9 JUMP JUMPDEST DUP5 ADD SWAP2 POP POP SWAP3 SWAP2 POP POP JUMP JUMPDEST PUSH1 0x0 PUSH2 0x97C DUP3 PUSH2 0xB5E JUMP JUMPDEST PUSH2 0x986 DUP2 DUP6 PUSH2 0xB98 JUMP JUMPDEST SWAP4 POP PUSH2 0x996 DUP2 DUP6 PUSH1 0x20 DUP7 ADD PUSH2 0xC2A JUMP JUMPDEST PUSH2 0x99F DUP2 PUSH2 0xDD9 JUMP JUMPDEST DUP5 ADD SWAP2 POP POP SWAP3 SWAP2 POP POP JUMP JUMPDEST PUSH1 0x0 PUSH1 0x80 DUP4 ADD PUSH1 0x0 DUP4 ADD MLOAD PUSH2 0x9C2 PUSH1 0x0 DUP7 ADD DUP3 PUSH2 0xA0D JUMP JUMPDEST POP PUSH1 0x20 DUP4 ADD MLOAD PUSH2 0x9D5 PUSH1 0x20 DUP7 ADD DUP3 PUSH2 0xA0D JUMP JUMPDEST POP PUSH1 0x40 DUP4 ADD MLOAD PUSH2 0x9E8 PUSH1 0x40 DUP7 ADD DUP3 PUSH2 0x8AD JUMP JUMPDEST POP PUSH1 0x60 DUP4 ADD MLOAD DUP5 DUP3 SUB PUSH1 0x60 DUP7 ADD MSTORE PUSH2 0xA00 DUP3 DUP3 PUSH2 0x971 JUMP JUMPDEST SWAP2 POP POP DUP1 SWAP2 POP POP SWAP3 SWAP2 POP POP JUMP JUMPDEST PUSH2 0xA16 DUP2 PUSH2 0xC11 JUMP JUMPDEST DUP3 MSTORE POP POP JUMP JUMPDEST PUSH2 0xA25 DUP2 PUSH2 0xC11 JUMP JUMPDEST DUP3 MSTORE POP POP JUMP JUMPDEST PUSH1 0x0 PUSH1 0x20 DUP3 ADD SWAP1 POP DUP2 DUP2 SUB PUSH1 0x0 DUP4 ADD MSTORE PUSH2 0xA45 DUP2 DUP5 PUSH2 0x8BC JUMP JUMPDEST SWAP1 POP SWAP3 SWAP2 POP POP JUMP JUMPDEST PUSH1 0x0 PUSH1 0x20 DUP3 ADD SWAP1 POP PUSH2 0xA62 PUSH1 0x0 DUP4 ADD DUP5 PUSH2 0x91A JUMP JUMPDEST SWAP3 SWAP2 POP POP JUMP JUMPDEST PUSH1 0x0 PUSH1 0x20 DUP3 ADD SWAP1 POP PUSH2 0xA7D PUSH1 0x0 DUP4 ADD DUP5 PUSH2 0x929 JUMP JUMPDEST SWAP3 SWAP2 POP POP JUMP JUMPDEST PUSH1 0x0 PUSH1 0x20 DUP3 ADD SWAP1 POP DUP2 DUP2 SUB PUSH1 0x0 DUP4 ADD MSTORE PUSH2 0xA9D DUP2 DUP5 PUSH2 0x938 JUMP JUMPDEST SWAP1 POP SWAP3 SWAP2 POP POP JUMP JUMPDEST PUSH1 0x0 PUSH1 0x20 DUP3 ADD SWAP1 POP DUP2 DUP2 SUB PUSH1 0x0 DUP4 ADD MSTORE PUSH2 0xABF DUP2 DUP5 PUSH2 0x9AA JUMP JUMPDEST SWAP1 POP SWAP3 SWAP2 POP POP JUMP JUMPDEST PUSH1 0x0 PUSH1 0x20 DUP3 ADD SWAP1 POP PUSH2 0xADC PUSH1 0x0 DUP4 ADD DUP5 PUSH2 0xA1C JUMP JUMPDEST SWAP3 SWAP2 POP POP JUMP JUMPDEST PUSH1 0x0 PUSH2 0xAEC PUSH2 0xAFD JUMP JUMPDEST SWAP1 POP PUSH2 0xAF8 DUP3 DUP3 PUSH2 0xC8F JUMP JUMPDEST SWAP2 SWAP1 POP JUMP JUMPDEST PUSH1 0x0 PUSH1 0x40 MLOAD SWAP1 POP SWAP1 JUMP JUMPDEST PUSH1 0x0 PUSH8 0xFFFFFFFFFFFFFFFF DUP3 GT ISZERO PUSH2 0xB22 JUMPI PUSH2 0xB21 PUSH2 0xD96 JUMP JUMPDEST JUMPDEST PUSH2 0xB2B DUP3 PUSH2 0xDD9 JUMP JUMPDEST SWAP1 POP PUSH1 0x20 DUP2 ADD SWAP1 POP SWAP2 SWAP1 POP JUMP JUMPDEST PUSH1 0x0 DUP2 SWAP1 POP PUSH1 0x20 DUP3 ADD SWAP1 POP SWAP2 SWAP1 POP JUMP JUMPDEST PUSH1 0x0 DUP2 MLOAD SWAP1 POP SWAP2 SWAP1 POP JUMP JUMPDEST PUSH1 0x0 DUP2 MLOAD SWAP1 POP SWAP2 SWAP1 POP JUMP JUMPDEST PUSH1 0x0 DUP2 MLOAD SWAP1 POP SWAP2 SWAP1 POP JUMP JUMPDEST PUSH1 0x0 PUSH1 0x20 DUP3 ADD SWAP1 POP SWAP2 SWAP1 POP JUMP JUMPDEST PUSH1 0x0 DUP3 DUP3 MSTORE PUSH1 0x20 DUP3 ADD SWAP1 POP SWAP3 SWAP2 POP POP JUMP JUMPDEST PUSH1 0x0 DUP3 DUP3 MSTORE PUSH1 0x20 DUP3 ADD SWAP1 POP SWAP3 SWAP2 POP POP JUMP JUMPDEST PUSH1 0x0 DUP3 DUP3 MSTORE PUSH1 0x20 DUP3 ADD SWAP1 POP SWAP3 SWAP2 POP POP JUMP JUMPDEST PUSH1 0x0 PUSH2 0xBB4 DUP3 PUSH2 0xBF1 JUMP JUMPDEST SWAP1 POP SWAP2 SWAP1 POP JUMP JUMPDEST PUSH1 0x0 PUSH32 0xFF00000000000000000000000000000000000000000000000000000000000000 DUP3 AND SWAP1 POP SWAP2 SWAP1 POP JUMP JUMPDEST PUSH1 0x0 DUP2 SWAP1 POP SWAP2 SWAP1 POP JUMP JUMPDEST PUSH1 0x0 PUSH20 0xFFFFFFFFFFFFFFFFFFFFFFFFFFFFFFFFFFFFFFFF DUP3 AND SWAP1 POP SWAP2 SWAP1 POP JUMP JUMPDEST PUSH1 0x0 DUP2 SWAP1 POP SWAP2 SWAP1 POP JUMP JUMPDEST DUP3 DUP2 DUP4 CALLDATACOPY PUSH1 0x0 DUP4 DUP4 ADD MSTORE POP POP POP JUMP JUMPDEST PUSH1 0x0 JUMPDEST DUP4 DUP2 LT ISZERO PUSH2 0xC48 JUMPI DUP1 DUP3 ADD MLOAD DUP2 DUP5 ADD MSTORE PUSH1 0x20 DUP2 ADD SWAP1 POP PUSH2 0xC2D JUMP JUMPDEST DUP4 DUP2 GT ISZERO PUSH2 0xC57 JUMPI PUSH1 0x0 DUP5 DUP5 ADD MSTORE JUMPDEST POP POP POP POP JUMP JUMPDEST PUSH1 0x0 PUSH1 0x2 DUP3 DIV SWAP1 POP PUSH1 0x1 DUP3 AND DUP1 PUSH2 0xC75 JUMPI PUSH1 0x7F DUP3 AND SWAP2 POP JUMPDEST PUSH1 0x20 DUP3 LT DUP2 EQ ISZERO PUSH2 0xC89 JUMPI PUSH2 0xC88 PUSH2 0xD38 JUMP JUMPDEST JUMPDEST POP SWAP2 SWAP1 POP JUMP JUMPDEST PUSH2 0xC98 DUP3 PUSH2 0xDD9 JUMP JUMPDEST DUP2 ADD DUP2 DUP2 LT PUSH8 0xFFFFFFFFFFFFFFFF DUP3 GT OR ISZERO PUSH2 0xCB7 JUMPI PUSH2 0xCB6 PUSH2 0xD96 JUMP JUMPDEST JUMPDEST DUP1 PUSH1 0x40 MSTORE POP POP POP JUMP JUMPDEST PUSH1 0x0 PUSH2 0xCCB DUP3 PUSH2 0xC11 JUMP JUMPDEST SWAP2 POP PUSH32 0xFFFFFFFFFFFFFFFFFFFFFFFFFFFFFFFFFFFFFFFFFFFFFFFFFFFFFFFFFFFFFFFF DUP3 EQ ISZERO PUSH2 0xCFE JUMPI PUSH2 0xCFD PUSH2 0xD09 JUMP JUMPDEST JUMPDEST PUSH1 0x1 DUP3 ADD SWAP1 POP SWAP2 SWAP1 POP JUMP JUMPDEST PUSH32 0x4E487B7100000000000000000000000000000000000000000000000000000000 PUSH1 0x0 MSTORE PUSH1 0x11 PUSH1 0x4 MSTORE PUSH1 0x24 PUSH1 0x0 REVERT JUMPDEST PUSH32 0x4E487B7100000000000000000000000000000000000000000000000000000000 PUSH1 0x0 MSTORE PUSH1 0x22 PUSH1 0x4 MSTORE PUSH1 0x24 PUSH1 0x0 REVERT JUMPDEST PUSH32 0x4E487B7100000000000000000000000000000000000000000000000000000000 PUSH1 0x0 MSTORE PUSH1 0x32 PUSH1 0x4 MSTORE PUSH1 0x24 PUSH1 0x0 REVERT JUMPDEST PUSH32 0x4E487B7100000000000000000000000000000000000000000000000000000000 PUSH1 0x0 MSTORE PUSH1 0x41 PUSH1 0x4 MSTORE PUSH1 0x24 PUSH1 0x0 REVERT JUMPDEST PUSH1 0x0 DUP1 REVERT JUMPDEST PUSH1 0x0 DUP1 REVERT JUMPDEST PUSH1 0x0 DUP1 REVERT JUMPDEST PUSH1 0x0 DUP1 REVERT JUMPDEST PUSH1 0x0 PUSH1 0x1F NOT PUSH1 0x1F DUP4 ADD AND SWAP1 POP SWAP2 SWAP1 POP JUMP JUMPDEST PUSH2 0xDF3 DUP2 PUSH2 0xBA9 JUMP JUMPDEST DUP2 EQ PUSH2 0xDFE JUMPI PUSH1 0x0 DUP1 REVERT JUMPDEST POP JUMP JUMPDEST PUSH2 0xE0A DUP2 PUSH2 0xC11 JUMP JUMPDEST DUP2 EQ PUSH2 0xE15 JUMPI PUSH1 0x0 DUP1 REVERT JUMPDEST POP JUMP INVALID LOG2 PUSH5 0x6970667358 0x22 SLT KECCAK256 LT SAR SELFBALANCE 0xA7 CALLER NOT DUP9 PUSH17 0x9A7C624895BA1E68F8D1CD59D178A5BC13 0xE2 0xEA 0xE7 0xFB PUSH4 0xEA2D6473 PUSH16 0x6C634300080700330000000000000000 "
				},
				"gasEstimates": {
					"creation": {
						"codeDepositCost": "732400",
						"executionCost": "infinite",
						"totalCost": "infinite"
					},
					"external": {
						"balances(address)": "2829",
						"firstByte()": "6970",
						"getPayment(address,uint256)": "infinite",
						"myDynVar()": "infinite",
						"myVar()": "2473",
						"pay(string)": "infinite",
						"sampleMemory()": "infinite"
					}
				},
				"methodIdentifiers": {
					"balances(address)": "27e235e3",
					"firstByte()": "654c914f",
					"getPayment(address,uint256)": "977a767c",
					"myDynVar()": "ffb1e210",
					"myVar()": "c6b91540",
					"pay(string)": "2b66d72e",
					"sampleMemory()": "a34343c9"
				}
			},
			"storageLayout": {
				"storage": [
					{
						"astId": 30,
						"contract": "contracts/tipi2.sol:Demo",
						"label": "myVar",
						"offset": 0,
						"slot": "0",
						"type": "t_bytes32"
					},
					{
						"astId": 33,
						"contract": "contracts/tipi2.sol:Demo",
						"label": "myDynVar",
						"offset": 0,
						"slot": "1",
						"type": "t_bytes_storage"
					},
					{
						"astId": 65,
						"contract": "contracts/tipi2.sol:Demo",
						"label": "balances",
						"offset": 0,
						"slot": "2",
						"type": "t_mapping(t_address,t_struct(Balance)60_storage)"
					}
				],
				"types": {
					"t_address": {
						"encoding": "inplace",
						"label": "address",
						"numberOfBytes": "20"
					},
					"t_bytes32": {
						"encoding": "inplace",
						"label": "bytes32",
						"numberOfBytes": "32"
					},
					"t_bytes_storage": {
						"encoding": "bytes",
						"label": "bytes",
						"numberOfBytes": "32"
					},
					"t_mapping(t_address,t_struct(Balance)60_storage)": {
						"encoding": "mapping",
						"key": "t_address",
						"label": "mapping(address => struct Demo.Balance)",
						"numberOfBytes": "32",
						"value": "t_struct(Balance)60_storage"
					},
					"t_mapping(t_uint256,t_struct(Payment)52_storage)": {
						"encoding": "mapping",
						"key": "t_uint256",
						"label": "mapping(uint256 => struct Demo.Payment)",
						"numberOfBytes": "32",
						"value": "t_struct(Payment)52_storage"
					},
					"t_string_storage": {
						"encoding": "bytes",
						"label": "string",
						"numberOfBytes": "32"
					},
					"t_struct(Balance)60_storage": {
						"encoding": "inplace",
						"label": "struct Demo.Balance",
						"members": [
							{
								"astId": 54,
								"contract": "contracts/tipi2.sol:Demo",
								"label": "totalPayments",
								"offset": 0,
								"slot": "0",
								"type": "t_uint256"
							},
							{
								"astId": 59,
								"contract": "contracts/tipi2.sol:Demo",
								"label": "payments",
								"offset": 0,
								"slot": "1",
								"type": "t_mapping(t_uint256,t_struct(Payment)52_storage)"
							}
						],
						"numberOfBytes": "64"
					},
					"t_struct(Payment)52_storage": {
						"encoding": "inplace",
						"label": "struct Demo.Payment",
						"members": [
							{
								"astId": 45,
								"contract": "contracts/tipi2.sol:Demo",
								"label": "amount",
								"offset": 0,
								"slot": "0",
								"type": "t_uint256"
							},
							{
								"astId": 47,
								"contract": "contracts/tipi2.sol:Demo",
								"label": "timestamp",
								"offset": 0,
								"slot": "1",
								"type": "t_uint256"
							},
							{
								"astId": 49,
								"contract": "contracts/tipi2.sol:Demo",
								"label": "from",
								"offset": 0,
								"slot": "2",
								"type": "t_address"
							},
							{
								"astId": 51,
								"contract": "contracts/tipi2.sol:Demo",
								"label": "message",
								"offset": 0,
								"slot": "3",
								"type": "t_string_storage"
							}
						],
						"numberOfBytes": "128"
					},
					"t_uint256": {
						"encoding": "inplace",
						"label": "uint256",
						"numberOfBytes": "32"
					}
				}
			},
			"userdoc": {
				"kind": "user",
				"methods": {},
				"version": 1
			}
		}
	}
}