{
	"contracts/Tipi_dannih.sol": {
		"Demo": {
			"abi": [
				{
					"inputs": [
						{
							"internalType": "string",
							"name": "newValueStr",
							"type": "string"
						}
					],
					"name": "demo",
					"outputs": [],
					"stateMutability": "nonpayable",
					"type": "function"
				},
				{
					"inputs": [],
					"name": "getBalance",
					"outputs": [
						{
							"internalType": "uint256",
							"name": "",
							"type": "uint256"
						}
					],
					"stateMutability": "view",
					"type": "function"
				},
				{
					"inputs": [],
					"name": "myAddr",
					"outputs": [
						{
							"internalType": "address",
							"name": "",
							"type": "address"
						}
					],
					"stateMutability": "view",
					"type": "function"
				},
				{
					"inputs": [],
					"name": "myStr",
					"outputs": [
						{
							"internalType": "string",
							"name": "",
							"type": "string"
						}
					],
					"stateMutability": "view",
					"type": "function"
				}
			],
			"devdoc": {
				"kind": "dev",
				"methods": {},
				"version": 1
			},
			"evm": {
				"assembly": "    /* \"contracts/Tipi_dannih.sol\":62:439  contract Demo {\r... */\n  mstore(0x40, 0x80)\n    /* \"contracts/Tipi_dannih.sol\":107:149  0x5B38Da6a701c568545dCfcB03FcB875f56beddC4 */\n  0x5b38da6a701c568545dcfcb03fcb875f56beddc4\n    /* \"contracts/Tipi_dannih.sol\":83:149  address public myAddr = 0x5B38Da6a701c568545dCfcB03FcB875f56beddC4 */\n  0x00\n  dup1\n  0x0100\n  exp\n  dup2\n  sload\n  dup2\n  0xffffffffffffffffffffffffffffffffffffffff\n  mul\n  not\n  and\n  swap1\n  dup4\n  0xffffffffffffffffffffffffffffffffffffffff\n  and\n  mul\n  or\n  swap1\n  sstore\n  pop\n    /* \"contracts/Tipi_dannih.sol\":257:285  string public myStr = \"test\" */\n  mload(0x40)\n  dup1\n  0x40\n  add\n  0x40\n  mstore\n  dup1\n  0x04\n  dup2\n  mstore\n  0x20\n  add\n  0x7465737400000000000000000000000000000000000000000000000000000000\n  dup2\n  mstore\n  pop\n  0x01\n  swap1\n  dup1\n  mload\n  swap1\n  0x20\n  add\n  swap1\n  tag_1\n  swap3\n  swap2\n  swap1\n  tag_2\n  jump\t// in\ntag_1:\n  pop\n    /* \"contracts/Tipi_dannih.sol\":62:439  contract Demo {\r... */\n  callvalue\n  dup1\n  iszero\n  tag_3\n  jumpi\n  0x00\n  dup1\n  revert\ntag_3:\n  pop\n  jump(tag_4)\ntag_2:\n  dup3\n  dup1\n  sload\n  tag_5\n  swap1\n  tag_6\n  jump\t// in\ntag_5:\n  swap1\n  0x00\n  mstore\n  keccak256(0x00, 0x20)\n  swap1\n  0x1f\n  add\n  0x20\n  swap1\n  div\n  dup2\n  add\n  swap3\n  dup3\n  tag_8\n  jumpi\n  0x00\n  dup6\n  sstore\n  jump(tag_7)\ntag_8:\n  dup3\n  0x1f\n  lt\n  tag_9\n  jumpi\n  dup1\n  mload\n  not(0xff)\n  and\n  dup4\n  dup1\n  add\n  or\n  dup6\n  sstore\n  jump(tag_7)\ntag_9:\n  dup3\n  dup1\n  add\n  0x01\n  add\n  dup6\n  sstore\n  dup3\n  iszero\n  tag_7\n  jumpi\n  swap2\n  dup3\n  add\ntag_10:\n  dup3\n  dup2\n  gt\n  iszero\n  tag_11\n  jumpi\n  dup3\n  mload\n  dup3\n  sstore\n  swap2\n  0x20\n  add\n  swap2\n  swap1\n  0x01\n  add\n  swap1\n  jump(tag_10)\ntag_11:\ntag_7:\n  pop\n  swap1\n  pop\n  tag_12\n  swap2\n  swap1\n  tag_13\n  jump\t// in\ntag_12:\n  pop\n  swap1\n  jump\t// out\ntag_13:\ntag_14:\n  dup1\n  dup3\n  gt\n  iszero\n  tag_15\n  jumpi\n  0x00\n  dup2\n  0x00\n  swap1\n  sstore\n  pop\n  0x01\n  add\n  jump(tag_14)\ntag_15:\n  pop\n  swap1\n  jump\t// out\n    /* \"#utility.yul\":7:327   */\ntag_6:\n    /* \"#utility.yul\":51:57   */\n  0x00\n    /* \"#utility.yul\":88:89   */\n  0x02\n    /* \"#utility.yul\":82:86   */\n  dup3\n    /* \"#utility.yul\":78:90   */\n  div\n    /* \"#utility.yul\":68:90   */\n  swap1\n  pop\n    /* \"#utility.yul\":135:136   */\n  0x01\n    /* \"#utility.yul\":129:133   */\n  dup3\n    /* \"#utility.yul\":125:137   */\n  and\n    /* \"#utility.yul\":156:174   */\n  dup1\n    /* \"#utility.yul\":146:227   */\n  tag_18\n  jumpi\n    /* \"#utility.yul\":212:216   */\n  0x7f\n    /* \"#utility.yul\":204:210   */\n  dup3\n    /* \"#utility.yul\":200:217   */\n  and\n    /* \"#utility.yul\":190:217   */\n  swap2\n  pop\n    /* \"#utility.yul\":146:227   */\ntag_18:\n    /* \"#utility.yul\":274:276   */\n  0x20\n    /* \"#utility.yul\":266:272   */\n  dup3\n    /* \"#utility.yul\":263:277   */\n  lt\n    /* \"#utility.yul\":243:261   */\n  dup2\n    /* \"#utility.yul\":240:278   */\n  eq\n    /* \"#utility.yul\":237:321   */\n  iszero\n  tag_19\n  jumpi\n    /* \"#utility.yul\":293:311   */\n  tag_20\n  tag_21\n  jump\t// in\ntag_20:\n    /* \"#utility.yul\":237:321   */\ntag_19:\n    /* \"#utility.yul\":58:327   */\n  pop\n    /* \"#utility.yul\":7:327   */\n  swap2\n  swap1\n  pop\n  jump\t// out\n    /* \"#utility.yul\":333:513   */\ntag_21:\n    /* \"#utility.yul\":381:458   */\n  0x4e487b7100000000000000000000000000000000000000000000000000000000\n    /* \"#utility.yul\":378:379   */\n  0x00\n    /* \"#utility.yul\":371:459   */\n  mstore\n    /* \"#utility.yul\":478:482   */\n  0x22\n    /* \"#utility.yul\":475:476   */\n  0x04\n    /* \"#utility.yul\":468:483   */\n  mstore\n    /* \"#utility.yul\":502:506   */\n  0x24\n    /* \"#utility.yul\":499:500   */\n  0x00\n    /* \"#utility.yul\":492:507   */\n  revert\n    /* \"contracts/Tipi_dannih.sol\":62:439  contract Demo {\r... */\ntag_4:\n  dataSize(sub_0)\n  dup1\n  dataOffset(sub_0)\n  0x00\n  codecopy\n  0x00\n  return\nstop\n\nsub_0: assembly {\n        /* \"contracts/Tipi_dannih.sol\":62:439  contract Demo {\r... */\n      mstore(0x40, 0x80)\n      callvalue\n      dup1\n      iszero\n      tag_1\n      jumpi\n      0x00\n      dup1\n      revert\n    tag_1:\n      pop\n      jumpi(tag_2, lt(calldatasize, 0x04))\n      shr(0xe0, calldataload(0x00))\n      dup1\n      0x12065fe0\n      eq\n      tag_3\n      jumpi\n      dup1\n      0x5a455c1c\n      eq\n      tag_4\n      jumpi\n      dup1\n      0x939a79ac\n      eq\n      tag_5\n      jumpi\n      dup1\n      0xe665b266\n      eq\n      tag_6\n      jumpi\n    tag_2:\n      0x00\n      dup1\n      revert\n        /* \"contracts/Tipi_dannih.sol\":158:244  function getBalance() public view returns(uint){\r... */\n    tag_3:\n      tag_7\n      tag_8\n      jump\t// in\n    tag_7:\n      mload(0x40)\n      tag_9\n      swap2\n      swap1\n      tag_10\n      jump\t// in\n    tag_9:\n      mload(0x40)\n      dup1\n      swap2\n      sub\n      swap1\n      return\n        /* \"contracts/Tipi_dannih.sol\":257:285  string public myStr = \"test\" */\n    tag_4:\n      tag_11\n      tag_12\n      jump\t// in\n    tag_11:\n      mload(0x40)\n      tag_13\n      swap2\n      swap1\n      tag_14\n      jump\t// in\n    tag_13:\n      mload(0x40)\n      dup1\n      swap2\n      sub\n      swap1\n      return\n        /* \"contracts/Tipi_dannih.sol\":306:436  function demo(string memory newValueStr ) public {\r... */\n    tag_5:\n      tag_15\n      0x04\n      dup1\n      calldatasize\n      sub\n      dup2\n      add\n      swap1\n      tag_16\n      swap2\n      swap1\n      tag_17\n      jump\t// in\n    tag_16:\n      tag_18\n      jump\t// in\n    tag_15:\n      stop\n        /* \"contracts/Tipi_dannih.sol\":83:149  address public myAddr = 0x5B38Da6a701c568545dCfcB03FcB875f56beddC4 */\n    tag_6:\n      tag_19\n      tag_20\n      jump\t// in\n    tag_19:\n      mload(0x40)\n      tag_21\n      swap2\n      swap1\n      tag_22\n      jump\t// in\n    tag_21:\n      mload(0x40)\n      dup1\n      swap2\n      sub\n      swap1\n      return\n        /* \"contracts/Tipi_dannih.sol\":158:244  function getBalance() public view returns(uint){\r... */\n    tag_8:\n        /* \"contracts/Tipi_dannih.sol\":200:204  uint */\n      0x00\n        /* \"contracts/Tipi_dannih.sol\":222:228  myAddr */\n      dup1\n      0x00\n      swap1\n      sload\n      swap1\n      0x0100\n      exp\n      swap1\n      div\n      0xffffffffffffffffffffffffffffffffffffffff\n      and\n        /* \"contracts/Tipi_dannih.sol\":222:236  myAddr.balance */\n      0xffffffffffffffffffffffffffffffffffffffff\n      and\n      balance\n        /* \"contracts/Tipi_dannih.sol\":215:236  return myAddr.balance */\n      swap1\n      pop\n        /* \"contracts/Tipi_dannih.sol\":158:244  function getBalance() public view returns(uint){\r... */\n      swap1\n      jump\t// out\n        /* \"contracts/Tipi_dannih.sol\":257:285  string public myStr = \"test\" */\n    tag_12:\n      0x01\n      dup1\n      sload\n      tag_24\n      swap1\n      tag_25\n      jump\t// in\n    tag_24:\n      dup1\n      0x1f\n      add\n      0x20\n      dup1\n      swap2\n      div\n      mul\n      0x20\n      add\n      mload(0x40)\n      swap1\n      dup2\n      add\n      0x40\n      mstore\n      dup1\n      swap3\n      swap2\n      swap1\n      dup2\n      dup2\n      mstore\n      0x20\n      add\n      dup3\n      dup1\n      sload\n      tag_26\n      swap1\n      tag_25\n      jump\t// in\n    tag_26:\n      dup1\n      iszero\n      tag_27\n      jumpi\n      dup1\n      0x1f\n      lt\n      tag_28\n      jumpi\n      0x0100\n      dup1\n      dup4\n      sload\n      div\n      mul\n      dup4\n      mstore\n      swap2\n      0x20\n      add\n      swap2\n      jump(tag_27)\n    tag_28:\n      dup3\n      add\n      swap2\n      swap1\n      0x00\n      mstore\n      keccak256(0x00, 0x20)\n      swap1\n    tag_29:\n      dup2\n      sload\n      dup2\n      mstore\n      swap1\n      0x01\n      add\n      swap1\n      0x20\n      add\n      dup1\n      dup4\n      gt\n      tag_29\n      jumpi\n      dup3\n      swap1\n      sub\n      0x1f\n      and\n      dup3\n      add\n      swap2\n    tag_27:\n      pop\n      pop\n      pop\n      pop\n      pop\n      dup2\n      jump\t// out\n        /* \"contracts/Tipi_dannih.sol\":306:436  function demo(string memory newValueStr ) public {\r... */\n    tag_18:\n        /* \"contracts/Tipi_dannih.sol\":366:389  string memory myTempStr */\n      0x00\n        /* \"contracts/Tipi_dannih.sol\":366:398  string memory myTempStr = \"temp\" */\n      mload(0x40)\n      dup1\n      0x40\n      add\n      0x40\n      mstore\n      dup1\n      0x04\n      dup2\n      mstore\n      0x20\n      add\n      0x74656d7000000000000000000000000000000000000000000000000000000000\n      dup2\n      mstore\n      pop\n      swap1\n      pop\n        /* \"contracts/Tipi_dannih.sol\":417:428  newValueStr */\n      dup2\n        /* \"contracts/Tipi_dannih.sol\":409:414  myStr */\n      0x01\n        /* \"contracts/Tipi_dannih.sol\":409:428  myStr = newValueStr */\n      swap1\n      dup1\n      mload\n      swap1\n      0x20\n      add\n      swap1\n      tag_31\n      swap3\n      swap2\n      swap1\n      tag_32\n      jump\t// in\n    tag_31:\n      pop\n        /* \"contracts/Tipi_dannih.sol\":355:436  {\r... */\n      pop\n        /* \"contracts/Tipi_dannih.sol\":306:436  function demo(string memory newValueStr ) public {\r... */\n      pop\n      jump\t// out\n        /* \"contracts/Tipi_dannih.sol\":83:149  address public myAddr = 0x5B38Da6a701c568545dCfcB03FcB875f56beddC4 */\n    tag_20:\n      0x00\n      dup1\n      sload\n      swap1\n      0x0100\n      exp\n      swap1\n      div\n      0xffffffffffffffffffffffffffffffffffffffff\n      and\n      dup2\n      jump\t// out\n    tag_32:\n      dup3\n      dup1\n      sload\n      tag_33\n      swap1\n      tag_25\n      jump\t// in\n    tag_33:\n      swap1\n      0x00\n      mstore\n      keccak256(0x00, 0x20)\n      swap1\n      0x1f\n      add\n      0x20\n      swap1\n      div\n      dup2\n      add\n      swap3\n      dup3\n      tag_35\n      jumpi\n      0x00\n      dup6\n      sstore\n      jump(tag_34)\n    tag_35:\n      dup3\n      0x1f\n      lt\n      tag_36\n      jumpi\n      dup1\n      mload\n      not(0xff)\n      and\n      dup4\n      dup1\n      add\n      or\n      dup6\n      sstore\n      jump(tag_34)\n    tag_36:\n      dup3\n      dup1\n      add\n      0x01\n      add\n      dup6\n      sstore\n      dup3\n      iszero\n      tag_34\n      jumpi\n      swap2\n      dup3\n      add\n    tag_37:\n      dup3\n      dup2\n      gt\n      iszero\n      tag_38\n      jumpi\n      dup3\n      mload\n      dup3\n      sstore\n      swap2\n      0x20\n      add\n      swap2\n      swap1\n      0x01\n      add\n      swap1\n      jump(tag_37)\n    tag_38:\n    tag_34:\n      pop\n      swap1\n      pop\n      tag_39\n      swap2\n      swap1\n      tag_40\n      jump\t// in\n    tag_39:\n      pop\n      swap1\n      jump\t// out\n    tag_40:\n    tag_41:\n      dup1\n      dup3\n      gt\n      iszero\n      tag_42\n      jumpi\n      0x00\n      dup2\n      0x00\n      swap1\n      sstore\n      pop\n      0x01\n      add\n      jump(tag_41)\n    tag_42:\n      pop\n      swap1\n      jump\t// out\n        /* \"#utility.yul\":7:419   */\n    tag_44:\n        /* \"#utility.yul\":85:90   */\n      0x00\n        /* \"#utility.yul\":110:176   */\n      tag_46\n        /* \"#utility.yul\":126:175   */\n      tag_47\n        /* \"#utility.yul\":168:174   */\n      dup5\n        /* \"#utility.yul\":126:175   */\n      tag_48\n      jump\t// in\n    tag_47:\n        /* \"#utility.yul\":110:176   */\n      tag_49\n      jump\t// in\n    tag_46:\n        /* \"#utility.yul\":101:176   */\n      swap1\n      pop\n        /* \"#utility.yul\":199:205   */\n      dup3\n        /* \"#utility.yul\":192:197   */\n      dup2\n        /* \"#utility.yul\":185:206   */\n      mstore\n        /* \"#utility.yul\":237:241   */\n      0x20\n        /* \"#utility.yul\":230:235   */\n      dup2\n        /* \"#utility.yul\":226:242   */\n      add\n        /* \"#utility.yul\":275:278   */\n      dup5\n        /* \"#utility.yul\":266:272   */\n      dup5\n        /* \"#utility.yul\":261:264   */\n      dup5\n        /* \"#utility.yul\":257:273   */\n      add\n        /* \"#utility.yul\":254:279   */\n      gt\n        /* \"#utility.yul\":251:363   */\n      iszero\n      tag_50\n      jumpi\n        /* \"#utility.yul\":282:361   */\n      tag_51\n      tag_52\n      jump\t// in\n    tag_51:\n        /* \"#utility.yul\":251:363   */\n    tag_50:\n        /* \"#utility.yul\":372:413   */\n      tag_53\n        /* \"#utility.yul\":406:412   */\n      dup5\n        /* \"#utility.yul\":401:404   */\n      dup3\n        /* \"#utility.yul\":396:399   */\n      dup6\n        /* \"#utility.yul\":372:413   */\n      tag_54\n      jump\t// in\n    tag_53:\n        /* \"#utility.yul\":91:419   */\n      pop\n        /* \"#utility.yul\":7:419   */\n      swap4\n      swap3\n      pop\n      pop\n      pop\n      jump\t// out\n        /* \"#utility.yul\":439:779   */\n    tag_55:\n        /* \"#utility.yul\":495:500   */\n      0x00\n        /* \"#utility.yul\":544:547   */\n      dup3\n        /* \"#utility.yul\":537:541   */\n      0x1f\n        /* \"#utility.yul\":529:535   */\n      dup4\n        /* \"#utility.yul\":525:542   */\n      add\n        /* \"#utility.yul\":521:548   */\n      slt\n        /* \"#utility.yul\":511:633   */\n      tag_57\n      jumpi\n        /* \"#utility.yul\":552:631   */\n      tag_58\n      tag_59\n      jump\t// in\n    tag_58:\n        /* \"#utility.yul\":511:633   */\n    tag_57:\n        /* \"#utility.yul\":669:675   */\n      dup2\n        /* \"#utility.yul\":656:676   */\n      calldataload\n        /* \"#utility.yul\":694:773   */\n      tag_60\n        /* \"#utility.yul\":769:772   */\n      dup5\n        /* \"#utility.yul\":761:767   */\n      dup3\n        /* \"#utility.yul\":754:758   */\n      0x20\n        /* \"#utility.yul\":746:752   */\n      dup7\n        /* \"#utility.yul\":742:759   */\n      add\n        /* \"#utility.yul\":694:773   */\n      tag_44\n      jump\t// in\n    tag_60:\n        /* \"#utility.yul\":685:773   */\n      swap2\n      pop\n        /* \"#utility.yul\":501:779   */\n      pop\n        /* \"#utility.yul\":439:779   */\n      swap3\n      swap2\n      pop\n      pop\n      jump\t// out\n        /* \"#utility.yul\":785:1294   */\n    tag_17:\n        /* \"#utility.yul\":854:860   */\n      0x00\n        /* \"#utility.yul\":903:905   */\n      0x20\n        /* \"#utility.yul\":891:900   */\n      dup3\n        /* \"#utility.yul\":882:889   */\n      dup5\n        /* \"#utility.yul\":878:901   */\n      sub\n        /* \"#utility.yul\":874:906   */\n      slt\n        /* \"#utility.yul\":871:990   */\n      iszero\n      tag_62\n      jumpi\n        /* \"#utility.yul\":909:988   */\n      tag_63\n      tag_64\n      jump\t// in\n    tag_63:\n        /* \"#utility.yul\":871:990   */\n    tag_62:\n        /* \"#utility.yul\":1057:1058   */\n      0x00\n        /* \"#utility.yul\":1046:1055   */\n      dup3\n        /* \"#utility.yul\":1042:1059   */\n      add\n        /* \"#utility.yul\":1029:1060   */\n      calldataload\n        /* \"#utility.yul\":1087:1105   */\n      0xffffffffffffffff\n        /* \"#utility.yul\":1079:1085   */\n      dup2\n        /* \"#utility.yul\":1076:1106   */\n      gt\n        /* \"#utility.yul\":1073:1190   */\n      iszero\n      tag_65\n      jumpi\n        /* \"#utility.yul\":1109:1188   */\n      tag_66\n      tag_67\n      jump\t// in\n    tag_66:\n        /* \"#utility.yul\":1073:1190   */\n    tag_65:\n        /* \"#utility.yul\":1214:1277   */\n      tag_68\n        /* \"#utility.yul\":1269:1276   */\n      dup5\n        /* \"#utility.yul\":1260:1266   */\n      dup3\n        /* \"#utility.yul\":1249:1258   */\n      dup6\n        /* \"#utility.yul\":1245:1267   */\n      add\n        /* \"#utility.yul\":1214:1277   */\n      tag_55\n      jump\t// in\n    tag_68:\n        /* \"#utility.yul\":1204:1277   */\n      swap2\n      pop\n        /* \"#utility.yul\":1000:1287   */\n      pop\n        /* \"#utility.yul\":785:1294   */\n      swap3\n      swap2\n      pop\n      pop\n      jump\t// out\n        /* \"#utility.yul\":1300:1418   */\n    tag_69:\n        /* \"#utility.yul\":1387:1411   */\n      tag_71\n        /* \"#utility.yul\":1405:1410   */\n      dup2\n        /* \"#utility.yul\":1387:1411   */\n      tag_72\n      jump\t// in\n    tag_71:\n        /* \"#utility.yul\":1382:1385   */\n      dup3\n        /* \"#utility.yul\":1375:1412   */\n      mstore\n        /* \"#utility.yul\":1300:1418   */\n      pop\n      pop\n      jump\t// out\n        /* \"#utility.yul\":1424:1788   */\n    tag_73:\n        /* \"#utility.yul\":1512:1515   */\n      0x00\n        /* \"#utility.yul\":1540:1579   */\n      tag_75\n        /* \"#utility.yul\":1573:1578   */\n      dup3\n        /* \"#utility.yul\":1540:1579   */\n      tag_76\n      jump\t// in\n    tag_75:\n        /* \"#utility.yul\":1595:1666   */\n      tag_77\n        /* \"#utility.yul\":1659:1665   */\n      dup2\n        /* \"#utility.yul\":1654:1657   */\n      dup6\n        /* \"#utility.yul\":1595:1666   */\n      tag_78\n      jump\t// in\n    tag_77:\n        /* \"#utility.yul\":1588:1666   */\n      swap4\n      pop\n        /* \"#utility.yul\":1675:1727   */\n      tag_79\n        /* \"#utility.yul\":1720:1726   */\n      dup2\n        /* \"#utility.yul\":1715:1718   */\n      dup6\n        /* \"#utility.yul\":1708:1712   */\n      0x20\n        /* \"#utility.yul\":1701:1706   */\n      dup7\n        /* \"#utility.yul\":1697:1713   */\n      add\n        /* \"#utility.yul\":1675:1727   */\n      tag_80\n      jump\t// in\n    tag_79:\n        /* \"#utility.yul\":1752:1781   */\n      tag_81\n        /* \"#utility.yul\":1774:1780   */\n      dup2\n        /* \"#utility.yul\":1752:1781   */\n      tag_82\n      jump\t// in\n    tag_81:\n        /* \"#utility.yul\":1747:1750   */\n      dup5\n        /* \"#utility.yul\":1743:1782   */\n      add\n        /* \"#utility.yul\":1736:1782   */\n      swap2\n      pop\n        /* \"#utility.yul\":1516:1788   */\n      pop\n        /* \"#utility.yul\":1424:1788   */\n      swap3\n      swap2\n      pop\n      pop\n      jump\t// out\n        /* \"#utility.yul\":1794:1912   */\n    tag_83:\n        /* \"#utility.yul\":1881:1905   */\n      tag_85\n        /* \"#utility.yul\":1899:1904   */\n      dup2\n        /* \"#utility.yul\":1881:1905   */\n      tag_86\n      jump\t// in\n    tag_85:\n        /* \"#utility.yul\":1876:1879   */\n      dup3\n        /* \"#utility.yul\":1869:1906   */\n      mstore\n        /* \"#utility.yul\":1794:1912   */\n      pop\n      pop\n      jump\t// out\n        /* \"#utility.yul\":1918:2140   */\n    tag_22:\n        /* \"#utility.yul\":2011:2015   */\n      0x00\n        /* \"#utility.yul\":2049:2051   */\n      0x20\n        /* \"#utility.yul\":2038:2047   */\n      dup3\n        /* \"#utility.yul\":2034:2052   */\n      add\n        /* \"#utility.yul\":2026:2052   */\n      swap1\n      pop\n        /* \"#utility.yul\":2062:2133   */\n      tag_88\n        /* \"#utility.yul\":2130:2131   */\n      0x00\n        /* \"#utility.yul\":2119:2128   */\n      dup4\n        /* \"#utility.yul\":2115:2132   */\n      add\n        /* \"#utility.yul\":2106:2112   */\n      dup5\n        /* \"#utility.yul\":2062:2133   */\n      tag_69\n      jump\t// in\n    tag_88:\n        /* \"#utility.yul\":1918:2140   */\n      swap3\n      swap2\n      pop\n      pop\n      jump\t// out\n        /* \"#utility.yul\":2146:2459   */\n    tag_14:\n        /* \"#utility.yul\":2259:2263   */\n      0x00\n        /* \"#utility.yul\":2297:2299   */\n      0x20\n        /* \"#utility.yul\":2286:2295   */\n      dup3\n        /* \"#utility.yul\":2282:2300   */\n      add\n        /* \"#utility.yul\":2274:2300   */\n      swap1\n      pop\n        /* \"#utility.yul\":2346:2355   */\n      dup2\n        /* \"#utility.yul\":2340:2344   */\n      dup2\n        /* \"#utility.yul\":2336:2356   */\n      sub\n        /* \"#utility.yul\":2332:2333   */\n      0x00\n        /* \"#utility.yul\":2321:2330   */\n      dup4\n        /* \"#utility.yul\":2317:2334   */\n      add\n        /* \"#utility.yul\":2310:2357   */\n      mstore\n        /* \"#utility.yul\":2374:2452   */\n      tag_90\n        /* \"#utility.yul\":2447:2451   */\n      dup2\n        /* \"#utility.yul\":2438:2444   */\n      dup5\n        /* \"#utility.yul\":2374:2452   */\n      tag_73\n      jump\t// in\n    tag_90:\n        /* \"#utility.yul\":2366:2452   */\n      swap1\n      pop\n        /* \"#utility.yul\":2146:2459   */\n      swap3\n      swap2\n      pop\n      pop\n      jump\t// out\n        /* \"#utility.yul\":2465:2687   */\n    tag_10:\n        /* \"#utility.yul\":2558:2562   */\n      0x00\n        /* \"#utility.yul\":2596:2598   */\n      0x20\n        /* \"#utility.yul\":2585:2594   */\n      dup3\n        /* \"#utility.yul\":2581:2599   */\n      add\n        /* \"#utility.yul\":2573:2599   */\n      swap1\n      pop\n        /* \"#utility.yul\":2609:2680   */\n      tag_92\n        /* \"#utility.yul\":2677:2678   */\n      0x00\n        /* \"#utility.yul\":2666:2675   */\n      dup4\n        /* \"#utility.yul\":2662:2679   */\n      add\n        /* \"#utility.yul\":2653:2659   */\n      dup5\n        /* \"#utility.yul\":2609:2680   */\n      tag_83\n      jump\t// in\n    tag_92:\n        /* \"#utility.yul\":2465:2687   */\n      swap3\n      swap2\n      pop\n      pop\n      jump\t// out\n        /* \"#utility.yul\":2693:2822   */\n    tag_49:\n        /* \"#utility.yul\":2727:2733   */\n      0x00\n        /* \"#utility.yul\":2754:2774   */\n      tag_94\n      tag_95\n      jump\t// in\n    tag_94:\n        /* \"#utility.yul\":2744:2774   */\n      swap1\n      pop\n        /* \"#utility.yul\":2783:2816   */\n      tag_96\n        /* \"#utility.yul\":2811:2815   */\n      dup3\n        /* \"#utility.yul\":2803:2809   */\n      dup3\n        /* \"#utility.yul\":2783:2816   */\n      tag_97\n      jump\t// in\n    tag_96:\n        /* \"#utility.yul\":2693:2822   */\n      swap2\n      swap1\n      pop\n      jump\t// out\n        /* \"#utility.yul\":2828:2903   */\n    tag_95:\n        /* \"#utility.yul\":2861:2867   */\n      0x00\n        /* \"#utility.yul\":2894:2896   */\n      0x40\n        /* \"#utility.yul\":2888:2897   */\n      mload\n        /* \"#utility.yul\":2878:2897   */\n      swap1\n      pop\n        /* \"#utility.yul\":2828:2903   */\n      swap1\n      jump\t// out\n        /* \"#utility.yul\":2909:3217   */\n    tag_48:\n        /* \"#utility.yul\":2971:2975   */\n      0x00\n        /* \"#utility.yul\":3061:3079   */\n      0xffffffffffffffff\n        /* \"#utility.yul\":3053:3059   */\n      dup3\n        /* \"#utility.yul\":3050:3080   */\n      gt\n        /* \"#utility.yul\":3047:3103   */\n      iszero\n      tag_100\n      jumpi\n        /* \"#utility.yul\":3083:3101   */\n      tag_101\n      tag_102\n      jump\t// in\n    tag_101:\n        /* \"#utility.yul\":3047:3103   */\n    tag_100:\n        /* \"#utility.yul\":3121:3150   */\n      tag_103\n        /* \"#utility.yul\":3143:3149   */\n      dup3\n        /* \"#utility.yul\":3121:3150   */\n      tag_82\n      jump\t// in\n    tag_103:\n        /* \"#utility.yul\":3113:3150   */\n      swap1\n      pop\n        /* \"#utility.yul\":3205:3209   */\n      0x20\n        /* \"#utility.yul\":3199:3203   */\n      dup2\n        /* \"#utility.yul\":3195:3210   */\n      add\n        /* \"#utility.yul\":3187:3210   */\n      swap1\n      pop\n        /* \"#utility.yul\":2909:3217   */\n      swap2\n      swap1\n      pop\n      jump\t// out\n        /* \"#utility.yul\":3223:3322   */\n    tag_76:\n        /* \"#utility.yul\":3275:3281   */\n      0x00\n        /* \"#utility.yul\":3309:3314   */\n      dup2\n        /* \"#utility.yul\":3303:3315   */\n      mload\n        /* \"#utility.yul\":3293:3315   */\n      swap1\n      pop\n        /* \"#utility.yul\":3223:3322   */\n      swap2\n      swap1\n      pop\n      jump\t// out\n        /* \"#utility.yul\":3328:3497   */\n    tag_78:\n        /* \"#utility.yul\":3412:3423   */\n      0x00\n        /* \"#utility.yul\":3446:3452   */\n      dup3\n        /* \"#utility.yul\":3441:3444   */\n      dup3\n        /* \"#utility.yul\":3434:3453   */\n      mstore\n        /* \"#utility.yul\":3486:3490   */\n      0x20\n        /* \"#utility.yul\":3481:3484   */\n      dup3\n        /* \"#utility.yul\":3477:3491   */\n      add\n        /* \"#utility.yul\":3462:3491   */\n      swap1\n      pop\n        /* \"#utility.yul\":3328:3497   */\n      swap3\n      swap2\n      pop\n      pop\n      jump\t// out\n        /* \"#utility.yul\":3503:3599   */\n    tag_72:\n        /* \"#utility.yul\":3540:3547   */\n      0x00\n        /* \"#utility.yul\":3569:3593   */\n      tag_107\n        /* \"#utility.yul\":3587:3592   */\n      dup3\n        /* \"#utility.yul\":3569:3593   */\n      tag_108\n      jump\t// in\n    tag_107:\n        /* \"#utility.yul\":3558:3593   */\n      swap1\n      pop\n        /* \"#utility.yul\":3503:3599   */\n      swap2\n      swap1\n      pop\n      jump\t// out\n        /* \"#utility.yul\":3605:3731   */\n    tag_108:\n        /* \"#utility.yul\":3642:3649   */\n      0x00\n        /* \"#utility.yul\":3682:3724   */\n      0xffffffffffffffffffffffffffffffffffffffff\n        /* \"#utility.yul\":3675:3680   */\n      dup3\n        /* \"#utility.yul\":3671:3725   */\n      and\n        /* \"#utility.yul\":3660:3725   */\n      swap1\n      pop\n        /* \"#utility.yul\":3605:3731   */\n      swap2\n      swap1\n      pop\n      jump\t// out\n        /* \"#utility.yul\":3737:3814   */\n    tag_86:\n        /* \"#utility.yul\":3774:3781   */\n      0x00\n        /* \"#utility.yul\":3803:3808   */\n      dup2\n        /* \"#utility.yul\":3792:3808   */\n      swap1\n      pop\n        /* \"#utility.yul\":3737:3814   */\n      swap2\n      swap1\n      pop\n      jump\t// out\n        /* \"#utility.yul\":3820:3974   */\n    tag_54:\n        /* \"#utility.yul\":3904:3910   */\n      dup3\n        /* \"#utility.yul\":3899:3902   */\n      dup2\n        /* \"#utility.yul\":3894:3897   */\n      dup4\n        /* \"#utility.yul\":3881:3911   */\n      calldatacopy\n        /* \"#utility.yul\":3966:3967   */\n      0x00\n        /* \"#utility.yul\":3957:3963   */\n      dup4\n        /* \"#utility.yul\":3952:3955   */\n      dup4\n        /* \"#utility.yul\":3948:3964   */\n      add\n        /* \"#utility.yul\":3941:3968   */\n      mstore\n        /* \"#utility.yul\":3820:3974   */\n      pop\n      pop\n      pop\n      jump\t// out\n        /* \"#utility.yul\":3980:4287   */\n    tag_80:\n        /* \"#utility.yul\":4048:4049   */\n      0x00\n        /* \"#utility.yul\":4058:4171   */\n    tag_113:\n        /* \"#utility.yul\":4072:4078   */\n      dup4\n        /* \"#utility.yul\":4069:4070   */\n      dup2\n        /* \"#utility.yul\":4066:4079   */\n      lt\n        /* \"#utility.yul\":4058:4171   */\n      iszero\n      tag_115\n      jumpi\n        /* \"#utility.yul\":4157:4158   */\n      dup1\n        /* \"#utility.yul\":4152:4155   */\n      dup3\n        /* \"#utility.yul\":4148:4159   */\n      add\n        /* \"#utility.yul\":4142:4160   */\n      mload\n        /* \"#utility.yul\":4138:4139   */\n      dup2\n        /* \"#utility.yul\":4133:4136   */\n      dup5\n        /* \"#utility.yul\":4129:4140   */\n      add\n        /* \"#utility.yul\":4122:4161   */\n      mstore\n        /* \"#utility.yul\":4094:4096   */\n      0x20\n        /* \"#utility.yul\":4091:4092   */\n      dup2\n        /* \"#utility.yul\":4087:4097   */\n      add\n        /* \"#utility.yul\":4082:4097   */\n      swap1\n      pop\n        /* \"#utility.yul\":4058:4171   */\n      jump(tag_113)\n    tag_115:\n        /* \"#utility.yul\":4189:4195   */\n      dup4\n        /* \"#utility.yul\":4186:4187   */\n      dup2\n        /* \"#utility.yul\":4183:4196   */\n      gt\n        /* \"#utility.yul\":4180:4281   */\n      iszero\n      tag_116\n      jumpi\n        /* \"#utility.yul\":4269:4270   */\n      0x00\n        /* \"#utility.yul\":4260:4266   */\n      dup5\n        /* \"#utility.yul\":4255:4258   */\n      dup5\n        /* \"#utility.yul\":4251:4267   */\n      add\n        /* \"#utility.yul\":4244:4271   */\n      mstore\n        /* \"#utility.yul\":4180:4281   */\n    tag_116:\n        /* \"#utility.yul\":4029:4287   */\n      pop\n        /* \"#utility.yul\":3980:4287   */\n      pop\n      pop\n      pop\n      jump\t// out\n        /* \"#utility.yul\":4293:4613   */\n    tag_25:\n        /* \"#utility.yul\":4337:4343   */\n      0x00\n        /* \"#utility.yul\":4374:4375   */\n      0x02\n        /* \"#utility.yul\":4368:4372   */\n      dup3\n        /* \"#utility.yul\":4364:4376   */\n      div\n        /* \"#utility.yul\":4354:4376   */\n      swap1\n      pop\n        /* \"#utility.yul\":4421:4422   */\n      0x01\n        /* \"#utility.yul\":4415:4419   */\n      dup3\n        /* \"#utility.yul\":4411:4423   */\n      and\n        /* \"#utility.yul\":4442:4460   */\n      dup1\n        /* \"#utility.yul\":4432:4513   */\n      tag_118\n      jumpi\n        /* \"#utility.yul\":4498:4502   */\n      0x7f\n        /* \"#utility.yul\":4490:4496   */\n      dup3\n        /* \"#utility.yul\":4486:4503   */\n      and\n        /* \"#utility.yul\":4476:4503   */\n      swap2\n      pop\n        /* \"#utility.yul\":4432:4513   */\n    tag_118:\n        /* \"#utility.yul\":4560:4562   */\n      0x20\n        /* \"#utility.yul\":4552:4558   */\n      dup3\n        /* \"#utility.yul\":4549:4563   */\n      lt\n        /* \"#utility.yul\":4529:4547   */\n      dup2\n        /* \"#utility.yul\":4526:4564   */\n      eq\n        /* \"#utility.yul\":4523:4607   */\n      iszero\n      tag_119\n      jumpi\n        /* \"#utility.yul\":4579:4597   */\n      tag_120\n      tag_121\n      jump\t// in\n    tag_120:\n        /* \"#utility.yul\":4523:4607   */\n    tag_119:\n        /* \"#utility.yul\":4344:4613   */\n      pop\n        /* \"#utility.yul\":4293:4613   */\n      swap2\n      swap1\n      pop\n      jump\t// out\n        /* \"#utility.yul\":4619:4900   */\n    tag_97:\n        /* \"#utility.yul\":4702:4729   */\n      tag_123\n        /* \"#utility.yul\":4724:4728   */\n      dup3\n        /* \"#utility.yul\":4702:4729   */\n      tag_82\n      jump\t// in\n    tag_123:\n        /* \"#utility.yul\":4694:4700   */\n      dup2\n        /* \"#utility.yul\":4690:4730   */\n      add\n        /* \"#utility.yul\":4832:4838   */\n      dup2\n        /* \"#utility.yul\":4820:4830   */\n      dup2\n        /* \"#utility.yul\":4817:4839   */\n      lt\n        /* \"#utility.yul\":4796:4814   */\n      0xffffffffffffffff\n        /* \"#utility.yul\":4784:4794   */\n      dup3\n        /* \"#utility.yul\":4781:4815   */\n      gt\n        /* \"#utility.yul\":4778:4840   */\n      or\n        /* \"#utility.yul\":4775:4863   */\n      iszero\n      tag_124\n      jumpi\n        /* \"#utility.yul\":4843:4861   */\n      tag_125\n      tag_102\n      jump\t// in\n    tag_125:\n        /* \"#utility.yul\":4775:4863   */\n    tag_124:\n        /* \"#utility.yul\":4883:4893   */\n      dup1\n        /* \"#utility.yul\":4879:4881   */\n      0x40\n        /* \"#utility.yul\":4872:4894   */\n      mstore\n        /* \"#utility.yul\":4662:4900   */\n      pop\n        /* \"#utility.yul\":4619:4900   */\n      pop\n      pop\n      jump\t// out\n        /* \"#utility.yul\":4906:5086   */\n    tag_121:\n        /* \"#utility.yul\":4954:5031   */\n      0x4e487b7100000000000000000000000000000000000000000000000000000000\n        /* \"#utility.yul\":4951:4952   */\n      0x00\n        /* \"#utility.yul\":4944:5032   */\n      mstore\n        /* \"#utility.yul\":5051:5055   */\n      0x22\n        /* \"#utility.yul\":5048:5049   */\n      0x04\n        /* \"#utility.yul\":5041:5056   */\n      mstore\n        /* \"#utility.yul\":5075:5079   */\n      0x24\n        /* \"#utility.yul\":5072:5073   */\n      0x00\n        /* \"#utility.yul\":5065:5080   */\n      revert\n        /* \"#utility.yul\":5092:5272   */\n    tag_102:\n        /* \"#utility.yul\":5140:5217   */\n      0x4e487b7100000000000000000000000000000000000000000000000000000000\n        /* \"#utility.yul\":5137:5138   */\n      0x00\n        /* \"#utility.yul\":5130:5218   */\n      mstore\n        /* \"#utility.yul\":5237:5241   */\n      0x41\n        /* \"#utility.yul\":5234:5235   */\n      0x04\n        /* \"#utility.yul\":5227:5242   */\n      mstore\n        /* \"#utility.yul\":5261:5265   */\n      0x24\n        /* \"#utility.yul\":5258:5259   */\n      0x00\n        /* \"#utility.yul\":5251:5266   */\n      revert\n        /* \"#utility.yul\":5278:5395   */\n    tag_59:\n        /* \"#utility.yul\":5387:5388   */\n      0x00\n        /* \"#utility.yul\":5384:5385   */\n      dup1\n        /* \"#utility.yul\":5377:5389   */\n      revert\n        /* \"#utility.yul\":5401:5518   */\n    tag_52:\n        /* \"#utility.yul\":5510:5511   */\n      0x00\n        /* \"#utility.yul\":5507:5508   */\n      dup1\n        /* \"#utility.yul\":5500:5512   */\n      revert\n        /* \"#utility.yul\":5524:5641   */\n    tag_67:\n        /* \"#utility.yul\":5633:5634   */\n      0x00\n        /* \"#utility.yul\":5630:5631   */\n      dup1\n        /* \"#utility.yul\":5623:5635   */\n      revert\n        /* \"#utility.yul\":5647:5764   */\n    tag_64:\n        /* \"#utility.yul\":5756:5757   */\n      0x00\n        /* \"#utility.yul\":5753:5754   */\n      dup1\n        /* \"#utility.yul\":5746:5758   */\n      revert\n        /* \"#utility.yul\":5770:5872   */\n    tag_82:\n        /* \"#utility.yul\":5811:5817   */\n      0x00\n        /* \"#utility.yul\":5862:5864   */\n      0x1f\n        /* \"#utility.yul\":5858:5865   */\n      not\n        /* \"#utility.yul\":5853:5855   */\n      0x1f\n        /* \"#utility.yul\":5846:5851   */\n      dup4\n        /* \"#utility.yul\":5842:5856   */\n      add\n        /* \"#utility.yul\":5838:5866   */\n      and\n        /* \"#utility.yul\":5828:5866   */\n      swap1\n      pop\n        /* \"#utility.yul\":5770:5872   */\n      swap2\n      swap1\n      pop\n      jump\t// out\n\n    auxdata: 0xa26469706673582212202be90179eb7f5ed4a7f3c29b5dea945c73ba49d454f5c501afa26c6286d4058864736f6c63430008070033\n}\n",
				"bytecode": {
					"linkReferences": {},
					"object": "6080604052735b38da6a701c568545dcfcb03fcb875f56beddc46000806101000a81548173ffffffffffffffffffffffffffffffffffffffff021916908373ffffffffffffffffffffffffffffffffffffffff1602179055506040518060400160405280600481526020017f7465737400000000000000000000000000000000000000000000000000000000815250600190805190602001906100a39291906100b6565b503480156100b057600080fd5b506101ba565b8280546100c290610159565b90600052602060002090601f0160209004810192826100e4576000855561012b565b82601f106100fd57805160ff191683800117855561012b565b8280016001018555821561012b579182015b8281111561012a57825182559160200191906001019061010f565b5b509050610138919061013c565b5090565b5b8082111561015557600081600090555060010161013d565b5090565b6000600282049050600182168061017157607f821691505b602082108114156101855761018461018b565b5b50919050565b7f4e487b7100000000000000000000000000000000000000000000000000000000600052602260045260246000fd5b610625806101c96000396000f3fe608060405234801561001057600080fd5b506004361061004c5760003560e01c806312065fe0146100515780635a455c1c1461006f578063939a79ac1461008d578063e665b266146100a9575b600080fd5b6100596100c7565b60405161006691906103fe565b60405180910390f35b610077610107565b60405161008491906103dc565b60405180910390f35b6100a760048036038101906100a29190610321565b610195565b005b6100b16101ea565b6040516100be91906103c1565b60405180910390f35b60008060009054906101000a900473ffffffffffffffffffffffffffffffffffffffff1673ffffffffffffffffffffffffffffffffffffffff1631905090565b6001805461011490610509565b80601f016020809104026020016040519081016040528092919081815260200182805461014090610509565b801561018d5780601f106101625761010080835404028352916020019161018d565b820191906000526020600020905b81548152906001019060200180831161017057829003601f168201915b505050505081565b60006040518060400160405280600481526020017f74656d7000000000000000000000000000000000000000000000000000000000815250905081600190805190602001906101e592919061020e565b505050565b60008054906101000a900473ffffffffffffffffffffffffffffffffffffffff1681565b82805461021a90610509565b90600052602060002090601f01602090048101928261023c5760008555610283565b82601f1061025557805160ff1916838001178555610283565b82800160010185558215610283579182015b82811115610282578251825591602001919060010190610267565b5b5090506102909190610294565b5090565b5b808211156102ad576000816000905550600101610295565b5090565b60006102c46102bf8461043e565b610419565b9050828152602081018484840111156102e0576102df6105cf565b5b6102eb8482856104c7565b509392505050565b600082601f830112610308576103076105ca565b5b81356103188482602086016102b1565b91505092915050565b600060208284031215610337576103366105d9565b5b600082013567ffffffffffffffff811115610355576103546105d4565b5b610361848285016102f3565b91505092915050565b6103738161048b565b82525050565b60006103848261046f565b61038e818561047a565b935061039e8185602086016104d6565b6103a7816105de565b840191505092915050565b6103bb816104bd565b82525050565b60006020820190506103d6600083018461036a565b92915050565b600060208201905081810360008301526103f68184610379565b905092915050565b600060208201905061041360008301846103b2565b92915050565b6000610423610434565b905061042f828261053b565b919050565b6000604051905090565b600067ffffffffffffffff8211156104595761045861059b565b5b610462826105de565b9050602081019050919050565b600081519050919050565b600082825260208201905092915050565b60006104968261049d565b9050919050565b600073ffffffffffffffffffffffffffffffffffffffff82169050919050565b6000819050919050565b82818337600083830152505050565b60005b838110156104f45780820151818401526020810190506104d9565b83811115610503576000848401525b50505050565b6000600282049050600182168061052157607f821691505b602082108114156105355761053461056c565b5b50919050565b610544826105de565b810181811067ffffffffffffffff821117156105635761056261059b565b5b80604052505050565b7f4e487b7100000000000000000000000000000000000000000000000000000000600052602260045260246000fd5b7f4e487b7100000000000000000000000000000000000000000000000000000000600052604160045260246000fd5b600080fd5b600080fd5b600080fd5b600080fd5b6000601f19601f830116905091905056fea26469706673582212202be90179eb7f5ed4a7f3c29b5dea945c73ba49d454f5c501afa26c6286d4058864736f6c63430008070033",
					"opcodes": "PUSH1 0x80 PUSH1 0x40 MSTORE PUSH20 0x5B38DA6A701C568545DCFCB03FCB875F56BEDDC4 PUSH1 0x0 DUP1 PUSH2 0x100 EXP DUP2 SLOAD DUP2 PUSH20 0xFFFFFFFFFFFFFFFFFFFFFFFFFFFFFFFFFFFFFFFF MUL NOT AND SWAP1 DUP4 PUSH20 0xFFFFFFFFFFFFFFFFFFFFFFFFFFFFFFFFFFFFFFFF AND MUL OR SWAP1 SSTORE POP PUSH1 0x40 MLOAD DUP1 PUSH1 0x40 ADD PUSH1 0x40 MSTORE DUP1 PUSH1 0x4 DUP2 MSTORE PUSH1 0x20 ADD PUSH32 0x7465737400000000000000000000000000000000000000000000000000000000 DUP2 MSTORE POP PUSH1 0x1 SWAP1 DUP1 MLOAD SWAP1 PUSH1 0x20 ADD SWAP1 PUSH2 0xA3 SWAP3 SWAP2 SWAP1 PUSH2 0xB6 JUMP JUMPDEST POP CALLVALUE DUP1 ISZERO PUSH2 0xB0 JUMPI PUSH1 0x0 DUP1 REVERT JUMPDEST POP PUSH2 0x1BA JUMP JUMPDEST DUP3 DUP1 SLOAD PUSH2 0xC2 SWAP1 PUSH2 0x159 JUMP JUMPDEST SWAP1 PUSH1 0x0 MSTORE PUSH1 0x20 PUSH1 0x0 KECCAK256 SWAP1 PUSH1 0x1F ADD PUSH1 0x20 SWAP1 DIV DUP2 ADD SWAP3 DUP3 PUSH2 0xE4 JUMPI PUSH1 0x0 DUP6 SSTORE PUSH2 0x12B JUMP JUMPDEST DUP3 PUSH1 0x1F LT PUSH2 0xFD JUMPI DUP1 MLOAD PUSH1 0xFF NOT AND DUP4 DUP1 ADD OR DUP6 SSTORE PUSH2 0x12B JUMP JUMPDEST DUP3 DUP1 ADD PUSH1 0x1 ADD DUP6 SSTORE DUP3 ISZERO PUSH2 0x12B JUMPI SWAP2 DUP3 ADD JUMPDEST DUP3 DUP2 GT ISZERO PUSH2 0x12A JUMPI DUP3 MLOAD DUP3 SSTORE SWAP2 PUSH1 0x20 ADD SWAP2 SWAP1 PUSH1 0x1 ADD SWAP1 PUSH2 0x10F JUMP JUMPDEST JUMPDEST POP SWAP1 POP PUSH2 0x138 SWAP2 SWAP1 PUSH2 0x13C JUMP JUMPDEST POP SWAP1 JUMP JUMPDEST JUMPDEST DUP1 DUP3 GT ISZERO PUSH2 0x155 JUMPI PUSH1 0x0 DUP2 PUSH1 0x0 SWAP1 SSTORE POP PUSH1 0x1 ADD PUSH2 0x13D JUMP JUMPDEST POP SWAP1 JUMP JUMPDEST PUSH1 0x0 PUSH1 0x2 DUP3 DIV SWAP1 POP PUSH1 0x1 DUP3 AND DUP1 PUSH2 0x171 JUMPI PUSH1 0x7F DUP3 AND SWAP2 POP JUMPDEST PUSH1 0x20 DUP3 LT DUP2 EQ ISZERO PUSH2 0x185 JUMPI PUSH2 0x184 PUSH2 0x18B JUMP JUMPDEST JUMPDEST POP SWAP2 SWAP1 POP JUMP JUMPDEST PUSH32 0x4E487B7100000000000000000000000000000000000000000000000000000000 PUSH1 0x0 MSTORE PUSH1 0x22 PUSH1 0x4 MSTORE PUSH1 0x24 PUSH1 0x0 REVERT JUMPDEST PUSH2 0x625 DUP1 PUSH2 0x1C9 PUSH1 0x0 CODECOPY PUSH1 0x0 RETURN INVALID PUSH1 0x80 PUSH1 0x40 MSTORE CALLVALUE DUP1 ISZERO PUSH2 0x10 JUMPI PUSH1 0x0 DUP1 REVERT JUMPDEST POP PUSH1 0x4 CALLDATASIZE LT PUSH2 0x4C JUMPI PUSH1 0x0 CALLDATALOAD PUSH1 0xE0 SHR DUP1 PUSH4 0x12065FE0 EQ PUSH2 0x51 JUMPI DUP1 PUSH4 0x5A455C1C EQ PUSH2 0x6F JUMPI DUP1 PUSH4 0x939A79AC EQ PUSH2 0x8D JUMPI DUP1 PUSH4 0xE665B266 EQ PUSH2 0xA9 JUMPI JUMPDEST PUSH1 0x0 DUP1 REVERT JUMPDEST PUSH2 0x59 PUSH2 0xC7 JUMP JUMPDEST PUSH1 0x40 MLOAD PUSH2 0x66 SWAP2 SWAP1 PUSH2 0x3FE JUMP JUMPDEST PUSH1 0x40 MLOAD DUP1 SWAP2 SUB SWAP1 RETURN JUMPDEST PUSH2 0x77 PUSH2 0x107 JUMP JUMPDEST PUSH1 0x40 MLOAD PUSH2 0x84 SWAP2 SWAP1 PUSH2 0x3DC JUMP JUMPDEST PUSH1 0x40 MLOAD DUP1 SWAP2 SUB SWAP1 RETURN JUMPDEST PUSH2 0xA7 PUSH1 0x4 DUP1 CALLDATASIZE SUB DUP2 ADD SWAP1 PUSH2 0xA2 SWAP2 SWAP1 PUSH2 0x321 JUMP JUMPDEST PUSH2 0x195 JUMP JUMPDEST STOP JUMPDEST PUSH2 0xB1 PUSH2 0x1EA JUMP JUMPDEST PUSH1 0x40 MLOAD PUSH2 0xBE SWAP2 SWAP1 PUSH2 0x3C1 JUMP JUMPDEST PUSH1 0x40 MLOAD DUP1 SWAP2 SUB SWAP1 RETURN JUMPDEST PUSH1 0x0 DUP1 PUSH1 0x0 SWAP1 SLOAD SWAP1 PUSH2 0x100 EXP SWAP1 DIV PUSH20 0xFFFFFFFFFFFFFFFFFFFFFFFFFFFFFFFFFFFFFFFF AND PUSH20 0xFFFFFFFFFFFFFFFFFFFFFFFFFFFFFFFFFFFFFFFF AND BALANCE SWAP1 POP SWAP1 JUMP JUMPDEST PUSH1 0x1 DUP1 SLOAD PUSH2 0x114 SWAP1 PUSH2 0x509 JUMP JUMPDEST DUP1 PUSH1 0x1F ADD PUSH1 0x20 DUP1 SWAP2 DIV MUL PUSH1 0x20 ADD PUSH1 0x40 MLOAD SWAP1 DUP2 ADD PUSH1 0x40 MSTORE DUP1 SWAP3 SWAP2 SWAP1 DUP2 DUP2 MSTORE PUSH1 0x20 ADD DUP3 DUP1 SLOAD PUSH2 0x140 SWAP1 PUSH2 0x509 JUMP JUMPDEST DUP1 ISZERO PUSH2 0x18D JUMPI DUP1 PUSH1 0x1F LT PUSH2 0x162 JUMPI PUSH2 0x100 DUP1 DUP4 SLOAD DIV MUL DUP4 MSTORE SWAP2 PUSH1 0x20 ADD SWAP2 PUSH2 0x18D JUMP JUMPDEST DUP3 ADD SWAP2 SWAP1 PUSH1 0x0 MSTORE PUSH1 0x20 PUSH1 0x0 KECCAK256 SWAP1 JUMPDEST DUP2 SLOAD DUP2 MSTORE SWAP1 PUSH1 0x1 ADD SWAP1 PUSH1 0x20 ADD DUP1 DUP4 GT PUSH2 0x170 JUMPI DUP3 SWAP1 SUB PUSH1 0x1F AND DUP3 ADD SWAP2 JUMPDEST POP POP POP POP POP DUP2 JUMP JUMPDEST PUSH1 0x0 PUSH1 0x40 MLOAD DUP1 PUSH1 0x40 ADD PUSH1 0x40 MSTORE DUP1 PUSH1 0x4 DUP2 MSTORE PUSH1 0x20 ADD PUSH32 0x74656D7000000000000000000000000000000000000000000000000000000000 DUP2 MSTORE POP SWAP1 POP DUP2 PUSH1 0x1 SWAP1 DUP1 MLOAD SWAP1 PUSH1 0x20 ADD SWAP1 PUSH2 0x1E5 SWAP3 SWAP2 SWAP1 PUSH2 0x20E JUMP JUMPDEST POP POP POP JUMP JUMPDEST PUSH1 0x0 DUP1 SLOAD SWAP1 PUSH2 0x100 EXP SWAP1 DIV PUSH20 0xFFFFFFFFFFFFFFFFFFFFFFFFFFFFFFFFFFFFFFFF AND DUP2 JUMP JUMPDEST DUP3 DUP1 SLOAD PUSH2 0x21A SWAP1 PUSH2 0x509 JUMP JUMPDEST SWAP1 PUSH1 0x0 MSTORE PUSH1 0x20 PUSH1 0x0 KECCAK256 SWAP1 PUSH1 0x1F ADD PUSH1 0x20 SWAP1 DIV DUP2 ADD SWAP3 DUP3 PUSH2 0x23C JUMPI PUSH1 0x0 DUP6 SSTORE PUSH2 0x283 JUMP JUMPDEST DUP3 PUSH1 0x1F LT PUSH2 0x255 JUMPI DUP1 MLOAD PUSH1 0xFF NOT AND DUP4 DUP1 ADD OR DUP6 SSTORE PUSH2 0x283 JUMP JUMPDEST DUP3 DUP1 ADD PUSH1 0x1 ADD DUP6 SSTORE DUP3 ISZERO PUSH2 0x283 JUMPI SWAP2 DUP3 ADD JUMPDEST DUP3 DUP2 GT ISZERO PUSH2 0x282 JUMPI DUP3 MLOAD DUP3 SSTORE SWAP2 PUSH1 0x20 ADD SWAP2 SWAP1 PUSH1 0x1 ADD SWAP1 PUSH2 0x267 JUMP JUMPDEST JUMPDEST POP SWAP1 POP PUSH2 0x290 SWAP2 SWAP1 PUSH2 0x294 JUMP JUMPDEST POP SWAP1 JUMP JUMPDEST JUMPDEST DUP1 DUP3 GT ISZERO PUSH2 0x2AD JUMPI PUSH1 0x0 DUP2 PUSH1 0x0 SWAP1 SSTORE POP PUSH1 0x1 ADD PUSH2 0x295 JUMP JUMPDEST POP SWAP1 JUMP JUMPDEST PUSH1 0x0 PUSH2 0x2C4 PUSH2 0x2BF DUP5 PUSH2 0x43E JUMP JUMPDEST PUSH2 0x419 JUMP JUMPDEST SWAP1 POP DUP3 DUP2 MSTORE PUSH1 0x20 DUP2 ADD DUP5 DUP5 DUP5 ADD GT ISZERO PUSH2 0x2E0 JUMPI PUSH2 0x2DF PUSH2 0x5CF JUMP JUMPDEST JUMPDEST PUSH2 0x2EB DUP5 DUP3 DUP6 PUSH2 0x4C7 JUMP JUMPDEST POP SWAP4 SWAP3 POP POP POP JUMP JUMPDEST PUSH1 0x0 DUP3 PUSH1 0x1F DUP4 ADD SLT PUSH2 0x308 JUMPI PUSH2 0x307 PUSH2 0x5CA JUMP JUMPDEST JUMPDEST DUP2 CALLDATALOAD PUSH2 0x318 DUP5 DUP3 PUSH1 0x20 DUP7 ADD PUSH2 0x2B1 JUMP JUMPDEST SWAP2 POP POP SWAP3 SWAP2 POP POP JUMP JUMPDEST PUSH1 0x0 PUSH1 0x20 DUP3 DUP5 SUB SLT ISZERO PUSH2 0x337 JUMPI PUSH2 0x336 PUSH2 0x5D9 JUMP JUMPDEST JUMPDEST PUSH1 0x0 DUP3 ADD CALLDATALOAD PUSH8 0xFFFFFFFFFFFFFFFF DUP2 GT ISZERO PUSH2 0x355 JUMPI PUSH2 0x354 PUSH2 0x5D4 JUMP JUMPDEST JUMPDEST PUSH2 0x361 DUP5 DUP3 DUP6 ADD PUSH2 0x2F3 JUMP JUMPDEST SWAP2 POP POP SWAP3 SWAP2 POP POP JUMP JUMPDEST PUSH2 0x373 DUP2 PUSH2 0x48B JUMP JUMPDEST DUP3 MSTORE POP POP JUMP JUMPDEST PUSH1 0x0 PUSH2 0x384 DUP3 PUSH2 0x46F JUMP JUMPDEST PUSH2 0x38E DUP2 DUP6 PUSH2 0x47A JUMP JUMPDEST SWAP4 POP PUSH2 0x39E DUP2 DUP6 PUSH1 0x20 DUP7 ADD PUSH2 0x4D6 JUMP JUMPDEST PUSH2 0x3A7 DUP2 PUSH2 0x5DE JUMP JUMPDEST DUP5 ADD SWAP2 POP POP SWAP3 SWAP2 POP POP JUMP JUMPDEST PUSH2 0x3BB DUP2 PUSH2 0x4BD JUMP JUMPDEST DUP3 MSTORE POP POP JUMP JUMPDEST PUSH1 0x0 PUSH1 0x20 DUP3 ADD SWAP1 POP PUSH2 0x3D6 PUSH1 0x0 DUP4 ADD DUP5 PUSH2 0x36A JUMP JUMPDEST SWAP3 SWAP2 POP POP JUMP JUMPDEST PUSH1 0x0 PUSH1 0x20 DUP3 ADD SWAP1 POP DUP2 DUP2 SUB PUSH1 0x0 DUP4 ADD MSTORE PUSH2 0x3F6 DUP2 DUP5 PUSH2 0x379 JUMP JUMPDEST SWAP1 POP SWAP3 SWAP2 POP POP JUMP JUMPDEST PUSH1 0x0 PUSH1 0x20 DUP3 ADD SWAP1 POP PUSH2 0x413 PUSH1 0x0 DUP4 ADD DUP5 PUSH2 0x3B2 JUMP JUMPDEST SWAP3 SWAP2 POP POP JUMP JUMPDEST PUSH1 0x0 PUSH2 0x423 PUSH2 0x434 JUMP JUMPDEST SWAP1 POP PUSH2 0x42F DUP3 DUP3 PUSH2 0x53B JUMP JUMPDEST SWAP2 SWAP1 POP JUMP JUMPDEST PUSH1 0x0 PUSH1 0x40 MLOAD SWAP1 POP SWAP1 JUMP JUMPDEST PUSH1 0x0 PUSH8 0xFFFFFFFFFFFFFFFF DUP3 GT ISZERO PUSH2 0x459 JUMPI PUSH2 0x458 PUSH2 0x59B JUMP JUMPDEST JUMPDEST PUSH2 0x462 DUP3 PUSH2 0x5DE JUMP JUMPDEST SWAP1 POP PUSH1 0x20 DUP2 ADD SWAP1 POP SWAP2 SWAP1 POP JUMP JUMPDEST PUSH1 0x0 DUP2 MLOAD SWAP1 POP SWAP2 SWAP1 POP JUMP JUMPDEST PUSH1 0x0 DUP3 DUP3 MSTORE PUSH1 0x20 DUP3 ADD SWAP1 POP SWAP3 SWAP2 POP POP JUMP JUMPDEST PUSH1 0x0 PUSH2 0x496 DUP3 PUSH2 0x49D JUMP JUMPDEST SWAP1 POP SWAP2 SWAP1 POP JUMP JUMPDEST PUSH1 0x0 PUSH20 0xFFFFFFFFFFFFFFFFFFFFFFFFFFFFFFFFFFFFFFFF DUP3 AND SWAP1 POP SWAP2 SWAP1 POP JUMP JUMPDEST PUSH1 0x0 DUP2 SWAP1 POP SWAP2 SWAP1 POP JUMP JUMPDEST DUP3 DUP2 DUP4 CALLDATACOPY PUSH1 0x0 DUP4 DUP4 ADD MSTORE POP POP POP JUMP JUMPDEST PUSH1 0x0 JUMPDEST DUP4 DUP2 LT ISZERO PUSH2 0x4F4 JUMPI DUP1 DUP3 ADD MLOAD DUP2 DUP5 ADD MSTORE PUSH1 0x20 DUP2 ADD SWAP1 POP PUSH2 0x4D9 JUMP JUMPDEST DUP4 DUP2 GT ISZERO PUSH2 0x503 JUMPI PUSH1 0x0 DUP5 DUP5 ADD MSTORE JUMPDEST POP POP POP POP JUMP JUMPDEST PUSH1 0x0 PUSH1 0x2 DUP3 DIV SWAP1 POP PUSH1 0x1 DUP3 AND DUP1 PUSH2 0x521 JUMPI PUSH1 0x7F DUP3 AND SWAP2 POP JUMPDEST PUSH1 0x20 DUP3 LT DUP2 EQ ISZERO PUSH2 0x535 JUMPI PUSH2 0x534 PUSH2 0x56C JUMP JUMPDEST JUMPDEST POP SWAP2 SWAP1 POP JUMP JUMPDEST PUSH2 0x544 DUP3 PUSH2 0x5DE JUMP JUMPDEST DUP2 ADD DUP2 DUP2 LT PUSH8 0xFFFFFFFFFFFFFFFF DUP3 GT OR ISZERO PUSH2 0x563 JUMPI PUSH2 0x562 PUSH2 0x59B JUMP JUMPDEST JUMPDEST DUP1 PUSH1 0x40 MSTORE POP POP POP JUMP JUMPDEST PUSH32 0x4E487B7100000000000000000000000000000000000000000000000000000000 PUSH1 0x0 MSTORE PUSH1 0x22 PUSH1 0x4 MSTORE PUSH1 0x24 PUSH1 0x0 REVERT JUMPDEST PUSH32 0x4E487B7100000000000000000000000000000000000000000000000000000000 PUSH1 0x0 MSTORE PUSH1 0x41 PUSH1 0x4 MSTORE PUSH1 0x24 PUSH1 0x0 REVERT JUMPDEST PUSH1 0x0 DUP1 REVERT JUMPDEST PUSH1 0x0 DUP1 REVERT JUMPDEST PUSH1 0x0 DUP1 REVERT JUMPDEST PUSH1 0x0 DUP1 REVERT JUMPDEST PUSH1 0x0 PUSH1 0x1F NOT PUSH1 0x1F DUP4 ADD AND SWAP1 POP SWAP2 SWAP1 POP JUMP INVALID LOG2 PUSH5 0x6970667358 0x22 SLT KECCAK256 0x2B 0xE9 ADD PUSH26 0xEB7F5ED4A7F3C29B5DEA945C73BA49D454F5C501AFA26C6286D4 SDIV DUP9 PUSH5 0x736F6C6343 STOP ADDMOD SMOD STOP CALLER "
				},
				"gasEstimates": {
					"creation": {
						"codeDepositCost": "314600",
						"executionCost": "infinite",
						"totalCost": "infinite"
					},
					"external": {
						"demo(string)": "infinite",
						"getBalance()": "5057",
						"myAddr()": "2555",
						"myStr()": "infinite"
					}
				},
				"methodIdentifiers": {
					"demo(string)": "939a79ac",
					"getBalance()": "12065fe0",
					"myAddr()": "e665b266",
					"myStr()": "5a455c1c"
				}
			},
			"storageLayout": {
				"storage": [
					{
						"astId": 4,
						"contract": "contracts/Tipi_dannih.sol:Demo",
						"label": "myAddr",
						"offset": 0,
						"slot": "0",
						"type": "t_address"
					},
					{
						"astId": 16,
						"contract": "contracts/Tipi_dannih.sol:Demo",
						"label": "myStr",
						"offset": 0,
						"slot": "1",
						"type": "t_string_storage"
					}
				],
				"types": {
					"t_address": {
						"encoding": "inplace",
						"label": "address",
						"numberOfBytes": "20"
					},
					"t_string_storage": {
						"encoding": "bytes",
						"label": "string",
						"numberOfBytes": "32"
					}
				}
			},
			"userdoc": {
				"kind": "user",
				"methods": {},
				"version": 1
			}
		}
	}
}