{
	"contracts/tipi2.sol": {
		"Demo": {
			"abi": [
				{
					"inputs": [],
					"name": "currentStatus",
					"outputs": [
						{
							"internalType": "enum Demo.Status",
							"name": "",
							"type": "uint8"
						}
					],
					"stateMutability": "view",
					"type": "function"
				},
				{
					"inputs": [],
					"name": "delivered",
					"outputs": [],
					"stateMutability": "nonpayable",
					"type": "function"
				},
				{
					"inputs": [
						{
							"internalType": "uint256",
							"name": "",
							"type": "uint256"
						}
					],
					"name": "items",
					"outputs": [
						{
							"internalType": "uint256",
							"name": "",
							"type": "uint256"
						}
					],
					"stateMutability": "view",
					"type": "function"
				},
				{
					"inputs": [],
					"name": "pay",
					"outputs": [],
					"stateMutability": "nonpayable",
					"type": "function"
				}
			],
			"devdoc": {
				"kind": "dev",
				"methods": {},
				"version": 1
			},
			"evm": {
				"assembly": "    /* \"contracts/tipi2.sol\":62:383  contract Demo {\r... */\n  mstore(0x40, 0x80)\n  callvalue\n  dup1\n  iszero\n  tag_1\n  jumpi\n  0x00\n  dup1\n  revert\ntag_1:\n  pop\n  dataSize(sub_0)\n  dup1\n  dataOffset(sub_0)\n  0x00\n  codecopy\n  0x00\n  return\nstop\n\nsub_0: assembly {\n        /* \"contracts/tipi2.sol\":62:383  contract Demo {\r... */\n      mstore(0x40, 0x80)\n      callvalue\n      dup1\n      iszero\n      tag_1\n      jumpi\n      0x00\n      dup1\n      revert\n    tag_1:\n      pop\n      jumpi(tag_2, lt(calldatasize, 0x04))\n      shr(0xe0, calldataload(0x00))\n      dup1\n      0x1b9265b8\n      eq\n      tag_3\n      jumpi\n      dup1\n      0xbbdfbfba\n      eq\n      tag_4\n      jumpi\n      dup1\n      0xbfb231d2\n      eq\n      tag_5\n      jumpi\n      dup1\n      0xef8a9235\n      eq\n      tag_6\n      jumpi\n    tag_2:\n      0x00\n      dup1\n      revert\n        /* \"contracts/tipi2.sol\":221:289  function pay() public {\r... */\n    tag_3:\n      tag_7\n      tag_8\n      jump\t// in\n    tag_7:\n      stop\n        /* \"contracts/tipi2.sol\":301:380  function delivered() public {\r... */\n    tag_4:\n      tag_9\n      tag_10\n      jump\t// in\n    tag_9:\n      stop\n        /* \"contracts/tipi2.sol\":97:118  uint[10] public items */\n    tag_5:\n      tag_11\n      0x04\n      dup1\n      calldatasize\n      sub\n      dup2\n      add\n      swap1\n      tag_12\n      swap2\n      swap1\n      tag_13\n      jump\t// in\n    tag_12:\n      tag_14\n      jump\t// in\n    tag_11:\n      mload(0x40)\n      tag_15\n      swap2\n      swap1\n      tag_16\n      jump\t// in\n    tag_15:\n      mload(0x40)\n      dup1\n      swap2\n      sub\n      swap1\n      return\n        /* \"contracts/tipi2.sol\":185:212  Status public currentStatus */\n    tag_6:\n      tag_17\n      tag_18\n      jump\t// in\n    tag_17:\n      mload(0x40)\n      tag_19\n      swap2\n      swap1\n      tag_20\n      jump\t// in\n    tag_19:\n      mload(0x40)\n      dup1\n      swap2\n      sub\n      swap1\n      return\n        /* \"contracts/tipi2.sol\":221:289  function pay() public {\r... */\n    tag_8:\n        /* \"contracts/tipi2.sol\":270:281  Status.Paid */\n      0x00\n        /* \"contracts/tipi2.sol\":254:267  currentStatus */\n      0x0a\n      0x00\n        /* \"contracts/tipi2.sol\":254:281  currentStatus = Status.Paid */\n      0x0100\n      exp\n      dup2\n      sload\n      dup2\n      0xff\n      mul\n      not\n      and\n      swap1\n      dup4\n      0x02\n      dup2\n      gt\n      iszero\n      tag_22\n      jumpi\n      tag_23\n      tag_24\n      jump\t// in\n    tag_23:\n    tag_22:\n      mul\n      or\n      swap1\n      sstore\n      pop\n        /* \"contracts/tipi2.sol\":221:289  function pay() public {\r... */\n      jump\t// out\n        /* \"contracts/tipi2.sol\":301:380  function delivered() public {\r... */\n    tag_10:\n        /* \"contracts/tipi2.sol\":356:372  Status.Delivered */\n      0x01\n        /* \"contracts/tipi2.sol\":340:353  currentStatus */\n      0x0a\n      0x00\n        /* \"contracts/tipi2.sol\":340:372  currentStatus = Status.Delivered */\n      0x0100\n      exp\n      dup2\n      sload\n      dup2\n      0xff\n      mul\n      not\n      and\n      swap1\n      dup4\n      0x02\n      dup2\n      gt\n      iszero\n      tag_26\n      jumpi\n      tag_27\n      tag_24\n      jump\t// in\n    tag_27:\n    tag_26:\n      mul\n      or\n      swap1\n      sstore\n      pop\n        /* \"contracts/tipi2.sol\":301:380  function delivered() public {\r... */\n      jump\t// out\n        /* \"contracts/tipi2.sol\":97:118  uint[10] public items */\n    tag_14:\n      0x00\n      dup2\n      0x0a\n      dup2\n      lt\n      tag_28\n      jumpi\n      0x00\n      dup1\n      revert\n    tag_28:\n      add\n      0x00\n      swap2\n      pop\n      swap1\n      pop\n      sload\n      dup2\n      jump\t// out\n        /* \"contracts/tipi2.sol\":185:212  Status public currentStatus */\n    tag_18:\n      0x0a\n      0x00\n      swap1\n      sload\n      swap1\n      0x0100\n      exp\n      swap1\n      div\n      0xff\n      and\n      dup2\n      jump\t// out\n        /* \"#utility.yul\":7:146   */\n    tag_31:\n        /* \"#utility.yul\":53:58   */\n      0x00\n        /* \"#utility.yul\":91:97   */\n      dup2\n        /* \"#utility.yul\":78:98   */\n      calldataload\n        /* \"#utility.yul\":69:98   */\n      swap1\n      pop\n        /* \"#utility.yul\":107:140   */\n      tag_33\n        /* \"#utility.yul\":134:139   */\n      dup2\n        /* \"#utility.yul\":107:140   */\n      tag_34\n      jump\t// in\n    tag_33:\n        /* \"#utility.yul\":7:146   */\n      swap3\n      swap2\n      pop\n      pop\n      jump\t// out\n        /* \"#utility.yul\":152:481   */\n    tag_13:\n        /* \"#utility.yul\":211:217   */\n      0x00\n        /* \"#utility.yul\":260:262   */\n      0x20\n        /* \"#utility.yul\":248:257   */\n      dup3\n        /* \"#utility.yul\":239:246   */\n      dup5\n        /* \"#utility.yul\":235:258   */\n      sub\n        /* \"#utility.yul\":231:263   */\n      slt\n        /* \"#utility.yul\":228:347   */\n      iszero\n      tag_36\n      jumpi\n        /* \"#utility.yul\":266:345   */\n      tag_37\n      tag_38\n      jump\t// in\n    tag_37:\n        /* \"#utility.yul\":228:347   */\n    tag_36:\n        /* \"#utility.yul\":386:387   */\n      0x00\n        /* \"#utility.yul\":411:464   */\n      tag_39\n        /* \"#utility.yul\":456:463   */\n      dup5\n        /* \"#utility.yul\":447:453   */\n      dup3\n        /* \"#utility.yul\":436:445   */\n      dup6\n        /* \"#utility.yul\":432:454   */\n      add\n        /* \"#utility.yul\":411:464   */\n      tag_31\n      jump\t// in\n    tag_39:\n        /* \"#utility.yul\":401:464   */\n      swap2\n      pop\n        /* \"#utility.yul\":357:474   */\n      pop\n        /* \"#utility.yul\":152:481   */\n      swap3\n      swap2\n      pop\n      pop\n      jump\t// out\n        /* \"#utility.yul\":487:630   */\n    tag_40:\n        /* \"#utility.yul\":580:623   */\n      tag_42\n        /* \"#utility.yul\":617:622   */\n      dup2\n        /* \"#utility.yul\":580:623   */\n      tag_43\n      jump\t// in\n    tag_42:\n        /* \"#utility.yul\":575:578   */\n      dup3\n        /* \"#utility.yul\":568:624   */\n      mstore\n        /* \"#utility.yul\":487:630   */\n      pop\n      pop\n      jump\t// out\n        /* \"#utility.yul\":636:754   */\n    tag_44:\n        /* \"#utility.yul\":723:747   */\n      tag_46\n        /* \"#utility.yul\":741:746   */\n      dup2\n        /* \"#utility.yul\":723:747   */\n      tag_47\n      jump\t// in\n    tag_46:\n        /* \"#utility.yul\":718:721   */\n      dup3\n        /* \"#utility.yul\":711:748   */\n      mstore\n        /* \"#utility.yul\":636:754   */\n      pop\n      pop\n      jump\t// out\n        /* \"#utility.yul\":760:994   */\n    tag_20:\n        /* \"#utility.yul\":859:863   */\n      0x00\n        /* \"#utility.yul\":897:899   */\n      0x20\n        /* \"#utility.yul\":886:895   */\n      dup3\n        /* \"#utility.yul\":882:900   */\n      add\n        /* \"#utility.yul\":874:900   */\n      swap1\n      pop\n        /* \"#utility.yul\":910:987   */\n      tag_49\n        /* \"#utility.yul\":984:985   */\n      0x00\n        /* \"#utility.yul\":973:982   */\n      dup4\n        /* \"#utility.yul\":969:986   */\n      add\n        /* \"#utility.yul\":960:966   */\n      dup5\n        /* \"#utility.yul\":910:987   */\n      tag_40\n      jump\t// in\n    tag_49:\n        /* \"#utility.yul\":760:994   */\n      swap3\n      swap2\n      pop\n      pop\n      jump\t// out\n        /* \"#utility.yul\":1000:1222   */\n    tag_16:\n        /* \"#utility.yul\":1093:1097   */\n      0x00\n        /* \"#utility.yul\":1131:1133   */\n      0x20\n        /* \"#utility.yul\":1120:1129   */\n      dup3\n        /* \"#utility.yul\":1116:1134   */\n      add\n        /* \"#utility.yul\":1108:1134   */\n      swap1\n      pop\n        /* \"#utility.yul\":1144:1215   */\n      tag_51\n        /* \"#utility.yul\":1212:1213   */\n      0x00\n        /* \"#utility.yul\":1201:1210   */\n      dup4\n        /* \"#utility.yul\":1197:1214   */\n      add\n        /* \"#utility.yul\":1188:1194   */\n      dup5\n        /* \"#utility.yul\":1144:1215   */\n      tag_44\n      jump\t// in\n    tag_51:\n        /* \"#utility.yul\":1000:1222   */\n      swap3\n      swap2\n      pop\n      pop\n      jump\t// out\n        /* \"#utility.yul\":1309:1436   */\n    tag_54:\n        /* \"#utility.yul\":1354:1361   */\n      0x00\n        /* \"#utility.yul\":1383:1388   */\n      dup2\n        /* \"#utility.yul\":1372:1388   */\n      swap1\n      pop\n        /* \"#utility.yul\":1389:1430   */\n      tag_56\n        /* \"#utility.yul\":1424:1429   */\n      dup3\n        /* \"#utility.yul\":1389:1430   */\n      tag_57\n      jump\t// in\n    tag_56:\n        /* \"#utility.yul\":1309:1436   */\n      swap2\n      swap1\n      pop\n      jump\t// out\n        /* \"#utility.yul\":1442:1519   */\n    tag_47:\n        /* \"#utility.yul\":1479:1486   */\n      0x00\n        /* \"#utility.yul\":1508:1513   */\n      dup2\n        /* \"#utility.yul\":1497:1513   */\n      swap1\n      pop\n        /* \"#utility.yul\":1442:1519   */\n      swap2\n      swap1\n      pop\n      jump\t// out\n        /* \"#utility.yul\":1525:1652   */\n    tag_43:\n        /* \"#utility.yul\":1581:1590   */\n      0x00\n        /* \"#utility.yul\":1614:1646   */\n      tag_60\n        /* \"#utility.yul\":1640:1645   */\n      dup3\n        /* \"#utility.yul\":1614:1646   */\n      tag_54\n      jump\t// in\n    tag_60:\n        /* \"#utility.yul\":1601:1646   */\n      swap1\n      pop\n        /* \"#utility.yul\":1525:1652   */\n      swap2\n      swap1\n      pop\n      jump\t// out\n        /* \"#utility.yul\":1658:1838   */\n    tag_24:\n        /* \"#utility.yul\":1706:1783   */\n      0x4e487b7100000000000000000000000000000000000000000000000000000000\n        /* \"#utility.yul\":1703:1704   */\n      0x00\n        /* \"#utility.yul\":1696:1784   */\n      mstore\n        /* \"#utility.yul\":1803:1807   */\n      0x21\n        /* \"#utility.yul\":1800:1801   */\n      0x04\n        /* \"#utility.yul\":1793:1808   */\n      mstore\n        /* \"#utility.yul\":1827:1831   */\n      0x24\n        /* \"#utility.yul\":1824:1825   */\n      0x00\n        /* \"#utility.yul\":1817:1832   */\n      revert\n        /* \"#utility.yul\":1967:2084   */\n    tag_38:\n        /* \"#utility.yul\":2076:2077   */\n      0x00\n        /* \"#utility.yul\":2073:2074   */\n      dup1\n        /* \"#utility.yul\":2066:2078   */\n      revert\n        /* \"#utility.yul\":2090:2203   */\n    tag_57:\n        /* \"#utility.yul\":2171:2172   */\n      0x03\n        /* \"#utility.yul\":2164:2169   */\n      dup2\n        /* \"#utility.yul\":2161:2173   */\n      lt\n        /* \"#utility.yul\":2151:2197   */\n      tag_66\n      jumpi\n        /* \"#utility.yul\":2177:2195   */\n      tag_67\n      tag_24\n      jump\t// in\n    tag_67:\n        /* \"#utility.yul\":2151:2197   */\n    tag_66:\n        /* \"#utility.yul\":2090:2203   */\n      pop\n      jump\t// out\n        /* \"#utility.yul\":2209:2331   */\n    tag_34:\n        /* \"#utility.yul\":2282:2306   */\n      tag_69\n        /* \"#utility.yul\":2300:2305   */\n      dup2\n        /* \"#utility.yul\":2282:2306   */\n      tag_47\n      jump\t// in\n    tag_69:\n        /* \"#utility.yul\":2275:2280   */\n      dup2\n        /* \"#utility.yul\":2272:2307   */\n      eq\n        /* \"#utility.yul\":2262:2325   */\n      tag_70\n      jumpi\n        /* \"#utility.yul\":2321:2322   */\n      0x00\n        /* \"#utility.yul\":2318:2319   */\n      dup1\n        /* \"#utility.yul\":2311:2323   */\n      revert\n        /* \"#utility.yul\":2262:2325   */\n    tag_70:\n        /* \"#utility.yul\":2209:2331   */\n      pop\n      jump\t// out\n\n    auxdata: 0xa2646970667358221220241e36c2b6f781688dd3cd8ad7a9505eae18e9cae664133750d4bfda1b7944bf64736f6c63430008070033\n}\n",
				"bytecode": {
					"linkReferences": {},
					"object": "608060405234801561001057600080fd5b50610295806100206000396000f3fe608060405234801561001057600080fd5b506004361061004c5760003560e01c80631b9265b814610051578063bbdfbfba1461005b578063bfb231d214610065578063ef8a923514610095575b600080fd5b6100596100b3565b005b6100636100e0565b005b61007f600480360381019061007a9190610150565b61010d565b60405161008c91906101b6565b60405180910390f35b61009d610128565b6040516100aa919061019b565b60405180910390f35b6000600a60006101000a81548160ff021916908360028111156100d9576100d8610200565b5b0217905550565b6001600a60006101000a81548160ff0219169083600281111561010657610105610200565b5b0217905550565b600081600a811061011d57600080fd5b016000915090505481565b600a60009054906101000a900460ff1681565b60008135905061014a81610248565b92915050565b6000602082840312156101665761016561022f565b5b60006101748482850161013b565b91505092915050565b610186816101ee565b82525050565b610195816101e4565b82525050565b60006020820190506101b0600083018461017d565b92915050565b60006020820190506101cb600083018461018c565b92915050565b60008190506101df82610234565b919050565b6000819050919050565b60006101f9826101d1565b9050919050565b7f4e487b7100000000000000000000000000000000000000000000000000000000600052602160045260246000fd5b600080fd5b6003811061024557610244610200565b5b50565b610251816101e4565b811461025c57600080fd5b5056fea2646970667358221220241e36c2b6f781688dd3cd8ad7a9505eae18e9cae664133750d4bfda1b7944bf64736f6c63430008070033",
					"opcodes": "PUSH1 0x80 PUSH1 0x40 MSTORE CALLVALUE DUP1 ISZERO PUSH2 0x10 JUMPI PUSH1 0x0 DUP1 REVERT JUMPDEST POP PUSH2 0x295 DUP1 PUSH2 0x20 PUSH1 0x0 CODECOPY PUSH1 0x0 RETURN INVALID PUSH1 0x80 PUSH1 0x40 MSTORE CALLVALUE DUP1 ISZERO PUSH2 0x10 JUMPI PUSH1 0x0 DUP1 REVERT JUMPDEST POP PUSH1 0x4 CALLDATASIZE LT PUSH2 0x4C JUMPI PUSH1 0x0 CALLDATALOAD PUSH1 0xE0 SHR DUP1 PUSH4 0x1B9265B8 EQ PUSH2 0x51 JUMPI DUP1 PUSH4 0xBBDFBFBA EQ PUSH2 0x5B JUMPI DUP1 PUSH4 0xBFB231D2 EQ PUSH2 0x65 JUMPI DUP1 PUSH4 0xEF8A9235 EQ PUSH2 0x95 JUMPI JUMPDEST PUSH1 0x0 DUP1 REVERT JUMPDEST PUSH2 0x59 PUSH2 0xB3 JUMP JUMPDEST STOP JUMPDEST PUSH2 0x63 PUSH2 0xE0 JUMP JUMPDEST STOP JUMPDEST PUSH2 0x7F PUSH1 0x4 DUP1 CALLDATASIZE SUB DUP2 ADD SWAP1 PUSH2 0x7A SWAP2 SWAP1 PUSH2 0x150 JUMP JUMPDEST PUSH2 0x10D JUMP JUMPDEST PUSH1 0x40 MLOAD PUSH2 0x8C SWAP2 SWAP1 PUSH2 0x1B6 JUMP JUMPDEST PUSH1 0x40 MLOAD DUP1 SWAP2 SUB SWAP1 RETURN JUMPDEST PUSH2 0x9D PUSH2 0x128 JUMP JUMPDEST PUSH1 0x40 MLOAD PUSH2 0xAA SWAP2 SWAP1 PUSH2 0x19B JUMP JUMPDEST PUSH1 0x40 MLOAD DUP1 SWAP2 SUB SWAP1 RETURN JUMPDEST PUSH1 0x0 PUSH1 0xA PUSH1 0x0 PUSH2 0x100 EXP DUP2 SLOAD DUP2 PUSH1 0xFF MUL NOT AND SWAP1 DUP4 PUSH1 0x2 DUP2 GT ISZERO PUSH2 0xD9 JUMPI PUSH2 0xD8 PUSH2 0x200 JUMP JUMPDEST JUMPDEST MUL OR SWAP1 SSTORE POP JUMP JUMPDEST PUSH1 0x1 PUSH1 0xA PUSH1 0x0 PUSH2 0x100 EXP DUP2 SLOAD DUP2 PUSH1 0xFF MUL NOT AND SWAP1 DUP4 PUSH1 0x2 DUP2 GT ISZERO PUSH2 0x106 JUMPI PUSH2 0x105 PUSH2 0x200 JUMP JUMPDEST JUMPDEST MUL OR SWAP1 SSTORE POP JUMP JUMPDEST PUSH1 0x0 DUP2 PUSH1 0xA DUP2 LT PUSH2 0x11D JUMPI PUSH1 0x0 DUP1 REVERT JUMPDEST ADD PUSH1 0x0 SWAP2 POP SWAP1 POP SLOAD DUP2 JUMP JUMPDEST PUSH1 0xA PUSH1 0x0 SWAP1 SLOAD SWAP1 PUSH2 0x100 EXP SWAP1 DIV PUSH1 0xFF AND DUP2 JUMP JUMPDEST PUSH1 0x0 DUP2 CALLDATALOAD SWAP1 POP PUSH2 0x14A DUP2 PUSH2 0x248 JUMP JUMPDEST SWAP3 SWAP2 POP POP JUMP JUMPDEST PUSH1 0x0 PUSH1 0x20 DUP3 DUP5 SUB SLT ISZERO PUSH2 0x166 JUMPI PUSH2 0x165 PUSH2 0x22F JUMP JUMPDEST JUMPDEST PUSH1 0x0 PUSH2 0x174 DUP5 DUP3 DUP6 ADD PUSH2 0x13B JUMP JUMPDEST SWAP2 POP POP SWAP3 SWAP2 POP POP JUMP JUMPDEST PUSH2 0x186 DUP2 PUSH2 0x1EE JUMP JUMPDEST DUP3 MSTORE POP POP JUMP JUMPDEST PUSH2 0x195 DUP2 PUSH2 0x1E4 JUMP JUMPDEST DUP3 MSTORE POP POP JUMP JUMPDEST PUSH1 0x0 PUSH1 0x20 DUP3 ADD SWAP1 POP PUSH2 0x1B0 PUSH1 0x0 DUP4 ADD DUP5 PUSH2 0x17D JUMP JUMPDEST SWAP3 SWAP2 POP POP JUMP JUMPDEST PUSH1 0x0 PUSH1 0x20 DUP3 ADD SWAP1 POP PUSH2 0x1CB PUSH1 0x0 DUP4 ADD DUP5 PUSH2 0x18C JUMP JUMPDEST SWAP3 SWAP2 POP POP JUMP JUMPDEST PUSH1 0x0 DUP2 SWAP1 POP PUSH2 0x1DF DUP3 PUSH2 0x234 JUMP JUMPDEST SWAP2 SWAP1 POP JUMP JUMPDEST PUSH1 0x0 DUP2 SWAP1 POP SWAP2 SWAP1 POP JUMP JUMPDEST PUSH1 0x0 PUSH2 0x1F9 DUP3 PUSH2 0x1D1 JUMP JUMPDEST SWAP1 POP SWAP2 SWAP1 POP JUMP JUMPDEST PUSH32 0x4E487B7100000000000000000000000000000000000000000000000000000000 PUSH1 0x0 MSTORE PUSH1 0x21 PUSH1 0x4 MSTORE PUSH1 0x24 PUSH1 0x0 REVERT JUMPDEST PUSH1 0x0 DUP1 REVERT JUMPDEST PUSH1 0x3 DUP2 LT PUSH2 0x245 JUMPI PUSH2 0x244 PUSH2 0x200 JUMP JUMPDEST JUMPDEST POP JUMP JUMPDEST PUSH2 0x251 DUP2 PUSH2 0x1E4 JUMP JUMPDEST DUP2 EQ PUSH2 0x25C JUMPI PUSH1 0x0 DUP1 REVERT JUMPDEST POP JUMP INVALID LOG2 PUSH5 0x6970667358 0x22 SLT KECCAK256 0x24 0x1E CALLDATASIZE 0xC2 0xB6 0xF7 DUP2 PUSH9 0x8DD3CD8AD7A9505EAE XOR 0xE9 0xCA 0xE6 PUSH5 0x133750D4BF 0xDA SHL PUSH26 0x44BF64736F6C6343000807003300000000000000000000000000 "
				},
				"gasEstimates": {
					"creation": {
						"codeDepositCost": "132200",
						"executionCost": "177",
						"totalCost": "132377"
					},
					"external": {
						"currentStatus()": "2604",
						"delivered()": "24431",
						"items(uint256)": "infinite",
						"pay()": "24409"
					}
				},
				"methodIdentifiers": {
					"currentStatus()": "ef8a9235",
					"delivered()": "bbdfbfba",
					"items(uint256)": "bfb231d2",
					"pay()": "1b9265b8"
				}
			},
			"storageLayout": {
				"storage": [
					{
						"astId": 5,
						"contract": "contracts/tipi2.sol:Demo",
						"label": "items",
						"offset": 0,
						"slot": "0",
						"type": "t_array(t_uint256)10_storage"
					},
					{
						"astId": 12,
						"contract": "contracts/tipi2.sol:Demo",
						"label": "currentStatus",
						"offset": 0,
						"slot": "10",
						"type": "t_enum(Status)9"
					}
				],
				"types": {
					"t_array(t_uint256)10_storage": {
						"base": "t_uint256",
						"encoding": "inplace",
						"label": "uint256[10]",
						"numberOfBytes": "320"
					},
					"t_enum(Status)9": {
						"encoding": "inplace",
						"label": "enum Demo.Status",
						"numberOfBytes": "1"
					},
					"t_uint256": {
						"encoding": "inplace",
						"label": "uint256",
						"numberOfBytes": "32"
					}
				}
			},
			"userdoc": {
				"kind": "user",
				"methods": {},
				"version": 1
			}
		}
	}
}