{
	"contracts/tipi2.sol": {
		"Demo": {
			"abi": [
				{
					"inputs": [
						{
							"internalType": "address",
							"name": "",
							"type": "address"
						}
					],
					"name": "balances",
					"outputs": [
						{
							"internalType": "uint256",
							"name": "totalPayments",
							"type": "uint256"
						}
					],
					"stateMutability": "view",
					"type": "function"
				},
				{
					"inputs": [
						{
							"internalType": "address",
							"name": "_addr",
							"type": "address"
						},
						{
							"internalType": "uint256",
							"name": "_index",
							"type": "uint256"
						}
					],
					"name": "getPayment",
					"outputs": [
						{
							"components": [
								{
									"internalType": "uint256",
									"name": "amount",
									"type": "uint256"
								},
								{
									"internalType": "uint256",
									"name": "timestamp",
									"type": "uint256"
								},
								{
									"internalType": "address",
									"name": "from",
									"type": "address"
								},
								{
									"internalType": "string",
									"name": "message",
									"type": "string"
								}
							],
							"internalType": "struct Demo.Payment",
							"name": "",
							"type": "tuple"
						}
					],
					"stateMutability": "view",
					"type": "function"
				},
				{
					"inputs": [
						{
							"internalType": "string",
							"name": "message",
							"type": "string"
						}
					],
					"name": "pay",
					"outputs": [],
					"stateMutability": "payable",
					"type": "function"
				},
				{
					"inputs": [],
					"name": "sampleMemory",
					"outputs": [
						{
							"internalType": "uint256[]",
							"name": "",
							"type": "uint256[]"
						}
					],
					"stateMutability": "view",
					"type": "function"
				}
			],
			"devdoc": {
				"kind": "dev",
				"methods": {},
				"version": 1
			},
			"evm": {
				"assembly": "    /* \"contracts/tipi2.sol\":62:1125  contract Demo {\r... */\n  mstore(0x40, 0x80)\n  callvalue\n  dup1\n  iszero\n  tag_1\n  jumpi\n  0x00\n  dup1\n  revert\ntag_1:\n  pop\n  dataSize(sub_0)\n  dup1\n  dataOffset(sub_0)\n  0x00\n  codecopy\n  0x00\n  return\nstop\n\nsub_0: assembly {\n        /* \"contracts/tipi2.sol\":62:1125  contract Demo {\r... */\n      mstore(0x40, 0x80)\n      jumpi(tag_1, lt(calldatasize, 0x04))\n      shr(0xe0, calldataload(0x00))\n      dup1\n      0x27e235e3\n      eq\n      tag_2\n      jumpi\n      dup1\n      0x2b66d72e\n      eq\n      tag_3\n      jumpi\n      dup1\n      0x977a767c\n      eq\n      tag_4\n      jumpi\n      dup1\n      0xa34343c9\n      eq\n      tag_5\n      jumpi\n    tag_1:\n      0x00\n      dup1\n      revert\n        /* \"contracts/tipi2.sol\":524:567  mapping(address => Balance) public balances */\n    tag_2:\n      callvalue\n      dup1\n      iszero\n      tag_6\n      jumpi\n      0x00\n      dup1\n      revert\n    tag_6:\n      pop\n      tag_7\n      0x04\n      dup1\n      calldatasize\n      sub\n      dup2\n      add\n      swap1\n      tag_8\n      swap2\n      swap1\n      tag_9\n      jump\t// in\n    tag_8:\n      tag_10\n      jump\t// in\n    tag_7:\n      mload(0x40)\n      tag_11\n      swap2\n      swap1\n      tag_12\n      jump\t// in\n    tag_11:\n      mload(0x40)\n      dup1\n      swap2\n      sub\n      swap1\n      return\n        /* \"contracts/tipi2.sol\":726:1122  function pay(string memory message) public payable {\r... */\n    tag_3:\n      tag_13\n      0x04\n      dup1\n      calldatasize\n      sub\n      dup2\n      add\n      swap1\n      tag_14\n      swap2\n      swap1\n      tag_15\n      jump\t// in\n    tag_14:\n      tag_16\n      jump\t// in\n    tag_13:\n      stop\n        /* \"contracts/tipi2.sol\":576:718  function getPayment(address _addr, uint _index) public view returns(Payment memory) {\r... */\n    tag_4:\n      callvalue\n      dup1\n      iszero\n      tag_17\n      jumpi\n      0x00\n      dup1\n      revert\n    tag_17:\n      pop\n      tag_18\n      0x04\n      dup1\n      calldatasize\n      sub\n      dup2\n      add\n      swap1\n      tag_19\n      swap2\n      swap1\n      tag_20\n      jump\t// in\n    tag_19:\n      tag_21\n      jump\t// in\n    tag_18:\n      mload(0x40)\n      tag_22\n      swap2\n      swap1\n      tag_23\n      jump\t// in\n    tag_22:\n      mload(0x40)\n      dup1\n      swap2\n      sub\n      swap1\n      return\n        /* \"contracts/tipi2.sol\":95:267  function sampleMemory() public view returns(uint[] memory) {\r... */\n    tag_5:\n      callvalue\n      dup1\n      iszero\n      tag_24\n      jumpi\n      0x00\n      dup1\n      revert\n    tag_24:\n      pop\n      tag_25\n      tag_26\n      jump\t// in\n    tag_25:\n      mload(0x40)\n      tag_27\n      swap2\n      swap1\n      tag_28\n      jump\t// in\n    tag_27:\n      mload(0x40)\n      dup1\n      swap2\n      sub\n      swap1\n      return\n        /* \"contracts/tipi2.sol\":524:567  mapping(address => Balance) public balances */\n    tag_10:\n      mstore(0x20, 0x00)\n      dup1\n      0x00\n      mstore\n      keccak256(0x00, 0x40)\n      0x00\n      swap2\n      pop\n      swap1\n      pop\n      dup1\n      0x00\n      add\n      sload\n      swap1\n      pop\n      dup2\n      jump\t// out\n        /* \"contracts/tipi2.sol\":726:1122  function pay(string memory message) public payable {\r... */\n    tag_16:\n        /* \"contracts/tipi2.sol\":788:803  uint paymentNum */\n      0x00\n        /* \"contracts/tipi2.sol\":806:814  balances */\n      dup1\n        /* \"contracts/tipi2.sol\":806:826  balances[msg.sender] */\n      0x00\n        /* \"contracts/tipi2.sol\":815:825  msg.sender */\n      caller\n        /* \"contracts/tipi2.sol\":806:826  balances[msg.sender] */\n      0xffffffffffffffffffffffffffffffffffffffff\n      and\n      0xffffffffffffffffffffffffffffffffffffffff\n      and\n      dup2\n      mstore\n      0x20\n      add\n      swap1\n      dup2\n      mstore\n      0x20\n      add\n      0x00\n      keccak256\n        /* \"contracts/tipi2.sol\":806:840  balances[msg.sender].totalPayments */\n      0x00\n      add\n      sload\n        /* \"contracts/tipi2.sol\":788:840  uint paymentNum = balances[msg.sender].totalPayments */\n      swap1\n      pop\n        /* \"contracts/tipi2.sol\":851:859  balances */\n      0x00\n        /* \"contracts/tipi2.sol\":851:871  balances[msg.sender] */\n      dup1\n        /* \"contracts/tipi2.sol\":860:870  msg.sender */\n      caller\n        /* \"contracts/tipi2.sol\":851:871  balances[msg.sender] */\n      0xffffffffffffffffffffffffffffffffffffffff\n      and\n      0xffffffffffffffffffffffffffffffffffffffff\n      and\n      dup2\n      mstore\n      0x20\n      add\n      swap1\n      dup2\n      mstore\n      0x20\n      add\n      0x00\n      keccak256\n        /* \"contracts/tipi2.sol\":851:885  balances[msg.sender].totalPayments */\n      0x00\n      add\n      0x00\n        /* \"contracts/tipi2.sol\":851:887  balances[msg.sender].totalPayments++ */\n      dup2\n      sload\n      dup1\n      swap3\n      swap2\n      swap1\n      tag_30\n      swap1\n      tag_31\n      jump\t// in\n    tag_30:\n      swap2\n      swap1\n      pop\n      sstore\n      pop\n        /* \"contracts/tipi2.sol\":900:925  Payment memory newPayment */\n      0x00\n        /* \"contracts/tipi2.sol\":928:1047  Payment(\r... */\n      mload(0x40)\n      dup1\n      0x80\n      add\n      0x40\n      mstore\n      dup1\n        /* \"contracts/tipi2.sol\":950:959  msg.value */\n      callvalue\n        /* \"contracts/tipi2.sol\":928:1047  Payment(\r... */\n      dup2\n      mstore\n      0x20\n      add\n        /* \"contracts/tipi2.sol\":974:989  block.timestamp */\n      timestamp\n        /* \"contracts/tipi2.sol\":928:1047  Payment(\r... */\n      dup2\n      mstore\n      0x20\n      add\n        /* \"contracts/tipi2.sol\":1004:1014  msg.sender */\n      caller\n        /* \"contracts/tipi2.sol\":928:1047  Payment(\r... */\n      0xffffffffffffffffffffffffffffffffffffffff\n      and\n      dup2\n      mstore\n      0x20\n      add\n        /* \"contracts/tipi2.sol\":1029:1036  message */\n      dup5\n        /* \"contracts/tipi2.sol\":928:1047  Payment(\r... */\n      dup2\n      mstore\n      pop\n        /* \"contracts/tipi2.sol\":900:1047  Payment memory newPayment = Payment(\r... */\n      swap1\n      pop\n        /* \"contracts/tipi2.sol\":1104:1114  newPayment */\n      dup1\n        /* \"contracts/tipi2.sol\":1060:1068  balances */\n      0x00\n        /* \"contracts/tipi2.sol\":1060:1080  balances[msg.sender] */\n      dup1\n        /* \"contracts/tipi2.sol\":1069:1079  msg.sender */\n      caller\n        /* \"contracts/tipi2.sol\":1060:1080  balances[msg.sender] */\n      0xffffffffffffffffffffffffffffffffffffffff\n      and\n      0xffffffffffffffffffffffffffffffffffffffff\n      and\n      dup2\n      mstore\n      0x20\n      add\n      swap1\n      dup2\n      mstore\n      0x20\n      add\n      0x00\n      keccak256\n        /* \"contracts/tipi2.sol\":1060:1089  balances[msg.sender].payments */\n      0x01\n      add\n        /* \"contracts/tipi2.sol\":1060:1101  balances[msg.sender].payments[paymentNum] */\n      0x00\n        /* \"contracts/tipi2.sol\":1090:1100  paymentNum */\n      dup5\n        /* \"contracts/tipi2.sol\":1060:1101  balances[msg.sender].payments[paymentNum] */\n      dup2\n      mstore\n      0x20\n      add\n      swap1\n      dup2\n      mstore\n      0x20\n      add\n      0x00\n      keccak256\n        /* \"contracts/tipi2.sol\":1060:1114  balances[msg.sender].payments[paymentNum] = newPayment */\n      0x00\n      dup3\n      add\n      mload\n      dup2\n      0x00\n      add\n      sstore\n      0x20\n      dup3\n      add\n      mload\n      dup2\n      0x01\n      add\n      sstore\n      0x40\n      dup3\n      add\n      mload\n      dup2\n      0x02\n      add\n      exp(0x0100, 0x00)\n      dup2\n      sload\n      dup2\n      0xffffffffffffffffffffffffffffffffffffffff\n      mul\n      not\n      and\n      swap1\n      dup4\n      0xffffffffffffffffffffffffffffffffffffffff\n      and\n      mul\n      or\n      swap1\n      sstore\n      pop\n      0x60\n      dup3\n      add\n      mload\n      dup2\n      0x03\n      add\n      swap1\n      dup1\n      mload\n      swap1\n      0x20\n      add\n      swap1\n      tag_32\n      swap3\n      swap2\n      swap1\n      tag_33\n      jump\t// in\n    tag_32:\n      pop\n      swap1\n      pop\n      pop\n        /* \"contracts/tipi2.sol\":777:1122  {\r... */\n      pop\n      pop\n        /* \"contracts/tipi2.sol\":726:1122  function pay(string memory message) public payable {\r... */\n      pop\n      jump\t// out\n        /* \"contracts/tipi2.sol\":576:718  function getPayment(address _addr, uint _index) public view returns(Payment memory) {\r... */\n    tag_21:\n        /* \"contracts/tipi2.sol\":644:658  Payment memory */\n      tag_34\n      tag_35\n      jump\t// in\n    tag_34:\n        /* \"contracts/tipi2.sol\":678:686  balances */\n      0x00\n        /* \"contracts/tipi2.sol\":678:693  balances[_addr] */\n      dup1\n        /* \"contracts/tipi2.sol\":687:692  _addr */\n      dup5\n        /* \"contracts/tipi2.sol\":678:693  balances[_addr] */\n      0xffffffffffffffffffffffffffffffffffffffff\n      and\n      0xffffffffffffffffffffffffffffffffffffffff\n      and\n      dup2\n      mstore\n      0x20\n      add\n      swap1\n      dup2\n      mstore\n      0x20\n      add\n      0x00\n      keccak256\n        /* \"contracts/tipi2.sol\":678:702  balances[_addr].payments */\n      0x01\n      add\n        /* \"contracts/tipi2.sol\":678:710  balances[_addr].payments[_index] */\n      0x00\n        /* \"contracts/tipi2.sol\":703:709  _index */\n      dup4\n        /* \"contracts/tipi2.sol\":678:710  balances[_addr].payments[_index] */\n      dup2\n      mstore\n      0x20\n      add\n      swap1\n      dup2\n      mstore\n      0x20\n      add\n      0x00\n      keccak256\n        /* \"contracts/tipi2.sol\":671:710  return balances[_addr].payments[_index] */\n      mload(0x40)\n      dup1\n      0x80\n      add\n      0x40\n      mstore\n      swap1\n      dup2\n      0x00\n      dup3\n      add\n      sload\n      dup2\n      mstore\n      0x20\n      add\n      0x01\n      dup3\n      add\n      sload\n      dup2\n      mstore\n      0x20\n      add\n      0x02\n      dup3\n      add\n      0x00\n      swap1\n      sload\n      swap1\n      0x0100\n      exp\n      swap1\n      div\n      0xffffffffffffffffffffffffffffffffffffffff\n      and\n      0xffffffffffffffffffffffffffffffffffffffff\n      and\n      0xffffffffffffffffffffffffffffffffffffffff\n      and\n      dup2\n      mstore\n      0x20\n      add\n      0x03\n      dup3\n      add\n      dup1\n      sload\n      tag_37\n      swap1\n      tag_38\n      jump\t// in\n    tag_37:\n      dup1\n      0x1f\n      add\n      0x20\n      dup1\n      swap2\n      div\n      mul\n      0x20\n      add\n      mload(0x40)\n      swap1\n      dup2\n      add\n      0x40\n      mstore\n      dup1\n      swap3\n      swap2\n      swap1\n      dup2\n      dup2\n      mstore\n      0x20\n      add\n      dup3\n      dup1\n      sload\n      tag_39\n      swap1\n      tag_38\n      jump\t// in\n    tag_39:\n      dup1\n      iszero\n      tag_40\n      jumpi\n      dup1\n      0x1f\n      lt\n      tag_41\n      jumpi\n      0x0100\n      dup1\n      dup4\n      sload\n      div\n      mul\n      dup4\n      mstore\n      swap2\n      0x20\n      add\n      swap2\n      jump(tag_40)\n    tag_41:\n      dup3\n      add\n      swap2\n      swap1\n      0x00\n      mstore\n      keccak256(0x00, 0x20)\n      swap1\n    tag_42:\n      dup2\n      sload\n      dup2\n      mstore\n      swap1\n      0x01\n      add\n      swap1\n      0x20\n      add\n      dup1\n      dup4\n      gt\n      tag_42\n      jumpi\n      dup3\n      swap1\n      sub\n      0x1f\n      and\n      dup3\n      add\n      swap2\n    tag_40:\n      pop\n      pop\n      pop\n      pop\n      pop\n      dup2\n      mstore\n      pop\n      pop\n      swap1\n      pop\n        /* \"contracts/tipi2.sol\":576:718  function getPayment(address _addr, uint _index) public view returns(Payment memory) {\r... */\n      swap3\n      swap2\n      pop\n      pop\n      jump\t// out\n        /* \"contracts/tipi2.sol\":95:267  function sampleMemory() public view returns(uint[] memory) {\r... */\n    tag_26:\n        /* \"contracts/tipi2.sol\":139:152  uint[] memory */\n      0x60\n        /* \"contracts/tipi2.sol\":165:188  uint[] memory tempArray */\n      0x00\n        /* \"contracts/tipi2.sol\":202:204  10 */\n      0x0a\n        /* \"contracts/tipi2.sol\":191:205  new uint[](10) */\n      0xffffffffffffffff\n      dup2\n      gt\n      iszero\n      tag_44\n      jumpi\n      tag_45\n      tag_46\n      jump\t// in\n    tag_45:\n    tag_44:\n      mload(0x40)\n      swap1\n      dup1\n      dup3\n      mstore\n      dup1\n      0x20\n      mul\n      0x20\n      add\n      dup3\n      add\n      0x40\n      mstore\n      dup1\n      iszero\n      tag_47\n      jumpi\n      dup2\n      0x20\n      add\n      0x20\n      dup3\n      mul\n      dup1\n      calldatasize\n      dup4\n      calldatacopy\n      dup1\n      dup3\n      add\n      swap2\n      pop\n      pop\n      swap1\n      pop\n    tag_47:\n      pop\n        /* \"contracts/tipi2.sol\":165:205  uint[] memory tempArray = new uint[](10) */\n      swap1\n      pop\n        /* \"contracts/tipi2.sol\":231:232  1 */\n      0x01\n        /* \"contracts/tipi2.sol\":216:225  tempArray */\n      dup2\n        /* \"contracts/tipi2.sol\":226:227  0 */\n      0x00\n        /* \"contracts/tipi2.sol\":216:228  tempArray[0] */\n      dup2\n      mload\n      dup2\n      lt\n      tag_48\n      jumpi\n      tag_49\n      tag_50\n      jump\t// in\n    tag_49:\n    tag_48:\n      0x20\n      mul\n      0x20\n      add\n      add\n        /* \"contracts/tipi2.sol\":216:232  tempArray[0] = 1 */\n      dup2\n      dup2\n      mstore\n      pop\n      pop\n        /* \"contracts/tipi2.sol\":250:259  tempArray */\n      dup1\n        /* \"contracts/tipi2.sol\":243:259  return tempArray */\n      swap2\n      pop\n      pop\n        /* \"contracts/tipi2.sol\":95:267  function sampleMemory() public view returns(uint[] memory) {\r... */\n      swap1\n      jump\t// out\n    tag_33:\n      dup3\n      dup1\n      sload\n      tag_51\n      swap1\n      tag_38\n      jump\t// in\n    tag_51:\n      swap1\n      0x00\n      mstore\n      keccak256(0x00, 0x20)\n      swap1\n      0x1f\n      add\n      0x20\n      swap1\n      div\n      dup2\n      add\n      swap3\n      dup3\n      tag_53\n      jumpi\n      0x00\n      dup6\n      sstore\n      jump(tag_52)\n    tag_53:\n      dup3\n      0x1f\n      lt\n      tag_54\n      jumpi\n      dup1\n      mload\n      not(0xff)\n      and\n      dup4\n      dup1\n      add\n      or\n      dup6\n      sstore\n      jump(tag_52)\n    tag_54:\n      dup3\n      dup1\n      add\n      0x01\n      add\n      dup6\n      sstore\n      dup3\n      iszero\n      tag_52\n      jumpi\n      swap2\n      dup3\n      add\n    tag_55:\n      dup3\n      dup2\n      gt\n      iszero\n      tag_56\n      jumpi\n      dup3\n      mload\n      dup3\n      sstore\n      swap2\n      0x20\n      add\n      swap2\n      swap1\n      0x01\n      add\n      swap1\n      jump(tag_55)\n    tag_56:\n    tag_52:\n      pop\n      swap1\n      pop\n      tag_57\n      swap2\n      swap1\n      tag_58\n      jump\t// in\n    tag_57:\n      pop\n      swap1\n      jump\t// out\n    tag_35:\n      mload(0x40)\n      dup1\n      0x80\n      add\n      0x40\n      mstore\n      dup1\n      0x00\n      dup2\n      mstore\n      0x20\n      add\n      0x00\n      dup2\n      mstore\n      0x20\n      add\n      and(0xffffffffffffffffffffffffffffffffffffffff, 0x00)\n      dup2\n      mstore\n      0x20\n      add\n      0x60\n      dup2\n      mstore\n      pop\n      swap1\n      jump\t// out\n    tag_58:\n    tag_59:\n      dup1\n      dup3\n      gt\n      iszero\n      tag_60\n      jumpi\n      0x00\n      dup2\n      0x00\n      swap1\n      sstore\n      pop\n      0x01\n      add\n      jump(tag_59)\n    tag_60:\n      pop\n      swap1\n      jump\t// out\n        /* \"#utility.yul\":7:419   */\n    tag_62:\n        /* \"#utility.yul\":85:90   */\n      0x00\n        /* \"#utility.yul\":110:176   */\n      tag_64\n        /* \"#utility.yul\":126:175   */\n      tag_65\n        /* \"#utility.yul\":168:174   */\n      dup5\n        /* \"#utility.yul\":126:175   */\n      tag_66\n      jump\t// in\n    tag_65:\n        /* \"#utility.yul\":110:176   */\n      tag_67\n      jump\t// in\n    tag_64:\n        /* \"#utility.yul\":101:176   */\n      swap1\n      pop\n        /* \"#utility.yul\":199:205   */\n      dup3\n        /* \"#utility.yul\":192:197   */\n      dup2\n        /* \"#utility.yul\":185:206   */\n      mstore\n        /* \"#utility.yul\":237:241   */\n      0x20\n        /* \"#utility.yul\":230:235   */\n      dup2\n        /* \"#utility.yul\":226:242   */\n      add\n        /* \"#utility.yul\":275:278   */\n      dup5\n        /* \"#utility.yul\":266:272   */\n      dup5\n        /* \"#utility.yul\":261:264   */\n      dup5\n        /* \"#utility.yul\":257:273   */\n      add\n        /* \"#utility.yul\":254:279   */\n      gt\n        /* \"#utility.yul\":251:363   */\n      iszero\n      tag_68\n      jumpi\n        /* \"#utility.yul\":282:361   */\n      tag_69\n      tag_70\n      jump\t// in\n    tag_69:\n        /* \"#utility.yul\":251:363   */\n    tag_68:\n        /* \"#utility.yul\":372:413   */\n      tag_71\n        /* \"#utility.yul\":406:412   */\n      dup5\n        /* \"#utility.yul\":401:404   */\n      dup3\n        /* \"#utility.yul\":396:399   */\n      dup6\n        /* \"#utility.yul\":372:413   */\n      tag_72\n      jump\t// in\n    tag_71:\n        /* \"#utility.yul\":91:419   */\n      pop\n        /* \"#utility.yul\":7:419   */\n      swap4\n      swap3\n      pop\n      pop\n      pop\n      jump\t// out\n        /* \"#utility.yul\":425:564   */\n    tag_73:\n        /* \"#utility.yul\":471:476   */\n      0x00\n        /* \"#utility.yul\":509:515   */\n      dup2\n        /* \"#utility.yul\":496:516   */\n      calldataload\n        /* \"#utility.yul\":487:516   */\n      swap1\n      pop\n        /* \"#utility.yul\":525:558   */\n      tag_75\n        /* \"#utility.yul\":552:557   */\n      dup2\n        /* \"#utility.yul\":525:558   */\n      tag_76\n      jump\t// in\n    tag_75:\n        /* \"#utility.yul\":425:564   */\n      swap3\n      swap2\n      pop\n      pop\n      jump\t// out\n        /* \"#utility.yul\":584:924   */\n    tag_77:\n        /* \"#utility.yul\":640:645   */\n      0x00\n        /* \"#utility.yul\":689:692   */\n      dup3\n        /* \"#utility.yul\":682:686   */\n      0x1f\n        /* \"#utility.yul\":674:680   */\n      dup4\n        /* \"#utility.yul\":670:687   */\n      add\n        /* \"#utility.yul\":666:693   */\n      slt\n        /* \"#utility.yul\":656:778   */\n      tag_79\n      jumpi\n        /* \"#utility.yul\":697:776   */\n      tag_80\n      tag_81\n      jump\t// in\n    tag_80:\n        /* \"#utility.yul\":656:778   */\n    tag_79:\n        /* \"#utility.yul\":814:820   */\n      dup2\n        /* \"#utility.yul\":801:821   */\n      calldataload\n        /* \"#utility.yul\":839:918   */\n      tag_82\n        /* \"#utility.yul\":914:917   */\n      dup5\n        /* \"#utility.yul\":906:912   */\n      dup3\n        /* \"#utility.yul\":899:903   */\n      0x20\n        /* \"#utility.yul\":891:897   */\n      dup7\n        /* \"#utility.yul\":887:904   */\n      add\n        /* \"#utility.yul\":839:918   */\n      tag_62\n      jump\t// in\n    tag_82:\n        /* \"#utility.yul\":830:918   */\n      swap2\n      pop\n        /* \"#utility.yul\":646:924   */\n      pop\n        /* \"#utility.yul\":584:924   */\n      swap3\n      swap2\n      pop\n      pop\n      jump\t// out\n        /* \"#utility.yul\":930:1069   */\n    tag_83:\n        /* \"#utility.yul\":976:981   */\n      0x00\n        /* \"#utility.yul\":1014:1020   */\n      dup2\n        /* \"#utility.yul\":1001:1021   */\n      calldataload\n        /* \"#utility.yul\":992:1021   */\n      swap1\n      pop\n        /* \"#utility.yul\":1030:1063   */\n      tag_85\n        /* \"#utility.yul\":1057:1062   */\n      dup2\n        /* \"#utility.yul\":1030:1063   */\n      tag_86\n      jump\t// in\n    tag_85:\n        /* \"#utility.yul\":930:1069   */\n      swap3\n      swap2\n      pop\n      pop\n      jump\t// out\n        /* \"#utility.yul\":1075:1404   */\n    tag_9:\n        /* \"#utility.yul\":1134:1140   */\n      0x00\n        /* \"#utility.yul\":1183:1185   */\n      0x20\n        /* \"#utility.yul\":1171:1180   */\n      dup3\n        /* \"#utility.yul\":1162:1169   */\n      dup5\n        /* \"#utility.yul\":1158:1181   */\n      sub\n        /* \"#utility.yul\":1154:1186   */\n      slt\n        /* \"#utility.yul\":1151:1270   */\n      iszero\n      tag_88\n      jumpi\n        /* \"#utility.yul\":1189:1268   */\n      tag_89\n      tag_90\n      jump\t// in\n    tag_89:\n        /* \"#utility.yul\":1151:1270   */\n    tag_88:\n        /* \"#utility.yul\":1309:1310   */\n      0x00\n        /* \"#utility.yul\":1334:1387   */\n      tag_91\n        /* \"#utility.yul\":1379:1386   */\n      dup5\n        /* \"#utility.yul\":1370:1376   */\n      dup3\n        /* \"#utility.yul\":1359:1368   */\n      dup6\n        /* \"#utility.yul\":1355:1377   */\n      add\n        /* \"#utility.yul\":1334:1387   */\n      tag_73\n      jump\t// in\n    tag_91:\n        /* \"#utility.yul\":1324:1387   */\n      swap2\n      pop\n        /* \"#utility.yul\":1280:1397   */\n      pop\n        /* \"#utility.yul\":1075:1404   */\n      swap3\n      swap2\n      pop\n      pop\n      jump\t// out\n        /* \"#utility.yul\":1410:1884   */\n    tag_20:\n        /* \"#utility.yul\":1478:1484   */\n      0x00\n        /* \"#utility.yul\":1486:1492   */\n      dup1\n        /* \"#utility.yul\":1535:1537   */\n      0x40\n        /* \"#utility.yul\":1523:1532   */\n      dup4\n        /* \"#utility.yul\":1514:1521   */\n      dup6\n        /* \"#utility.yul\":1510:1533   */\n      sub\n        /* \"#utility.yul\":1506:1538   */\n      slt\n        /* \"#utility.yul\":1503:1622   */\n      iszero\n      tag_93\n      jumpi\n        /* \"#utility.yul\":1541:1620   */\n      tag_94\n      tag_90\n      jump\t// in\n    tag_94:\n        /* \"#utility.yul\":1503:1622   */\n    tag_93:\n        /* \"#utility.yul\":1661:1662   */\n      0x00\n        /* \"#utility.yul\":1686:1739   */\n      tag_95\n        /* \"#utility.yul\":1731:1738   */\n      dup6\n        /* \"#utility.yul\":1722:1728   */\n      dup3\n        /* \"#utility.yul\":1711:1720   */\n      dup7\n        /* \"#utility.yul\":1707:1729   */\n      add\n        /* \"#utility.yul\":1686:1739   */\n      tag_73\n      jump\t// in\n    tag_95:\n        /* \"#utility.yul\":1676:1739   */\n      swap3\n      pop\n        /* \"#utility.yul\":1632:1749   */\n      pop\n        /* \"#utility.yul\":1788:1790   */\n      0x20\n        /* \"#utility.yul\":1814:1867   */\n      tag_96\n        /* \"#utility.yul\":1859:1866   */\n      dup6\n        /* \"#utility.yul\":1850:1856   */\n      dup3\n        /* \"#utility.yul\":1839:1848   */\n      dup7\n        /* \"#utility.yul\":1835:1857   */\n      add\n        /* \"#utility.yul\":1814:1867   */\n      tag_83\n      jump\t// in\n    tag_96:\n        /* \"#utility.yul\":1804:1867   */\n      swap2\n      pop\n        /* \"#utility.yul\":1759:1877   */\n      pop\n        /* \"#utility.yul\":1410:1884   */\n      swap3\n      pop\n      swap3\n      swap1\n      pop\n      jump\t// out\n        /* \"#utility.yul\":1890:2399   */\n    tag_15:\n        /* \"#utility.yul\":1959:1965   */\n      0x00\n        /* \"#utility.yul\":2008:2010   */\n      0x20\n        /* \"#utility.yul\":1996:2005   */\n      dup3\n        /* \"#utility.yul\":1987:1994   */\n      dup5\n        /* \"#utility.yul\":1983:2006   */\n      sub\n        /* \"#utility.yul\":1979:2011   */\n      slt\n        /* \"#utility.yul\":1976:2095   */\n      iszero\n      tag_98\n      jumpi\n        /* \"#utility.yul\":2014:2093   */\n      tag_99\n      tag_90\n      jump\t// in\n    tag_99:\n        /* \"#utility.yul\":1976:2095   */\n    tag_98:\n        /* \"#utility.yul\":2162:2163   */\n      0x00\n        /* \"#utility.yul\":2151:2160   */\n      dup3\n        /* \"#utility.yul\":2147:2164   */\n      add\n        /* \"#utility.yul\":2134:2165   */\n      calldataload\n        /* \"#utility.yul\":2192:2210   */\n      0xffffffffffffffff\n        /* \"#utility.yul\":2184:2190   */\n      dup2\n        /* \"#utility.yul\":2181:2211   */\n      gt\n        /* \"#utility.yul\":2178:2295   */\n      iszero\n      tag_100\n      jumpi\n        /* \"#utility.yul\":2214:2293   */\n      tag_101\n      tag_102\n      jump\t// in\n    tag_101:\n        /* \"#utility.yul\":2178:2295   */\n    tag_100:\n        /* \"#utility.yul\":2319:2382   */\n      tag_103\n        /* \"#utility.yul\":2374:2381   */\n      dup5\n        /* \"#utility.yul\":2365:2371   */\n      dup3\n        /* \"#utility.yul\":2354:2363   */\n      dup6\n        /* \"#utility.yul\":2350:2372   */\n      add\n        /* \"#utility.yul\":2319:2382   */\n      tag_77\n      jump\t// in\n    tag_103:\n        /* \"#utility.yul\":2309:2382   */\n      swap2\n      pop\n        /* \"#utility.yul\":2105:2392   */\n      pop\n        /* \"#utility.yul\":1890:2399   */\n      swap3\n      swap2\n      pop\n      pop\n      jump\t// out\n        /* \"#utility.yul\":2405:2584   */\n    tag_104:\n        /* \"#utility.yul\":2474:2484   */\n      0x00\n        /* \"#utility.yul\":2495:2541   */\n      tag_106\n        /* \"#utility.yul\":2537:2540   */\n      dup4\n        /* \"#utility.yul\":2529:2535   */\n      dup4\n        /* \"#utility.yul\":2495:2541   */\n      tag_107\n      jump\t// in\n    tag_106:\n        /* \"#utility.yul\":2573:2577   */\n      0x20\n        /* \"#utility.yul\":2568:2571   */\n      dup4\n        /* \"#utility.yul\":2564:2578   */\n      add\n        /* \"#utility.yul\":2550:2578   */\n      swap1\n      pop\n        /* \"#utility.yul\":2405:2584   */\n      swap3\n      swap2\n      pop\n      pop\n      jump\t// out\n        /* \"#utility.yul\":2590:2698   */\n    tag_108:\n        /* \"#utility.yul\":2667:2691   */\n      tag_110\n        /* \"#utility.yul\":2685:2690   */\n      dup2\n        /* \"#utility.yul\":2667:2691   */\n      tag_111\n      jump\t// in\n    tag_110:\n        /* \"#utility.yul\":2662:2665   */\n      dup3\n        /* \"#utility.yul\":2655:2692   */\n      mstore\n        /* \"#utility.yul\":2590:2698   */\n      pop\n      pop\n      jump\t// out\n        /* \"#utility.yul\":2734:3466   */\n    tag_112:\n        /* \"#utility.yul\":2853:2856   */\n      0x00\n        /* \"#utility.yul\":2882:2936   */\n      tag_114\n        /* \"#utility.yul\":2930:2935   */\n      dup3\n        /* \"#utility.yul\":2882:2936   */\n      tag_115\n      jump\t// in\n    tag_114:\n        /* \"#utility.yul\":2952:3038   */\n      tag_116\n        /* \"#utility.yul\":3031:3037   */\n      dup2\n        /* \"#utility.yul\":3026:3029   */\n      dup6\n        /* \"#utility.yul\":2952:3038   */\n      tag_117\n      jump\t// in\n    tag_116:\n        /* \"#utility.yul\":2945:3038   */\n      swap4\n      pop\n        /* \"#utility.yul\":3062:3118   */\n      tag_118\n        /* \"#utility.yul\":3112:3117   */\n      dup4\n        /* \"#utility.yul\":3062:3118   */\n      tag_119\n      jump\t// in\n    tag_118:\n        /* \"#utility.yul\":3141:3148   */\n      dup1\n        /* \"#utility.yul\":3172:3173   */\n      0x00\n        /* \"#utility.yul\":3157:3441   */\n    tag_120:\n        /* \"#utility.yul\":3182:3188   */\n      dup4\n        /* \"#utility.yul\":3179:3180   */\n      dup2\n        /* \"#utility.yul\":3176:3189   */\n      lt\n        /* \"#utility.yul\":3157:3441   */\n      iszero\n      tag_122\n      jumpi\n        /* \"#utility.yul\":3258:3264   */\n      dup2\n        /* \"#utility.yul\":3252:3265   */\n      mload\n        /* \"#utility.yul\":3285:3348   */\n      tag_123\n        /* \"#utility.yul\":3344:3347   */\n      dup9\n        /* \"#utility.yul\":3329:3342   */\n      dup3\n        /* \"#utility.yul\":3285:3348   */\n      tag_104\n      jump\t// in\n    tag_123:\n        /* \"#utility.yul\":3278:3348   */\n      swap8\n      pop\n        /* \"#utility.yul\":3371:3431   */\n      tag_124\n        /* \"#utility.yul\":3424:3430   */\n      dup4\n        /* \"#utility.yul\":3371:3431   */\n      tag_125\n      jump\t// in\n    tag_124:\n        /* \"#utility.yul\":3361:3431   */\n      swap3\n      pop\n        /* \"#utility.yul\":3217:3441   */\n      pop\n        /* \"#utility.yul\":3204:3205   */\n      0x01\n        /* \"#utility.yul\":3201:3202   */\n      dup2\n        /* \"#utility.yul\":3197:3206   */\n      add\n        /* \"#utility.yul\":3192:3206   */\n      swap1\n      pop\n        /* \"#utility.yul\":3157:3441   */\n      jump(tag_120)\n    tag_122:\n        /* \"#utility.yul\":3161:3175   */\n      pop\n        /* \"#utility.yul\":3457:3460   */\n      dup6\n        /* \"#utility.yul\":3450:3460   */\n      swap4\n      pop\n        /* \"#utility.yul\":2858:3466   */\n      pop\n      pop\n      pop\n        /* \"#utility.yul\":2734:3466   */\n      swap3\n      swap2\n      pop\n      pop\n      jump\t// out\n        /* \"#utility.yul\":3472:3816   */\n    tag_126:\n        /* \"#utility.yul\":3550:3553   */\n      0x00\n        /* \"#utility.yul\":3578:3617   */\n      tag_128\n        /* \"#utility.yul\":3611:3616   */\n      dup3\n        /* \"#utility.yul\":3578:3617   */\n      tag_129\n      jump\t// in\n    tag_128:\n        /* \"#utility.yul\":3633:3694   */\n      tag_130\n        /* \"#utility.yul\":3687:3693   */\n      dup2\n        /* \"#utility.yul\":3682:3685   */\n      dup6\n        /* \"#utility.yul\":3633:3694   */\n      tag_131\n      jump\t// in\n    tag_130:\n        /* \"#utility.yul\":3626:3694   */\n      swap4\n      pop\n        /* \"#utility.yul\":3703:3755   */\n      tag_132\n        /* \"#utility.yul\":3748:3754   */\n      dup2\n        /* \"#utility.yul\":3743:3746   */\n      dup6\n        /* \"#utility.yul\":3736:3740   */\n      0x20\n        /* \"#utility.yul\":3729:3734   */\n      dup7\n        /* \"#utility.yul\":3725:3741   */\n      add\n        /* \"#utility.yul\":3703:3755   */\n      tag_133\n      jump\t// in\n    tag_132:\n        /* \"#utility.yul\":3780:3809   */\n      tag_134\n        /* \"#utility.yul\":3802:3808   */\n      dup2\n        /* \"#utility.yul\":3780:3809   */\n      tag_135\n      jump\t// in\n    tag_134:\n        /* \"#utility.yul\":3775:3778   */\n      dup5\n        /* \"#utility.yul\":3771:3810   */\n      add\n        /* \"#utility.yul\":3764:3810   */\n      swap2\n      pop\n        /* \"#utility.yul\":3554:3816   */\n      pop\n        /* \"#utility.yul\":3472:3816   */\n      swap3\n      swap2\n      pop\n      pop\n      jump\t// out\n        /* \"#utility.yul\":3872:4832   */\n    tag_136:\n        /* \"#utility.yul\":3987:3990   */\n      0x00\n        /* \"#utility.yul\":4023:4027   */\n      0x80\n        /* \"#utility.yul\":4018:4021   */\n      dup4\n        /* \"#utility.yul\":4014:4028   */\n      add\n        /* \"#utility.yul\":4112:4116   */\n      0x00\n        /* \"#utility.yul\":4105:4110   */\n      dup4\n        /* \"#utility.yul\":4101:4117   */\n      add\n        /* \"#utility.yul\":4095:4118   */\n      mload\n        /* \"#utility.yul\":4131:4194   */\n      tag_138\n        /* \"#utility.yul\":4188:4192   */\n      0x00\n        /* \"#utility.yul\":4183:4186   */\n      dup7\n        /* \"#utility.yul\":4179:4193   */\n      add\n        /* \"#utility.yul\":4165:4177   */\n      dup3\n        /* \"#utility.yul\":4131:4194   */\n      tag_107\n      jump\t// in\n    tag_138:\n        /* \"#utility.yul\":4038:4204   */\n      pop\n        /* \"#utility.yul\":4291:4295   */\n      0x20\n        /* \"#utility.yul\":4284:4289   */\n      dup4\n        /* \"#utility.yul\":4280:4296   */\n      add\n        /* \"#utility.yul\":4274:4297   */\n      mload\n        /* \"#utility.yul\":4310:4373   */\n      tag_139\n        /* \"#utility.yul\":4367:4371   */\n      0x20\n        /* \"#utility.yul\":4362:4365   */\n      dup7\n        /* \"#utility.yul\":4358:4372   */\n      add\n        /* \"#utility.yul\":4344:4356   */\n      dup3\n        /* \"#utility.yul\":4310:4373   */\n      tag_107\n      jump\t// in\n    tag_139:\n        /* \"#utility.yul\":4214:4383   */\n      pop\n        /* \"#utility.yul\":4465:4469   */\n      0x40\n        /* \"#utility.yul\":4458:4463   */\n      dup4\n        /* \"#utility.yul\":4454:4470   */\n      add\n        /* \"#utility.yul\":4448:4471   */\n      mload\n        /* \"#utility.yul\":4484:4547   */\n      tag_140\n        /* \"#utility.yul\":4541:4545   */\n      0x40\n        /* \"#utility.yul\":4536:4539   */\n      dup7\n        /* \"#utility.yul\":4532:4546   */\n      add\n        /* \"#utility.yul\":4518:4530   */\n      dup3\n        /* \"#utility.yul\":4484:4547   */\n      tag_108\n      jump\t// in\n    tag_140:\n        /* \"#utility.yul\":4393:4557   */\n      pop\n        /* \"#utility.yul\":4642:4646   */\n      0x60\n        /* \"#utility.yul\":4635:4640   */\n      dup4\n        /* \"#utility.yul\":4631:4647   */\n      add\n        /* \"#utility.yul\":4625:4648   */\n      mload\n        /* \"#utility.yul\":4695:4698   */\n      dup5\n        /* \"#utility.yul\":4689:4693   */\n      dup3\n        /* \"#utility.yul\":4685:4699   */\n      sub\n        /* \"#utility.yul\":4678:4682   */\n      0x60\n        /* \"#utility.yul\":4673:4676   */\n      dup7\n        /* \"#utility.yul\":4669:4683   */\n      add\n        /* \"#utility.yul\":4662:4700   */\n      mstore\n        /* \"#utility.yul\":4721:4794   */\n      tag_141\n        /* \"#utility.yul\":4789:4793   */\n      dup3\n        /* \"#utility.yul\":4775:4787   */\n      dup3\n        /* \"#utility.yul\":4721:4794   */\n      tag_126\n      jump\t// in\n    tag_141:\n        /* \"#utility.yul\":4713:4794   */\n      swap2\n      pop\n        /* \"#utility.yul\":4567:4805   */\n      pop\n        /* \"#utility.yul\":4822:4826   */\n      dup1\n        /* \"#utility.yul\":4815:4826   */\n      swap2\n      pop\n        /* \"#utility.yul\":3992:4832   */\n      pop\n        /* \"#utility.yul\":3872:4832   */\n      swap3\n      swap2\n      pop\n      pop\n      jump\t// out\n        /* \"#utility.yul\":4838:4946   */\n    tag_107:\n        /* \"#utility.yul\":4915:4939   */\n      tag_143\n        /* \"#utility.yul\":4933:4938   */\n      dup2\n        /* \"#utility.yul\":4915:4939   */\n      tag_144\n      jump\t// in\n    tag_143:\n        /* \"#utility.yul\":4910:4913   */\n      dup3\n        /* \"#utility.yul\":4903:4940   */\n      mstore\n        /* \"#utility.yul\":4838:4946   */\n      pop\n      pop\n      jump\t// out\n        /* \"#utility.yul\":4952:5070   */\n    tag_145:\n        /* \"#utility.yul\":5039:5063   */\n      tag_147\n        /* \"#utility.yul\":5057:5062   */\n      dup2\n        /* \"#utility.yul\":5039:5063   */\n      tag_144\n      jump\t// in\n    tag_147:\n        /* \"#utility.yul\":5034:5037   */\n      dup3\n        /* \"#utility.yul\":5027:5064   */\n      mstore\n        /* \"#utility.yul\":4952:5070   */\n      pop\n      pop\n      jump\t// out\n        /* \"#utility.yul\":5076:5449   */\n    tag_28:\n        /* \"#utility.yul\":5219:5223   */\n      0x00\n        /* \"#utility.yul\":5257:5259   */\n      0x20\n        /* \"#utility.yul\":5246:5255   */\n      dup3\n        /* \"#utility.yul\":5242:5260   */\n      add\n        /* \"#utility.yul\":5234:5260   */\n      swap1\n      pop\n        /* \"#utility.yul\":5306:5315   */\n      dup2\n        /* \"#utility.yul\":5300:5304   */\n      dup2\n        /* \"#utility.yul\":5296:5316   */\n      sub\n        /* \"#utility.yul\":5292:5293   */\n      0x00\n        /* \"#utility.yul\":5281:5290   */\n      dup4\n        /* \"#utility.yul\":5277:5294   */\n      add\n        /* \"#utility.yul\":5270:5317   */\n      mstore\n        /* \"#utility.yul\":5334:5442   */\n      tag_149\n        /* \"#utility.yul\":5437:5441   */\n      dup2\n        /* \"#utility.yul\":5428:5434   */\n      dup5\n        /* \"#utility.yul\":5334:5442   */\n      tag_112\n      jump\t// in\n    tag_149:\n        /* \"#utility.yul\":5326:5442   */\n      swap1\n      pop\n        /* \"#utility.yul\":5076:5449   */\n      swap3\n      swap2\n      pop\n      pop\n      jump\t// out\n        /* \"#utility.yul\":5455:5820   */\n    tag_23:\n        /* \"#utility.yul\":5594:5598   */\n      0x00\n        /* \"#utility.yul\":5632:5634   */\n      0x20\n        /* \"#utility.yul\":5621:5630   */\n      dup3\n        /* \"#utility.yul\":5617:5635   */\n      add\n        /* \"#utility.yul\":5609:5635   */\n      swap1\n      pop\n        /* \"#utility.yul\":5681:5690   */\n      dup2\n        /* \"#utility.yul\":5675:5679   */\n      dup2\n        /* \"#utility.yul\":5671:5691   */\n      sub\n        /* \"#utility.yul\":5667:5668   */\n      0x00\n        /* \"#utility.yul\":5656:5665   */\n      dup4\n        /* \"#utility.yul\":5652:5669   */\n      add\n        /* \"#utility.yul\":5645:5692   */\n      mstore\n        /* \"#utility.yul\":5709:5813   */\n      tag_151\n        /* \"#utility.yul\":5808:5812   */\n      dup2\n        /* \"#utility.yul\":5799:5805   */\n      dup5\n        /* \"#utility.yul\":5709:5813   */\n      tag_136\n      jump\t// in\n    tag_151:\n        /* \"#utility.yul\":5701:5813   */\n      swap1\n      pop\n        /* \"#utility.yul\":5455:5820   */\n      swap3\n      swap2\n      pop\n      pop\n      jump\t// out\n        /* \"#utility.yul\":5826:6048   */\n    tag_12:\n        /* \"#utility.yul\":5919:5923   */\n      0x00\n        /* \"#utility.yul\":5957:5959   */\n      0x20\n        /* \"#utility.yul\":5946:5955   */\n      dup3\n        /* \"#utility.yul\":5942:5960   */\n      add\n        /* \"#utility.yul\":5934:5960   */\n      swap1\n      pop\n        /* \"#utility.yul\":5970:6041   */\n      tag_153\n        /* \"#utility.yul\":6038:6039   */\n      0x00\n        /* \"#utility.yul\":6027:6036   */\n      dup4\n        /* \"#utility.yul\":6023:6040   */\n      add\n        /* \"#utility.yul\":6014:6020   */\n      dup5\n        /* \"#utility.yul\":5970:6041   */\n      tag_145\n      jump\t// in\n    tag_153:\n        /* \"#utility.yul\":5826:6048   */\n      swap3\n      swap2\n      pop\n      pop\n      jump\t// out\n        /* \"#utility.yul\":6054:6183   */\n    tag_67:\n        /* \"#utility.yul\":6088:6094   */\n      0x00\n        /* \"#utility.yul\":6115:6135   */\n      tag_155\n      tag_156\n      jump\t// in\n    tag_155:\n        /* \"#utility.yul\":6105:6135   */\n      swap1\n      pop\n        /* \"#utility.yul\":6144:6177   */\n      tag_157\n        /* \"#utility.yul\":6172:6176   */\n      dup3\n        /* \"#utility.yul\":6164:6170   */\n      dup3\n        /* \"#utility.yul\":6144:6177   */\n      tag_158\n      jump\t// in\n    tag_157:\n        /* \"#utility.yul\":6054:6183   */\n      swap2\n      swap1\n      pop\n      jump\t// out\n        /* \"#utility.yul\":6189:6264   */\n    tag_156:\n        /* \"#utility.yul\":6222:6228   */\n      0x00\n        /* \"#utility.yul\":6255:6257   */\n      0x40\n        /* \"#utility.yul\":6249:6258   */\n      mload\n        /* \"#utility.yul\":6239:6258   */\n      swap1\n      pop\n        /* \"#utility.yul\":6189:6264   */\n      swap1\n      jump\t// out\n        /* \"#utility.yul\":6270:6578   */\n    tag_66:\n        /* \"#utility.yul\":6332:6336   */\n      0x00\n        /* \"#utility.yul\":6422:6440   */\n      0xffffffffffffffff\n        /* \"#utility.yul\":6414:6420   */\n      dup3\n        /* \"#utility.yul\":6411:6441   */\n      gt\n        /* \"#utility.yul\":6408:6464   */\n      iszero\n      tag_161\n      jumpi\n        /* \"#utility.yul\":6444:6462   */\n      tag_162\n      tag_46\n      jump\t// in\n    tag_162:\n        /* \"#utility.yul\":6408:6464   */\n    tag_161:\n        /* \"#utility.yul\":6482:6511   */\n      tag_163\n        /* \"#utility.yul\":6504:6510   */\n      dup3\n        /* \"#utility.yul\":6482:6511   */\n      tag_135\n      jump\t// in\n    tag_163:\n        /* \"#utility.yul\":6474:6511   */\n      swap1\n      pop\n        /* \"#utility.yul\":6566:6570   */\n      0x20\n        /* \"#utility.yul\":6560:6564   */\n      dup2\n        /* \"#utility.yul\":6556:6571   */\n      add\n        /* \"#utility.yul\":6548:6571   */\n      swap1\n      pop\n        /* \"#utility.yul\":6270:6578   */\n      swap2\n      swap1\n      pop\n      jump\t// out\n        /* \"#utility.yul\":6584:6716   */\n    tag_119:\n        /* \"#utility.yul\":6651:6655   */\n      0x00\n        /* \"#utility.yul\":6674:6677   */\n      dup2\n        /* \"#utility.yul\":6666:6677   */\n      swap1\n      pop\n        /* \"#utility.yul\":6704:6708   */\n      0x20\n        /* \"#utility.yul\":6699:6702   */\n      dup3\n        /* \"#utility.yul\":6695:6709   */\n      add\n        /* \"#utility.yul\":6687:6709   */\n      swap1\n      pop\n        /* \"#utility.yul\":6584:6716   */\n      swap2\n      swap1\n      pop\n      jump\t// out\n        /* \"#utility.yul\":6722:6836   */\n    tag_115:\n        /* \"#utility.yul\":6789:6795   */\n      0x00\n        /* \"#utility.yul\":6823:6828   */\n      dup2\n        /* \"#utility.yul\":6817:6829   */\n      mload\n        /* \"#utility.yul\":6807:6829   */\n      swap1\n      pop\n        /* \"#utility.yul\":6722:6836   */\n      swap2\n      swap1\n      pop\n      jump\t// out\n        /* \"#utility.yul\":6842:6941   */\n    tag_129:\n        /* \"#utility.yul\":6894:6900   */\n      0x00\n        /* \"#utility.yul\":6928:6933   */\n      dup2\n        /* \"#utility.yul\":6922:6934   */\n      mload\n        /* \"#utility.yul\":6912:6934   */\n      swap1\n      pop\n        /* \"#utility.yul\":6842:6941   */\n      swap2\n      swap1\n      pop\n      jump\t// out\n        /* \"#utility.yul\":6947:7060   */\n    tag_125:\n        /* \"#utility.yul\":7017:7021   */\n      0x00\n        /* \"#utility.yul\":7049:7053   */\n      0x20\n        /* \"#utility.yul\":7044:7047   */\n      dup3\n        /* \"#utility.yul\":7040:7054   */\n      add\n        /* \"#utility.yul\":7032:7054   */\n      swap1\n      pop\n        /* \"#utility.yul\":6947:7060   */\n      swap2\n      swap1\n      pop\n      jump\t// out\n        /* \"#utility.yul\":7066:7250   */\n    tag_117:\n        /* \"#utility.yul\":7165:7176   */\n      0x00\n        /* \"#utility.yul\":7199:7205   */\n      dup3\n        /* \"#utility.yul\":7194:7197   */\n      dup3\n        /* \"#utility.yul\":7187:7206   */\n      mstore\n        /* \"#utility.yul\":7239:7243   */\n      0x20\n        /* \"#utility.yul\":7234:7237   */\n      dup3\n        /* \"#utility.yul\":7230:7244   */\n      add\n        /* \"#utility.yul\":7215:7244   */\n      swap1\n      pop\n        /* \"#utility.yul\":7066:7250   */\n      swap3\n      swap2\n      pop\n      pop\n      jump\t// out\n        /* \"#utility.yul\":7256:7415   */\n    tag_131:\n        /* \"#utility.yul\":7330:7341   */\n      0x00\n        /* \"#utility.yul\":7364:7370   */\n      dup3\n        /* \"#utility.yul\":7359:7362   */\n      dup3\n        /* \"#utility.yul\":7352:7371   */\n      mstore\n        /* \"#utility.yul\":7404:7408   */\n      0x20\n        /* \"#utility.yul\":7399:7402   */\n      dup3\n        /* \"#utility.yul\":7395:7409   */\n      add\n        /* \"#utility.yul\":7380:7409   */\n      swap1\n      pop\n        /* \"#utility.yul\":7256:7415   */\n      swap3\n      swap2\n      pop\n      pop\n      jump\t// out\n        /* \"#utility.yul\":7421:7517   */\n    tag_111:\n        /* \"#utility.yul\":7458:7465   */\n      0x00\n        /* \"#utility.yul\":7487:7511   */\n      tag_171\n        /* \"#utility.yul\":7505:7510   */\n      dup3\n        /* \"#utility.yul\":7487:7511   */\n      tag_172\n      jump\t// in\n    tag_171:\n        /* \"#utility.yul\":7476:7511   */\n      swap1\n      pop\n        /* \"#utility.yul\":7421:7517   */\n      swap2\n      swap1\n      pop\n      jump\t// out\n        /* \"#utility.yul\":7523:7649   */\n    tag_172:\n        /* \"#utility.yul\":7560:7567   */\n      0x00\n        /* \"#utility.yul\":7600:7642   */\n      0xffffffffffffffffffffffffffffffffffffffff\n        /* \"#utility.yul\":7593:7598   */\n      dup3\n        /* \"#utility.yul\":7589:7643   */\n      and\n        /* \"#utility.yul\":7578:7643   */\n      swap1\n      pop\n        /* \"#utility.yul\":7523:7649   */\n      swap2\n      swap1\n      pop\n      jump\t// out\n        /* \"#utility.yul\":7655:7732   */\n    tag_144:\n        /* \"#utility.yul\":7692:7699   */\n      0x00\n        /* \"#utility.yul\":7721:7726   */\n      dup2\n        /* \"#utility.yul\":7710:7726   */\n      swap1\n      pop\n        /* \"#utility.yul\":7655:7732   */\n      swap2\n      swap1\n      pop\n      jump\t// out\n        /* \"#utility.yul\":7738:7892   */\n    tag_72:\n        /* \"#utility.yul\":7822:7828   */\n      dup3\n        /* \"#utility.yul\":7817:7820   */\n      dup2\n        /* \"#utility.yul\":7812:7815   */\n      dup4\n        /* \"#utility.yul\":7799:7829   */\n      calldatacopy\n        /* \"#utility.yul\":7884:7885   */\n      0x00\n        /* \"#utility.yul\":7875:7881   */\n      dup4\n        /* \"#utility.yul\":7870:7873   */\n      dup4\n        /* \"#utility.yul\":7866:7882   */\n      add\n        /* \"#utility.yul\":7859:7886   */\n      mstore\n        /* \"#utility.yul\":7738:7892   */\n      pop\n      pop\n      pop\n      jump\t// out\n        /* \"#utility.yul\":7898:8205   */\n    tag_133:\n        /* \"#utility.yul\":7966:7967   */\n      0x00\n        /* \"#utility.yul\":7976:8089   */\n    tag_177:\n        /* \"#utility.yul\":7990:7996   */\n      dup4\n        /* \"#utility.yul\":7987:7988   */\n      dup2\n        /* \"#utility.yul\":7984:7997   */\n      lt\n        /* \"#utility.yul\":7976:8089   */\n      iszero\n      tag_179\n      jumpi\n        /* \"#utility.yul\":8075:8076   */\n      dup1\n        /* \"#utility.yul\":8070:8073   */\n      dup3\n        /* \"#utility.yul\":8066:8077   */\n      add\n        /* \"#utility.yul\":8060:8078   */\n      mload\n        /* \"#utility.yul\":8056:8057   */\n      dup2\n        /* \"#utility.yul\":8051:8054   */\n      dup5\n        /* \"#utility.yul\":8047:8058   */\n      add\n        /* \"#utility.yul\":8040:8079   */\n      mstore\n        /* \"#utility.yul\":8012:8014   */\n      0x20\n        /* \"#utility.yul\":8009:8010   */\n      dup2\n        /* \"#utility.yul\":8005:8015   */\n      add\n        /* \"#utility.yul\":8000:8015   */\n      swap1\n      pop\n        /* \"#utility.yul\":7976:8089   */\n      jump(tag_177)\n    tag_179:\n        /* \"#utility.yul\":8107:8113   */\n      dup4\n        /* \"#utility.yul\":8104:8105   */\n      dup2\n        /* \"#utility.yul\":8101:8114   */\n      gt\n        /* \"#utility.yul\":8098:8199   */\n      iszero\n      tag_180\n      jumpi\n        /* \"#utility.yul\":8187:8188   */\n      0x00\n        /* \"#utility.yul\":8178:8184   */\n      dup5\n        /* \"#utility.yul\":8173:8176   */\n      dup5\n        /* \"#utility.yul\":8169:8185   */\n      add\n        /* \"#utility.yul\":8162:8189   */\n      mstore\n        /* \"#utility.yul\":8098:8199   */\n    tag_180:\n        /* \"#utility.yul\":7947:8205   */\n      pop\n        /* \"#utility.yul\":7898:8205   */\n      pop\n      pop\n      pop\n      jump\t// out\n        /* \"#utility.yul\":8211:8531   */\n    tag_38:\n        /* \"#utility.yul\":8255:8261   */\n      0x00\n        /* \"#utility.yul\":8292:8293   */\n      0x02\n        /* \"#utility.yul\":8286:8290   */\n      dup3\n        /* \"#utility.yul\":8282:8294   */\n      div\n        /* \"#utility.yul\":8272:8294   */\n      swap1\n      pop\n        /* \"#utility.yul\":8339:8340   */\n      0x01\n        /* \"#utility.yul\":8333:8337   */\n      dup3\n        /* \"#utility.yul\":8329:8341   */\n      and\n        /* \"#utility.yul\":8360:8378   */\n      dup1\n        /* \"#utility.yul\":8350:8431   */\n      tag_182\n      jumpi\n        /* \"#utility.yul\":8416:8420   */\n      0x7f\n        /* \"#utility.yul\":8408:8414   */\n      dup3\n        /* \"#utility.yul\":8404:8421   */\n      and\n        /* \"#utility.yul\":8394:8421   */\n      swap2\n      pop\n        /* \"#utility.yul\":8350:8431   */\n    tag_182:\n        /* \"#utility.yul\":8478:8480   */\n      0x20\n        /* \"#utility.yul\":8470:8476   */\n      dup3\n        /* \"#utility.yul\":8467:8481   */\n      lt\n        /* \"#utility.yul\":8447:8465   */\n      dup2\n        /* \"#utility.yul\":8444:8482   */\n      eq\n        /* \"#utility.yul\":8441:8525   */\n      iszero\n      tag_183\n      jumpi\n        /* \"#utility.yul\":8497:8515   */\n      tag_184\n      tag_185\n      jump\t// in\n    tag_184:\n        /* \"#utility.yul\":8441:8525   */\n    tag_183:\n        /* \"#utility.yul\":8262:8531   */\n      pop\n        /* \"#utility.yul\":8211:8531   */\n      swap2\n      swap1\n      pop\n      jump\t// out\n        /* \"#utility.yul\":8537:8818   */\n    tag_158:\n        /* \"#utility.yul\":8620:8647   */\n      tag_187\n        /* \"#utility.yul\":8642:8646   */\n      dup3\n        /* \"#utility.yul\":8620:8647   */\n      tag_135\n      jump\t// in\n    tag_187:\n        /* \"#utility.yul\":8612:8618   */\n      dup2\n        /* \"#utility.yul\":8608:8648   */\n      add\n        /* \"#utility.yul\":8750:8756   */\n      dup2\n        /* \"#utility.yul\":8738:8748   */\n      dup2\n        /* \"#utility.yul\":8735:8757   */\n      lt\n        /* \"#utility.yul\":8714:8732   */\n      0xffffffffffffffff\n        /* \"#utility.yul\":8702:8712   */\n      dup3\n        /* \"#utility.yul\":8699:8733   */\n      gt\n        /* \"#utility.yul\":8696:8758   */\n      or\n        /* \"#utility.yul\":8693:8781   */\n      iszero\n      tag_188\n      jumpi\n        /* \"#utility.yul\":8761:8779   */\n      tag_189\n      tag_46\n      jump\t// in\n    tag_189:\n        /* \"#utility.yul\":8693:8781   */\n    tag_188:\n        /* \"#utility.yul\":8801:8811   */\n      dup1\n        /* \"#utility.yul\":8797:8799   */\n      0x40\n        /* \"#utility.yul\":8790:8812   */\n      mstore\n        /* \"#utility.yul\":8580:8818   */\n      pop\n        /* \"#utility.yul\":8537:8818   */\n      pop\n      pop\n      jump\t// out\n        /* \"#utility.yul\":8824:9057   */\n    tag_31:\n        /* \"#utility.yul\":8863:8866   */\n      0x00\n        /* \"#utility.yul\":8886:8910   */\n      tag_191\n        /* \"#utility.yul\":8904:8909   */\n      dup3\n        /* \"#utility.yul\":8886:8910   */\n      tag_144\n      jump\t// in\n    tag_191:\n        /* \"#utility.yul\":8877:8910   */\n      swap2\n      pop\n        /* \"#utility.yul\":8932:8998   */\n      0xffffffffffffffffffffffffffffffffffffffffffffffffffffffffffffffff\n        /* \"#utility.yul\":8925:8930   */\n      dup3\n        /* \"#utility.yul\":8922:8999   */\n      eq\n        /* \"#utility.yul\":8919:9022   */\n      iszero\n      tag_192\n      jumpi\n        /* \"#utility.yul\":9002:9020   */\n      tag_193\n      tag_194\n      jump\t// in\n    tag_193:\n        /* \"#utility.yul\":8919:9022   */\n    tag_192:\n        /* \"#utility.yul\":9049:9050   */\n      0x01\n        /* \"#utility.yul\":9042:9047   */\n      dup3\n        /* \"#utility.yul\":9038:9051   */\n      add\n        /* \"#utility.yul\":9031:9051   */\n      swap1\n      pop\n        /* \"#utility.yul\":8824:9057   */\n      swap2\n      swap1\n      pop\n      jump\t// out\n        /* \"#utility.yul\":9063:9243   */\n    tag_194:\n        /* \"#utility.yul\":9111:9188   */\n      0x4e487b7100000000000000000000000000000000000000000000000000000000\n        /* \"#utility.yul\":9108:9109   */\n      0x00\n        /* \"#utility.yul\":9101:9189   */\n      mstore\n        /* \"#utility.yul\":9208:9212   */\n      0x11\n        /* \"#utility.yul\":9205:9206   */\n      0x04\n        /* \"#utility.yul\":9198:9213   */\n      mstore\n        /* \"#utility.yul\":9232:9236   */\n      0x24\n        /* \"#utility.yul\":9229:9230   */\n      0x00\n        /* \"#utility.yul\":9222:9237   */\n      revert\n        /* \"#utility.yul\":9249:9429   */\n    tag_185:\n        /* \"#utility.yul\":9297:9374   */\n      0x4e487b7100000000000000000000000000000000000000000000000000000000\n        /* \"#utility.yul\":9294:9295   */\n      0x00\n        /* \"#utility.yul\":9287:9375   */\n      mstore\n        /* \"#utility.yul\":9394:9398   */\n      0x22\n        /* \"#utility.yul\":9391:9392   */\n      0x04\n        /* \"#utility.yul\":9384:9399   */\n      mstore\n        /* \"#utility.yul\":9418:9422   */\n      0x24\n        /* \"#utility.yul\":9415:9416   */\n      0x00\n        /* \"#utility.yul\":9408:9423   */\n      revert\n        /* \"#utility.yul\":9435:9615   */\n    tag_50:\n        /* \"#utility.yul\":9483:9560   */\n      0x4e487b7100000000000000000000000000000000000000000000000000000000\n        /* \"#utility.yul\":9480:9481   */\n      0x00\n        /* \"#utility.yul\":9473:9561   */\n      mstore\n        /* \"#utility.yul\":9580:9584   */\n      0x32\n        /* \"#utility.yul\":9577:9578   */\n      0x04\n        /* \"#utility.yul\":9570:9585   */\n      mstore\n        /* \"#utility.yul\":9604:9608   */\n      0x24\n        /* \"#utility.yul\":9601:9602   */\n      0x00\n        /* \"#utility.yul\":9594:9609   */\n      revert\n        /* \"#utility.yul\":9621:9801   */\n    tag_46:\n        /* \"#utility.yul\":9669:9746   */\n      0x4e487b7100000000000000000000000000000000000000000000000000000000\n        /* \"#utility.yul\":9666:9667   */\n      0x00\n        /* \"#utility.yul\":9659:9747   */\n      mstore\n        /* \"#utility.yul\":9766:9770   */\n      0x41\n        /* \"#utility.yul\":9763:9764   */\n      0x04\n        /* \"#utility.yul\":9756:9771   */\n      mstore\n        /* \"#utility.yul\":9790:9794   */\n      0x24\n        /* \"#utility.yul\":9787:9788   */\n      0x00\n        /* \"#utility.yul\":9780:9795   */\n      revert\n        /* \"#utility.yul\":9807:9924   */\n    tag_81:\n        /* \"#utility.yul\":9916:9917   */\n      0x00\n        /* \"#utility.yul\":9913:9914   */\n      dup1\n        /* \"#utility.yul\":9906:9918   */\n      revert\n        /* \"#utility.yul\":9930:10047   */\n    tag_70:\n        /* \"#utility.yul\":10039:10040   */\n      0x00\n        /* \"#utility.yul\":10036:10037   */\n      dup1\n        /* \"#utility.yul\":10029:10041   */\n      revert\n        /* \"#utility.yul\":10053:10170   */\n    tag_102:\n        /* \"#utility.yul\":10162:10163   */\n      0x00\n        /* \"#utility.yul\":10159:10160   */\n      dup1\n        /* \"#utility.yul\":10152:10164   */\n      revert\n        /* \"#utility.yul\":10176:10293   */\n    tag_90:\n        /* \"#utility.yul\":10285:10286   */\n      0x00\n        /* \"#utility.yul\":10282:10283   */\n      dup1\n        /* \"#utility.yul\":10275:10287   */\n      revert\n        /* \"#utility.yul\":10299:10401   */\n    tag_135:\n        /* \"#utility.yul\":10340:10346   */\n      0x00\n        /* \"#utility.yul\":10391:10393   */\n      0x1f\n        /* \"#utility.yul\":10387:10394   */\n      not\n        /* \"#utility.yul\":10382:10384   */\n      0x1f\n        /* \"#utility.yul\":10375:10380   */\n      dup4\n        /* \"#utility.yul\":10371:10385   */\n      add\n        /* \"#utility.yul\":10367:10395   */\n      and\n        /* \"#utility.yul\":10357:10395   */\n      swap1\n      pop\n        /* \"#utility.yul\":10299:10401   */\n      swap2\n      swap1\n      pop\n      jump\t// out\n        /* \"#utility.yul\":10407:10529   */\n    tag_76:\n        /* \"#utility.yul\":10480:10504   */\n      tag_205\n        /* \"#utility.yul\":10498:10503   */\n      dup2\n        /* \"#utility.yul\":10480:10504   */\n      tag_111\n      jump\t// in\n    tag_205:\n        /* \"#utility.yul\":10473:10478   */\n      dup2\n        /* \"#utility.yul\":10470:10505   */\n      eq\n        /* \"#utility.yul\":10460:10523   */\n      tag_206\n      jumpi\n        /* \"#utility.yul\":10519:10520   */\n      0x00\n        /* \"#utility.yul\":10516:10517   */\n      dup1\n        /* \"#utility.yul\":10509:10521   */\n      revert\n        /* \"#utility.yul\":10460:10523   */\n    tag_206:\n        /* \"#utility.yul\":10407:10529   */\n      pop\n      jump\t// out\n        /* \"#utility.yul\":10535:10657   */\n    tag_86:\n        /* \"#utility.yul\":10608:10632   */\n      tag_208\n        /* \"#utility.yul\":10626:10631   */\n      dup2\n        /* \"#utility.yul\":10608:10632   */\n      tag_144\n      jump\t// in\n    tag_208:\n        /* \"#utility.yul\":10601:10606   */\n      dup2\n        /* \"#utility.yul\":10598:10633   */\n      eq\n        /* \"#utility.yul\":10588:10651   */\n      tag_209\n      jumpi\n        /* \"#utility.yul\":10647:10648   */\n      0x00\n        /* \"#utility.yul\":10644:10645   */\n      dup1\n        /* \"#utility.yul\":10637:10649   */\n      revert\n        /* \"#utility.yul\":10588:10651   */\n    tag_209:\n        /* \"#utility.yul\":10535:10657   */\n      pop\n      jump\t// out\n\n    auxdata: 0xa2646970667358221220c98b13363dfc45f5caf83a63994c498085c37433db099f18069fdba8d833b3f464736f6c63430008070033\n}\n",
				"bytecode": {
					"linkReferences": {},
					"object": "608060405234801561001057600080fd5b50610b99806100206000396000f3fe60806040526004361061003f5760003560e01c806327e235e3146100445780632b66d72e14610081578063977a767c1461009d578063a34343c9146100da575b600080fd5b34801561005057600080fd5b5061006b6004803603810190610066919061062b565b610105565b6040516100789190610864565b60405180910390f35b61009b60048036038101906100969190610698565b610123565b005b3480156100a957600080fd5b506100c460048036038101906100bf9190610658565b6102ce565b6040516100d19190610842565b60405180910390f35b3480156100e657600080fd5b506100ef610437565b6040516100fc9190610820565b60405180910390f35b60006020528060005260406000206000915090508060000154905081565b60008060003373ffffffffffffffffffffffffffffffffffffffff1673ffffffffffffffffffffffffffffffffffffffff1681526020019081526020016000206000015490506000803373ffffffffffffffffffffffffffffffffffffffff1673ffffffffffffffffffffffffffffffffffffffff16815260200190815260200160002060000160008154809291906101bb90610a0b565b9190505550600060405180608001604052803481526020014281526020013373ffffffffffffffffffffffffffffffffffffffff168152602001848152509050806000803373ffffffffffffffffffffffffffffffffffffffff1673ffffffffffffffffffffffffffffffffffffffff1681526020019081526020016000206001016000848152602001908152602001600020600082015181600001556020820151816001015560408201518160020160006101000a81548173ffffffffffffffffffffffffffffffffffffffff021916908373ffffffffffffffffffffffffffffffffffffffff16021790555060608201518160030190805190602001906102c59291906104b0565b50905050505050565b6102d6610536565b6000808473ffffffffffffffffffffffffffffffffffffffff1673ffffffffffffffffffffffffffffffffffffffff168152602001908152602001600020600101600083815260200190815260200160002060405180608001604052908160008201548152602001600182015481526020016002820160009054906101000a900473ffffffffffffffffffffffffffffffffffffffff1673ffffffffffffffffffffffffffffffffffffffff1673ffffffffffffffffffffffffffffffffffffffff1681526020016003820180546103ad906109a8565b80601f01602080910402602001604051908101604052809291908181526020018280546103d9906109a8565b80156104265780601f106103fb57610100808354040283529160200191610426565b820191906000526020600020905b81548152906001019060200180831161040957829003601f168201915b505050505081525050905092915050565b60606000600a67ffffffffffffffff81111561045657610455610ae1565b5b6040519080825280602002602001820160405280156104845781602001602082028036833780820191505090505b50905060018160008151811061049d5761049c610ab2565b5b6020026020010181815250508091505090565b8280546104bc906109a8565b90600052602060002090601f0160209004810192826104de5760008555610525565b82601f106104f757805160ff1916838001178555610525565b82800160010185558215610525579182015b82811115610524578251825591602001919060010190610509565b5b5090506105329190610574565b5090565b60405180608001604052806000815260200160008152602001600073ffffffffffffffffffffffffffffffffffffffff168152602001606081525090565b5b8082111561058d576000816000905550600101610575565b5090565b60006105a461059f846108a4565b61087f565b9050828152602081018484840111156105c0576105bf610b15565b5b6105cb848285610966565b509392505050565b6000813590506105e281610b35565b92915050565b600082601f8301126105fd576105fc610b10565b5b813561060d848260208601610591565b91505092915050565b60008135905061062581610b4c565b92915050565b60006020828403121561064157610640610b1f565b5b600061064f848285016105d3565b91505092915050565b6000806040838503121561066f5761066e610b1f565b5b600061067d858286016105d3565b925050602061068e85828601610616565b9150509250929050565b6000602082840312156106ae576106ad610b1f565b5b600082013567ffffffffffffffff8111156106cc576106cb610b1a565b5b6106d8848285016105e8565b91505092915050565b60006106ed8383610802565b60208301905092915050565b6107028161092a565b82525050565b6000610713826108e5565b61071d8185610908565b9350610728836108d5565b8060005b8381101561075957815161074088826106e1565b975061074b836108fb565b92505060018101905061072c565b5085935050505092915050565b6000610771826108f0565b61077b8185610919565b935061078b818560208601610975565b61079481610b24565b840191505092915050565b60006080830160008301516107b76000860182610802565b5060208301516107ca6020860182610802565b5060408301516107dd60408601826106f9565b50606083015184820360608601526107f58282610766565b9150508091505092915050565b61080b8161095c565b82525050565b61081a8161095c565b82525050565b6000602082019050818103600083015261083a8184610708565b905092915050565b6000602082019050818103600083015261085c818461079f565b905092915050565b60006020820190506108796000830184610811565b92915050565b600061088961089a565b905061089582826109da565b919050565b6000604051905090565b600067ffffffffffffffff8211156108bf576108be610ae1565b5b6108c882610b24565b9050602081019050919050565b6000819050602082019050919050565b600081519050919050565b600081519050919050565b6000602082019050919050565b600082825260208201905092915050565b600082825260208201905092915050565b60006109358261093c565b9050919050565b600073ffffffffffffffffffffffffffffffffffffffff82169050919050565b6000819050919050565b82818337600083830152505050565b60005b83811015610993578082015181840152602081019050610978565b838111156109a2576000848401525b50505050565b600060028204905060018216806109c057607f821691505b602082108114156109d4576109d3610a83565b5b50919050565b6109e382610b24565b810181811067ffffffffffffffff82111715610a0257610a01610ae1565b5b80604052505050565b6000610a168261095c565b91507fffffffffffffffffffffffffffffffffffffffffffffffffffffffffffffffff821415610a4957610a48610a54565b5b600182019050919050565b7f4e487b7100000000000000000000000000000000000000000000000000000000600052601160045260246000fd5b7f4e487b7100000000000000000000000000000000000000000000000000000000600052602260045260246000fd5b7f4e487b7100000000000000000000000000000000000000000000000000000000600052603260045260246000fd5b7f4e487b7100000000000000000000000000000000000000000000000000000000600052604160045260246000fd5b600080fd5b600080fd5b600080fd5b600080fd5b6000601f19601f8301169050919050565b610b3e8161092a565b8114610b4957600080fd5b50565b610b558161095c565b8114610b6057600080fd5b5056fea2646970667358221220c98b13363dfc45f5caf83a63994c498085c37433db099f18069fdba8d833b3f464736f6c63430008070033",
					"opcodes": "PUSH1 0x80 PUSH1 0x40 MSTORE CALLVALUE DUP1 ISZERO PUSH2 0x10 JUMPI PUSH1 0x0 DUP1 REVERT JUMPDEST POP PUSH2 0xB99 DUP1 PUSH2 0x20 PUSH1 0x0 CODECOPY PUSH1 0x0 RETURN INVALID PUSH1 0x80 PUSH1 0x40 MSTORE PUSH1 0x4 CALLDATASIZE LT PUSH2 0x3F JUMPI PUSH1 0x0 CALLDATALOAD PUSH1 0xE0 SHR DUP1 PUSH4 0x27E235E3 EQ PUSH2 0x44 JUMPI DUP1 PUSH4 0x2B66D72E EQ PUSH2 0x81 JUMPI DUP1 PUSH4 0x977A767C EQ PUSH2 0x9D JUMPI DUP1 PUSH4 0xA34343C9 EQ PUSH2 0xDA JUMPI JUMPDEST PUSH1 0x0 DUP1 REVERT JUMPDEST CALLVALUE DUP1 ISZERO PUSH2 0x50 JUMPI PUSH1 0x0 DUP1 REVERT JUMPDEST POP PUSH2 0x6B PUSH1 0x4 DUP1 CALLDATASIZE SUB DUP2 ADD SWAP1 PUSH2 0x66 SWAP2 SWAP1 PUSH2 0x62B JUMP JUMPDEST PUSH2 0x105 JUMP JUMPDEST PUSH1 0x40 MLOAD PUSH2 0x78 SWAP2 SWAP1 PUSH2 0x864 JUMP JUMPDEST PUSH1 0x40 MLOAD DUP1 SWAP2 SUB SWAP1 RETURN JUMPDEST PUSH2 0x9B PUSH1 0x4 DUP1 CALLDATASIZE SUB DUP2 ADD SWAP1 PUSH2 0x96 SWAP2 SWAP1 PUSH2 0x698 JUMP JUMPDEST PUSH2 0x123 JUMP JUMPDEST STOP JUMPDEST CALLVALUE DUP1 ISZERO PUSH2 0xA9 JUMPI PUSH1 0x0 DUP1 REVERT JUMPDEST POP PUSH2 0xC4 PUSH1 0x4 DUP1 CALLDATASIZE SUB DUP2 ADD SWAP1 PUSH2 0xBF SWAP2 SWAP1 PUSH2 0x658 JUMP JUMPDEST PUSH2 0x2CE JUMP JUMPDEST PUSH1 0x40 MLOAD PUSH2 0xD1 SWAP2 SWAP1 PUSH2 0x842 JUMP JUMPDEST PUSH1 0x40 MLOAD DUP1 SWAP2 SUB SWAP1 RETURN JUMPDEST CALLVALUE DUP1 ISZERO PUSH2 0xE6 JUMPI PUSH1 0x0 DUP1 REVERT JUMPDEST POP PUSH2 0xEF PUSH2 0x437 JUMP JUMPDEST PUSH1 0x40 MLOAD PUSH2 0xFC SWAP2 SWAP1 PUSH2 0x820 JUMP JUMPDEST PUSH1 0x40 MLOAD DUP1 SWAP2 SUB SWAP1 RETURN JUMPDEST PUSH1 0x0 PUSH1 0x20 MSTORE DUP1 PUSH1 0x0 MSTORE PUSH1 0x40 PUSH1 0x0 KECCAK256 PUSH1 0x0 SWAP2 POP SWAP1 POP DUP1 PUSH1 0x0 ADD SLOAD SWAP1 POP DUP2 JUMP JUMPDEST PUSH1 0x0 DUP1 PUSH1 0x0 CALLER PUSH20 0xFFFFFFFFFFFFFFFFFFFFFFFFFFFFFFFFFFFFFFFF AND PUSH20 0xFFFFFFFFFFFFFFFFFFFFFFFFFFFFFFFFFFFFFFFF AND DUP2 MSTORE PUSH1 0x20 ADD SWAP1 DUP2 MSTORE PUSH1 0x20 ADD PUSH1 0x0 KECCAK256 PUSH1 0x0 ADD SLOAD SWAP1 POP PUSH1 0x0 DUP1 CALLER PUSH20 0xFFFFFFFFFFFFFFFFFFFFFFFFFFFFFFFFFFFFFFFF AND PUSH20 0xFFFFFFFFFFFFFFFFFFFFFFFFFFFFFFFFFFFFFFFF AND DUP2 MSTORE PUSH1 0x20 ADD SWAP1 DUP2 MSTORE PUSH1 0x20 ADD PUSH1 0x0 KECCAK256 PUSH1 0x0 ADD PUSH1 0x0 DUP2 SLOAD DUP1 SWAP3 SWAP2 SWAP1 PUSH2 0x1BB SWAP1 PUSH2 0xA0B JUMP JUMPDEST SWAP2 SWAP1 POP SSTORE POP PUSH1 0x0 PUSH1 0x40 MLOAD DUP1 PUSH1 0x80 ADD PUSH1 0x40 MSTORE DUP1 CALLVALUE DUP2 MSTORE PUSH1 0x20 ADD TIMESTAMP DUP2 MSTORE PUSH1 0x20 ADD CALLER PUSH20 0xFFFFFFFFFFFFFFFFFFFFFFFFFFFFFFFFFFFFFFFF AND DUP2 MSTORE PUSH1 0x20 ADD DUP5 DUP2 MSTORE POP SWAP1 POP DUP1 PUSH1 0x0 DUP1 CALLER PUSH20 0xFFFFFFFFFFFFFFFFFFFFFFFFFFFFFFFFFFFFFFFF AND PUSH20 0xFFFFFFFFFFFFFFFFFFFFFFFFFFFFFFFFFFFFFFFF AND DUP2 MSTORE PUSH1 0x20 ADD SWAP1 DUP2 MSTORE PUSH1 0x20 ADD PUSH1 0x0 KECCAK256 PUSH1 0x1 ADD PUSH1 0x0 DUP5 DUP2 MSTORE PUSH1 0x20 ADD SWAP1 DUP2 MSTORE PUSH1 0x20 ADD PUSH1 0x0 KECCAK256 PUSH1 0x0 DUP3 ADD MLOAD DUP2 PUSH1 0x0 ADD SSTORE PUSH1 0x20 DUP3 ADD MLOAD DUP2 PUSH1 0x1 ADD SSTORE PUSH1 0x40 DUP3 ADD MLOAD DUP2 PUSH1 0x2 ADD PUSH1 0x0 PUSH2 0x100 EXP DUP2 SLOAD DUP2 PUSH20 0xFFFFFFFFFFFFFFFFFFFFFFFFFFFFFFFFFFFFFFFF MUL NOT AND SWAP1 DUP4 PUSH20 0xFFFFFFFFFFFFFFFFFFFFFFFFFFFFFFFFFFFFFFFF AND MUL OR SWAP1 SSTORE POP PUSH1 0x60 DUP3 ADD MLOAD DUP2 PUSH1 0x3 ADD SWAP1 DUP1 MLOAD SWAP1 PUSH1 0x20 ADD SWAP1 PUSH2 0x2C5 SWAP3 SWAP2 SWAP1 PUSH2 0x4B0 JUMP JUMPDEST POP SWAP1 POP POP POP POP POP JUMP JUMPDEST PUSH2 0x2D6 PUSH2 0x536 JUMP JUMPDEST PUSH1 0x0 DUP1 DUP5 PUSH20 0xFFFFFFFFFFFFFFFFFFFFFFFFFFFFFFFFFFFFFFFF AND PUSH20 0xFFFFFFFFFFFFFFFFFFFFFFFFFFFFFFFFFFFFFFFF AND DUP2 MSTORE PUSH1 0x20 ADD SWAP1 DUP2 MSTORE PUSH1 0x20 ADD PUSH1 0x0 KECCAK256 PUSH1 0x1 ADD PUSH1 0x0 DUP4 DUP2 MSTORE PUSH1 0x20 ADD SWAP1 DUP2 MSTORE PUSH1 0x20 ADD PUSH1 0x0 KECCAK256 PUSH1 0x40 MLOAD DUP1 PUSH1 0x80 ADD PUSH1 0x40 MSTORE SWAP1 DUP2 PUSH1 0x0 DUP3 ADD SLOAD DUP2 MSTORE PUSH1 0x20 ADD PUSH1 0x1 DUP3 ADD SLOAD DUP2 MSTORE PUSH1 0x20 ADD PUSH1 0x2 DUP3 ADD PUSH1 0x0 SWAP1 SLOAD SWAP1 PUSH2 0x100 EXP SWAP1 DIV PUSH20 0xFFFFFFFFFFFFFFFFFFFFFFFFFFFFFFFFFFFFFFFF AND PUSH20 0xFFFFFFFFFFFFFFFFFFFFFFFFFFFFFFFFFFFFFFFF AND PUSH20 0xFFFFFFFFFFFFFFFFFFFFFFFFFFFFFFFFFFFFFFFF AND DUP2 MSTORE PUSH1 0x20 ADD PUSH1 0x3 DUP3 ADD DUP1 SLOAD PUSH2 0x3AD SWAP1 PUSH2 0x9A8 JUMP JUMPDEST DUP1 PUSH1 0x1F ADD PUSH1 0x20 DUP1 SWAP2 DIV MUL PUSH1 0x20 ADD PUSH1 0x40 MLOAD SWAP1 DUP2 ADD PUSH1 0x40 MSTORE DUP1 SWAP3 SWAP2 SWAP1 DUP2 DUP2 MSTORE PUSH1 0x20 ADD DUP3 DUP1 SLOAD PUSH2 0x3D9 SWAP1 PUSH2 0x9A8 JUMP JUMPDEST DUP1 ISZERO PUSH2 0x426 JUMPI DUP1 PUSH1 0x1F LT PUSH2 0x3FB JUMPI PUSH2 0x100 DUP1 DUP4 SLOAD DIV MUL DUP4 MSTORE SWAP2 PUSH1 0x20 ADD SWAP2 PUSH2 0x426 JUMP JUMPDEST DUP3 ADD SWAP2 SWAP1 PUSH1 0x0 MSTORE PUSH1 0x20 PUSH1 0x0 KECCAK256 SWAP1 JUMPDEST DUP2 SLOAD DUP2 MSTORE SWAP1 PUSH1 0x1 ADD SWAP1 PUSH1 0x20 ADD DUP1 DUP4 GT PUSH2 0x409 JUMPI DUP3 SWAP1 SUB PUSH1 0x1F AND DUP3 ADD SWAP2 JUMPDEST POP POP POP POP POP DUP2 MSTORE POP POP SWAP1 POP SWAP3 SWAP2 POP POP JUMP JUMPDEST PUSH1 0x60 PUSH1 0x0 PUSH1 0xA PUSH8 0xFFFFFFFFFFFFFFFF DUP2 GT ISZERO PUSH2 0x456 JUMPI PUSH2 0x455 PUSH2 0xAE1 JUMP JUMPDEST JUMPDEST PUSH1 0x40 MLOAD SWAP1 DUP1 DUP3 MSTORE DUP1 PUSH1 0x20 MUL PUSH1 0x20 ADD DUP3 ADD PUSH1 0x40 MSTORE DUP1 ISZERO PUSH2 0x484 JUMPI DUP2 PUSH1 0x20 ADD PUSH1 0x20 DUP3 MUL DUP1 CALLDATASIZE DUP4 CALLDATACOPY DUP1 DUP3 ADD SWAP2 POP POP SWAP1 POP JUMPDEST POP SWAP1 POP PUSH1 0x1 DUP2 PUSH1 0x0 DUP2 MLOAD DUP2 LT PUSH2 0x49D JUMPI PUSH2 0x49C PUSH2 0xAB2 JUMP JUMPDEST JUMPDEST PUSH1 0x20 MUL PUSH1 0x20 ADD ADD DUP2 DUP2 MSTORE POP POP DUP1 SWAP2 POP POP SWAP1 JUMP JUMPDEST DUP3 DUP1 SLOAD PUSH2 0x4BC SWAP1 PUSH2 0x9A8 JUMP JUMPDEST SWAP1 PUSH1 0x0 MSTORE PUSH1 0x20 PUSH1 0x0 KECCAK256 SWAP1 PUSH1 0x1F ADD PUSH1 0x20 SWAP1 DIV DUP2 ADD SWAP3 DUP3 PUSH2 0x4DE JUMPI PUSH1 0x0 DUP6 SSTORE PUSH2 0x525 JUMP JUMPDEST DUP3 PUSH1 0x1F LT PUSH2 0x4F7 JUMPI DUP1 MLOAD PUSH1 0xFF NOT AND DUP4 DUP1 ADD OR DUP6 SSTORE PUSH2 0x525 JUMP JUMPDEST DUP3 DUP1 ADD PUSH1 0x1 ADD DUP6 SSTORE DUP3 ISZERO PUSH2 0x525 JUMPI SWAP2 DUP3 ADD JUMPDEST DUP3 DUP2 GT ISZERO PUSH2 0x524 JUMPI DUP3 MLOAD DUP3 SSTORE SWAP2 PUSH1 0x20 ADD SWAP2 SWAP1 PUSH1 0x1 ADD SWAP1 PUSH2 0x509 JUMP JUMPDEST JUMPDEST POP SWAP1 POP PUSH2 0x532 SWAP2 SWAP1 PUSH2 0x574 JUMP JUMPDEST POP SWAP1 JUMP JUMPDEST PUSH1 0x40 MLOAD DUP1 PUSH1 0x80 ADD PUSH1 0x40 MSTORE DUP1 PUSH1 0x0 DUP2 MSTORE PUSH1 0x20 ADD PUSH1 0x0 DUP2 MSTORE PUSH1 0x20 ADD PUSH1 0x0 PUSH20 0xFFFFFFFFFFFFFFFFFFFFFFFFFFFFFFFFFFFFFFFF AND DUP2 MSTORE PUSH1 0x20 ADD PUSH1 0x60 DUP2 MSTORE POP SWAP1 JUMP JUMPDEST JUMPDEST DUP1 DUP3 GT ISZERO PUSH2 0x58D JUMPI PUSH1 0x0 DUP2 PUSH1 0x0 SWAP1 SSTORE POP PUSH1 0x1 ADD PUSH2 0x575 JUMP JUMPDEST POP SWAP1 JUMP JUMPDEST PUSH1 0x0 PUSH2 0x5A4 PUSH2 0x59F DUP5 PUSH2 0x8A4 JUMP JUMPDEST PUSH2 0x87F JUMP JUMPDEST SWAP1 POP DUP3 DUP2 MSTORE PUSH1 0x20 DUP2 ADD DUP5 DUP5 DUP5 ADD GT ISZERO PUSH2 0x5C0 JUMPI PUSH2 0x5BF PUSH2 0xB15 JUMP JUMPDEST JUMPDEST PUSH2 0x5CB DUP5 DUP3 DUP6 PUSH2 0x966 JUMP JUMPDEST POP SWAP4 SWAP3 POP POP POP JUMP JUMPDEST PUSH1 0x0 DUP2 CALLDATALOAD SWAP1 POP PUSH2 0x5E2 DUP2 PUSH2 0xB35 JUMP JUMPDEST SWAP3 SWAP2 POP POP JUMP JUMPDEST PUSH1 0x0 DUP3 PUSH1 0x1F DUP4 ADD SLT PUSH2 0x5FD JUMPI PUSH2 0x5FC PUSH2 0xB10 JUMP JUMPDEST JUMPDEST DUP2 CALLDATALOAD PUSH2 0x60D DUP5 DUP3 PUSH1 0x20 DUP7 ADD PUSH2 0x591 JUMP JUMPDEST SWAP2 POP POP SWAP3 SWAP2 POP POP JUMP JUMPDEST PUSH1 0x0 DUP2 CALLDATALOAD SWAP1 POP PUSH2 0x625 DUP2 PUSH2 0xB4C JUMP JUMPDEST SWAP3 SWAP2 POP POP JUMP JUMPDEST PUSH1 0x0 PUSH1 0x20 DUP3 DUP5 SUB SLT ISZERO PUSH2 0x641 JUMPI PUSH2 0x640 PUSH2 0xB1F JUMP JUMPDEST JUMPDEST PUSH1 0x0 PUSH2 0x64F DUP5 DUP3 DUP6 ADD PUSH2 0x5D3 JUMP JUMPDEST SWAP2 POP POP SWAP3 SWAP2 POP POP JUMP JUMPDEST PUSH1 0x0 DUP1 PUSH1 0x40 DUP4 DUP6 SUB SLT ISZERO PUSH2 0x66F JUMPI PUSH2 0x66E PUSH2 0xB1F JUMP JUMPDEST JUMPDEST PUSH1 0x0 PUSH2 0x67D DUP6 DUP3 DUP7 ADD PUSH2 0x5D3 JUMP JUMPDEST SWAP3 POP POP PUSH1 0x20 PUSH2 0x68E DUP6 DUP3 DUP7 ADD PUSH2 0x616 JUMP JUMPDEST SWAP2 POP POP SWAP3 POP SWAP3 SWAP1 POP JUMP JUMPDEST PUSH1 0x0 PUSH1 0x20 DUP3 DUP5 SUB SLT ISZERO PUSH2 0x6AE JUMPI PUSH2 0x6AD PUSH2 0xB1F JUMP JUMPDEST JUMPDEST PUSH1 0x0 DUP3 ADD CALLDATALOAD PUSH8 0xFFFFFFFFFFFFFFFF DUP2 GT ISZERO PUSH2 0x6CC JUMPI PUSH2 0x6CB PUSH2 0xB1A JUMP JUMPDEST JUMPDEST PUSH2 0x6D8 DUP5 DUP3 DUP6 ADD PUSH2 0x5E8 JUMP JUMPDEST SWAP2 POP POP SWAP3 SWAP2 POP POP JUMP JUMPDEST PUSH1 0x0 PUSH2 0x6ED DUP4 DUP4 PUSH2 0x802 JUMP JUMPDEST PUSH1 0x20 DUP4 ADD SWAP1 POP SWAP3 SWAP2 POP POP JUMP JUMPDEST PUSH2 0x702 DUP2 PUSH2 0x92A JUMP JUMPDEST DUP3 MSTORE POP POP JUMP JUMPDEST PUSH1 0x0 PUSH2 0x713 DUP3 PUSH2 0x8E5 JUMP JUMPDEST PUSH2 0x71D DUP2 DUP6 PUSH2 0x908 JUMP JUMPDEST SWAP4 POP PUSH2 0x728 DUP4 PUSH2 0x8D5 JUMP JUMPDEST DUP1 PUSH1 0x0 JUMPDEST DUP4 DUP2 LT ISZERO PUSH2 0x759 JUMPI DUP2 MLOAD PUSH2 0x740 DUP9 DUP3 PUSH2 0x6E1 JUMP JUMPDEST SWAP8 POP PUSH2 0x74B DUP4 PUSH2 0x8FB JUMP JUMPDEST SWAP3 POP POP PUSH1 0x1 DUP2 ADD SWAP1 POP PUSH2 0x72C JUMP JUMPDEST POP DUP6 SWAP4 POP POP POP POP SWAP3 SWAP2 POP POP JUMP JUMPDEST PUSH1 0x0 PUSH2 0x771 DUP3 PUSH2 0x8F0 JUMP JUMPDEST PUSH2 0x77B DUP2 DUP6 PUSH2 0x919 JUMP JUMPDEST SWAP4 POP PUSH2 0x78B DUP2 DUP6 PUSH1 0x20 DUP7 ADD PUSH2 0x975 JUMP JUMPDEST PUSH2 0x794 DUP2 PUSH2 0xB24 JUMP JUMPDEST DUP5 ADD SWAP2 POP POP SWAP3 SWAP2 POP POP JUMP JUMPDEST PUSH1 0x0 PUSH1 0x80 DUP4 ADD PUSH1 0x0 DUP4 ADD MLOAD PUSH2 0x7B7 PUSH1 0x0 DUP7 ADD DUP3 PUSH2 0x802 JUMP JUMPDEST POP PUSH1 0x20 DUP4 ADD MLOAD PUSH2 0x7CA PUSH1 0x20 DUP7 ADD DUP3 PUSH2 0x802 JUMP JUMPDEST POP PUSH1 0x40 DUP4 ADD MLOAD PUSH2 0x7DD PUSH1 0x40 DUP7 ADD DUP3 PUSH2 0x6F9 JUMP JUMPDEST POP PUSH1 0x60 DUP4 ADD MLOAD DUP5 DUP3 SUB PUSH1 0x60 DUP7 ADD MSTORE PUSH2 0x7F5 DUP3 DUP3 PUSH2 0x766 JUMP JUMPDEST SWAP2 POP POP DUP1 SWAP2 POP POP SWAP3 SWAP2 POP POP JUMP JUMPDEST PUSH2 0x80B DUP2 PUSH2 0x95C JUMP JUMPDEST DUP3 MSTORE POP POP JUMP JUMPDEST PUSH2 0x81A DUP2 PUSH2 0x95C JUMP JUMPDEST DUP3 MSTORE POP POP JUMP JUMPDEST PUSH1 0x0 PUSH1 0x20 DUP3 ADD SWAP1 POP DUP2 DUP2 SUB PUSH1 0x0 DUP4 ADD MSTORE PUSH2 0x83A DUP2 DUP5 PUSH2 0x708 JUMP JUMPDEST SWAP1 POP SWAP3 SWAP2 POP POP JUMP JUMPDEST PUSH1 0x0 PUSH1 0x20 DUP3 ADD SWAP1 POP DUP2 DUP2 SUB PUSH1 0x0 DUP4 ADD MSTORE PUSH2 0x85C DUP2 DUP5 PUSH2 0x79F JUMP JUMPDEST SWAP1 POP SWAP3 SWAP2 POP POP JUMP JUMPDEST PUSH1 0x0 PUSH1 0x20 DUP3 ADD SWAP1 POP PUSH2 0x879 PUSH1 0x0 DUP4 ADD DUP5 PUSH2 0x811 JUMP JUMPDEST SWAP3 SWAP2 POP POP JUMP JUMPDEST PUSH1 0x0 PUSH2 0x889 PUSH2 0x89A JUMP JUMPDEST SWAP1 POP PUSH2 0x895 DUP3 DUP3 PUSH2 0x9DA JUMP JUMPDEST SWAP2 SWAP1 POP JUMP JUMPDEST PUSH1 0x0 PUSH1 0x40 MLOAD SWAP1 POP SWAP1 JUMP JUMPDEST PUSH1 0x0 PUSH8 0xFFFFFFFFFFFFFFFF DUP3 GT ISZERO PUSH2 0x8BF JUMPI PUSH2 0x8BE PUSH2 0xAE1 JUMP JUMPDEST JUMPDEST PUSH2 0x8C8 DUP3 PUSH2 0xB24 JUMP JUMPDEST SWAP1 POP PUSH1 0x20 DUP2 ADD SWAP1 POP SWAP2 SWAP1 POP JUMP JUMPDEST PUSH1 0x0 DUP2 SWAP1 POP PUSH1 0x20 DUP3 ADD SWAP1 POP SWAP2 SWAP1 POP JUMP JUMPDEST PUSH1 0x0 DUP2 MLOAD SWAP1 POP SWAP2 SWAP1 POP JUMP JUMPDEST PUSH1 0x0 DUP2 MLOAD SWAP1 POP SWAP2 SWAP1 POP JUMP JUMPDEST PUSH1 0x0 PUSH1 0x20 DUP3 ADD SWAP1 POP SWAP2 SWAP1 POP JUMP JUMPDEST PUSH1 0x0 DUP3 DUP3 MSTORE PUSH1 0x20 DUP3 ADD SWAP1 POP SWAP3 SWAP2 POP POP JUMP JUMPDEST PUSH1 0x0 DUP3 DUP3 MSTORE PUSH1 0x20 DUP3 ADD SWAP1 POP SWAP3 SWAP2 POP POP JUMP JUMPDEST PUSH1 0x0 PUSH2 0x935 DUP3 PUSH2 0x93C JUMP JUMPDEST SWAP1 POP SWAP2 SWAP1 POP JUMP JUMPDEST PUSH1 0x0 PUSH20 0xFFFFFFFFFFFFFFFFFFFFFFFFFFFFFFFFFFFFFFFF DUP3 AND SWAP1 POP SWAP2 SWAP1 POP JUMP JUMPDEST PUSH1 0x0 DUP2 SWAP1 POP SWAP2 SWAP1 POP JUMP JUMPDEST DUP3 DUP2 DUP4 CALLDATACOPY PUSH1 0x0 DUP4 DUP4 ADD MSTORE POP POP POP JUMP JUMPDEST PUSH1 0x0 JUMPDEST DUP4 DUP2 LT ISZERO PUSH2 0x993 JUMPI DUP1 DUP3 ADD MLOAD DUP2 DUP5 ADD MSTORE PUSH1 0x20 DUP2 ADD SWAP1 POP PUSH2 0x978 JUMP JUMPDEST DUP4 DUP2 GT ISZERO PUSH2 0x9A2 JUMPI PUSH1 0x0 DUP5 DUP5 ADD MSTORE JUMPDEST POP POP POP POP JUMP JUMPDEST PUSH1 0x0 PUSH1 0x2 DUP3 DIV SWAP1 POP PUSH1 0x1 DUP3 AND DUP1 PUSH2 0x9C0 JUMPI PUSH1 0x7F DUP3 AND SWAP2 POP JUMPDEST PUSH1 0x20 DUP3 LT DUP2 EQ ISZERO PUSH2 0x9D4 JUMPI PUSH2 0x9D3 PUSH2 0xA83 JUMP JUMPDEST JUMPDEST POP SWAP2 SWAP1 POP JUMP JUMPDEST PUSH2 0x9E3 DUP3 PUSH2 0xB24 JUMP JUMPDEST DUP2 ADD DUP2 DUP2 LT PUSH8 0xFFFFFFFFFFFFFFFF DUP3 GT OR ISZERO PUSH2 0xA02 JUMPI PUSH2 0xA01 PUSH2 0xAE1 JUMP JUMPDEST JUMPDEST DUP1 PUSH1 0x40 MSTORE POP POP POP JUMP JUMPDEST PUSH1 0x0 PUSH2 0xA16 DUP3 PUSH2 0x95C JUMP JUMPDEST SWAP2 POP PUSH32 0xFFFFFFFFFFFFFFFFFFFFFFFFFFFFFFFFFFFFFFFFFFFFFFFFFFFFFFFFFFFFFFFF DUP3 EQ ISZERO PUSH2 0xA49 JUMPI PUSH2 0xA48 PUSH2 0xA54 JUMP JUMPDEST JUMPDEST PUSH1 0x1 DUP3 ADD SWAP1 POP SWAP2 SWAP1 POP JUMP JUMPDEST PUSH32 0x4E487B7100000000000000000000000000000000000000000000000000000000 PUSH1 0x0 MSTORE PUSH1 0x11 PUSH1 0x4 MSTORE PUSH1 0x24 PUSH1 0x0 REVERT JUMPDEST PUSH32 0x4E487B7100000000000000000000000000000000000000000000000000000000 PUSH1 0x0 MSTORE PUSH1 0x22 PUSH1 0x4 MSTORE PUSH1 0x24 PUSH1 0x0 REVERT JUMPDEST PUSH32 0x4E487B7100000000000000000000000000000000000000000000000000000000 PUSH1 0x0 MSTORE PUSH1 0x32 PUSH1 0x4 MSTORE PUSH1 0x24 PUSH1 0x0 REVERT JUMPDEST PUSH32 0x4E487B7100000000000000000000000000000000000000000000000000000000 PUSH1 0x0 MSTORE PUSH1 0x41 PUSH1 0x4 MSTORE PUSH1 0x24 PUSH1 0x0 REVERT JUMPDEST PUSH1 0x0 DUP1 REVERT JUMPDEST PUSH1 0x0 DUP1 REVERT JUMPDEST PUSH1 0x0 DUP1 REVERT JUMPDEST PUSH1 0x0 DUP1 REVERT JUMPDEST PUSH1 0x0 PUSH1 0x1F NOT PUSH1 0x1F DUP4 ADD AND SWAP1 POP SWAP2 SWAP1 POP JUMP JUMPDEST PUSH2 0xB3E DUP2 PUSH2 0x92A JUMP JUMPDEST DUP2 EQ PUSH2 0xB49 JUMPI PUSH1 0x0 DUP1 REVERT JUMPDEST POP JUMP JUMPDEST PUSH2 0xB55 DUP2 PUSH2 0x95C JUMP JUMPDEST DUP2 EQ PUSH2 0xB60 JUMPI PUSH1 0x0 DUP1 REVERT JUMPDEST POP JUMP INVALID LOG2 PUSH5 0x6970667358 0x22 SLT KECCAK256 0xC9 DUP12 SGT CALLDATASIZE RETURNDATASIZE 0xFC GASLIMIT CREATE2 0xCA 0xF8 GASPRICE PUSH4 0x994C4980 DUP6 0xC3 PUSH21 0x33DB099F18069FDBA8D833B3F464736F6C63430008 SMOD STOP CALLER "
				},
				"gasEstimates": {
					"creation": {
						"codeDepositCost": "593800",
						"executionCost": "625",
						"totalCost": "594425"
					},
					"external": {
						"balances(address)": "2806",
						"getPayment(address,uint256)": "infinite",
						"pay(string)": "infinite",
						"sampleMemory()": "infinite"
					}
				},
				"methodIdentifiers": {
					"balances(address)": "27e235e3",
					"getPayment(address,uint256)": "977a767c",
					"pay(string)": "2b66d72e",
					"sampleMemory()": "a34343c9"
				}
			},
			"storageLayout": {
				"storage": [
					{
						"astId": 49,
						"contract": "contracts/tipi2.sol:Demo",
						"label": "balances",
						"offset": 0,
						"slot": "0",
						"type": "t_mapping(t_address,t_struct(Balance)44_storage)"
					}
				],
				"types": {
					"t_address": {
						"encoding": "inplace",
						"label": "address",
						"numberOfBytes": "20"
					},
					"t_mapping(t_address,t_struct(Balance)44_storage)": {
						"encoding": "mapping",
						"key": "t_address",
						"label": "mapping(address => struct Demo.Balance)",
						"numberOfBytes": "32",
						"value": "t_struct(Balance)44_storage"
					},
					"t_mapping(t_uint256,t_struct(Payment)36_storage)": {
						"encoding": "mapping",
						"key": "t_uint256",
						"label": "mapping(uint256 => struct Demo.Payment)",
						"numberOfBytes": "32",
						"value": "t_struct(Payment)36_storage"
					},
					"t_string_storage": {
						"encoding": "bytes",
						"label": "string",
						"numberOfBytes": "32"
					},
					"t_struct(Balance)44_storage": {
						"encoding": "inplace",
						"label": "struct Demo.Balance",
						"members": [
							{
								"astId": 38,
								"contract": "contracts/tipi2.sol:Demo",
								"label": "totalPayments",
								"offset": 0,
								"slot": "0",
								"type": "t_uint256"
							},
							{
								"astId": 43,
								"contract": "contracts/tipi2.sol:Demo",
								"label": "payments",
								"offset": 0,
								"slot": "1",
								"type": "t_mapping(t_uint256,t_struct(Payment)36_storage)"
							}
						],
						"numberOfBytes": "64"
					},
					"t_struct(Payment)36_storage": {
						"encoding": "inplace",
						"label": "struct Demo.Payment",
						"members": [
							{
								"astId": 29,
								"contract": "contracts/tipi2.sol:Demo",
								"label": "amount",
								"offset": 0,
								"slot": "0",
								"type": "t_uint256"
							},
							{
								"astId": 31,
								"contract": "contracts/tipi2.sol:Demo",
								"label": "timestamp",
								"offset": 0,
								"slot": "1",
								"type": "t_uint256"
							},
							{
								"astId": 33,
								"contract": "contracts/tipi2.sol:Demo",
								"label": "from",
								"offset": 0,
								"slot": "2",
								"type": "t_address"
							},
							{
								"astId": 35,
								"contract": "contracts/tipi2.sol:Demo",
								"label": "message",
								"offset": 0,
								"slot": "3",
								"type": "t_string_storage"
							}
						],
						"numberOfBytes": "128"
					},
					"t_uint256": {
						"encoding": "inplace",
						"label": "uint256",
						"numberOfBytes": "32"
					}
				}
			},
			"userdoc": {
				"kind": "user",
				"methods": {},
				"version": 1
			}
		}
	}
}