{
	"contracts/tipi2.sol": {
		"Demo": {
			"abi": [
				{
					"inputs": [
						{
							"internalType": "address",
							"name": "",
							"type": "address"
						}
					],
					"name": "balances",
					"outputs": [
						{
							"internalType": "uint256",
							"name": "totalPayments",
							"type": "uint256"
						}
					],
					"stateMutability": "view",
					"type": "function"
				},
				{
					"inputs": [],
					"name": "firstByte",
					"outputs": [
						{
							"internalType": "bytes1",
							"name": "",
							"type": "bytes1"
						}
					],
					"stateMutability": "view",
					"type": "function"
				},
				{
					"inputs": [],
					"name": "fixedSize",
					"outputs": [],
					"stateMutability": "nonpayable",
					"type": "function"
				},
				{
					"inputs": [
						{
							"internalType": "address",
							"name": "_addr",
							"type": "address"
						},
						{
							"internalType": "uint256",
							"name": "_index",
							"type": "uint256"
						}
					],
					"name": "getPayment",
					"outputs": [
						{
							"components": [
								{
									"internalType": "uint256",
									"name": "amount",
									"type": "uint256"
								},
								{
									"internalType": "uint256",
									"name": "timestamp",
									"type": "uint256"
								},
								{
									"internalType": "address",
									"name": "from",
									"type": "address"
								},
								{
									"internalType": "string",
									"name": "message",
									"type": "string"
								}
							],
							"internalType": "struct Demo.Payment",
							"name": "",
							"type": "tuple"
						}
					],
					"stateMutability": "view",
					"type": "function"
				},
				{
					"inputs": [
						{
							"internalType": "uint256",
							"name": "",
							"type": "uint256"
						},
						{
							"internalType": "uint256",
							"name": "",
							"type": "uint256"
						}
					],
					"name": "items",
					"outputs": [
						{
							"internalType": "uint256",
							"name": "",
							"type": "uint256"
						}
					],
					"stateMutability": "view",
					"type": "function"
				},
				{
					"inputs": [],
					"name": "myDynVar",
					"outputs": [
						{
							"internalType": "bytes",
							"name": "",
							"type": "bytes"
						}
					],
					"stateMutability": "view",
					"type": "function"
				},
				{
					"inputs": [],
					"name": "myVar",
					"outputs": [
						{
							"internalType": "bytes32",
							"name": "",
							"type": "bytes32"
						}
					],
					"stateMutability": "view",
					"type": "function"
				},
				{
					"inputs": [
						{
							"internalType": "string",
							"name": "message",
							"type": "string"
						}
					],
					"name": "pay",
					"outputs": [],
					"stateMutability": "payable",
					"type": "function"
				},
				{
					"inputs": [],
					"name": "sampleMemory",
					"outputs": [
						{
							"internalType": "uint256[]",
							"name": "",
							"type": "uint256[]"
						}
					],
					"stateMutability": "view",
					"type": "function"
				}
			],
			"devdoc": {
				"kind": "dev",
				"methods": {},
				"version": 1
			},
			"evm": {
				"assembly": "    /* \"contracts/tipi2.sol\":62:1567  contract Demo {\r... */\n  mstore(0x40, 0x80)\n    /* \"contracts/tipi2.sol\":468:502  bytes32 public myVar = \"test here\" */\n  sstore(0x06, 0x7465737420686572650000000000000000000000000000000000000000000000)\n    /* \"contracts/tipi2.sol\":518:553  bytes public myDynVar = \"test here\" */\n  mload(0x40)\n  dup1\n  0x40\n  add\n  0x40\n  mstore\n  dup1\n  0x09\n  dup2\n  mstore\n  0x20\n  add\n  0x7465737420686572650000000000000000000000000000000000000000000000\n  dup2\n  mstore\n  pop\n  0x07\n  swap1\n  dup1\n  mload\n  swap1\n  0x20\n  add\n  swap1\n  tag_1\n  swap3\n  swap2\n  swap1\n  tag_2\n  jump\t// in\ntag_1:\n  pop\n    /* \"contracts/tipi2.sol\":62:1567  contract Demo {\r... */\n  callvalue\n  dup1\n  iszero\n  tag_3\n  jumpi\n  0x00\n  dup1\n  revert\ntag_3:\n  pop\n  jump(tag_4)\ntag_2:\n  dup3\n  dup1\n  sload\n  tag_5\n  swap1\n  tag_6\n  jump\t// in\ntag_5:\n  swap1\n  0x00\n  mstore\n  keccak256(0x00, 0x20)\n  swap1\n  0x1f\n  add\n  0x20\n  swap1\n  div\n  dup2\n  add\n  swap3\n  dup3\n  tag_8\n  jumpi\n  0x00\n  dup6\n  sstore\n  jump(tag_7)\ntag_8:\n  dup3\n  0x1f\n  lt\n  tag_9\n  jumpi\n  dup1\n  mload\n  not(0xff)\n  and\n  dup4\n  dup1\n  add\n  or\n  dup6\n  sstore\n  jump(tag_7)\ntag_9:\n  dup3\n  dup1\n  add\n  0x01\n  add\n  dup6\n  sstore\n  dup3\n  iszero\n  tag_7\n  jumpi\n  swap2\n  dup3\n  add\ntag_10:\n  dup3\n  dup2\n  gt\n  iszero\n  tag_11\n  jumpi\n  dup3\n  mload\n  dup3\n  sstore\n  swap2\n  0x20\n  add\n  swap2\n  swap1\n  0x01\n  add\n  swap1\n  jump(tag_10)\ntag_11:\ntag_7:\n  pop\n  swap1\n  pop\n  tag_12\n  swap2\n  swap1\n  tag_13\n  jump\t// in\ntag_12:\n  pop\n  swap1\n  jump\t// out\ntag_13:\ntag_14:\n  dup1\n  dup3\n  gt\n  iszero\n  tag_15\n  jumpi\n  0x00\n  dup2\n  0x00\n  swap1\n  sstore\n  pop\n  0x01\n  add\n  jump(tag_14)\ntag_15:\n  pop\n  swap1\n  jump\t// out\n    /* \"#utility.yul\":7:327   */\ntag_6:\n    /* \"#utility.yul\":51:57   */\n  0x00\n    /* \"#utility.yul\":88:89   */\n  0x02\n    /* \"#utility.yul\":82:86   */\n  dup3\n    /* \"#utility.yul\":78:90   */\n  div\n    /* \"#utility.yul\":68:90   */\n  swap1\n  pop\n    /* \"#utility.yul\":135:136   */\n  0x01\n    /* \"#utility.yul\":129:133   */\n  dup3\n    /* \"#utility.yul\":125:137   */\n  and\n    /* \"#utility.yul\":156:174   */\n  dup1\n    /* \"#utility.yul\":146:227   */\n  tag_18\n  jumpi\n    /* \"#utility.yul\":212:216   */\n  0x7f\n    /* \"#utility.yul\":204:210   */\n  dup3\n    /* \"#utility.yul\":200:217   */\n  and\n    /* \"#utility.yul\":190:217   */\n  swap2\n  pop\n    /* \"#utility.yul\":146:227   */\ntag_18:\n    /* \"#utility.yul\":274:276   */\n  0x20\n    /* \"#utility.yul\":266:272   */\n  dup3\n    /* \"#utility.yul\":263:277   */\n  lt\n    /* \"#utility.yul\":243:261   */\n  dup2\n    /* \"#utility.yul\":240:278   */\n  eq\n    /* \"#utility.yul\":237:321   */\n  iszero\n  tag_19\n  jumpi\n    /* \"#utility.yul\":293:311   */\n  tag_20\n  tag_21\n  jump\t// in\ntag_20:\n    /* \"#utility.yul\":237:321   */\ntag_19:\n    /* \"#utility.yul\":58:327   */\n  pop\n    /* \"#utility.yul\":7:327   */\n  swap2\n  swap1\n  pop\n  jump\t// out\n    /* \"#utility.yul\":333:513   */\ntag_21:\n    /* \"#utility.yul\":381:458   */\n  0x4e487b7100000000000000000000000000000000000000000000000000000000\n    /* \"#utility.yul\":378:379   */\n  0x00\n    /* \"#utility.yul\":371:459   */\n  mstore\n    /* \"#utility.yul\":478:482   */\n  0x22\n    /* \"#utility.yul\":475:476   */\n  0x04\n    /* \"#utility.yul\":468:483   */\n  mstore\n    /* \"#utility.yul\":502:506   */\n  0x24\n    /* \"#utility.yul\":499:500   */\n  0x00\n    /* \"#utility.yul\":492:507   */\n  revert\n    /* \"contracts/tipi2.sol\":62:1567  contract Demo {\r... */\ntag_4:\n  dataSize(sub_0)\n  dup1\n  dataOffset(sub_0)\n  0x00\n  codecopy\n  0x00\n  return\nstop\n\nsub_0: assembly {\n        /* \"contracts/tipi2.sol\":62:1567  contract Demo {\r... */\n      mstore(0x40, 0x80)\n      jumpi(tag_1, lt(calldatasize, 0x04))\n      shr(0xe0, calldataload(0x00))\n      dup1\n      0x736172d3\n      gt\n      tag_11\n      jumpi\n      dup1\n      0x736172d3\n      eq\n      tag_6\n      jumpi\n      dup1\n      0x977a767c\n      eq\n      tag_7\n      jumpi\n      dup1\n      0xa34343c9\n      eq\n      tag_8\n      jumpi\n      dup1\n      0xc6b91540\n      eq\n      tag_9\n      jumpi\n      dup1\n      0xffb1e210\n      eq\n      tag_10\n      jumpi\n      jump(tag_1)\n    tag_11:\n      dup1\n      0x27e235e3\n      eq\n      tag_2\n      jumpi\n      dup1\n      0x2b66d72e\n      eq\n      tag_3\n      jumpi\n      dup1\n      0x31e838dd\n      eq\n      tag_4\n      jumpi\n      dup1\n      0x654c914f\n      eq\n      tag_5\n      jumpi\n    tag_1:\n      0x00\n      dup1\n      revert\n        /* \"contracts/tipi2.sol\":966:1009  mapping(address => Balance) public balances */\n    tag_2:\n      callvalue\n      dup1\n      iszero\n      tag_12\n      jumpi\n      0x00\n      dup1\n      revert\n    tag_12:\n      pop\n      tag_13\n      0x04\n      dup1\n      calldatasize\n      sub\n      dup2\n      add\n      swap1\n      tag_14\n      swap2\n      swap1\n      tag_15\n      jump\t// in\n    tag_14:\n      tag_16\n      jump\t// in\n    tag_13:\n      mload(0x40)\n      tag_17\n      swap2\n      swap1\n      tag_18\n      jump\t// in\n    tag_17:\n      mload(0x40)\n      dup1\n      swap2\n      sub\n      swap1\n      return\n        /* \"contracts/tipi2.sol\":1168:1564  function pay(string memory message) public payable {\r... */\n    tag_3:\n      tag_19\n      0x04\n      dup1\n      calldatasize\n      sub\n      dup2\n      add\n      swap1\n      tag_20\n      swap2\n      swap1\n      tag_21\n      jump\t// in\n    tag_20:\n      tag_22\n      jump\t// in\n    tag_19:\n      stop\n        /* \"contracts/tipi2.sol\":121:144  uint[3][2] public items */\n    tag_4:\n      callvalue\n      dup1\n      iszero\n      tag_23\n      jumpi\n      0x00\n      dup1\n      revert\n    tag_23:\n      pop\n      tag_24\n      0x04\n      dup1\n      calldatasize\n      sub\n      dup2\n      add\n      swap1\n      tag_25\n      swap2\n      swap1\n      tag_26\n      jump\t// in\n    tag_25:\n      tag_27\n      jump\t// in\n    tag_24:\n      mload(0x40)\n      tag_28\n      swap2\n      swap1\n      tag_18\n      jump\t// in\n    tag_28:\n      mload(0x40)\n      dup1\n      swap2\n      sub\n      swap1\n      return\n        /* \"contracts/tipi2.sol\":627:713  function firstByte() public view returns(bytes1) {\r... */\n    tag_5:\n      callvalue\n      dup1\n      iszero\n      tag_29\n      jumpi\n      0x00\n      dup1\n      revert\n    tag_29:\n      pop\n      tag_30\n      tag_31\n      jump\t// in\n    tag_30:\n      mload(0x40)\n      tag_32\n      swap2\n      swap1\n      tag_33\n      jump\t// in\n    tag_32:\n      mload(0x40)\n      dup1\n      swap2\n      sub\n      swap1\n      return\n        /* \"contracts/tipi2.sol\":153:263  function fixedSize() public {\r... */\n    tag_6:\n      callvalue\n      dup1\n      iszero\n      tag_34\n      jumpi\n      0x00\n      dup1\n      revert\n    tag_34:\n      pop\n      tag_35\n      tag_36\n      jump\t// in\n    tag_35:\n      stop\n        /* \"contracts/tipi2.sol\":1018:1160  function getPayment(address _addr, uint _index) public view returns(Payment memory) {\r... */\n    tag_7:\n      callvalue\n      dup1\n      iszero\n      tag_37\n      jumpi\n      0x00\n      dup1\n      revert\n    tag_37:\n      pop\n      tag_38\n      0x04\n      dup1\n      calldatasize\n      sub\n      dup2\n      add\n      swap1\n      tag_39\n      swap2\n      swap1\n      tag_40\n      jump\t// in\n    tag_39:\n      tag_41\n      jump\t// in\n    tag_38:\n      mload(0x40)\n      tag_42\n      swap2\n      swap1\n      tag_43\n      jump\t// in\n    tag_42:\n      mload(0x40)\n      dup1\n      swap2\n      sub\n      swap1\n      return\n        /* \"contracts/tipi2.sol\":275:447  function sampleMemory() public view returns(uint[] memory) {\r... */\n    tag_8:\n      callvalue\n      dup1\n      iszero\n      tag_44\n      jumpi\n      0x00\n      dup1\n      revert\n    tag_44:\n      pop\n      tag_45\n      tag_46\n      jump\t// in\n    tag_45:\n      mload(0x40)\n      tag_47\n      swap2\n      swap1\n      tag_48\n      jump\t// in\n    tag_47:\n      mload(0x40)\n      dup1\n      swap2\n      sub\n      swap1\n      return\n        /* \"contracts/tipi2.sol\":468:502  bytes32 public myVar = \"test here\" */\n    tag_9:\n      callvalue\n      dup1\n      iszero\n      tag_49\n      jumpi\n      0x00\n      dup1\n      revert\n    tag_49:\n      pop\n      tag_50\n      tag_51\n      jump\t// in\n    tag_50:\n      mload(0x40)\n      tag_52\n      swap2\n      swap1\n      tag_53\n      jump\t// in\n    tag_52:\n      mload(0x40)\n      dup1\n      swap2\n      sub\n      swap1\n      return\n        /* \"contracts/tipi2.sol\":518:553  bytes public myDynVar = \"test here\" */\n    tag_10:\n      callvalue\n      dup1\n      iszero\n      tag_54\n      jumpi\n      0x00\n      dup1\n      revert\n    tag_54:\n      pop\n      tag_55\n      tag_56\n      jump\t// in\n    tag_55:\n      mload(0x40)\n      tag_57\n      swap2\n      swap1\n      tag_58\n      jump\t// in\n    tag_57:\n      mload(0x40)\n      dup1\n      swap2\n      sub\n      swap1\n      return\n        /* \"contracts/tipi2.sol\":966:1009  mapping(address => Balance) public balances */\n    tag_16:\n      mstore(0x20, 0x08)\n      dup1\n      0x00\n      mstore\n      keccak256(0x00, 0x40)\n      0x00\n      swap2\n      pop\n      swap1\n      pop\n      dup1\n      0x00\n      add\n      sload\n      swap1\n      pop\n      dup2\n      jump\t// out\n        /* \"contracts/tipi2.sol\":1168:1564  function pay(string memory message) public payable {\r... */\n    tag_22:\n        /* \"contracts/tipi2.sol\":1230:1245  uint paymentNum */\n      0x00\n        /* \"contracts/tipi2.sol\":1248:1256  balances */\n      0x08\n        /* \"contracts/tipi2.sol\":1248:1268  balances[msg.sender] */\n      0x00\n        /* \"contracts/tipi2.sol\":1257:1267  msg.sender */\n      caller\n        /* \"contracts/tipi2.sol\":1248:1268  balances[msg.sender] */\n      0xffffffffffffffffffffffffffffffffffffffff\n      and\n      0xffffffffffffffffffffffffffffffffffffffff\n      and\n      dup2\n      mstore\n      0x20\n      add\n      swap1\n      dup2\n      mstore\n      0x20\n      add\n      0x00\n      keccak256\n        /* \"contracts/tipi2.sol\":1248:1282  balances[msg.sender].totalPayments */\n      0x00\n      add\n      sload\n        /* \"contracts/tipi2.sol\":1230:1282  uint paymentNum = balances[msg.sender].totalPayments */\n      swap1\n      pop\n        /* \"contracts/tipi2.sol\":1293:1301  balances */\n      0x08\n        /* \"contracts/tipi2.sol\":1293:1313  balances[msg.sender] */\n      0x00\n        /* \"contracts/tipi2.sol\":1302:1312  msg.sender */\n      caller\n        /* \"contracts/tipi2.sol\":1293:1313  balances[msg.sender] */\n      0xffffffffffffffffffffffffffffffffffffffff\n      and\n      0xffffffffffffffffffffffffffffffffffffffff\n      and\n      dup2\n      mstore\n      0x20\n      add\n      swap1\n      dup2\n      mstore\n      0x20\n      add\n      0x00\n      keccak256\n        /* \"contracts/tipi2.sol\":1293:1327  balances[msg.sender].totalPayments */\n      0x00\n      add\n      0x00\n        /* \"contracts/tipi2.sol\":1293:1329  balances[msg.sender].totalPayments++ */\n      dup2\n      sload\n      dup1\n      swap3\n      swap2\n      swap1\n      tag_60\n      swap1\n      tag_61\n      jump\t// in\n    tag_60:\n      swap2\n      swap1\n      pop\n      sstore\n      pop\n        /* \"contracts/tipi2.sol\":1342:1367  Payment memory newPayment */\n      0x00\n        /* \"contracts/tipi2.sol\":1370:1489  Payment(\r... */\n      mload(0x40)\n      dup1\n      0x80\n      add\n      0x40\n      mstore\n      dup1\n        /* \"contracts/tipi2.sol\":1392:1401  msg.value */\n      callvalue\n        /* \"contracts/tipi2.sol\":1370:1489  Payment(\r... */\n      dup2\n      mstore\n      0x20\n      add\n        /* \"contracts/tipi2.sol\":1416:1431  block.timestamp */\n      timestamp\n        /* \"contracts/tipi2.sol\":1370:1489  Payment(\r... */\n      dup2\n      mstore\n      0x20\n      add\n        /* \"contracts/tipi2.sol\":1446:1456  msg.sender */\n      caller\n        /* \"contracts/tipi2.sol\":1370:1489  Payment(\r... */\n      0xffffffffffffffffffffffffffffffffffffffff\n      and\n      dup2\n      mstore\n      0x20\n      add\n        /* \"contracts/tipi2.sol\":1471:1478  message */\n      dup5\n        /* \"contracts/tipi2.sol\":1370:1489  Payment(\r... */\n      dup2\n      mstore\n      pop\n        /* \"contracts/tipi2.sol\":1342:1489  Payment memory newPayment = Payment(\r... */\n      swap1\n      pop\n        /* \"contracts/tipi2.sol\":1546:1556  newPayment */\n      dup1\n        /* \"contracts/tipi2.sol\":1502:1510  balances */\n      0x08\n        /* \"contracts/tipi2.sol\":1502:1522  balances[msg.sender] */\n      0x00\n        /* \"contracts/tipi2.sol\":1511:1521  msg.sender */\n      caller\n        /* \"contracts/tipi2.sol\":1502:1522  balances[msg.sender] */\n      0xffffffffffffffffffffffffffffffffffffffff\n      and\n      0xffffffffffffffffffffffffffffffffffffffff\n      and\n      dup2\n      mstore\n      0x20\n      add\n      swap1\n      dup2\n      mstore\n      0x20\n      add\n      0x00\n      keccak256\n        /* \"contracts/tipi2.sol\":1502:1531  balances[msg.sender].payments */\n      0x01\n      add\n        /* \"contracts/tipi2.sol\":1502:1543  balances[msg.sender].payments[paymentNum] */\n      0x00\n        /* \"contracts/tipi2.sol\":1532:1542  paymentNum */\n      dup5\n        /* \"contracts/tipi2.sol\":1502:1543  balances[msg.sender].payments[paymentNum] */\n      dup2\n      mstore\n      0x20\n      add\n      swap1\n      dup2\n      mstore\n      0x20\n      add\n      0x00\n      keccak256\n        /* \"contracts/tipi2.sol\":1502:1556  balances[msg.sender].payments[paymentNum] = newPayment */\n      0x00\n      dup3\n      add\n      mload\n      dup2\n      0x00\n      add\n      sstore\n      0x20\n      dup3\n      add\n      mload\n      dup2\n      0x01\n      add\n      sstore\n      0x40\n      dup3\n      add\n      mload\n      dup2\n      0x02\n      add\n      exp(0x0100, 0x00)\n      dup2\n      sload\n      dup2\n      0xffffffffffffffffffffffffffffffffffffffff\n      mul\n      not\n      and\n      swap1\n      dup4\n      0xffffffffffffffffffffffffffffffffffffffff\n      and\n      mul\n      or\n      swap1\n      sstore\n      pop\n      0x60\n      dup3\n      add\n      mload\n      dup2\n      0x03\n      add\n      swap1\n      dup1\n      mload\n      swap1\n      0x20\n      add\n      swap1\n      tag_62\n      swap3\n      swap2\n      swap1\n      tag_63\n      jump\t// in\n    tag_62:\n      pop\n      swap1\n      pop\n      pop\n        /* \"contracts/tipi2.sol\":1219:1564  {\r... */\n      pop\n      pop\n        /* \"contracts/tipi2.sol\":1168:1564  function pay(string memory message) public payable {\r... */\n      pop\n      jump\t// out\n        /* \"contracts/tipi2.sol\":121:144  uint[3][2] public items */\n    tag_27:\n      0x00\n      dup3\n      0x02\n      dup2\n      lt\n      tag_64\n      jumpi\n      0x00\n      dup1\n      revert\n    tag_64:\n      0x03\n      mul\n      add\n      dup2\n      0x03\n      dup2\n      lt\n      tag_66\n      jumpi\n      0x00\n      dup1\n      revert\n    tag_66:\n      add\n      0x00\n      swap2\n      pop\n      swap2\n      pop\n      pop\n      sload\n      dup2\n      jump\t// out\n        /* \"contracts/tipi2.sol\":627:713  function firstByte() public view returns(bytes1) {\r... */\n    tag_31:\n        /* \"contracts/tipi2.sol\":668:674  bytes1 */\n      0x00\n        /* \"contracts/tipi2.sol\":694:702  myDynVar */\n      0x07\n        /* \"contracts/tipi2.sol\":703:704  0 */\n      0x00\n        /* \"contracts/tipi2.sol\":694:705  myDynVar[0] */\n      dup2\n      sload\n      tag_69\n      swap1\n      tag_70\n      jump\t// in\n    tag_69:\n      dup2\n      lt\n      tag_71\n      jumpi\n      tag_72\n      tag_73\n      jump\t// in\n    tag_72:\n    tag_71:\n      dup2\n      sload\n      0x01\n      and\n      iszero\n      tag_74\n      jumpi\n      swap1\n      0x00\n      mstore\n      keccak256(0x00, 0x20)\n      swap1\n      0x20\n      swap2\n      dup3\n      dup3\n      div\n      add\n      swap2\n      swap1\n      mod\n    tag_74:\n      swap1\n      sload\n      swap1\n      byte\n      0x0100000000000000000000000000000000000000000000000000000000000000\n      mul\n        /* \"contracts/tipi2.sol\":687:705  return myDynVar[0] */\n      swap1\n      pop\n        /* \"contracts/tipi2.sol\":627:713  function firstByte() public view returns(bytes1) {\r... */\n      swap1\n      jump\t// out\n        /* \"contracts/tipi2.sol\":153:263  function fixedSize() public {\r... */\n    tag_36:\n        /* \"contracts/tipi2.sol\":192:255  items = [\r... */\n      mload(0x40)\n      dup1\n      0x40\n      add\n      0x40\n      mstore\n      dup1\n      mload(0x40)\n      dup1\n      0x60\n      add\n      0x40\n      mstore\n      dup1\n        /* \"contracts/tipi2.sol\":216:217  3 */\n      0x03\n        /* \"contracts/tipi2.sol\":192:255  items = [\r... */\n      0xff\n      and\n      dup2\n      mstore\n      0x20\n      add\n        /* \"contracts/tipi2.sol\":218:219  4 */\n      0x04\n        /* \"contracts/tipi2.sol\":192:255  items = [\r... */\n      0xff\n      and\n      dup2\n      mstore\n      0x20\n      add\n        /* \"contracts/tipi2.sol\":220:221  5 */\n      0x05\n        /* \"contracts/tipi2.sol\":192:255  items = [\r... */\n      0xff\n      and\n      dup2\n      mstore\n      pop\n      dup2\n      mstore\n      0x20\n      add\n      mload(0x40)\n      dup1\n      0x60\n      add\n      0x40\n      mstore\n      dup1\n        /* \"contracts/tipi2.sol\":238:239  6 */\n      0x06\n        /* \"contracts/tipi2.sol\":192:255  items = [\r... */\n      0xff\n      and\n      dup2\n      mstore\n      0x20\n      add\n        /* \"contracts/tipi2.sol\":240:241  7 */\n      0x07\n        /* \"contracts/tipi2.sol\":192:255  items = [\r... */\n      0xff\n      and\n      dup2\n      mstore\n      0x20\n      add\n        /* \"contracts/tipi2.sol\":242:243  8 */\n      0x08\n        /* \"contracts/tipi2.sol\":192:255  items = [\r... */\n      0xff\n      and\n      dup2\n      mstore\n      pop\n      dup2\n      mstore\n      pop\n        /* \"contracts/tipi2.sol\":192:197  items */\n      0x00\n        /* \"contracts/tipi2.sol\":192:255  items = [\r... */\n      swap1\n      0x02\n      tag_76\n      swap3\n      swap2\n      swap1\n      tag_77\n      jump\t// in\n    tag_76:\n      pop\n        /* \"contracts/tipi2.sol\":153:263  function fixedSize() public {\r... */\n      jump\t// out\n        /* \"contracts/tipi2.sol\":1018:1160  function getPayment(address _addr, uint _index) public view returns(Payment memory) {\r... */\n    tag_41:\n        /* \"contracts/tipi2.sol\":1086:1100  Payment memory */\n      tag_78\n      tag_79\n      jump\t// in\n    tag_78:\n        /* \"contracts/tipi2.sol\":1120:1128  balances */\n      0x08\n        /* \"contracts/tipi2.sol\":1120:1135  balances[_addr] */\n      0x00\n        /* \"contracts/tipi2.sol\":1129:1134  _addr */\n      dup5\n        /* \"contracts/tipi2.sol\":1120:1135  balances[_addr] */\n      0xffffffffffffffffffffffffffffffffffffffff\n      and\n      0xffffffffffffffffffffffffffffffffffffffff\n      and\n      dup2\n      mstore\n      0x20\n      add\n      swap1\n      dup2\n      mstore\n      0x20\n      add\n      0x00\n      keccak256\n        /* \"contracts/tipi2.sol\":1120:1144  balances[_addr].payments */\n      0x01\n      add\n        /* \"contracts/tipi2.sol\":1120:1152  balances[_addr].payments[_index] */\n      0x00\n        /* \"contracts/tipi2.sol\":1145:1151  _index */\n      dup4\n        /* \"contracts/tipi2.sol\":1120:1152  balances[_addr].payments[_index] */\n      dup2\n      mstore\n      0x20\n      add\n      swap1\n      dup2\n      mstore\n      0x20\n      add\n      0x00\n      keccak256\n        /* \"contracts/tipi2.sol\":1113:1152  return balances[_addr].payments[_index] */\n      mload(0x40)\n      dup1\n      0x80\n      add\n      0x40\n      mstore\n      swap1\n      dup2\n      0x00\n      dup3\n      add\n      sload\n      dup2\n      mstore\n      0x20\n      add\n      0x01\n      dup3\n      add\n      sload\n      dup2\n      mstore\n      0x20\n      add\n      0x02\n      dup3\n      add\n      0x00\n      swap1\n      sload\n      swap1\n      0x0100\n      exp\n      swap1\n      div\n      0xffffffffffffffffffffffffffffffffffffffff\n      and\n      0xffffffffffffffffffffffffffffffffffffffff\n      and\n      0xffffffffffffffffffffffffffffffffffffffff\n      and\n      dup2\n      mstore\n      0x20\n      add\n      0x03\n      dup3\n      add\n      dup1\n      sload\n      tag_81\n      swap1\n      tag_70\n      jump\t// in\n    tag_81:\n      dup1\n      0x1f\n      add\n      0x20\n      dup1\n      swap2\n      div\n      mul\n      0x20\n      add\n      mload(0x40)\n      swap1\n      dup2\n      add\n      0x40\n      mstore\n      dup1\n      swap3\n      swap2\n      swap1\n      dup2\n      dup2\n      mstore\n      0x20\n      add\n      dup3\n      dup1\n      sload\n      tag_82\n      swap1\n      tag_70\n      jump\t// in\n    tag_82:\n      dup1\n      iszero\n      tag_83\n      jumpi\n      dup1\n      0x1f\n      lt\n      tag_84\n      jumpi\n      0x0100\n      dup1\n      dup4\n      sload\n      div\n      mul\n      dup4\n      mstore\n      swap2\n      0x20\n      add\n      swap2\n      jump(tag_83)\n    tag_84:\n      dup3\n      add\n      swap2\n      swap1\n      0x00\n      mstore\n      keccak256(0x00, 0x20)\n      swap1\n    tag_85:\n      dup2\n      sload\n      dup2\n      mstore\n      swap1\n      0x01\n      add\n      swap1\n      0x20\n      add\n      dup1\n      dup4\n      gt\n      tag_85\n      jumpi\n      dup3\n      swap1\n      sub\n      0x1f\n      and\n      dup3\n      add\n      swap2\n    tag_83:\n      pop\n      pop\n      pop\n      pop\n      pop\n      dup2\n      mstore\n      pop\n      pop\n      swap1\n      pop\n        /* \"contracts/tipi2.sol\":1018:1160  function getPayment(address _addr, uint _index) public view returns(Payment memory) {\r... */\n      swap3\n      swap2\n      pop\n      pop\n      jump\t// out\n        /* \"contracts/tipi2.sol\":275:447  function sampleMemory() public view returns(uint[] memory) {\r... */\n    tag_46:\n        /* \"contracts/tipi2.sol\":319:332  uint[] memory */\n      0x60\n        /* \"contracts/tipi2.sol\":345:368  uint[] memory tempArray */\n      0x00\n        /* \"contracts/tipi2.sol\":382:384  10 */\n      0x0a\n        /* \"contracts/tipi2.sol\":371:385  new uint[](10) */\n      0xffffffffffffffff\n      dup2\n      gt\n      iszero\n      tag_87\n      jumpi\n      tag_88\n      tag_89\n      jump\t// in\n    tag_88:\n    tag_87:\n      mload(0x40)\n      swap1\n      dup1\n      dup3\n      mstore\n      dup1\n      0x20\n      mul\n      0x20\n      add\n      dup3\n      add\n      0x40\n      mstore\n      dup1\n      iszero\n      tag_90\n      jumpi\n      dup2\n      0x20\n      add\n      0x20\n      dup3\n      mul\n      dup1\n      calldatasize\n      dup4\n      calldatacopy\n      dup1\n      dup3\n      add\n      swap2\n      pop\n      pop\n      swap1\n      pop\n    tag_90:\n      pop\n        /* \"contracts/tipi2.sol\":345:385  uint[] memory tempArray = new uint[](10) */\n      swap1\n      pop\n        /* \"contracts/tipi2.sol\":411:412  1 */\n      0x01\n        /* \"contracts/tipi2.sol\":396:405  tempArray */\n      dup2\n        /* \"contracts/tipi2.sol\":406:407  0 */\n      0x00\n        /* \"contracts/tipi2.sol\":396:408  tempArray[0] */\n      dup2\n      mload\n      dup2\n      lt\n      tag_91\n      jumpi\n      tag_92\n      tag_73\n      jump\t// in\n    tag_92:\n    tag_91:\n      0x20\n      mul\n      0x20\n      add\n      add\n        /* \"contracts/tipi2.sol\":396:412  tempArray[0] = 1 */\n      dup2\n      dup2\n      mstore\n      pop\n      pop\n        /* \"contracts/tipi2.sol\":430:439  tempArray */\n      dup1\n        /* \"contracts/tipi2.sol\":423:439  return tempArray */\n      swap2\n      pop\n      pop\n        /* \"contracts/tipi2.sol\":275:447  function sampleMemory() public view returns(uint[] memory) {\r... */\n      swap1\n      jump\t// out\n        /* \"contracts/tipi2.sol\":468:502  bytes32 public myVar = \"test here\" */\n    tag_51:\n      sload(0x06)\n      dup2\n      jump\t// out\n        /* \"contracts/tipi2.sol\":518:553  bytes public myDynVar = \"test here\" */\n    tag_56:\n      0x07\n      dup1\n      sload\n      tag_93\n      swap1\n      tag_70\n      jump\t// in\n    tag_93:\n      dup1\n      0x1f\n      add\n      0x20\n      dup1\n      swap2\n      div\n      mul\n      0x20\n      add\n      mload(0x40)\n      swap1\n      dup2\n      add\n      0x40\n      mstore\n      dup1\n      swap3\n      swap2\n      swap1\n      dup2\n      dup2\n      mstore\n      0x20\n      add\n      dup3\n      dup1\n      sload\n      tag_94\n      swap1\n      tag_70\n      jump\t// in\n    tag_94:\n      dup1\n      iszero\n      tag_95\n      jumpi\n      dup1\n      0x1f\n      lt\n      tag_96\n      jumpi\n      0x0100\n      dup1\n      dup4\n      sload\n      div\n      mul\n      dup4\n      mstore\n      swap2\n      0x20\n      add\n      swap2\n      jump(tag_95)\n    tag_96:\n      dup3\n      add\n      swap2\n      swap1\n      0x00\n      mstore\n      keccak256(0x00, 0x20)\n      swap1\n    tag_97:\n      dup2\n      sload\n      dup2\n      mstore\n      swap1\n      0x01\n      add\n      swap1\n      0x20\n      add\n      dup1\n      dup4\n      gt\n      tag_97\n      jumpi\n      dup3\n      swap1\n      sub\n      0x1f\n      and\n      dup3\n      add\n      swap2\n    tag_95:\n      pop\n      pop\n      pop\n      pop\n      pop\n      dup2\n      jump\t// out\n    tag_63:\n      dup3\n      dup1\n      sload\n      tag_98\n      swap1\n      tag_70\n      jump\t// in\n    tag_98:\n      swap1\n      0x00\n      mstore\n      keccak256(0x00, 0x20)\n      swap1\n      0x1f\n      add\n      0x20\n      swap1\n      div\n      dup2\n      add\n      swap3\n      dup3\n      tag_100\n      jumpi\n      0x00\n      dup6\n      sstore\n      jump(tag_99)\n    tag_100:\n      dup3\n      0x1f\n      lt\n      tag_101\n      jumpi\n      dup1\n      mload\n      not(0xff)\n      and\n      dup4\n      dup1\n      add\n      or\n      dup6\n      sstore\n      jump(tag_99)\n    tag_101:\n      dup3\n      dup1\n      add\n      0x01\n      add\n      dup6\n      sstore\n      dup3\n      iszero\n      tag_99\n      jumpi\n      swap2\n      dup3\n      add\n    tag_102:\n      dup3\n      dup2\n      gt\n      iszero\n      tag_103\n      jumpi\n      dup3\n      mload\n      dup3\n      sstore\n      swap2\n      0x20\n      add\n      swap2\n      swap1\n      0x01\n      add\n      swap1\n      jump(tag_102)\n    tag_103:\n    tag_99:\n      pop\n      swap1\n      pop\n      tag_104\n      swap2\n      swap1\n      tag_105\n      jump\t// in\n    tag_104:\n      pop\n      swap1\n      jump\t// out\n    tag_77:\n      dup3\n      mul(0x03, 0x02)\n      dup2\n      add\n      swap3\n      dup3\n      iszero\n      tag_106\n      jumpi\n      swap2\n      0x20\n      mul\n      dup3\n      add\n    tag_107:\n      dup3\n      dup2\n      gt\n      iszero\n      tag_108\n      jumpi\n      dup3\n      mload\n      dup3\n      swap1\n      0x03\n      tag_109\n      swap3\n      swap2\n      swap1\n      tag_110\n      jump\t// in\n    tag_109:\n      pop\n      swap2\n      0x20\n      add\n      swap2\n      swap1\n      0x03\n      add\n      swap1\n      jump(tag_107)\n    tag_108:\n    tag_106:\n      pop\n      swap1\n      pop\n      tag_111\n      swap2\n      swap1\n      tag_112\n      jump\t// in\n    tag_111:\n      pop\n      swap1\n      jump\t// out\n    tag_79:\n      mload(0x40)\n      dup1\n      0x80\n      add\n      0x40\n      mstore\n      dup1\n      0x00\n      dup2\n      mstore\n      0x20\n      add\n      0x00\n      dup2\n      mstore\n      0x20\n      add\n      and(0xffffffffffffffffffffffffffffffffffffffff, 0x00)\n      dup2\n      mstore\n      0x20\n      add\n      0x60\n      dup2\n      mstore\n      pop\n      swap1\n      jump\t// out\n    tag_105:\n    tag_113:\n      dup1\n      dup3\n      gt\n      iszero\n      tag_114\n      jumpi\n      0x00\n      dup2\n      0x00\n      swap1\n      sstore\n      pop\n      0x01\n      add\n      jump(tag_113)\n    tag_114:\n      pop\n      swap1\n      jump\t// out\n    tag_110:\n      dup3\n      0x03\n      dup2\n      add\n      swap3\n      dup3\n      iszero\n      tag_115\n      jumpi\n      swap2\n      0x20\n      mul\n      dup3\n      add\n    tag_116:\n      dup3\n      dup2\n      gt\n      iszero\n      tag_117\n      jumpi\n      dup3\n      mload\n      dup3\n      swap1\n      0xff\n      and\n      swap1\n      sstore\n      swap2\n      0x20\n      add\n      swap2\n      swap1\n      0x01\n      add\n      swap1\n      jump(tag_116)\n    tag_117:\n    tag_115:\n      pop\n      swap1\n      pop\n      tag_118\n      swap2\n      swap1\n      tag_105\n      jump\t// in\n    tag_118:\n      pop\n      swap1\n      jump\t// out\n    tag_112:\n    tag_119:\n      dup1\n      dup3\n      gt\n      iszero\n      tag_120\n      jumpi\n      0x00\n      dup2\n      dup2\n      tag_121\n      swap2\n      swap1\n      tag_122\n      jump\t// in\n    tag_121:\n      pop\n      0x03\n      add\n      jump(tag_119)\n    tag_120:\n      pop\n      swap1\n      jump\t// out\n    tag_122:\n      pop\n      0x00\n      dup2\n      sstore\n      0x01\n      add\n      0x00\n      dup2\n      sstore\n      0x01\n      add\n      0x00\n      swap1\n      sstore\n      jump\t// out\n        /* \"#utility.yul\":7:419   */\n    tag_124:\n        /* \"#utility.yul\":85:90   */\n      0x00\n        /* \"#utility.yul\":110:176   */\n      tag_126\n        /* \"#utility.yul\":126:175   */\n      tag_127\n        /* \"#utility.yul\":168:174   */\n      dup5\n        /* \"#utility.yul\":126:175   */\n      tag_128\n      jump\t// in\n    tag_127:\n        /* \"#utility.yul\":110:176   */\n      tag_129\n      jump\t// in\n    tag_126:\n        /* \"#utility.yul\":101:176   */\n      swap1\n      pop\n        /* \"#utility.yul\":199:205   */\n      dup3\n        /* \"#utility.yul\":192:197   */\n      dup2\n        /* \"#utility.yul\":185:206   */\n      mstore\n        /* \"#utility.yul\":237:241   */\n      0x20\n        /* \"#utility.yul\":230:235   */\n      dup2\n        /* \"#utility.yul\":226:242   */\n      add\n        /* \"#utility.yul\":275:278   */\n      dup5\n        /* \"#utility.yul\":266:272   */\n      dup5\n        /* \"#utility.yul\":261:264   */\n      dup5\n        /* \"#utility.yul\":257:273   */\n      add\n        /* \"#utility.yul\":254:279   */\n      gt\n        /* \"#utility.yul\":251:363   */\n      iszero\n      tag_130\n      jumpi\n        /* \"#utility.yul\":282:361   */\n      tag_131\n      tag_132\n      jump\t// in\n    tag_131:\n        /* \"#utility.yul\":251:363   */\n    tag_130:\n        /* \"#utility.yul\":372:413   */\n      tag_133\n        /* \"#utility.yul\":406:412   */\n      dup5\n        /* \"#utility.yul\":401:404   */\n      dup3\n        /* \"#utility.yul\":396:399   */\n      dup6\n        /* \"#utility.yul\":372:413   */\n      tag_134\n      jump\t// in\n    tag_133:\n        /* \"#utility.yul\":91:419   */\n      pop\n        /* \"#utility.yul\":7:419   */\n      swap4\n      swap3\n      pop\n      pop\n      pop\n      jump\t// out\n        /* \"#utility.yul\":425:564   */\n    tag_135:\n        /* \"#utility.yul\":471:476   */\n      0x00\n        /* \"#utility.yul\":509:515   */\n      dup2\n        /* \"#utility.yul\":496:516   */\n      calldataload\n        /* \"#utility.yul\":487:516   */\n      swap1\n      pop\n        /* \"#utility.yul\":525:558   */\n      tag_137\n        /* \"#utility.yul\":552:557   */\n      dup2\n        /* \"#utility.yul\":525:558   */\n      tag_138\n      jump\t// in\n    tag_137:\n        /* \"#utility.yul\":425:564   */\n      swap3\n      swap2\n      pop\n      pop\n      jump\t// out\n        /* \"#utility.yul\":584:924   */\n    tag_139:\n        /* \"#utility.yul\":640:645   */\n      0x00\n        /* \"#utility.yul\":689:692   */\n      dup3\n        /* \"#utility.yul\":682:686   */\n      0x1f\n        /* \"#utility.yul\":674:680   */\n      dup4\n        /* \"#utility.yul\":670:687   */\n      add\n        /* \"#utility.yul\":666:693   */\n      slt\n        /* \"#utility.yul\":656:778   */\n      tag_141\n      jumpi\n        /* \"#utility.yul\":697:776   */\n      tag_142\n      tag_143\n      jump\t// in\n    tag_142:\n        /* \"#utility.yul\":656:778   */\n    tag_141:\n        /* \"#utility.yul\":814:820   */\n      dup2\n        /* \"#utility.yul\":801:821   */\n      calldataload\n        /* \"#utility.yul\":839:918   */\n      tag_144\n        /* \"#utility.yul\":914:917   */\n      dup5\n        /* \"#utility.yul\":906:912   */\n      dup3\n        /* \"#utility.yul\":899:903   */\n      0x20\n        /* \"#utility.yul\":891:897   */\n      dup7\n        /* \"#utility.yul\":887:904   */\n      add\n        /* \"#utility.yul\":839:918   */\n      tag_124\n      jump\t// in\n    tag_144:\n        /* \"#utility.yul\":830:918   */\n      swap2\n      pop\n        /* \"#utility.yul\":646:924   */\n      pop\n        /* \"#utility.yul\":584:924   */\n      swap3\n      swap2\n      pop\n      pop\n      jump\t// out\n        /* \"#utility.yul\":930:1069   */\n    tag_145:\n        /* \"#utility.yul\":976:981   */\n      0x00\n        /* \"#utility.yul\":1014:1020   */\n      dup2\n        /* \"#utility.yul\":1001:1021   */\n      calldataload\n        /* \"#utility.yul\":992:1021   */\n      swap1\n      pop\n        /* \"#utility.yul\":1030:1063   */\n      tag_147\n        /* \"#utility.yul\":1057:1062   */\n      dup2\n        /* \"#utility.yul\":1030:1063   */\n      tag_148\n      jump\t// in\n    tag_147:\n        /* \"#utility.yul\":930:1069   */\n      swap3\n      swap2\n      pop\n      pop\n      jump\t// out\n        /* \"#utility.yul\":1075:1404   */\n    tag_15:\n        /* \"#utility.yul\":1134:1140   */\n      0x00\n        /* \"#utility.yul\":1183:1185   */\n      0x20\n        /* \"#utility.yul\":1171:1180   */\n      dup3\n        /* \"#utility.yul\":1162:1169   */\n      dup5\n        /* \"#utility.yul\":1158:1181   */\n      sub\n        /* \"#utility.yul\":1154:1186   */\n      slt\n        /* \"#utility.yul\":1151:1270   */\n      iszero\n      tag_150\n      jumpi\n        /* \"#utility.yul\":1189:1268   */\n      tag_151\n      tag_152\n      jump\t// in\n    tag_151:\n        /* \"#utility.yul\":1151:1270   */\n    tag_150:\n        /* \"#utility.yul\":1309:1310   */\n      0x00\n        /* \"#utility.yul\":1334:1387   */\n      tag_153\n        /* \"#utility.yul\":1379:1386   */\n      dup5\n        /* \"#utility.yul\":1370:1376   */\n      dup3\n        /* \"#utility.yul\":1359:1368   */\n      dup6\n        /* \"#utility.yul\":1355:1377   */\n      add\n        /* \"#utility.yul\":1334:1387   */\n      tag_135\n      jump\t// in\n    tag_153:\n        /* \"#utility.yul\":1324:1387   */\n      swap2\n      pop\n        /* \"#utility.yul\":1280:1397   */\n      pop\n        /* \"#utility.yul\":1075:1404   */\n      swap3\n      swap2\n      pop\n      pop\n      jump\t// out\n        /* \"#utility.yul\":1410:1884   */\n    tag_40:\n        /* \"#utility.yul\":1478:1484   */\n      0x00\n        /* \"#utility.yul\":1486:1492   */\n      dup1\n        /* \"#utility.yul\":1535:1537   */\n      0x40\n        /* \"#utility.yul\":1523:1532   */\n      dup4\n        /* \"#utility.yul\":1514:1521   */\n      dup6\n        /* \"#utility.yul\":1510:1533   */\n      sub\n        /* \"#utility.yul\":1506:1538   */\n      slt\n        /* \"#utility.yul\":1503:1622   */\n      iszero\n      tag_155\n      jumpi\n        /* \"#utility.yul\":1541:1620   */\n      tag_156\n      tag_152\n      jump\t// in\n    tag_156:\n        /* \"#utility.yul\":1503:1622   */\n    tag_155:\n        /* \"#utility.yul\":1661:1662   */\n      0x00\n        /* \"#utility.yul\":1686:1739   */\n      tag_157\n        /* \"#utility.yul\":1731:1738   */\n      dup6\n        /* \"#utility.yul\":1722:1728   */\n      dup3\n        /* \"#utility.yul\":1711:1720   */\n      dup7\n        /* \"#utility.yul\":1707:1729   */\n      add\n        /* \"#utility.yul\":1686:1739   */\n      tag_135\n      jump\t// in\n    tag_157:\n        /* \"#utility.yul\":1676:1739   */\n      swap3\n      pop\n        /* \"#utility.yul\":1632:1749   */\n      pop\n        /* \"#utility.yul\":1788:1790   */\n      0x20\n        /* \"#utility.yul\":1814:1867   */\n      tag_158\n        /* \"#utility.yul\":1859:1866   */\n      dup6\n        /* \"#utility.yul\":1850:1856   */\n      dup3\n        /* \"#utility.yul\":1839:1848   */\n      dup7\n        /* \"#utility.yul\":1835:1857   */\n      add\n        /* \"#utility.yul\":1814:1867   */\n      tag_145\n      jump\t// in\n    tag_158:\n        /* \"#utility.yul\":1804:1867   */\n      swap2\n      pop\n        /* \"#utility.yul\":1759:1877   */\n      pop\n        /* \"#utility.yul\":1410:1884   */\n      swap3\n      pop\n      swap3\n      swap1\n      pop\n      jump\t// out\n        /* \"#utility.yul\":1890:2399   */\n    tag_21:\n        /* \"#utility.yul\":1959:1965   */\n      0x00\n        /* \"#utility.yul\":2008:2010   */\n      0x20\n        /* \"#utility.yul\":1996:2005   */\n      dup3\n        /* \"#utility.yul\":1987:1994   */\n      dup5\n        /* \"#utility.yul\":1983:2006   */\n      sub\n        /* \"#utility.yul\":1979:2011   */\n      slt\n        /* \"#utility.yul\":1976:2095   */\n      iszero\n      tag_160\n      jumpi\n        /* \"#utility.yul\":2014:2093   */\n      tag_161\n      tag_152\n      jump\t// in\n    tag_161:\n        /* \"#utility.yul\":1976:2095   */\n    tag_160:\n        /* \"#utility.yul\":2162:2163   */\n      0x00\n        /* \"#utility.yul\":2151:2160   */\n      dup3\n        /* \"#utility.yul\":2147:2164   */\n      add\n        /* \"#utility.yul\":2134:2165   */\n      calldataload\n        /* \"#utility.yul\":2192:2210   */\n      0xffffffffffffffff\n        /* \"#utility.yul\":2184:2190   */\n      dup2\n        /* \"#utility.yul\":2181:2211   */\n      gt\n        /* \"#utility.yul\":2178:2295   */\n      iszero\n      tag_162\n      jumpi\n        /* \"#utility.yul\":2214:2293   */\n      tag_163\n      tag_164\n      jump\t// in\n    tag_163:\n        /* \"#utility.yul\":2178:2295   */\n    tag_162:\n        /* \"#utility.yul\":2319:2382   */\n      tag_165\n        /* \"#utility.yul\":2374:2381   */\n      dup5\n        /* \"#utility.yul\":2365:2371   */\n      dup3\n        /* \"#utility.yul\":2354:2363   */\n      dup6\n        /* \"#utility.yul\":2350:2372   */\n      add\n        /* \"#utility.yul\":2319:2382   */\n      tag_139\n      jump\t// in\n    tag_165:\n        /* \"#utility.yul\":2309:2382   */\n      swap2\n      pop\n        /* \"#utility.yul\":2105:2392   */\n      pop\n        /* \"#utility.yul\":1890:2399   */\n      swap3\n      swap2\n      pop\n      pop\n      jump\t// out\n        /* \"#utility.yul\":2405:2879   */\n    tag_26:\n        /* \"#utility.yul\":2473:2479   */\n      0x00\n        /* \"#utility.yul\":2481:2487   */\n      dup1\n        /* \"#utility.yul\":2530:2532   */\n      0x40\n        /* \"#utility.yul\":2518:2527   */\n      dup4\n        /* \"#utility.yul\":2509:2516   */\n      dup6\n        /* \"#utility.yul\":2505:2528   */\n      sub\n        /* \"#utility.yul\":2501:2533   */\n      slt\n        /* \"#utility.yul\":2498:2617   */\n      iszero\n      tag_167\n      jumpi\n        /* \"#utility.yul\":2536:2615   */\n      tag_168\n      tag_152\n      jump\t// in\n    tag_168:\n        /* \"#utility.yul\":2498:2617   */\n    tag_167:\n        /* \"#utility.yul\":2656:2657   */\n      0x00\n        /* \"#utility.yul\":2681:2734   */\n      tag_169\n        /* \"#utility.yul\":2726:2733   */\n      dup6\n        /* \"#utility.yul\":2717:2723   */\n      dup3\n        /* \"#utility.yul\":2706:2715   */\n      dup7\n        /* \"#utility.yul\":2702:2724   */\n      add\n        /* \"#utility.yul\":2681:2734   */\n      tag_145\n      jump\t// in\n    tag_169:\n        /* \"#utility.yul\":2671:2734   */\n      swap3\n      pop\n        /* \"#utility.yul\":2627:2744   */\n      pop\n        /* \"#utility.yul\":2783:2785   */\n      0x20\n        /* \"#utility.yul\":2809:2862   */\n      tag_170\n        /* \"#utility.yul\":2854:2861   */\n      dup6\n        /* \"#utility.yul\":2845:2851   */\n      dup3\n        /* \"#utility.yul\":2834:2843   */\n      dup7\n        /* \"#utility.yul\":2830:2852   */\n      add\n        /* \"#utility.yul\":2809:2862   */\n      tag_145\n      jump\t// in\n    tag_170:\n        /* \"#utility.yul\":2799:2862   */\n      swap2\n      pop\n        /* \"#utility.yul\":2754:2872   */\n      pop\n        /* \"#utility.yul\":2405:2879   */\n      swap3\n      pop\n      swap3\n      swap1\n      pop\n      jump\t// out\n        /* \"#utility.yul\":2885:3064   */\n    tag_171:\n        /* \"#utility.yul\":2954:2964   */\n      0x00\n        /* \"#utility.yul\":2975:3021   */\n      tag_173\n        /* \"#utility.yul\":3017:3020   */\n      dup4\n        /* \"#utility.yul\":3009:3015   */\n      dup4\n        /* \"#utility.yul\":2975:3021   */\n      tag_174\n      jump\t// in\n    tag_173:\n        /* \"#utility.yul\":3053:3057   */\n      0x20\n        /* \"#utility.yul\":3048:3051   */\n      dup4\n        /* \"#utility.yul\":3044:3058   */\n      add\n        /* \"#utility.yul\":3030:3058   */\n      swap1\n      pop\n        /* \"#utility.yul\":2885:3064   */\n      swap3\n      swap2\n      pop\n      pop\n      jump\t// out\n        /* \"#utility.yul\":3070:3178   */\n    tag_175:\n        /* \"#utility.yul\":3147:3171   */\n      tag_177\n        /* \"#utility.yul\":3165:3170   */\n      dup2\n        /* \"#utility.yul\":3147:3171   */\n      tag_178\n      jump\t// in\n    tag_177:\n        /* \"#utility.yul\":3142:3145   */\n      dup3\n        /* \"#utility.yul\":3135:3172   */\n      mstore\n        /* \"#utility.yul\":3070:3178   */\n      pop\n      pop\n      jump\t// out\n        /* \"#utility.yul\":3214:3946   */\n    tag_179:\n        /* \"#utility.yul\":3333:3336   */\n      0x00\n        /* \"#utility.yul\":3362:3416   */\n      tag_181\n        /* \"#utility.yul\":3410:3415   */\n      dup3\n        /* \"#utility.yul\":3362:3416   */\n      tag_182\n      jump\t// in\n    tag_181:\n        /* \"#utility.yul\":3432:3518   */\n      tag_183\n        /* \"#utility.yul\":3511:3517   */\n      dup2\n        /* \"#utility.yul\":3506:3509   */\n      dup6\n        /* \"#utility.yul\":3432:3518   */\n      tag_184\n      jump\t// in\n    tag_183:\n        /* \"#utility.yul\":3425:3518   */\n      swap4\n      pop\n        /* \"#utility.yul\":3542:3598   */\n      tag_185\n        /* \"#utility.yul\":3592:3597   */\n      dup4\n        /* \"#utility.yul\":3542:3598   */\n      tag_186\n      jump\t// in\n    tag_185:\n        /* \"#utility.yul\":3621:3628   */\n      dup1\n        /* \"#utility.yul\":3652:3653   */\n      0x00\n        /* \"#utility.yul\":3637:3921   */\n    tag_187:\n        /* \"#utility.yul\":3662:3668   */\n      dup4\n        /* \"#utility.yul\":3659:3660   */\n      dup2\n        /* \"#utility.yul\":3656:3669   */\n      lt\n        /* \"#utility.yul\":3637:3921   */\n      iszero\n      tag_189\n      jumpi\n        /* \"#utility.yul\":3738:3744   */\n      dup2\n        /* \"#utility.yul\":3732:3745   */\n      mload\n        /* \"#utility.yul\":3765:3828   */\n      tag_190\n        /* \"#utility.yul\":3824:3827   */\n      dup9\n        /* \"#utility.yul\":3809:3822   */\n      dup3\n        /* \"#utility.yul\":3765:3828   */\n      tag_171\n      jump\t// in\n    tag_190:\n        /* \"#utility.yul\":3758:3828   */\n      swap8\n      pop\n        /* \"#utility.yul\":3851:3911   */\n      tag_191\n        /* \"#utility.yul\":3904:3910   */\n      dup4\n        /* \"#utility.yul\":3851:3911   */\n      tag_192\n      jump\t// in\n    tag_191:\n        /* \"#utility.yul\":3841:3911   */\n      swap3\n      pop\n        /* \"#utility.yul\":3697:3921   */\n      pop\n        /* \"#utility.yul\":3684:3685   */\n      0x01\n        /* \"#utility.yul\":3681:3682   */\n      dup2\n        /* \"#utility.yul\":3677:3686   */\n      add\n        /* \"#utility.yul\":3672:3686   */\n      swap1\n      pop\n        /* \"#utility.yul\":3637:3921   */\n      jump(tag_187)\n    tag_189:\n        /* \"#utility.yul\":3641:3655   */\n      pop\n        /* \"#utility.yul\":3937:3940   */\n      dup6\n        /* \"#utility.yul\":3930:3940   */\n      swap4\n      pop\n        /* \"#utility.yul\":3338:3946   */\n      pop\n      pop\n      pop\n        /* \"#utility.yul\":3214:3946   */\n      swap3\n      swap2\n      pop\n      pop\n      jump\t// out\n        /* \"#utility.yul\":3952:4067   */\n    tag_193:\n        /* \"#utility.yul\":4037:4060   */\n      tag_195\n        /* \"#utility.yul\":4054:4059   */\n      dup2\n        /* \"#utility.yul\":4037:4060   */\n      tag_196\n      jump\t// in\n    tag_195:\n        /* \"#utility.yul\":4032:4035   */\n      dup3\n        /* \"#utility.yul\":4025:4061   */\n      mstore\n        /* \"#utility.yul\":3952:4067   */\n      pop\n      pop\n      jump\t// out\n        /* \"#utility.yul\":4073:4191   */\n    tag_197:\n        /* \"#utility.yul\":4160:4184   */\n      tag_199\n        /* \"#utility.yul\":4178:4183   */\n      dup2\n        /* \"#utility.yul\":4160:4184   */\n      tag_200\n      jump\t// in\n    tag_199:\n        /* \"#utility.yul\":4155:4158   */\n      dup3\n        /* \"#utility.yul\":4148:4185   */\n      mstore\n        /* \"#utility.yul\":4073:4191   */\n      pop\n      pop\n      jump\t// out\n        /* \"#utility.yul\":4197:4557   */\n    tag_201:\n        /* \"#utility.yul\":4283:4286   */\n      0x00\n        /* \"#utility.yul\":4311:4349   */\n      tag_203\n        /* \"#utility.yul\":4343:4348   */\n      dup3\n        /* \"#utility.yul\":4311:4349   */\n      tag_204\n      jump\t// in\n    tag_203:\n        /* \"#utility.yul\":4365:4435   */\n      tag_205\n        /* \"#utility.yul\":4428:4434   */\n      dup2\n        /* \"#utility.yul\":4423:4426   */\n      dup6\n        /* \"#utility.yul\":4365:4435   */\n      tag_206\n      jump\t// in\n    tag_205:\n        /* \"#utility.yul\":4358:4435   */\n      swap4\n      pop\n        /* \"#utility.yul\":4444:4496   */\n      tag_207\n        /* \"#utility.yul\":4489:4495   */\n      dup2\n        /* \"#utility.yul\":4484:4487   */\n      dup6\n        /* \"#utility.yul\":4477:4481   */\n      0x20\n        /* \"#utility.yul\":4470:4475   */\n      dup7\n        /* \"#utility.yul\":4466:4482   */\n      add\n        /* \"#utility.yul\":4444:4496   */\n      tag_208\n      jump\t// in\n    tag_207:\n        /* \"#utility.yul\":4521:4550   */\n      tag_209\n        /* \"#utility.yul\":4543:4549   */\n      dup2\n        /* \"#utility.yul\":4521:4550   */\n      tag_210\n      jump\t// in\n    tag_209:\n        /* \"#utility.yul\":4516:4519   */\n      dup5\n        /* \"#utility.yul\":4512:4551   */\n      add\n        /* \"#utility.yul\":4505:4551   */\n      swap2\n      pop\n        /* \"#utility.yul\":4287:4557   */\n      pop\n        /* \"#utility.yul\":4197:4557   */\n      swap3\n      swap2\n      pop\n      pop\n      jump\t// out\n        /* \"#utility.yul\":4563:4907   */\n    tag_211:\n        /* \"#utility.yul\":4641:4644   */\n      0x00\n        /* \"#utility.yul\":4669:4708   */\n      tag_213\n        /* \"#utility.yul\":4702:4707   */\n      dup3\n        /* \"#utility.yul\":4669:4708   */\n      tag_214\n      jump\t// in\n    tag_213:\n        /* \"#utility.yul\":4724:4785   */\n      tag_215\n        /* \"#utility.yul\":4778:4784   */\n      dup2\n        /* \"#utility.yul\":4773:4776   */\n      dup6\n        /* \"#utility.yul\":4724:4785   */\n      tag_216\n      jump\t// in\n    tag_215:\n        /* \"#utility.yul\":4717:4785   */\n      swap4\n      pop\n        /* \"#utility.yul\":4794:4846   */\n      tag_217\n        /* \"#utility.yul\":4839:4845   */\n      dup2\n        /* \"#utility.yul\":4834:4837   */\n      dup6\n        /* \"#utility.yul\":4827:4831   */\n      0x20\n        /* \"#utility.yul\":4820:4825   */\n      dup7\n        /* \"#utility.yul\":4816:4832   */\n      add\n        /* \"#utility.yul\":4794:4846   */\n      tag_208\n      jump\t// in\n    tag_217:\n        /* \"#utility.yul\":4871:4900   */\n      tag_218\n        /* \"#utility.yul\":4893:4899   */\n      dup2\n        /* \"#utility.yul\":4871:4900   */\n      tag_210\n      jump\t// in\n    tag_218:\n        /* \"#utility.yul\":4866:4869   */\n      dup5\n        /* \"#utility.yul\":4862:4901   */\n      add\n        /* \"#utility.yul\":4855:4901   */\n      swap2\n      pop\n        /* \"#utility.yul\":4645:4907   */\n      pop\n        /* \"#utility.yul\":4563:4907   */\n      swap3\n      swap2\n      pop\n      pop\n      jump\t// out\n        /* \"#utility.yul\":4963:5923   */\n    tag_219:\n        /* \"#utility.yul\":5078:5081   */\n      0x00\n        /* \"#utility.yul\":5114:5118   */\n      0x80\n        /* \"#utility.yul\":5109:5112   */\n      dup4\n        /* \"#utility.yul\":5105:5119   */\n      add\n        /* \"#utility.yul\":5203:5207   */\n      0x00\n        /* \"#utility.yul\":5196:5201   */\n      dup4\n        /* \"#utility.yul\":5192:5208   */\n      add\n        /* \"#utility.yul\":5186:5209   */\n      mload\n        /* \"#utility.yul\":5222:5285   */\n      tag_221\n        /* \"#utility.yul\":5279:5283   */\n      0x00\n        /* \"#utility.yul\":5274:5277   */\n      dup7\n        /* \"#utility.yul\":5270:5284   */\n      add\n        /* \"#utility.yul\":5256:5268   */\n      dup3\n        /* \"#utility.yul\":5222:5285   */\n      tag_174\n      jump\t// in\n    tag_221:\n        /* \"#utility.yul\":5129:5295   */\n      pop\n        /* \"#utility.yul\":5382:5386   */\n      0x20\n        /* \"#utility.yul\":5375:5380   */\n      dup4\n        /* \"#utility.yul\":5371:5387   */\n      add\n        /* \"#utility.yul\":5365:5388   */\n      mload\n        /* \"#utility.yul\":5401:5464   */\n      tag_222\n        /* \"#utility.yul\":5458:5462   */\n      0x20\n        /* \"#utility.yul\":5453:5456   */\n      dup7\n        /* \"#utility.yul\":5449:5463   */\n      add\n        /* \"#utility.yul\":5435:5447   */\n      dup3\n        /* \"#utility.yul\":5401:5464   */\n      tag_174\n      jump\t// in\n    tag_222:\n        /* \"#utility.yul\":5305:5474   */\n      pop\n        /* \"#utility.yul\":5556:5560   */\n      0x40\n        /* \"#utility.yul\":5549:5554   */\n      dup4\n        /* \"#utility.yul\":5545:5561   */\n      add\n        /* \"#utility.yul\":5539:5562   */\n      mload\n        /* \"#utility.yul\":5575:5638   */\n      tag_223\n        /* \"#utility.yul\":5632:5636   */\n      0x40\n        /* \"#utility.yul\":5627:5630   */\n      dup7\n        /* \"#utility.yul\":5623:5637   */\n      add\n        /* \"#utility.yul\":5609:5621   */\n      dup3\n        /* \"#utility.yul\":5575:5638   */\n      tag_175\n      jump\t// in\n    tag_223:\n        /* \"#utility.yul\":5484:5648   */\n      pop\n        /* \"#utility.yul\":5733:5737   */\n      0x60\n        /* \"#utility.yul\":5726:5731   */\n      dup4\n        /* \"#utility.yul\":5722:5738   */\n      add\n        /* \"#utility.yul\":5716:5739   */\n      mload\n        /* \"#utility.yul\":5786:5789   */\n      dup5\n        /* \"#utility.yul\":5780:5784   */\n      dup3\n        /* \"#utility.yul\":5776:5790   */\n      sub\n        /* \"#utility.yul\":5769:5773   */\n      0x60\n        /* \"#utility.yul\":5764:5767   */\n      dup7\n        /* \"#utility.yul\":5760:5774   */\n      add\n        /* \"#utility.yul\":5753:5791   */\n      mstore\n        /* \"#utility.yul\":5812:5885   */\n      tag_224\n        /* \"#utility.yul\":5880:5884   */\n      dup3\n        /* \"#utility.yul\":5866:5878   */\n      dup3\n        /* \"#utility.yul\":5812:5885   */\n      tag_211\n      jump\t// in\n    tag_224:\n        /* \"#utility.yul\":5804:5885   */\n      swap2\n      pop\n        /* \"#utility.yul\":5658:5896   */\n      pop\n        /* \"#utility.yul\":5913:5917   */\n      dup1\n        /* \"#utility.yul\":5906:5917   */\n      swap2\n      pop\n        /* \"#utility.yul\":5083:5923   */\n      pop\n        /* \"#utility.yul\":4963:5923   */\n      swap3\n      swap2\n      pop\n      pop\n      jump\t// out\n        /* \"#utility.yul\":5929:6037   */\n    tag_174:\n        /* \"#utility.yul\":6006:6030   */\n      tag_226\n        /* \"#utility.yul\":6024:6029   */\n      dup2\n        /* \"#utility.yul\":6006:6030   */\n      tag_227\n      jump\t// in\n    tag_226:\n        /* \"#utility.yul\":6001:6004   */\n      dup3\n        /* \"#utility.yul\":5994:6031   */\n      mstore\n        /* \"#utility.yul\":5929:6037   */\n      pop\n      pop\n      jump\t// out\n        /* \"#utility.yul\":6043:6161   */\n    tag_228:\n        /* \"#utility.yul\":6130:6154   */\n      tag_230\n        /* \"#utility.yul\":6148:6153   */\n      dup2\n        /* \"#utility.yul\":6130:6154   */\n      tag_227\n      jump\t// in\n    tag_230:\n        /* \"#utility.yul\":6125:6128   */\n      dup3\n        /* \"#utility.yul\":6118:6155   */\n      mstore\n        /* \"#utility.yul\":6043:6161   */\n      pop\n      pop\n      jump\t// out\n        /* \"#utility.yul\":6167:6540   */\n    tag_48:\n        /* \"#utility.yul\":6310:6314   */\n      0x00\n        /* \"#utility.yul\":6348:6350   */\n      0x20\n        /* \"#utility.yul\":6337:6346   */\n      dup3\n        /* \"#utility.yul\":6333:6351   */\n      add\n        /* \"#utility.yul\":6325:6351   */\n      swap1\n      pop\n        /* \"#utility.yul\":6397:6406   */\n      dup2\n        /* \"#utility.yul\":6391:6395   */\n      dup2\n        /* \"#utility.yul\":6387:6407   */\n      sub\n        /* \"#utility.yul\":6383:6384   */\n      0x00\n        /* \"#utility.yul\":6372:6381   */\n      dup4\n        /* \"#utility.yul\":6368:6385   */\n      add\n        /* \"#utility.yul\":6361:6408   */\n      mstore\n        /* \"#utility.yul\":6425:6533   */\n      tag_232\n        /* \"#utility.yul\":6528:6532   */\n      dup2\n        /* \"#utility.yul\":6519:6525   */\n      dup5\n        /* \"#utility.yul\":6425:6533   */\n      tag_179\n      jump\t// in\n    tag_232:\n        /* \"#utility.yul\":6417:6533   */\n      swap1\n      pop\n        /* \"#utility.yul\":6167:6540   */\n      swap3\n      swap2\n      pop\n      pop\n      jump\t// out\n        /* \"#utility.yul\":6546:6764   */\n    tag_33:\n        /* \"#utility.yul\":6637:6641   */\n      0x00\n        /* \"#utility.yul\":6675:6677   */\n      0x20\n        /* \"#utility.yul\":6664:6673   */\n      dup3\n        /* \"#utility.yul\":6660:6678   */\n      add\n        /* \"#utility.yul\":6652:6678   */\n      swap1\n      pop\n        /* \"#utility.yul\":6688:6757   */\n      tag_234\n        /* \"#utility.yul\":6754:6755   */\n      0x00\n        /* \"#utility.yul\":6743:6752   */\n      dup4\n        /* \"#utility.yul\":6739:6756   */\n      add\n        /* \"#utility.yul\":6730:6736   */\n      dup5\n        /* \"#utility.yul\":6688:6757   */\n      tag_193\n      jump\t// in\n    tag_234:\n        /* \"#utility.yul\":6546:6764   */\n      swap3\n      swap2\n      pop\n      pop\n      jump\t// out\n        /* \"#utility.yul\":6770:6992   */\n    tag_53:\n        /* \"#utility.yul\":6863:6867   */\n      0x00\n        /* \"#utility.yul\":6901:6903   */\n      0x20\n        /* \"#utility.yul\":6890:6899   */\n      dup3\n        /* \"#utility.yul\":6886:6904   */\n      add\n        /* \"#utility.yul\":6878:6904   */\n      swap1\n      pop\n        /* \"#utility.yul\":6914:6985   */\n      tag_236\n        /* \"#utility.yul\":6982:6983   */\n      0x00\n        /* \"#utility.yul\":6971:6980   */\n      dup4\n        /* \"#utility.yul\":6967:6984   */\n      add\n        /* \"#utility.yul\":6958:6964   */\n      dup5\n        /* \"#utility.yul\":6914:6985   */\n      tag_197\n      jump\t// in\n    tag_236:\n        /* \"#utility.yul\":6770:6992   */\n      swap3\n      swap2\n      pop\n      pop\n      jump\t// out\n        /* \"#utility.yul\":6998:7307   */\n    tag_58:\n        /* \"#utility.yul\":7109:7113   */\n      0x00\n        /* \"#utility.yul\":7147:7149   */\n      0x20\n        /* \"#utility.yul\":7136:7145   */\n      dup3\n        /* \"#utility.yul\":7132:7150   */\n      add\n        /* \"#utility.yul\":7124:7150   */\n      swap1\n      pop\n        /* \"#utility.yul\":7196:7205   */\n      dup2\n        /* \"#utility.yul\":7190:7194   */\n      dup2\n        /* \"#utility.yul\":7186:7206   */\n      sub\n        /* \"#utility.yul\":7182:7183   */\n      0x00\n        /* \"#utility.yul\":7171:7180   */\n      dup4\n        /* \"#utility.yul\":7167:7184   */\n      add\n        /* \"#utility.yul\":7160:7207   */\n      mstore\n        /* \"#utility.yul\":7224:7300   */\n      tag_238\n        /* \"#utility.yul\":7295:7299   */\n      dup2\n        /* \"#utility.yul\":7286:7292   */\n      dup5\n        /* \"#utility.yul\":7224:7300   */\n      tag_201\n      jump\t// in\n    tag_238:\n        /* \"#utility.yul\":7216:7300   */\n      swap1\n      pop\n        /* \"#utility.yul\":6998:7307   */\n      swap3\n      swap2\n      pop\n      pop\n      jump\t// out\n        /* \"#utility.yul\":7313:7678   */\n    tag_43:\n        /* \"#utility.yul\":7452:7456   */\n      0x00\n        /* \"#utility.yul\":7490:7492   */\n      0x20\n        /* \"#utility.yul\":7479:7488   */\n      dup3\n        /* \"#utility.yul\":7475:7493   */\n      add\n        /* \"#utility.yul\":7467:7493   */\n      swap1\n      pop\n        /* \"#utility.yul\":7539:7548   */\n      dup2\n        /* \"#utility.yul\":7533:7537   */\n      dup2\n        /* \"#utility.yul\":7529:7549   */\n      sub\n        /* \"#utility.yul\":7525:7526   */\n      0x00\n        /* \"#utility.yul\":7514:7523   */\n      dup4\n        /* \"#utility.yul\":7510:7527   */\n      add\n        /* \"#utility.yul\":7503:7550   */\n      mstore\n        /* \"#utility.yul\":7567:7671   */\n      tag_240\n        /* \"#utility.yul\":7666:7670   */\n      dup2\n        /* \"#utility.yul\":7657:7663   */\n      dup5\n        /* \"#utility.yul\":7567:7671   */\n      tag_219\n      jump\t// in\n    tag_240:\n        /* \"#utility.yul\":7559:7671   */\n      swap1\n      pop\n        /* \"#utility.yul\":7313:7678   */\n      swap3\n      swap2\n      pop\n      pop\n      jump\t// out\n        /* \"#utility.yul\":7684:7906   */\n    tag_18:\n        /* \"#utility.yul\":7777:7781   */\n      0x00\n        /* \"#utility.yul\":7815:7817   */\n      0x20\n        /* \"#utility.yul\":7804:7813   */\n      dup3\n        /* \"#utility.yul\":7800:7818   */\n      add\n        /* \"#utility.yul\":7792:7818   */\n      swap1\n      pop\n        /* \"#utility.yul\":7828:7899   */\n      tag_242\n        /* \"#utility.yul\":7896:7897   */\n      0x00\n        /* \"#utility.yul\":7885:7894   */\n      dup4\n        /* \"#utility.yul\":7881:7898   */\n      add\n        /* \"#utility.yul\":7872:7878   */\n      dup5\n        /* \"#utility.yul\":7828:7899   */\n      tag_228\n      jump\t// in\n    tag_242:\n        /* \"#utility.yul\":7684:7906   */\n      swap3\n      swap2\n      pop\n      pop\n      jump\t// out\n        /* \"#utility.yul\":7912:8041   */\n    tag_129:\n        /* \"#utility.yul\":7946:7952   */\n      0x00\n        /* \"#utility.yul\":7973:7993   */\n      tag_244\n      tag_245\n      jump\t// in\n    tag_244:\n        /* \"#utility.yul\":7963:7993   */\n      swap1\n      pop\n        /* \"#utility.yul\":8002:8035   */\n      tag_246\n        /* \"#utility.yul\":8030:8034   */\n      dup3\n        /* \"#utility.yul\":8022:8028   */\n      dup3\n        /* \"#utility.yul\":8002:8035   */\n      tag_247\n      jump\t// in\n    tag_246:\n        /* \"#utility.yul\":7912:8041   */\n      swap2\n      swap1\n      pop\n      jump\t// out\n        /* \"#utility.yul\":8047:8122   */\n    tag_245:\n        /* \"#utility.yul\":8080:8086   */\n      0x00\n        /* \"#utility.yul\":8113:8115   */\n      0x40\n        /* \"#utility.yul\":8107:8116   */\n      mload\n        /* \"#utility.yul\":8097:8116   */\n      swap1\n      pop\n        /* \"#utility.yul\":8047:8122   */\n      swap1\n      jump\t// out\n        /* \"#utility.yul\":8128:8436   */\n    tag_128:\n        /* \"#utility.yul\":8190:8194   */\n      0x00\n        /* \"#utility.yul\":8280:8298   */\n      0xffffffffffffffff\n        /* \"#utility.yul\":8272:8278   */\n      dup3\n        /* \"#utility.yul\":8269:8299   */\n      gt\n        /* \"#utility.yul\":8266:8322   */\n      iszero\n      tag_250\n      jumpi\n        /* \"#utility.yul\":8302:8320   */\n      tag_251\n      tag_89\n      jump\t// in\n    tag_251:\n        /* \"#utility.yul\":8266:8322   */\n    tag_250:\n        /* \"#utility.yul\":8340:8369   */\n      tag_252\n        /* \"#utility.yul\":8362:8368   */\n      dup3\n        /* \"#utility.yul\":8340:8369   */\n      tag_210\n      jump\t// in\n    tag_252:\n        /* \"#utility.yul\":8332:8369   */\n      swap1\n      pop\n        /* \"#utility.yul\":8424:8428   */\n      0x20\n        /* \"#utility.yul\":8418:8422   */\n      dup2\n        /* \"#utility.yul\":8414:8429   */\n      add\n        /* \"#utility.yul\":8406:8429   */\n      swap1\n      pop\n        /* \"#utility.yul\":8128:8436   */\n      swap2\n      swap1\n      pop\n      jump\t// out\n        /* \"#utility.yul\":8442:8574   */\n    tag_186:\n        /* \"#utility.yul\":8509:8513   */\n      0x00\n        /* \"#utility.yul\":8532:8535   */\n      dup2\n        /* \"#utility.yul\":8524:8535   */\n      swap1\n      pop\n        /* \"#utility.yul\":8562:8566   */\n      0x20\n        /* \"#utility.yul\":8557:8560   */\n      dup3\n        /* \"#utility.yul\":8553:8567   */\n      add\n        /* \"#utility.yul\":8545:8567   */\n      swap1\n      pop\n        /* \"#utility.yul\":8442:8574   */\n      swap2\n      swap1\n      pop\n      jump\t// out\n        /* \"#utility.yul\":8580:8694   */\n    tag_182:\n        /* \"#utility.yul\":8647:8653   */\n      0x00\n        /* \"#utility.yul\":8681:8686   */\n      dup2\n        /* \"#utility.yul\":8675:8687   */\n      mload\n        /* \"#utility.yul\":8665:8687   */\n      swap1\n      pop\n        /* \"#utility.yul\":8580:8694   */\n      swap2\n      swap1\n      pop\n      jump\t// out\n        /* \"#utility.yul\":8700:8798   */\n    tag_204:\n        /* \"#utility.yul\":8751:8757   */\n      0x00\n        /* \"#utility.yul\":8785:8790   */\n      dup2\n        /* \"#utility.yul\":8779:8791   */\n      mload\n        /* \"#utility.yul\":8769:8791   */\n      swap1\n      pop\n        /* \"#utility.yul\":8700:8798   */\n      swap2\n      swap1\n      pop\n      jump\t// out\n        /* \"#utility.yul\":8804:8903   */\n    tag_214:\n        /* \"#utility.yul\":8856:8862   */\n      0x00\n        /* \"#utility.yul\":8890:8895   */\n      dup2\n        /* \"#utility.yul\":8884:8896   */\n      mload\n        /* \"#utility.yul\":8874:8896   */\n      swap1\n      pop\n        /* \"#utility.yul\":8804:8903   */\n      swap2\n      swap1\n      pop\n      jump\t// out\n        /* \"#utility.yul\":8909:9022   */\n    tag_192:\n        /* \"#utility.yul\":8979:8983   */\n      0x00\n        /* \"#utility.yul\":9011:9015   */\n      0x20\n        /* \"#utility.yul\":9006:9009   */\n      dup3\n        /* \"#utility.yul\":9002:9016   */\n      add\n        /* \"#utility.yul\":8994:9016   */\n      swap1\n      pop\n        /* \"#utility.yul\":8909:9022   */\n      swap2\n      swap1\n      pop\n      jump\t// out\n        /* \"#utility.yul\":9028:9212   */\n    tag_184:\n        /* \"#utility.yul\":9127:9138   */\n      0x00\n        /* \"#utility.yul\":9161:9167   */\n      dup3\n        /* \"#utility.yul\":9156:9159   */\n      dup3\n        /* \"#utility.yul\":9149:9168   */\n      mstore\n        /* \"#utility.yul\":9201:9205   */\n      0x20\n        /* \"#utility.yul\":9196:9199   */\n      dup3\n        /* \"#utility.yul\":9192:9206   */\n      add\n        /* \"#utility.yul\":9177:9206   */\n      swap1\n      pop\n        /* \"#utility.yul\":9028:9212   */\n      swap3\n      swap2\n      pop\n      pop\n      jump\t// out\n        /* \"#utility.yul\":9218:9386   */\n    tag_206:\n        /* \"#utility.yul\":9301:9312   */\n      0x00\n        /* \"#utility.yul\":9335:9341   */\n      dup3\n        /* \"#utility.yul\":9330:9333   */\n      dup3\n        /* \"#utility.yul\":9323:9342   */\n      mstore\n        /* \"#utility.yul\":9375:9379   */\n      0x20\n        /* \"#utility.yul\":9370:9373   */\n      dup3\n        /* \"#utility.yul\":9366:9380   */\n      add\n        /* \"#utility.yul\":9351:9380   */\n      swap1\n      pop\n        /* \"#utility.yul\":9218:9386   */\n      swap3\n      swap2\n      pop\n      pop\n      jump\t// out\n        /* \"#utility.yul\":9392:9551   */\n    tag_216:\n        /* \"#utility.yul\":9466:9477   */\n      0x00\n        /* \"#utility.yul\":9500:9506   */\n      dup3\n        /* \"#utility.yul\":9495:9498   */\n      dup3\n        /* \"#utility.yul\":9488:9507   */\n      mstore\n        /* \"#utility.yul\":9540:9544   */\n      0x20\n        /* \"#utility.yul\":9535:9538   */\n      dup3\n        /* \"#utility.yul\":9531:9545   */\n      add\n        /* \"#utility.yul\":9516:9545   */\n      swap1\n      pop\n        /* \"#utility.yul\":9392:9551   */\n      swap3\n      swap2\n      pop\n      pop\n      jump\t// out\n        /* \"#utility.yul\":9557:9653   */\n    tag_178:\n        /* \"#utility.yul\":9594:9601   */\n      0x00\n        /* \"#utility.yul\":9623:9647   */\n      tag_262\n        /* \"#utility.yul\":9641:9646   */\n      dup3\n        /* \"#utility.yul\":9623:9647   */\n      tag_263\n      jump\t// in\n    tag_262:\n        /* \"#utility.yul\":9612:9647   */\n      swap1\n      pop\n        /* \"#utility.yul\":9557:9653   */\n      swap2\n      swap1\n      pop\n      jump\t// out\n        /* \"#utility.yul\":9659:9808   */\n    tag_196:\n        /* \"#utility.yul\":9695:9702   */\n      0x00\n        /* \"#utility.yul\":9735:9801   */\n      0xff00000000000000000000000000000000000000000000000000000000000000\n        /* \"#utility.yul\":9728:9733   */\n      dup3\n        /* \"#utility.yul\":9724:9802   */\n      and\n        /* \"#utility.yul\":9713:9802   */\n      swap1\n      pop\n        /* \"#utility.yul\":9659:9808   */\n      swap2\n      swap1\n      pop\n      jump\t// out\n        /* \"#utility.yul\":9814:9891   */\n    tag_200:\n        /* \"#utility.yul\":9851:9858   */\n      0x00\n        /* \"#utility.yul\":9880:9885   */\n      dup2\n        /* \"#utility.yul\":9869:9885   */\n      swap1\n      pop\n        /* \"#utility.yul\":9814:9891   */\n      swap2\n      swap1\n      pop\n      jump\t// out\n        /* \"#utility.yul\":9897:10023   */\n    tag_263:\n        /* \"#utility.yul\":9934:9941   */\n      0x00\n        /* \"#utility.yul\":9974:10016   */\n      0xffffffffffffffffffffffffffffffffffffffff\n        /* \"#utility.yul\":9967:9972   */\n      dup3\n        /* \"#utility.yul\":9963:10017   */\n      and\n        /* \"#utility.yul\":9952:10017   */\n      swap1\n      pop\n        /* \"#utility.yul\":9897:10023   */\n      swap2\n      swap1\n      pop\n      jump\t// out\n        /* \"#utility.yul\":10029:10106   */\n    tag_227:\n        /* \"#utility.yul\":10066:10073   */\n      0x00\n        /* \"#utility.yul\":10095:10100   */\n      dup2\n        /* \"#utility.yul\":10084:10100   */\n      swap1\n      pop\n        /* \"#utility.yul\":10029:10106   */\n      swap2\n      swap1\n      pop\n      jump\t// out\n        /* \"#utility.yul\":10112:10266   */\n    tag_134:\n        /* \"#utility.yul\":10196:10202   */\n      dup3\n        /* \"#utility.yul\":10191:10194   */\n      dup2\n        /* \"#utility.yul\":10186:10189   */\n      dup4\n        /* \"#utility.yul\":10173:10203   */\n      calldatacopy\n        /* \"#utility.yul\":10258:10259   */\n      0x00\n        /* \"#utility.yul\":10249:10255   */\n      dup4\n        /* \"#utility.yul\":10244:10247   */\n      dup4\n        /* \"#utility.yul\":10240:10256   */\n      add\n        /* \"#utility.yul\":10233:10260   */\n      mstore\n        /* \"#utility.yul\":10112:10266   */\n      pop\n      pop\n      pop\n      jump\t// out\n        /* \"#utility.yul\":10272:10579   */\n    tag_208:\n        /* \"#utility.yul\":10340:10341   */\n      0x00\n        /* \"#utility.yul\":10350:10463   */\n    tag_270:\n        /* \"#utility.yul\":10364:10370   */\n      dup4\n        /* \"#utility.yul\":10361:10362   */\n      dup2\n        /* \"#utility.yul\":10358:10371   */\n      lt\n        /* \"#utility.yul\":10350:10463   */\n      iszero\n      tag_272\n      jumpi\n        /* \"#utility.yul\":10449:10450   */\n      dup1\n        /* \"#utility.yul\":10444:10447   */\n      dup3\n        /* \"#utility.yul\":10440:10451   */\n      add\n        /* \"#utility.yul\":10434:10452   */\n      mload\n        /* \"#utility.yul\":10430:10431   */\n      dup2\n        /* \"#utility.yul\":10425:10428   */\n      dup5\n        /* \"#utility.yul\":10421:10432   */\n      add\n        /* \"#utility.yul\":10414:10453   */\n      mstore\n        /* \"#utility.yul\":10386:10388   */\n      0x20\n        /* \"#utility.yul\":10383:10384   */\n      dup2\n        /* \"#utility.yul\":10379:10389   */\n      add\n        /* \"#utility.yul\":10374:10389   */\n      swap1\n      pop\n        /* \"#utility.yul\":10350:10463   */\n      jump(tag_270)\n    tag_272:\n        /* \"#utility.yul\":10481:10487   */\n      dup4\n        /* \"#utility.yul\":10478:10479   */\n      dup2\n        /* \"#utility.yul\":10475:10488   */\n      gt\n        /* \"#utility.yul\":10472:10573   */\n      iszero\n      tag_273\n      jumpi\n        /* \"#utility.yul\":10561:10562   */\n      0x00\n        /* \"#utility.yul\":10552:10558   */\n      dup5\n        /* \"#utility.yul\":10547:10550   */\n      dup5\n        /* \"#utility.yul\":10543:10559   */\n      add\n        /* \"#utility.yul\":10536:10563   */\n      mstore\n        /* \"#utility.yul\":10472:10573   */\n    tag_273:\n        /* \"#utility.yul\":10321:10579   */\n      pop\n        /* \"#utility.yul\":10272:10579   */\n      pop\n      pop\n      pop\n      jump\t// out\n        /* \"#utility.yul\":10585:10905   */\n    tag_70:\n        /* \"#utility.yul\":10629:10635   */\n      0x00\n        /* \"#utility.yul\":10666:10667   */\n      0x02\n        /* \"#utility.yul\":10660:10664   */\n      dup3\n        /* \"#utility.yul\":10656:10668   */\n      div\n        /* \"#utility.yul\":10646:10668   */\n      swap1\n      pop\n        /* \"#utility.yul\":10713:10714   */\n      0x01\n        /* \"#utility.yul\":10707:10711   */\n      dup3\n        /* \"#utility.yul\":10703:10715   */\n      and\n        /* \"#utility.yul\":10734:10752   */\n      dup1\n        /* \"#utility.yul\":10724:10805   */\n      tag_275\n      jumpi\n        /* \"#utility.yul\":10790:10794   */\n      0x7f\n        /* \"#utility.yul\":10782:10788   */\n      dup3\n        /* \"#utility.yul\":10778:10795   */\n      and\n        /* \"#utility.yul\":10768:10795   */\n      swap2\n      pop\n        /* \"#utility.yul\":10724:10805   */\n    tag_275:\n        /* \"#utility.yul\":10852:10854   */\n      0x20\n        /* \"#utility.yul\":10844:10850   */\n      dup3\n        /* \"#utility.yul\":10841:10855   */\n      lt\n        /* \"#utility.yul\":10821:10839   */\n      dup2\n        /* \"#utility.yul\":10818:10856   */\n      eq\n        /* \"#utility.yul\":10815:10899   */\n      iszero\n      tag_276\n      jumpi\n        /* \"#utility.yul\":10871:10889   */\n      tag_277\n      tag_278\n      jump\t// in\n    tag_277:\n        /* \"#utility.yul\":10815:10899   */\n    tag_276:\n        /* \"#utility.yul\":10636:10905   */\n      pop\n        /* \"#utility.yul\":10585:10905   */\n      swap2\n      swap1\n      pop\n      jump\t// out\n        /* \"#utility.yul\":10911:11192   */\n    tag_247:\n        /* \"#utility.yul\":10994:11021   */\n      tag_280\n        /* \"#utility.yul\":11016:11020   */\n      dup3\n        /* \"#utility.yul\":10994:11021   */\n      tag_210\n      jump\t// in\n    tag_280:\n        /* \"#utility.yul\":10986:10992   */\n      dup2\n        /* \"#utility.yul\":10982:11022   */\n      add\n        /* \"#utility.yul\":11124:11130   */\n      dup2\n        /* \"#utility.yul\":11112:11122   */\n      dup2\n        /* \"#utility.yul\":11109:11131   */\n      lt\n        /* \"#utility.yul\":11088:11106   */\n      0xffffffffffffffff\n        /* \"#utility.yul\":11076:11086   */\n      dup3\n        /* \"#utility.yul\":11073:11107   */\n      gt\n        /* \"#utility.yul\":11070:11132   */\n      or\n        /* \"#utility.yul\":11067:11155   */\n      iszero\n      tag_281\n      jumpi\n        /* \"#utility.yul\":11135:11153   */\n      tag_282\n      tag_89\n      jump\t// in\n    tag_282:\n        /* \"#utility.yul\":11067:11155   */\n    tag_281:\n        /* \"#utility.yul\":11175:11185   */\n      dup1\n        /* \"#utility.yul\":11171:11173   */\n      0x40\n        /* \"#utility.yul\":11164:11186   */\n      mstore\n        /* \"#utility.yul\":10954:11192   */\n      pop\n        /* \"#utility.yul\":10911:11192   */\n      pop\n      pop\n      jump\t// out\n        /* \"#utility.yul\":11198:11431   */\n    tag_61:\n        /* \"#utility.yul\":11237:11240   */\n      0x00\n        /* \"#utility.yul\":11260:11284   */\n      tag_284\n        /* \"#utility.yul\":11278:11283   */\n      dup3\n        /* \"#utility.yul\":11260:11284   */\n      tag_227\n      jump\t// in\n    tag_284:\n        /* \"#utility.yul\":11251:11284   */\n      swap2\n      pop\n        /* \"#utility.yul\":11306:11372   */\n      0xffffffffffffffffffffffffffffffffffffffffffffffffffffffffffffffff\n        /* \"#utility.yul\":11299:11304   */\n      dup3\n        /* \"#utility.yul\":11296:11373   */\n      eq\n        /* \"#utility.yul\":11293:11396   */\n      iszero\n      tag_285\n      jumpi\n        /* \"#utility.yul\":11376:11394   */\n      tag_286\n      tag_287\n      jump\t// in\n    tag_286:\n        /* \"#utility.yul\":11293:11396   */\n    tag_285:\n        /* \"#utility.yul\":11423:11424   */\n      0x01\n        /* \"#utility.yul\":11416:11421   */\n      dup3\n        /* \"#utility.yul\":11412:11425   */\n      add\n        /* \"#utility.yul\":11405:11425   */\n      swap1\n      pop\n        /* \"#utility.yul\":11198:11431   */\n      swap2\n      swap1\n      pop\n      jump\t// out\n        /* \"#utility.yul\":11437:11617   */\n    tag_287:\n        /* \"#utility.yul\":11485:11562   */\n      0x4e487b7100000000000000000000000000000000000000000000000000000000\n        /* \"#utility.yul\":11482:11483   */\n      0x00\n        /* \"#utility.yul\":11475:11563   */\n      mstore\n        /* \"#utility.yul\":11582:11586   */\n      0x11\n        /* \"#utility.yul\":11579:11580   */\n      0x04\n        /* \"#utility.yul\":11572:11587   */\n      mstore\n        /* \"#utility.yul\":11606:11610   */\n      0x24\n        /* \"#utility.yul\":11603:11604   */\n      0x00\n        /* \"#utility.yul\":11596:11611   */\n      revert\n        /* \"#utility.yul\":11623:11803   */\n    tag_278:\n        /* \"#utility.yul\":11671:11748   */\n      0x4e487b7100000000000000000000000000000000000000000000000000000000\n        /* \"#utility.yul\":11668:11669   */\n      0x00\n        /* \"#utility.yul\":11661:11749   */\n      mstore\n        /* \"#utility.yul\":11768:11772   */\n      0x22\n        /* \"#utility.yul\":11765:11766   */\n      0x04\n        /* \"#utility.yul\":11758:11773   */\n      mstore\n        /* \"#utility.yul\":11792:11796   */\n      0x24\n        /* \"#utility.yul\":11789:11790   */\n      0x00\n        /* \"#utility.yul\":11782:11797   */\n      revert\n        /* \"#utility.yul\":11809:11989   */\n    tag_73:\n        /* \"#utility.yul\":11857:11934   */\n      0x4e487b7100000000000000000000000000000000000000000000000000000000\n        /* \"#utility.yul\":11854:11855   */\n      0x00\n        /* \"#utility.yul\":11847:11935   */\n      mstore\n        /* \"#utility.yul\":11954:11958   */\n      0x32\n        /* \"#utility.yul\":11951:11952   */\n      0x04\n        /* \"#utility.yul\":11944:11959   */\n      mstore\n        /* \"#utility.yul\":11978:11982   */\n      0x24\n        /* \"#utility.yul\":11975:11976   */\n      0x00\n        /* \"#utility.yul\":11968:11983   */\n      revert\n        /* \"#utility.yul\":11995:12175   */\n    tag_89:\n        /* \"#utility.yul\":12043:12120   */\n      0x4e487b7100000000000000000000000000000000000000000000000000000000\n        /* \"#utility.yul\":12040:12041   */\n      0x00\n        /* \"#utility.yul\":12033:12121   */\n      mstore\n        /* \"#utility.yul\":12140:12144   */\n      0x41\n        /* \"#utility.yul\":12137:12138   */\n      0x04\n        /* \"#utility.yul\":12130:12145   */\n      mstore\n        /* \"#utility.yul\":12164:12168   */\n      0x24\n        /* \"#utility.yul\":12161:12162   */\n      0x00\n        /* \"#utility.yul\":12154:12169   */\n      revert\n        /* \"#utility.yul\":12181:12298   */\n    tag_143:\n        /* \"#utility.yul\":12290:12291   */\n      0x00\n        /* \"#utility.yul\":12287:12288   */\n      dup1\n        /* \"#utility.yul\":12280:12292   */\n      revert\n        /* \"#utility.yul\":12304:12421   */\n    tag_132:\n        /* \"#utility.yul\":12413:12414   */\n      0x00\n        /* \"#utility.yul\":12410:12411   */\n      dup1\n        /* \"#utility.yul\":12403:12415   */\n      revert\n        /* \"#utility.yul\":12427:12544   */\n    tag_164:\n        /* \"#utility.yul\":12536:12537   */\n      0x00\n        /* \"#utility.yul\":12533:12534   */\n      dup1\n        /* \"#utility.yul\":12526:12538   */\n      revert\n        /* \"#utility.yul\":12550:12667   */\n    tag_152:\n        /* \"#utility.yul\":12659:12660   */\n      0x00\n        /* \"#utility.yul\":12656:12657   */\n      dup1\n        /* \"#utility.yul\":12649:12661   */\n      revert\n        /* \"#utility.yul\":12673:12775   */\n    tag_210:\n        /* \"#utility.yul\":12714:12720   */\n      0x00\n        /* \"#utility.yul\":12765:12767   */\n      0x1f\n        /* \"#utility.yul\":12761:12768   */\n      not\n        /* \"#utility.yul\":12756:12758   */\n      0x1f\n        /* \"#utility.yul\":12749:12754   */\n      dup4\n        /* \"#utility.yul\":12745:12759   */\n      add\n        /* \"#utility.yul\":12741:12769   */\n      and\n        /* \"#utility.yul\":12731:12769   */\n      swap1\n      pop\n        /* \"#utility.yul\":12673:12775   */\n      swap2\n      swap1\n      pop\n      jump\t// out\n        /* \"#utility.yul\":12781:12903   */\n    tag_138:\n        /* \"#utility.yul\":12854:12878   */\n      tag_298\n        /* \"#utility.yul\":12872:12877   */\n      dup2\n        /* \"#utility.yul\":12854:12878   */\n      tag_178\n      jump\t// in\n    tag_298:\n        /* \"#utility.yul\":12847:12852   */\n      dup2\n        /* \"#utility.yul\":12844:12879   */\n      eq\n        /* \"#utility.yul\":12834:12897   */\n      tag_299\n      jumpi\n        /* \"#utility.yul\":12893:12894   */\n      0x00\n        /* \"#utility.yul\":12890:12891   */\n      dup1\n        /* \"#utility.yul\":12883:12895   */\n      revert\n        /* \"#utility.yul\":12834:12897   */\n    tag_299:\n        /* \"#utility.yul\":12781:12903   */\n      pop\n      jump\t// out\n        /* \"#utility.yul\":12909:13031   */\n    tag_148:\n        /* \"#utility.yul\":12982:13006   */\n      tag_301\n        /* \"#utility.yul\":13000:13005   */\n      dup2\n        /* \"#utility.yul\":12982:13006   */\n      tag_227\n      jump\t// in\n    tag_301:\n        /* \"#utility.yul\":12975:12980   */\n      dup2\n        /* \"#utility.yul\":12972:13007   */\n      eq\n        /* \"#utility.yul\":12962:13025   */\n      tag_302\n      jumpi\n        /* \"#utility.yul\":13021:13022   */\n      0x00\n        /* \"#utility.yul\":13018:13019   */\n      dup1\n        /* \"#utility.yul\":13011:13023   */\n      revert\n        /* \"#utility.yul\":12962:13025   */\n    tag_302:\n        /* \"#utility.yul\":12909:13031   */\n      pop\n      jump\t// out\n\n    auxdata: 0xa264697066735822122097adb4d3c9268f17ec57684589f9adc137633d45cedc6ff4dd0440ae8beb8bcc64736f6c63430008070033\n}\n",
				"bytecode": {
					"linkReferences": {},
					"object": "60806040527f74657374206865726500000000000000000000000000000000000000000000006006556040518060400160405280600981526020017f746573742068657265000000000000000000000000000000000000000000000081525060079080519060200190620000759291906200008a565b503480156200008357600080fd5b506200019f565b82805462000098906200013a565b90600052602060002090601f016020900481019282620000bc576000855562000108565b82601f10620000d757805160ff191683800117855562000108565b8280016001018555821562000108579182015b8281111562000107578251825591602001919060010190620000ea565b5b5090506200011791906200011b565b5090565b5b80821115620001365760008160009055506001016200011c565b5090565b600060028204905060018216806200015357607f821691505b602082108114156200016a576200016962000170565b5b50919050565b7f4e487b7100000000000000000000000000000000000000000000000000000000600052602260045260246000fd5b61106980620001af6000396000f3fe6080604052600436106100865760003560e01c8063736172d311610059578063736172d31461014c578063977a767c14610163578063a34343c9146101a0578063c6b91540146101cb578063ffb1e210146101f657610086565b806327e235e31461008b5780632b66d72e146100c857806331e838dd146100e4578063654c914f14610121575b600080fd5b34801561009757600080fd5b506100b260048036038101906100ad91906109ba565b610221565b6040516100bf9190610ce2565b60405180910390f35b6100e260048036038101906100dd9190610a27565b61023f565b005b3480156100f057600080fd5b5061010b60048036038101906101069190610a70565b6103ed565b6040516101189190610ce2565b60405180910390f35b34801561012d57600080fd5b5061013661041b565b6040516101439190610c68565b60405180910390f35b34801561015857600080fd5b50610161610485565b005b34801561016f57600080fd5b5061018a600480360381019061018591906109e7565b6104f9565b6040516101979190610cc0565b60405180910390f35b3480156101ac57600080fd5b506101b5610663565b6040516101c29190610c46565b60405180910390f35b3480156101d757600080fd5b506101e06106dc565b6040516101ed9190610c83565b60405180910390f35b34801561020257600080fd5b5061020b6106e2565b6040516102189190610c9e565b60405180910390f35b60086020528060005260406000206000915090508060000154905081565b6000600860003373ffffffffffffffffffffffffffffffffffffffff1673ffffffffffffffffffffffffffffffffffffffff168152602001908152602001600020600001549050600860003373ffffffffffffffffffffffffffffffffffffffff1673ffffffffffffffffffffffffffffffffffffffff16815260200190815260200160002060000160008154809291906102d990610edb565b9190505550600060405180608001604052803481526020014281526020013373ffffffffffffffffffffffffffffffffffffffff16815260200184815250905080600860003373ffffffffffffffffffffffffffffffffffffffff1673ffffffffffffffffffffffffffffffffffffffff1681526020019081526020016000206001016000848152602001908152602001600020600082015181600001556020820151816001015560408201518160020160006101000a81548173ffffffffffffffffffffffffffffffffffffffff021916908373ffffffffffffffffffffffffffffffffffffffff16021790555060608201518160030190805190602001906103e4929190610770565b50905050505050565b600082600281106103fd57600080fd5b60030201816003811061040f57600080fd5b01600091509150505481565b600060076000815461042c90610e78565b811061043b5761043a610f82565b5b81546001161561045a5790600052602060002090602091828204019190065b9054901a7f010000000000000000000000000000000000000000000000000000000000000002905090565b60405180604001604052806040518060600160405280600360ff168152602001600460ff168152602001600560ff1681525081526020016040518060600160405280600660ff168152602001600760ff168152602001600860ff1681525081525060009060026104f69291906107f6565b50565b610501610847565b600860008473ffffffffffffffffffffffffffffffffffffffff1673ffffffffffffffffffffffffffffffffffffffff168152602001908152602001600020600101600083815260200190815260200160002060405180608001604052908160008201548152602001600182015481526020016002820160009054906101000a900473ffffffffffffffffffffffffffffffffffffffff1673ffffffffffffffffffffffffffffffffffffffff1673ffffffffffffffffffffffffffffffffffffffff1681526020016003820180546105d990610e78565b80601f016020809104026020016040519081016040528092919081815260200182805461060590610e78565b80156106525780601f1061062757610100808354040283529160200191610652565b820191906000526020600020905b81548152906001019060200180831161063557829003601f168201915b505050505081525050905092915050565b60606000600a67ffffffffffffffff81111561068257610681610fb1565b5b6040519080825280602002602001820160405280156106b05781602001602082028036833780820191505090505b5090506001816000815181106106c9576106c8610f82565b5b6020026020010181815250508091505090565b60065481565b600780546106ef90610e78565b80601f016020809104026020016040519081016040528092919081815260200182805461071b90610e78565b80156107685780601f1061073d57610100808354040283529160200191610768565b820191906000526020600020905b81548152906001019060200180831161074b57829003601f168201915b505050505081565b82805461077c90610e78565b90600052602060002090601f01602090048101928261079e57600085556107e5565b82601f106107b757805160ff19168380011785556107e5565b828001600101855582156107e5579182015b828111156107e45782518255916020019190600101906107c9565b5b5090506107f29190610885565b5090565b8260026003028101928215610836579160200282015b82811115610835578251829060036108259291906108a2565b509160200191906003019061080c565b5b50905061084391906108e7565b5090565b60405180608001604052806000815260200160008152602001600073ffffffffffffffffffffffffffffffffffffffff168152602001606081525090565b5b8082111561089e576000816000905550600101610886565b5090565b82600381019282156108d6579160200282015b828111156108d5578251829060ff169055916020019190600101906108b5565b5b5090506108e39190610885565b5090565b5b8082111561090757600081816108fe919061090b565b506003016108e8565b5090565b50600081556001016000815560010160009055565b600061093361092e84610d22565b610cfd565b90508281526020810184848401111561094f5761094e610fe5565b5b61095a848285610e36565b509392505050565b60008135905061097181611005565b92915050565b600082601f83011261098c5761098b610fe0565b5b813561099c848260208601610920565b91505092915050565b6000813590506109b48161101c565b92915050565b6000602082840312156109d0576109cf610fef565b5b60006109de84828501610962565b91505092915050565b600080604083850312156109fe576109fd610fef565b5b6000610a0c85828601610962565b9250506020610a1d858286016109a5565b9150509250929050565b600060208284031215610a3d57610a3c610fef565b5b600082013567ffffffffffffffff811115610a5b57610a5a610fea565b5b610a6784828501610977565b91505092915050565b60008060408385031215610a8757610a86610fef565b5b6000610a95858286016109a5565b9250506020610aa6858286016109a5565b9150509250929050565b6000610abc8383610c28565b60208301905092915050565b610ad181610dc4565b82525050565b6000610ae282610d63565b610aec8185610d91565b9350610af783610d53565b8060005b83811015610b28578151610b0f8882610ab0565b9750610b1a83610d84565b925050600181019050610afb565b5085935050505092915050565b610b3e81610dd6565b82525050565b610b4d81610e02565b82525050565b6000610b5e82610d6e565b610b688185610da2565b9350610b78818560208601610e45565b610b8181610ff4565b840191505092915050565b6000610b9782610d79565b610ba18185610db3565b9350610bb1818560208601610e45565b610bba81610ff4565b840191505092915050565b6000608083016000830151610bdd6000860182610c28565b506020830151610bf06020860182610c28565b506040830151610c036040860182610ac8565b5060608301518482036060860152610c1b8282610b8c565b9150508091505092915050565b610c3181610e2c565b82525050565b610c4081610e2c565b82525050565b60006020820190508181036000830152610c608184610ad7565b905092915050565b6000602082019050610c7d6000830184610b35565b92915050565b6000602082019050610c986000830184610b44565b92915050565b60006020820190508181036000830152610cb88184610b53565b905092915050565b60006020820190508181036000830152610cda8184610bc5565b905092915050565b6000602082019050610cf76000830184610c37565b92915050565b6000610d07610d18565b9050610d138282610eaa565b919050565b6000604051905090565b600067ffffffffffffffff821115610d3d57610d3c610fb1565b5b610d4682610ff4565b9050602081019050919050565b6000819050602082019050919050565b600081519050919050565b600081519050919050565b600081519050919050565b6000602082019050919050565b600082825260208201905092915050565b600082825260208201905092915050565b600082825260208201905092915050565b6000610dcf82610e0c565b9050919050565b60007fff0000000000000000000000000000000000000000000000000000000000000082169050919050565b6000819050919050565b600073ffffffffffffffffffffffffffffffffffffffff82169050919050565b6000819050919050565b82818337600083830152505050565b60005b83811015610e63578082015181840152602081019050610e48565b83811115610e72576000848401525b50505050565b60006002820490506001821680610e9057607f821691505b60208210811415610ea457610ea3610f53565b5b50919050565b610eb382610ff4565b810181811067ffffffffffffffff82111715610ed257610ed1610fb1565b5b80604052505050565b6000610ee682610e2c565b91507fffffffffffffffffffffffffffffffffffffffffffffffffffffffffffffffff821415610f1957610f18610f24565b5b600182019050919050565b7f4e487b7100000000000000000000000000000000000000000000000000000000600052601160045260246000fd5b7f4e487b7100000000000000000000000000000000000000000000000000000000600052602260045260246000fd5b7f4e487b7100000000000000000000000000000000000000000000000000000000600052603260045260246000fd5b7f4e487b7100000000000000000000000000000000000000000000000000000000600052604160045260246000fd5b600080fd5b600080fd5b600080fd5b600080fd5b6000601f19601f8301169050919050565b61100e81610dc4565b811461101957600080fd5b50565b61102581610e2c565b811461103057600080fd5b5056fea264697066735822122097adb4d3c9268f17ec57684589f9adc137633d45cedc6ff4dd0440ae8beb8bcc64736f6c63430008070033",
					"opcodes": "PUSH1 0x80 PUSH1 0x40 MSTORE PUSH32 0x7465737420686572650000000000000000000000000000000000000000000000 PUSH1 0x6 SSTORE PUSH1 0x40 MLOAD DUP1 PUSH1 0x40 ADD PUSH1 0x40 MSTORE DUP1 PUSH1 0x9 DUP2 MSTORE PUSH1 0x20 ADD PUSH32 0x7465737420686572650000000000000000000000000000000000000000000000 DUP2 MSTORE POP PUSH1 0x7 SWAP1 DUP1 MLOAD SWAP1 PUSH1 0x20 ADD SWAP1 PUSH3 0x75 SWAP3 SWAP2 SWAP1 PUSH3 0x8A JUMP JUMPDEST POP CALLVALUE DUP1 ISZERO PUSH3 0x83 JUMPI PUSH1 0x0 DUP1 REVERT JUMPDEST POP PUSH3 0x19F JUMP JUMPDEST DUP3 DUP1 SLOAD PUSH3 0x98 SWAP1 PUSH3 0x13A JUMP JUMPDEST SWAP1 PUSH1 0x0 MSTORE PUSH1 0x20 PUSH1 0x0 KECCAK256 SWAP1 PUSH1 0x1F ADD PUSH1 0x20 SWAP1 DIV DUP2 ADD SWAP3 DUP3 PUSH3 0xBC JUMPI PUSH1 0x0 DUP6 SSTORE PUSH3 0x108 JUMP JUMPDEST DUP3 PUSH1 0x1F LT PUSH3 0xD7 JUMPI DUP1 MLOAD PUSH1 0xFF NOT AND DUP4 DUP1 ADD OR DUP6 SSTORE PUSH3 0x108 JUMP JUMPDEST DUP3 DUP1 ADD PUSH1 0x1 ADD DUP6 SSTORE DUP3 ISZERO PUSH3 0x108 JUMPI SWAP2 DUP3 ADD JUMPDEST DUP3 DUP2 GT ISZERO PUSH3 0x107 JUMPI DUP3 MLOAD DUP3 SSTORE SWAP2 PUSH1 0x20 ADD SWAP2 SWAP1 PUSH1 0x1 ADD SWAP1 PUSH3 0xEA JUMP JUMPDEST JUMPDEST POP SWAP1 POP PUSH3 0x117 SWAP2 SWAP1 PUSH3 0x11B JUMP JUMPDEST POP SWAP1 JUMP JUMPDEST JUMPDEST DUP1 DUP3 GT ISZERO PUSH3 0x136 JUMPI PUSH1 0x0 DUP2 PUSH1 0x0 SWAP1 SSTORE POP PUSH1 0x1 ADD PUSH3 0x11C JUMP JUMPDEST POP SWAP1 JUMP JUMPDEST PUSH1 0x0 PUSH1 0x2 DUP3 DIV SWAP1 POP PUSH1 0x1 DUP3 AND DUP1 PUSH3 0x153 JUMPI PUSH1 0x7F DUP3 AND SWAP2 POP JUMPDEST PUSH1 0x20 DUP3 LT DUP2 EQ ISZERO PUSH3 0x16A JUMPI PUSH3 0x169 PUSH3 0x170 JUMP JUMPDEST JUMPDEST POP SWAP2 SWAP1 POP JUMP JUMPDEST PUSH32 0x4E487B7100000000000000000000000000000000000000000000000000000000 PUSH1 0x0 MSTORE PUSH1 0x22 PUSH1 0x4 MSTORE PUSH1 0x24 PUSH1 0x0 REVERT JUMPDEST PUSH2 0x1069 DUP1 PUSH3 0x1AF PUSH1 0x0 CODECOPY PUSH1 0x0 RETURN INVALID PUSH1 0x80 PUSH1 0x40 MSTORE PUSH1 0x4 CALLDATASIZE LT PUSH2 0x86 JUMPI PUSH1 0x0 CALLDATALOAD PUSH1 0xE0 SHR DUP1 PUSH4 0x736172D3 GT PUSH2 0x59 JUMPI DUP1 PUSH4 0x736172D3 EQ PUSH2 0x14C JUMPI DUP1 PUSH4 0x977A767C EQ PUSH2 0x163 JUMPI DUP1 PUSH4 0xA34343C9 EQ PUSH2 0x1A0 JUMPI DUP1 PUSH4 0xC6B91540 EQ PUSH2 0x1CB JUMPI DUP1 PUSH4 0xFFB1E210 EQ PUSH2 0x1F6 JUMPI PUSH2 0x86 JUMP JUMPDEST DUP1 PUSH4 0x27E235E3 EQ PUSH2 0x8B JUMPI DUP1 PUSH4 0x2B66D72E EQ PUSH2 0xC8 JUMPI DUP1 PUSH4 0x31E838DD EQ PUSH2 0xE4 JUMPI DUP1 PUSH4 0x654C914F EQ PUSH2 0x121 JUMPI JUMPDEST PUSH1 0x0 DUP1 REVERT JUMPDEST CALLVALUE DUP1 ISZERO PUSH2 0x97 JUMPI PUSH1 0x0 DUP1 REVERT JUMPDEST POP PUSH2 0xB2 PUSH1 0x4 DUP1 CALLDATASIZE SUB DUP2 ADD SWAP1 PUSH2 0xAD SWAP2 SWAP1 PUSH2 0x9BA JUMP JUMPDEST PUSH2 0x221 JUMP JUMPDEST PUSH1 0x40 MLOAD PUSH2 0xBF SWAP2 SWAP1 PUSH2 0xCE2 JUMP JUMPDEST PUSH1 0x40 MLOAD DUP1 SWAP2 SUB SWAP1 RETURN JUMPDEST PUSH2 0xE2 PUSH1 0x4 DUP1 CALLDATASIZE SUB DUP2 ADD SWAP1 PUSH2 0xDD SWAP2 SWAP1 PUSH2 0xA27 JUMP JUMPDEST PUSH2 0x23F JUMP JUMPDEST STOP JUMPDEST CALLVALUE DUP1 ISZERO PUSH2 0xF0 JUMPI PUSH1 0x0 DUP1 REVERT JUMPDEST POP PUSH2 0x10B PUSH1 0x4 DUP1 CALLDATASIZE SUB DUP2 ADD SWAP1 PUSH2 0x106 SWAP2 SWAP1 PUSH2 0xA70 JUMP JUMPDEST PUSH2 0x3ED JUMP JUMPDEST PUSH1 0x40 MLOAD PUSH2 0x118 SWAP2 SWAP1 PUSH2 0xCE2 JUMP JUMPDEST PUSH1 0x40 MLOAD DUP1 SWAP2 SUB SWAP1 RETURN JUMPDEST CALLVALUE DUP1 ISZERO PUSH2 0x12D JUMPI PUSH1 0x0 DUP1 REVERT JUMPDEST POP PUSH2 0x136 PUSH2 0x41B JUMP JUMPDEST PUSH1 0x40 MLOAD PUSH2 0x143 SWAP2 SWAP1 PUSH2 0xC68 JUMP JUMPDEST PUSH1 0x40 MLOAD DUP1 SWAP2 SUB SWAP1 RETURN JUMPDEST CALLVALUE DUP1 ISZERO PUSH2 0x158 JUMPI PUSH1 0x0 DUP1 REVERT JUMPDEST POP PUSH2 0x161 PUSH2 0x485 JUMP JUMPDEST STOP JUMPDEST CALLVALUE DUP1 ISZERO PUSH2 0x16F JUMPI PUSH1 0x0 DUP1 REVERT JUMPDEST POP PUSH2 0x18A PUSH1 0x4 DUP1 CALLDATASIZE SUB DUP2 ADD SWAP1 PUSH2 0x185 SWAP2 SWAP1 PUSH2 0x9E7 JUMP JUMPDEST PUSH2 0x4F9 JUMP JUMPDEST PUSH1 0x40 MLOAD PUSH2 0x197 SWAP2 SWAP1 PUSH2 0xCC0 JUMP JUMPDEST PUSH1 0x40 MLOAD DUP1 SWAP2 SUB SWAP1 RETURN JUMPDEST CALLVALUE DUP1 ISZERO PUSH2 0x1AC JUMPI PUSH1 0x0 DUP1 REVERT JUMPDEST POP PUSH2 0x1B5 PUSH2 0x663 JUMP JUMPDEST PUSH1 0x40 MLOAD PUSH2 0x1C2 SWAP2 SWAP1 PUSH2 0xC46 JUMP JUMPDEST PUSH1 0x40 MLOAD DUP1 SWAP2 SUB SWAP1 RETURN JUMPDEST CALLVALUE DUP1 ISZERO PUSH2 0x1D7 JUMPI PUSH1 0x0 DUP1 REVERT JUMPDEST POP PUSH2 0x1E0 PUSH2 0x6DC JUMP JUMPDEST PUSH1 0x40 MLOAD PUSH2 0x1ED SWAP2 SWAP1 PUSH2 0xC83 JUMP JUMPDEST PUSH1 0x40 MLOAD DUP1 SWAP2 SUB SWAP1 RETURN JUMPDEST CALLVALUE DUP1 ISZERO PUSH2 0x202 JUMPI PUSH1 0x0 DUP1 REVERT JUMPDEST POP PUSH2 0x20B PUSH2 0x6E2 JUMP JUMPDEST PUSH1 0x40 MLOAD PUSH2 0x218 SWAP2 SWAP1 PUSH2 0xC9E JUMP JUMPDEST PUSH1 0x40 MLOAD DUP1 SWAP2 SUB SWAP1 RETURN JUMPDEST PUSH1 0x8 PUSH1 0x20 MSTORE DUP1 PUSH1 0x0 MSTORE PUSH1 0x40 PUSH1 0x0 KECCAK256 PUSH1 0x0 SWAP2 POP SWAP1 POP DUP1 PUSH1 0x0 ADD SLOAD SWAP1 POP DUP2 JUMP JUMPDEST PUSH1 0x0 PUSH1 0x8 PUSH1 0x0 CALLER PUSH20 0xFFFFFFFFFFFFFFFFFFFFFFFFFFFFFFFFFFFFFFFF AND PUSH20 0xFFFFFFFFFFFFFFFFFFFFFFFFFFFFFFFFFFFFFFFF AND DUP2 MSTORE PUSH1 0x20 ADD SWAP1 DUP2 MSTORE PUSH1 0x20 ADD PUSH1 0x0 KECCAK256 PUSH1 0x0 ADD SLOAD SWAP1 POP PUSH1 0x8 PUSH1 0x0 CALLER PUSH20 0xFFFFFFFFFFFFFFFFFFFFFFFFFFFFFFFFFFFFFFFF AND PUSH20 0xFFFFFFFFFFFFFFFFFFFFFFFFFFFFFFFFFFFFFFFF AND DUP2 MSTORE PUSH1 0x20 ADD SWAP1 DUP2 MSTORE PUSH1 0x20 ADD PUSH1 0x0 KECCAK256 PUSH1 0x0 ADD PUSH1 0x0 DUP2 SLOAD DUP1 SWAP3 SWAP2 SWAP1 PUSH2 0x2D9 SWAP1 PUSH2 0xEDB JUMP JUMPDEST SWAP2 SWAP1 POP SSTORE POP PUSH1 0x0 PUSH1 0x40 MLOAD DUP1 PUSH1 0x80 ADD PUSH1 0x40 MSTORE DUP1 CALLVALUE DUP2 MSTORE PUSH1 0x20 ADD TIMESTAMP DUP2 MSTORE PUSH1 0x20 ADD CALLER PUSH20 0xFFFFFFFFFFFFFFFFFFFFFFFFFFFFFFFFFFFFFFFF AND DUP2 MSTORE PUSH1 0x20 ADD DUP5 DUP2 MSTORE POP SWAP1 POP DUP1 PUSH1 0x8 PUSH1 0x0 CALLER PUSH20 0xFFFFFFFFFFFFFFFFFFFFFFFFFFFFFFFFFFFFFFFF AND PUSH20 0xFFFFFFFFFFFFFFFFFFFFFFFFFFFFFFFFFFFFFFFF AND DUP2 MSTORE PUSH1 0x20 ADD SWAP1 DUP2 MSTORE PUSH1 0x20 ADD PUSH1 0x0 KECCAK256 PUSH1 0x1 ADD PUSH1 0x0 DUP5 DUP2 MSTORE PUSH1 0x20 ADD SWAP1 DUP2 MSTORE PUSH1 0x20 ADD PUSH1 0x0 KECCAK256 PUSH1 0x0 DUP3 ADD MLOAD DUP2 PUSH1 0x0 ADD SSTORE PUSH1 0x20 DUP3 ADD MLOAD DUP2 PUSH1 0x1 ADD SSTORE PUSH1 0x40 DUP3 ADD MLOAD DUP2 PUSH1 0x2 ADD PUSH1 0x0 PUSH2 0x100 EXP DUP2 SLOAD DUP2 PUSH20 0xFFFFFFFFFFFFFFFFFFFFFFFFFFFFFFFFFFFFFFFF MUL NOT AND SWAP1 DUP4 PUSH20 0xFFFFFFFFFFFFFFFFFFFFFFFFFFFFFFFFFFFFFFFF AND MUL OR SWAP1 SSTORE POP PUSH1 0x60 DUP3 ADD MLOAD DUP2 PUSH1 0x3 ADD SWAP1 DUP1 MLOAD SWAP1 PUSH1 0x20 ADD SWAP1 PUSH2 0x3E4 SWAP3 SWAP2 SWAP1 PUSH2 0x770 JUMP JUMPDEST POP SWAP1 POP POP POP POP POP JUMP JUMPDEST PUSH1 0x0 DUP3 PUSH1 0x2 DUP2 LT PUSH2 0x3FD JUMPI PUSH1 0x0 DUP1 REVERT JUMPDEST PUSH1 0x3 MUL ADD DUP2 PUSH1 0x3 DUP2 LT PUSH2 0x40F JUMPI PUSH1 0x0 DUP1 REVERT JUMPDEST ADD PUSH1 0x0 SWAP2 POP SWAP2 POP POP SLOAD DUP2 JUMP JUMPDEST PUSH1 0x0 PUSH1 0x7 PUSH1 0x0 DUP2 SLOAD PUSH2 0x42C SWAP1 PUSH2 0xE78 JUMP JUMPDEST DUP2 LT PUSH2 0x43B JUMPI PUSH2 0x43A PUSH2 0xF82 JUMP JUMPDEST JUMPDEST DUP2 SLOAD PUSH1 0x1 AND ISZERO PUSH2 0x45A JUMPI SWAP1 PUSH1 0x0 MSTORE PUSH1 0x20 PUSH1 0x0 KECCAK256 SWAP1 PUSH1 0x20 SWAP2 DUP3 DUP3 DIV ADD SWAP2 SWAP1 MOD JUMPDEST SWAP1 SLOAD SWAP1 BYTE PUSH32 0x100000000000000000000000000000000000000000000000000000000000000 MUL SWAP1 POP SWAP1 JUMP JUMPDEST PUSH1 0x40 MLOAD DUP1 PUSH1 0x40 ADD PUSH1 0x40 MSTORE DUP1 PUSH1 0x40 MLOAD DUP1 PUSH1 0x60 ADD PUSH1 0x40 MSTORE DUP1 PUSH1 0x3 PUSH1 0xFF AND DUP2 MSTORE PUSH1 0x20 ADD PUSH1 0x4 PUSH1 0xFF AND DUP2 MSTORE PUSH1 0x20 ADD PUSH1 0x5 PUSH1 0xFF AND DUP2 MSTORE POP DUP2 MSTORE PUSH1 0x20 ADD PUSH1 0x40 MLOAD DUP1 PUSH1 0x60 ADD PUSH1 0x40 MSTORE DUP1 PUSH1 0x6 PUSH1 0xFF AND DUP2 MSTORE PUSH1 0x20 ADD PUSH1 0x7 PUSH1 0xFF AND DUP2 MSTORE PUSH1 0x20 ADD PUSH1 0x8 PUSH1 0xFF AND DUP2 MSTORE POP DUP2 MSTORE POP PUSH1 0x0 SWAP1 PUSH1 0x2 PUSH2 0x4F6 SWAP3 SWAP2 SWAP1 PUSH2 0x7F6 JUMP JUMPDEST POP JUMP JUMPDEST PUSH2 0x501 PUSH2 0x847 JUMP JUMPDEST PUSH1 0x8 PUSH1 0x0 DUP5 PUSH20 0xFFFFFFFFFFFFFFFFFFFFFFFFFFFFFFFFFFFFFFFF AND PUSH20 0xFFFFFFFFFFFFFFFFFFFFFFFFFFFFFFFFFFFFFFFF AND DUP2 MSTORE PUSH1 0x20 ADD SWAP1 DUP2 MSTORE PUSH1 0x20 ADD PUSH1 0x0 KECCAK256 PUSH1 0x1 ADD PUSH1 0x0 DUP4 DUP2 MSTORE PUSH1 0x20 ADD SWAP1 DUP2 MSTORE PUSH1 0x20 ADD PUSH1 0x0 KECCAK256 PUSH1 0x40 MLOAD DUP1 PUSH1 0x80 ADD PUSH1 0x40 MSTORE SWAP1 DUP2 PUSH1 0x0 DUP3 ADD SLOAD DUP2 MSTORE PUSH1 0x20 ADD PUSH1 0x1 DUP3 ADD SLOAD DUP2 MSTORE PUSH1 0x20 ADD PUSH1 0x2 DUP3 ADD PUSH1 0x0 SWAP1 SLOAD SWAP1 PUSH2 0x100 EXP SWAP1 DIV PUSH20 0xFFFFFFFFFFFFFFFFFFFFFFFFFFFFFFFFFFFFFFFF AND PUSH20 0xFFFFFFFFFFFFFFFFFFFFFFFFFFFFFFFFFFFFFFFF AND PUSH20 0xFFFFFFFFFFFFFFFFFFFFFFFFFFFFFFFFFFFFFFFF AND DUP2 MSTORE PUSH1 0x20 ADD PUSH1 0x3 DUP3 ADD DUP1 SLOAD PUSH2 0x5D9 SWAP1 PUSH2 0xE78 JUMP JUMPDEST DUP1 PUSH1 0x1F ADD PUSH1 0x20 DUP1 SWAP2 DIV MUL PUSH1 0x20 ADD PUSH1 0x40 MLOAD SWAP1 DUP2 ADD PUSH1 0x40 MSTORE DUP1 SWAP3 SWAP2 SWAP1 DUP2 DUP2 MSTORE PUSH1 0x20 ADD DUP3 DUP1 SLOAD PUSH2 0x605 SWAP1 PUSH2 0xE78 JUMP JUMPDEST DUP1 ISZERO PUSH2 0x652 JUMPI DUP1 PUSH1 0x1F LT PUSH2 0x627 JUMPI PUSH2 0x100 DUP1 DUP4 SLOAD DIV MUL DUP4 MSTORE SWAP2 PUSH1 0x20 ADD SWAP2 PUSH2 0x652 JUMP JUMPDEST DUP3 ADD SWAP2 SWAP1 PUSH1 0x0 MSTORE PUSH1 0x20 PUSH1 0x0 KECCAK256 SWAP1 JUMPDEST DUP2 SLOAD DUP2 MSTORE SWAP1 PUSH1 0x1 ADD SWAP1 PUSH1 0x20 ADD DUP1 DUP4 GT PUSH2 0x635 JUMPI DUP3 SWAP1 SUB PUSH1 0x1F AND DUP3 ADD SWAP2 JUMPDEST POP POP POP POP POP DUP2 MSTORE POP POP SWAP1 POP SWAP3 SWAP2 POP POP JUMP JUMPDEST PUSH1 0x60 PUSH1 0x0 PUSH1 0xA PUSH8 0xFFFFFFFFFFFFFFFF DUP2 GT ISZERO PUSH2 0x682 JUMPI PUSH2 0x681 PUSH2 0xFB1 JUMP JUMPDEST JUMPDEST PUSH1 0x40 MLOAD SWAP1 DUP1 DUP3 MSTORE DUP1 PUSH1 0x20 MUL PUSH1 0x20 ADD DUP3 ADD PUSH1 0x40 MSTORE DUP1 ISZERO PUSH2 0x6B0 JUMPI DUP2 PUSH1 0x20 ADD PUSH1 0x20 DUP3 MUL DUP1 CALLDATASIZE DUP4 CALLDATACOPY DUP1 DUP3 ADD SWAP2 POP POP SWAP1 POP JUMPDEST POP SWAP1 POP PUSH1 0x1 DUP2 PUSH1 0x0 DUP2 MLOAD DUP2 LT PUSH2 0x6C9 JUMPI PUSH2 0x6C8 PUSH2 0xF82 JUMP JUMPDEST JUMPDEST PUSH1 0x20 MUL PUSH1 0x20 ADD ADD DUP2 DUP2 MSTORE POP POP DUP1 SWAP2 POP POP SWAP1 JUMP JUMPDEST PUSH1 0x6 SLOAD DUP2 JUMP JUMPDEST PUSH1 0x7 DUP1 SLOAD PUSH2 0x6EF SWAP1 PUSH2 0xE78 JUMP JUMPDEST DUP1 PUSH1 0x1F ADD PUSH1 0x20 DUP1 SWAP2 DIV MUL PUSH1 0x20 ADD PUSH1 0x40 MLOAD SWAP1 DUP2 ADD PUSH1 0x40 MSTORE DUP1 SWAP3 SWAP2 SWAP1 DUP2 DUP2 MSTORE PUSH1 0x20 ADD DUP3 DUP1 SLOAD PUSH2 0x71B SWAP1 PUSH2 0xE78 JUMP JUMPDEST DUP1 ISZERO PUSH2 0x768 JUMPI DUP1 PUSH1 0x1F LT PUSH2 0x73D JUMPI PUSH2 0x100 DUP1 DUP4 SLOAD DIV MUL DUP4 MSTORE SWAP2 PUSH1 0x20 ADD SWAP2 PUSH2 0x768 JUMP JUMPDEST DUP3 ADD SWAP2 SWAP1 PUSH1 0x0 MSTORE PUSH1 0x20 PUSH1 0x0 KECCAK256 SWAP1 JUMPDEST DUP2 SLOAD DUP2 MSTORE SWAP1 PUSH1 0x1 ADD SWAP1 PUSH1 0x20 ADD DUP1 DUP4 GT PUSH2 0x74B JUMPI DUP3 SWAP1 SUB PUSH1 0x1F AND DUP3 ADD SWAP2 JUMPDEST POP POP POP POP POP DUP2 JUMP JUMPDEST DUP3 DUP1 SLOAD PUSH2 0x77C SWAP1 PUSH2 0xE78 JUMP JUMPDEST SWAP1 PUSH1 0x0 MSTORE PUSH1 0x20 PUSH1 0x0 KECCAK256 SWAP1 PUSH1 0x1F ADD PUSH1 0x20 SWAP1 DIV DUP2 ADD SWAP3 DUP3 PUSH2 0x79E JUMPI PUSH1 0x0 DUP6 SSTORE PUSH2 0x7E5 JUMP JUMPDEST DUP3 PUSH1 0x1F LT PUSH2 0x7B7 JUMPI DUP1 MLOAD PUSH1 0xFF NOT AND DUP4 DUP1 ADD OR DUP6 SSTORE PUSH2 0x7E5 JUMP JUMPDEST DUP3 DUP1 ADD PUSH1 0x1 ADD DUP6 SSTORE DUP3 ISZERO PUSH2 0x7E5 JUMPI SWAP2 DUP3 ADD JUMPDEST DUP3 DUP2 GT ISZERO PUSH2 0x7E4 JUMPI DUP3 MLOAD DUP3 SSTORE SWAP2 PUSH1 0x20 ADD SWAP2 SWAP1 PUSH1 0x1 ADD SWAP1 PUSH2 0x7C9 JUMP JUMPDEST JUMPDEST POP SWAP1 POP PUSH2 0x7F2 SWAP2 SWAP1 PUSH2 0x885 JUMP JUMPDEST POP SWAP1 JUMP JUMPDEST DUP3 PUSH1 0x2 PUSH1 0x3 MUL DUP2 ADD SWAP3 DUP3 ISZERO PUSH2 0x836 JUMPI SWAP2 PUSH1 0x20 MUL DUP3 ADD JUMPDEST DUP3 DUP2 GT ISZERO PUSH2 0x835 JUMPI DUP3 MLOAD DUP3 SWAP1 PUSH1 0x3 PUSH2 0x825 SWAP3 SWAP2 SWAP1 PUSH2 0x8A2 JUMP JUMPDEST POP SWAP2 PUSH1 0x20 ADD SWAP2 SWAP1 PUSH1 0x3 ADD SWAP1 PUSH2 0x80C JUMP JUMPDEST JUMPDEST POP SWAP1 POP PUSH2 0x843 SWAP2 SWAP1 PUSH2 0x8E7 JUMP JUMPDEST POP SWAP1 JUMP JUMPDEST PUSH1 0x40 MLOAD DUP1 PUSH1 0x80 ADD PUSH1 0x40 MSTORE DUP1 PUSH1 0x0 DUP2 MSTORE PUSH1 0x20 ADD PUSH1 0x0 DUP2 MSTORE PUSH1 0x20 ADD PUSH1 0x0 PUSH20 0xFFFFFFFFFFFFFFFFFFFFFFFFFFFFFFFFFFFFFFFF AND DUP2 MSTORE PUSH1 0x20 ADD PUSH1 0x60 DUP2 MSTORE POP SWAP1 JUMP JUMPDEST JUMPDEST DUP1 DUP3 GT ISZERO PUSH2 0x89E JUMPI PUSH1 0x0 DUP2 PUSH1 0x0 SWAP1 SSTORE POP PUSH1 0x1 ADD PUSH2 0x886 JUMP JUMPDEST POP SWAP1 JUMP JUMPDEST DUP3 PUSH1 0x3 DUP2 ADD SWAP3 DUP3 ISZERO PUSH2 0x8D6 JUMPI SWAP2 PUSH1 0x20 MUL DUP3 ADD JUMPDEST DUP3 DUP2 GT ISZERO PUSH2 0x8D5 JUMPI DUP3 MLOAD DUP3 SWAP1 PUSH1 0xFF AND SWAP1 SSTORE SWAP2 PUSH1 0x20 ADD SWAP2 SWAP1 PUSH1 0x1 ADD SWAP1 PUSH2 0x8B5 JUMP JUMPDEST JUMPDEST POP SWAP1 POP PUSH2 0x8E3 SWAP2 SWAP1 PUSH2 0x885 JUMP JUMPDEST POP SWAP1 JUMP JUMPDEST JUMPDEST DUP1 DUP3 GT ISZERO PUSH2 0x907 JUMPI PUSH1 0x0 DUP2 DUP2 PUSH2 0x8FE SWAP2 SWAP1 PUSH2 0x90B JUMP JUMPDEST POP PUSH1 0x3 ADD PUSH2 0x8E8 JUMP JUMPDEST POP SWAP1 JUMP JUMPDEST POP PUSH1 0x0 DUP2 SSTORE PUSH1 0x1 ADD PUSH1 0x0 DUP2 SSTORE PUSH1 0x1 ADD PUSH1 0x0 SWAP1 SSTORE JUMP JUMPDEST PUSH1 0x0 PUSH2 0x933 PUSH2 0x92E DUP5 PUSH2 0xD22 JUMP JUMPDEST PUSH2 0xCFD JUMP JUMPDEST SWAP1 POP DUP3 DUP2 MSTORE PUSH1 0x20 DUP2 ADD DUP5 DUP5 DUP5 ADD GT ISZERO PUSH2 0x94F JUMPI PUSH2 0x94E PUSH2 0xFE5 JUMP JUMPDEST JUMPDEST PUSH2 0x95A DUP5 DUP3 DUP6 PUSH2 0xE36 JUMP JUMPDEST POP SWAP4 SWAP3 POP POP POP JUMP JUMPDEST PUSH1 0x0 DUP2 CALLDATALOAD SWAP1 POP PUSH2 0x971 DUP2 PUSH2 0x1005 JUMP JUMPDEST SWAP3 SWAP2 POP POP JUMP JUMPDEST PUSH1 0x0 DUP3 PUSH1 0x1F DUP4 ADD SLT PUSH2 0x98C JUMPI PUSH2 0x98B PUSH2 0xFE0 JUMP JUMPDEST JUMPDEST DUP2 CALLDATALOAD PUSH2 0x99C DUP5 DUP3 PUSH1 0x20 DUP7 ADD PUSH2 0x920 JUMP JUMPDEST SWAP2 POP POP SWAP3 SWAP2 POP POP JUMP JUMPDEST PUSH1 0x0 DUP2 CALLDATALOAD SWAP1 POP PUSH2 0x9B4 DUP2 PUSH2 0x101C JUMP JUMPDEST SWAP3 SWAP2 POP POP JUMP JUMPDEST PUSH1 0x0 PUSH1 0x20 DUP3 DUP5 SUB SLT ISZERO PUSH2 0x9D0 JUMPI PUSH2 0x9CF PUSH2 0xFEF JUMP JUMPDEST JUMPDEST PUSH1 0x0 PUSH2 0x9DE DUP5 DUP3 DUP6 ADD PUSH2 0x962 JUMP JUMPDEST SWAP2 POP POP SWAP3 SWAP2 POP POP JUMP JUMPDEST PUSH1 0x0 DUP1 PUSH1 0x40 DUP4 DUP6 SUB SLT ISZERO PUSH2 0x9FE JUMPI PUSH2 0x9FD PUSH2 0xFEF JUMP JUMPDEST JUMPDEST PUSH1 0x0 PUSH2 0xA0C DUP6 DUP3 DUP7 ADD PUSH2 0x962 JUMP JUMPDEST SWAP3 POP POP PUSH1 0x20 PUSH2 0xA1D DUP6 DUP3 DUP7 ADD PUSH2 0x9A5 JUMP JUMPDEST SWAP2 POP POP SWAP3 POP SWAP3 SWAP1 POP JUMP JUMPDEST PUSH1 0x0 PUSH1 0x20 DUP3 DUP5 SUB SLT ISZERO PUSH2 0xA3D JUMPI PUSH2 0xA3C PUSH2 0xFEF JUMP JUMPDEST JUMPDEST PUSH1 0x0 DUP3 ADD CALLDATALOAD PUSH8 0xFFFFFFFFFFFFFFFF DUP2 GT ISZERO PUSH2 0xA5B JUMPI PUSH2 0xA5A PUSH2 0xFEA JUMP JUMPDEST JUMPDEST PUSH2 0xA67 DUP5 DUP3 DUP6 ADD PUSH2 0x977 JUMP JUMPDEST SWAP2 POP POP SWAP3 SWAP2 POP POP JUMP JUMPDEST PUSH1 0x0 DUP1 PUSH1 0x40 DUP4 DUP6 SUB SLT ISZERO PUSH2 0xA87 JUMPI PUSH2 0xA86 PUSH2 0xFEF JUMP JUMPDEST JUMPDEST PUSH1 0x0 PUSH2 0xA95 DUP6 DUP3 DUP7 ADD PUSH2 0x9A5 JUMP JUMPDEST SWAP3 POP POP PUSH1 0x20 PUSH2 0xAA6 DUP6 DUP3 DUP7 ADD PUSH2 0x9A5 JUMP JUMPDEST SWAP2 POP POP SWAP3 POP SWAP3 SWAP1 POP JUMP JUMPDEST PUSH1 0x0 PUSH2 0xABC DUP4 DUP4 PUSH2 0xC28 JUMP JUMPDEST PUSH1 0x20 DUP4 ADD SWAP1 POP SWAP3 SWAP2 POP POP JUMP JUMPDEST PUSH2 0xAD1 DUP2 PUSH2 0xDC4 JUMP JUMPDEST DUP3 MSTORE POP POP JUMP JUMPDEST PUSH1 0x0 PUSH2 0xAE2 DUP3 PUSH2 0xD63 JUMP JUMPDEST PUSH2 0xAEC DUP2 DUP6 PUSH2 0xD91 JUMP JUMPDEST SWAP4 POP PUSH2 0xAF7 DUP4 PUSH2 0xD53 JUMP JUMPDEST DUP1 PUSH1 0x0 JUMPDEST DUP4 DUP2 LT ISZERO PUSH2 0xB28 JUMPI DUP2 MLOAD PUSH2 0xB0F DUP9 DUP3 PUSH2 0xAB0 JUMP JUMPDEST SWAP8 POP PUSH2 0xB1A DUP4 PUSH2 0xD84 JUMP JUMPDEST SWAP3 POP POP PUSH1 0x1 DUP2 ADD SWAP1 POP PUSH2 0xAFB JUMP JUMPDEST POP DUP6 SWAP4 POP POP POP POP SWAP3 SWAP2 POP POP JUMP JUMPDEST PUSH2 0xB3E DUP2 PUSH2 0xDD6 JUMP JUMPDEST DUP3 MSTORE POP POP JUMP JUMPDEST PUSH2 0xB4D DUP2 PUSH2 0xE02 JUMP JUMPDEST DUP3 MSTORE POP POP JUMP JUMPDEST PUSH1 0x0 PUSH2 0xB5E DUP3 PUSH2 0xD6E JUMP JUMPDEST PUSH2 0xB68 DUP2 DUP6 PUSH2 0xDA2 JUMP JUMPDEST SWAP4 POP PUSH2 0xB78 DUP2 DUP6 PUSH1 0x20 DUP7 ADD PUSH2 0xE45 JUMP JUMPDEST PUSH2 0xB81 DUP2 PUSH2 0xFF4 JUMP JUMPDEST DUP5 ADD SWAP2 POP POP SWAP3 SWAP2 POP POP JUMP JUMPDEST PUSH1 0x0 PUSH2 0xB97 DUP3 PUSH2 0xD79 JUMP JUMPDEST PUSH2 0xBA1 DUP2 DUP6 PUSH2 0xDB3 JUMP JUMPDEST SWAP4 POP PUSH2 0xBB1 DUP2 DUP6 PUSH1 0x20 DUP7 ADD PUSH2 0xE45 JUMP JUMPDEST PUSH2 0xBBA DUP2 PUSH2 0xFF4 JUMP JUMPDEST DUP5 ADD SWAP2 POP POP SWAP3 SWAP2 POP POP JUMP JUMPDEST PUSH1 0x0 PUSH1 0x80 DUP4 ADD PUSH1 0x0 DUP4 ADD MLOAD PUSH2 0xBDD PUSH1 0x0 DUP7 ADD DUP3 PUSH2 0xC28 JUMP JUMPDEST POP PUSH1 0x20 DUP4 ADD MLOAD PUSH2 0xBF0 PUSH1 0x20 DUP7 ADD DUP3 PUSH2 0xC28 JUMP JUMPDEST POP PUSH1 0x40 DUP4 ADD MLOAD PUSH2 0xC03 PUSH1 0x40 DUP7 ADD DUP3 PUSH2 0xAC8 JUMP JUMPDEST POP PUSH1 0x60 DUP4 ADD MLOAD DUP5 DUP3 SUB PUSH1 0x60 DUP7 ADD MSTORE PUSH2 0xC1B DUP3 DUP3 PUSH2 0xB8C JUMP JUMPDEST SWAP2 POP POP DUP1 SWAP2 POP POP SWAP3 SWAP2 POP POP JUMP JUMPDEST PUSH2 0xC31 DUP2 PUSH2 0xE2C JUMP JUMPDEST DUP3 MSTORE POP POP JUMP JUMPDEST PUSH2 0xC40 DUP2 PUSH2 0xE2C JUMP JUMPDEST DUP3 MSTORE POP POP JUMP JUMPDEST PUSH1 0x0 PUSH1 0x20 DUP3 ADD SWAP1 POP DUP2 DUP2 SUB PUSH1 0x0 DUP4 ADD MSTORE PUSH2 0xC60 DUP2 DUP5 PUSH2 0xAD7 JUMP JUMPDEST SWAP1 POP SWAP3 SWAP2 POP POP JUMP JUMPDEST PUSH1 0x0 PUSH1 0x20 DUP3 ADD SWAP1 POP PUSH2 0xC7D PUSH1 0x0 DUP4 ADD DUP5 PUSH2 0xB35 JUMP JUMPDEST SWAP3 SWAP2 POP POP JUMP JUMPDEST PUSH1 0x0 PUSH1 0x20 DUP3 ADD SWAP1 POP PUSH2 0xC98 PUSH1 0x0 DUP4 ADD DUP5 PUSH2 0xB44 JUMP JUMPDEST SWAP3 SWAP2 POP POP JUMP JUMPDEST PUSH1 0x0 PUSH1 0x20 DUP3 ADD SWAP1 POP DUP2 DUP2 SUB PUSH1 0x0 DUP4 ADD MSTORE PUSH2 0xCB8 DUP2 DUP5 PUSH2 0xB53 JUMP JUMPDEST SWAP1 POP SWAP3 SWAP2 POP POP JUMP JUMPDEST PUSH1 0x0 PUSH1 0x20 DUP3 ADD SWAP1 POP DUP2 DUP2 SUB PUSH1 0x0 DUP4 ADD MSTORE PUSH2 0xCDA DUP2 DUP5 PUSH2 0xBC5 JUMP JUMPDEST SWAP1 POP SWAP3 SWAP2 POP POP JUMP JUMPDEST PUSH1 0x0 PUSH1 0x20 DUP3 ADD SWAP1 POP PUSH2 0xCF7 PUSH1 0x0 DUP4 ADD DUP5 PUSH2 0xC37 JUMP JUMPDEST SWAP3 SWAP2 POP POP JUMP JUMPDEST PUSH1 0x0 PUSH2 0xD07 PUSH2 0xD18 JUMP JUMPDEST SWAP1 POP PUSH2 0xD13 DUP3 DUP3 PUSH2 0xEAA JUMP JUMPDEST SWAP2 SWAP1 POP JUMP JUMPDEST PUSH1 0x0 PUSH1 0x40 MLOAD SWAP1 POP SWAP1 JUMP JUMPDEST PUSH1 0x0 PUSH8 0xFFFFFFFFFFFFFFFF DUP3 GT ISZERO PUSH2 0xD3D JUMPI PUSH2 0xD3C PUSH2 0xFB1 JUMP JUMPDEST JUMPDEST PUSH2 0xD46 DUP3 PUSH2 0xFF4 JUMP JUMPDEST SWAP1 POP PUSH1 0x20 DUP2 ADD SWAP1 POP SWAP2 SWAP1 POP JUMP JUMPDEST PUSH1 0x0 DUP2 SWAP1 POP PUSH1 0x20 DUP3 ADD SWAP1 POP SWAP2 SWAP1 POP JUMP JUMPDEST PUSH1 0x0 DUP2 MLOAD SWAP1 POP SWAP2 SWAP1 POP JUMP JUMPDEST PUSH1 0x0 DUP2 MLOAD SWAP1 POP SWAP2 SWAP1 POP JUMP JUMPDEST PUSH1 0x0 DUP2 MLOAD SWAP1 POP SWAP2 SWAP1 POP JUMP JUMPDEST PUSH1 0x0 PUSH1 0x20 DUP3 ADD SWAP1 POP SWAP2 SWAP1 POP JUMP JUMPDEST PUSH1 0x0 DUP3 DUP3 MSTORE PUSH1 0x20 DUP3 ADD SWAP1 POP SWAP3 SWAP2 POP POP JUMP JUMPDEST PUSH1 0x0 DUP3 DUP3 MSTORE PUSH1 0x20 DUP3 ADD SWAP1 POP SWAP3 SWAP2 POP POP JUMP JUMPDEST PUSH1 0x0 DUP3 DUP3 MSTORE PUSH1 0x20 DUP3 ADD SWAP1 POP SWAP3 SWAP2 POP POP JUMP JUMPDEST PUSH1 0x0 PUSH2 0xDCF DUP3 PUSH2 0xE0C JUMP JUMPDEST SWAP1 POP SWAP2 SWAP1 POP JUMP JUMPDEST PUSH1 0x0 PUSH32 0xFF00000000000000000000000000000000000000000000000000000000000000 DUP3 AND SWAP1 POP SWAP2 SWAP1 POP JUMP JUMPDEST PUSH1 0x0 DUP2 SWAP1 POP SWAP2 SWAP1 POP JUMP JUMPDEST PUSH1 0x0 PUSH20 0xFFFFFFFFFFFFFFFFFFFFFFFFFFFFFFFFFFFFFFFF DUP3 AND SWAP1 POP SWAP2 SWAP1 POP JUMP JUMPDEST PUSH1 0x0 DUP2 SWAP1 POP SWAP2 SWAP1 POP JUMP JUMPDEST DUP3 DUP2 DUP4 CALLDATACOPY PUSH1 0x0 DUP4 DUP4 ADD MSTORE POP POP POP JUMP JUMPDEST PUSH1 0x0 JUMPDEST DUP4 DUP2 LT ISZERO PUSH2 0xE63 JUMPI DUP1 DUP3 ADD MLOAD DUP2 DUP5 ADD MSTORE PUSH1 0x20 DUP2 ADD SWAP1 POP PUSH2 0xE48 JUMP JUMPDEST DUP4 DUP2 GT ISZERO PUSH2 0xE72 JUMPI PUSH1 0x0 DUP5 DUP5 ADD MSTORE JUMPDEST POP POP POP POP JUMP JUMPDEST PUSH1 0x0 PUSH1 0x2 DUP3 DIV SWAP1 POP PUSH1 0x1 DUP3 AND DUP1 PUSH2 0xE90 JUMPI PUSH1 0x7F DUP3 AND SWAP2 POP JUMPDEST PUSH1 0x20 DUP3 LT DUP2 EQ ISZERO PUSH2 0xEA4 JUMPI PUSH2 0xEA3 PUSH2 0xF53 JUMP JUMPDEST JUMPDEST POP SWAP2 SWAP1 POP JUMP JUMPDEST PUSH2 0xEB3 DUP3 PUSH2 0xFF4 JUMP JUMPDEST DUP2 ADD DUP2 DUP2 LT PUSH8 0xFFFFFFFFFFFFFFFF DUP3 GT OR ISZERO PUSH2 0xED2 JUMPI PUSH2 0xED1 PUSH2 0xFB1 JUMP JUMPDEST JUMPDEST DUP1 PUSH1 0x40 MSTORE POP POP POP JUMP JUMPDEST PUSH1 0x0 PUSH2 0xEE6 DUP3 PUSH2 0xE2C JUMP JUMPDEST SWAP2 POP PUSH32 0xFFFFFFFFFFFFFFFFFFFFFFFFFFFFFFFFFFFFFFFFFFFFFFFFFFFFFFFFFFFFFFFF DUP3 EQ ISZERO PUSH2 0xF19 JUMPI PUSH2 0xF18 PUSH2 0xF24 JUMP JUMPDEST JUMPDEST PUSH1 0x1 DUP3 ADD SWAP1 POP SWAP2 SWAP1 POP JUMP JUMPDEST PUSH32 0x4E487B7100000000000000000000000000000000000000000000000000000000 PUSH1 0x0 MSTORE PUSH1 0x11 PUSH1 0x4 MSTORE PUSH1 0x24 PUSH1 0x0 REVERT JUMPDEST PUSH32 0x4E487B7100000000000000000000000000000000000000000000000000000000 PUSH1 0x0 MSTORE PUSH1 0x22 PUSH1 0x4 MSTORE PUSH1 0x24 PUSH1 0x0 REVERT JUMPDEST PUSH32 0x4E487B7100000000000000000000000000000000000000000000000000000000 PUSH1 0x0 MSTORE PUSH1 0x32 PUSH1 0x4 MSTORE PUSH1 0x24 PUSH1 0x0 REVERT JUMPDEST PUSH32 0x4E487B7100000000000000000000000000000000000000000000000000000000 PUSH1 0x0 MSTORE PUSH1 0x41 PUSH1 0x4 MSTORE PUSH1 0x24 PUSH1 0x0 REVERT JUMPDEST PUSH1 0x0 DUP1 REVERT JUMPDEST PUSH1 0x0 DUP1 REVERT JUMPDEST PUSH1 0x0 DUP1 REVERT JUMPDEST PUSH1 0x0 DUP1 REVERT JUMPDEST PUSH1 0x0 PUSH1 0x1F NOT PUSH1 0x1F DUP4 ADD AND SWAP1 POP SWAP2 SWAP1 POP JUMP JUMPDEST PUSH2 0x100E DUP2 PUSH2 0xDC4 JUMP JUMPDEST DUP2 EQ PUSH2 0x1019 JUMPI PUSH1 0x0 DUP1 REVERT JUMPDEST POP JUMP JUMPDEST PUSH2 0x1025 DUP2 PUSH2 0xE2C JUMP JUMPDEST DUP2 EQ PUSH2 0x1030 JUMPI PUSH1 0x0 DUP1 REVERT JUMPDEST POP JUMP INVALID LOG2 PUSH5 0x6970667358 0x22 SLT KECCAK256 SWAP8 0xAD 0xB4 0xD3 0xC9 0x26 DUP16 OR 0xEC JUMPI PUSH9 0x4589F9ADC137633D45 0xCE 0xDC PUSH16 0xF4DD0440AE8BEB8BCC64736F6C634300 ADDMOD SMOD STOP CALLER "
				},
				"gasEstimates": {
					"creation": {
						"codeDepositCost": "840200",
						"executionCost": "infinite",
						"totalCost": "infinite"
					},
					"external": {
						"balances(address)": "2829",
						"firstByte()": "6992",
						"fixedSize()": "infinite",
						"getPayment(address,uint256)": "infinite",
						"items(uint256,uint256)": "infinite",
						"myDynVar()": "infinite",
						"myVar()": "2495",
						"pay(string)": "infinite",
						"sampleMemory()": "infinite"
					}
				},
				"methodIdentifiers": {
					"balances(address)": "27e235e3",
					"firstByte()": "654c914f",
					"fixedSize()": "736172d3",
					"getPayment(address,uint256)": "977a767c",
					"items(uint256,uint256)": "31e838dd",
					"myDynVar()": "ffb1e210",
					"myVar()": "c6b91540",
					"pay(string)": "2b66d72e",
					"sampleMemory()": "a34343c9"
				}
			},
			"storageLayout": {
				"storage": [
					{
						"astId": 7,
						"contract": "contracts/tipi2.sol:Demo",
						"label": "items",
						"offset": 0,
						"slot": "0",
						"type": "t_array(t_array(t_uint256)3_storage)2_storage"
					},
					{
						"astId": 52,
						"contract": "contracts/tipi2.sol:Demo",
						"label": "myVar",
						"offset": 0,
						"slot": "6",
						"type": "t_bytes32"
					},
					{
						"astId": 55,
						"contract": "contracts/tipi2.sol:Demo",
						"label": "myDynVar",
						"offset": 0,
						"slot": "7",
						"type": "t_bytes_storage"
					},
					{
						"astId": 87,
						"contract": "contracts/tipi2.sol:Demo",
						"label": "balances",
						"offset": 0,
						"slot": "8",
						"type": "t_mapping(t_address,t_struct(Balance)82_storage)"
					}
				],
				"types": {
					"t_address": {
						"encoding": "inplace",
						"label": "address",
						"numberOfBytes": "20"
					},
					"t_array(t_array(t_uint256)3_storage)2_storage": {
						"base": "t_array(t_uint256)3_storage",
						"encoding": "inplace",
						"label": "uint256[3][2]",
						"numberOfBytes": "192"
					},
					"t_array(t_uint256)3_storage": {
						"base": "t_uint256",
						"encoding": "inplace",
						"label": "uint256[3]",
						"numberOfBytes": "96"
					},
					"t_bytes32": {
						"encoding": "inplace",
						"label": "bytes32",
						"numberOfBytes": "32"
					},
					"t_bytes_storage": {
						"encoding": "bytes",
						"label": "bytes",
						"numberOfBytes": "32"
					},
					"t_mapping(t_address,t_struct(Balance)82_storage)": {
						"encoding": "mapping",
						"key": "t_address",
						"label": "mapping(address => struct Demo.Balance)",
						"numberOfBytes": "32",
						"value": "t_struct(Balance)82_storage"
					},
					"t_mapping(t_uint256,t_struct(Payment)74_storage)": {
						"encoding": "mapping",
						"key": "t_uint256",
						"label": "mapping(uint256 => struct Demo.Payment)",
						"numberOfBytes": "32",
						"value": "t_struct(Payment)74_storage"
					},
					"t_string_storage": {
						"encoding": "bytes",
						"label": "string",
						"numberOfBytes": "32"
					},
					"t_struct(Balance)82_storage": {
						"encoding": "inplace",
						"label": "struct Demo.Balance",
						"members": [
							{
								"astId": 76,
								"contract": "contracts/tipi2.sol:Demo",
								"label": "totalPayments",
								"offset": 0,
								"slot": "0",
								"type": "t_uint256"
							},
							{
								"astId": 81,
								"contract": "contracts/tipi2.sol:Demo",
								"label": "payments",
								"offset": 0,
								"slot": "1",
								"type": "t_mapping(t_uint256,t_struct(Payment)74_storage)"
							}
						],
						"numberOfBytes": "64"
					},
					"t_struct(Payment)74_storage": {
						"encoding": "inplace",
						"label": "struct Demo.Payment",
						"members": [
							{
								"astId": 67,
								"contract": "contracts/tipi2.sol:Demo",
								"label": "amount",
								"offset": 0,
								"slot": "0",
								"type": "t_uint256"
							},
							{
								"astId": 69,
								"contract": "contracts/tipi2.sol:Demo",
								"label": "timestamp",
								"offset": 0,
								"slot": "1",
								"type": "t_uint256"
							},
							{
								"astId": 71,
								"contract": "contracts/tipi2.sol:Demo",
								"label": "from",
								"offset": 0,
								"slot": "2",
								"type": "t_address"
							},
							{
								"astId": 73,
								"contract": "contracts/tipi2.sol:Demo",
								"label": "message",
								"offset": 0,
								"slot": "3",
								"type": "t_string_storage"
							}
						],
						"numberOfBytes": "128"
					},
					"t_uint256": {
						"encoding": "inplace",
						"label": "uint256",
						"numberOfBytes": "32"
					}
				}
			},
			"userdoc": {
				"kind": "user",
				"methods": {},
				"version": 1
			}
		}
	}
}