{
	"contracts/tipi2.sol": {
		"Demo": {
			"abi": [
				{
					"inputs": [],
					"name": "currentStatus",
					"outputs": [
						{
							"internalType": "enum Demo.Status",
							"name": "",
							"type": "uint8"
						}
					],
					"stateMutability": "view",
					"type": "function"
				},
				{
					"inputs": [],
					"name": "delivered",
					"outputs": [],
					"stateMutability": "nonpayable",
					"type": "function"
				},
				{
					"inputs": [],
					"name": "demo",
					"outputs": [],
					"stateMutability": "nonpayable",
					"type": "function"
				},
				{
					"inputs": [
						{
							"internalType": "uint256",
							"name": "",
							"type": "uint256"
						}
					],
					"name": "items",
					"outputs": [
						{
							"internalType": "uint256",
							"name": "",
							"type": "uint256"
						}
					],
					"stateMutability": "view",
					"type": "function"
				},
				{
					"inputs": [],
					"name": "pay",
					"outputs": [],
					"stateMutability": "nonpayable",
					"type": "function"
				}
			],
			"devdoc": {
				"kind": "dev",
				"methods": {},
				"version": 1
			},
			"evm": {
				"assembly": "    /* \"contracts/tipi2.sol\":62:470  contract Demo {\r... */\n  mstore(0x40, 0x80)\n  callvalue\n  dup1\n  iszero\n  tag_1\n  jumpi\n  0x00\n  dup1\n  revert\ntag_1:\n  pop\n  dataSize(sub_0)\n  dup1\n  dataOffset(sub_0)\n  0x00\n  codecopy\n  0x00\n  return\nstop\n\nsub_0: assembly {\n        /* \"contracts/tipi2.sol\":62:470  contract Demo {\r... */\n      mstore(0x40, 0x80)\n      callvalue\n      dup1\n      iszero\n      tag_1\n      jumpi\n      0x00\n      dup1\n      revert\n    tag_1:\n      pop\n      jumpi(tag_2, lt(calldatasize, 0x04))\n      shr(0xe0, calldataload(0x00))\n      dup1\n      0x01725a0b\n      eq\n      tag_3\n      jumpi\n      dup1\n      0x1b9265b8\n      eq\n      tag_4\n      jumpi\n      dup1\n      0xbbdfbfba\n      eq\n      tag_5\n      jumpi\n      dup1\n      0xbfb231d2\n      eq\n      tag_6\n      jumpi\n      dup1\n      0xef8a9235\n      eq\n      tag_7\n      jumpi\n    tag_2:\n      0x00\n      dup1\n      revert\n        /* \"contracts/tipi2.sol\":125:206  function demo() public {\r... */\n    tag_3:\n      tag_8\n      tag_9\n      jump\t// in\n    tag_8:\n      stop\n        /* \"contracts/tipi2.sol\":308:376  function pay() public {\r... */\n    tag_4:\n      tag_10\n      tag_11\n      jump\t// in\n    tag_10:\n      stop\n        /* \"contracts/tipi2.sol\":388:467  function delivered() public {\r... */\n    tag_5:\n      tag_12\n      tag_13\n      jump\t// in\n    tag_12:\n      stop\n        /* \"contracts/tipi2.sol\":97:118  uint[10] public items */\n    tag_6:\n      tag_14\n      0x04\n      dup1\n      calldatasize\n      sub\n      dup2\n      add\n      swap1\n      tag_15\n      swap2\n      swap1\n      tag_16\n      jump\t// in\n    tag_15:\n      tag_17\n      jump\t// in\n    tag_14:\n      mload(0x40)\n      tag_18\n      swap2\n      swap1\n      tag_19\n      jump\t// in\n    tag_18:\n      mload(0x40)\n      dup1\n      swap2\n      sub\n      swap1\n      return\n        /* \"contracts/tipi2.sol\":272:299  Status public currentStatus */\n    tag_7:\n      tag_20\n      tag_21\n      jump\t// in\n    tag_20:\n      mload(0x40)\n      tag_22\n      swap2\n      swap1\n      tag_23\n      jump\t// in\n    tag_22:\n      mload(0x40)\n      dup1\n      swap2\n      sub\n      swap1\n      return\n        /* \"contracts/tipi2.sol\":125:206  function demo() public {\r... */\n    tag_9:\n        /* \"contracts/tipi2.sol\":170:173  100 */\n      0x64\n        /* \"contracts/tipi2.sol\":159:164  items */\n      0x00\n        /* \"contracts/tipi2.sol\":165:166  0 */\n      dup1\n        /* \"contracts/tipi2.sol\":159:167  items[0] */\n      0x0a\n      dup2\n      lt\n      tag_25\n      jumpi\n      tag_26\n      tag_27\n      jump\t// in\n    tag_26:\n    tag_25:\n      add\n        /* \"contracts/tipi2.sol\":159:173  items[0] = 100 */\n      dup2\n      swap1\n      sstore\n      pop\n        /* \"contracts/tipi2.sol\":195:198  500 */\n      0x01f4\n        /* \"contracts/tipi2.sol\":184:189  items */\n      0x00\n        /* \"contracts/tipi2.sol\":190:191  5 */\n      0x05\n        /* \"contracts/tipi2.sol\":184:192  items[5] */\n      0x0a\n      dup2\n      lt\n      tag_29\n      jumpi\n      tag_30\n      tag_27\n      jump\t// in\n    tag_30:\n    tag_29:\n      add\n        /* \"contracts/tipi2.sol\":184:198  items[5] = 500 */\n      dup2\n      swap1\n      sstore\n      pop\n        /* \"contracts/tipi2.sol\":125:206  function demo() public {\r... */\n      jump\t// out\n        /* \"contracts/tipi2.sol\":308:376  function pay() public {\r... */\n    tag_11:\n        /* \"contracts/tipi2.sol\":357:368  Status.Paid */\n      0x00\n        /* \"contracts/tipi2.sol\":341:354  currentStatus */\n      0x0a\n      0x00\n        /* \"contracts/tipi2.sol\":341:368  currentStatus = Status.Paid */\n      0x0100\n      exp\n      dup2\n      sload\n      dup2\n      0xff\n      mul\n      not\n      and\n      swap1\n      dup4\n      0x02\n      dup2\n      gt\n      iszero\n      tag_33\n      jumpi\n      tag_34\n      tag_35\n      jump\t// in\n    tag_34:\n    tag_33:\n      mul\n      or\n      swap1\n      sstore\n      pop\n        /* \"contracts/tipi2.sol\":308:376  function pay() public {\r... */\n      jump\t// out\n        /* \"contracts/tipi2.sol\":388:467  function delivered() public {\r... */\n    tag_13:\n        /* \"contracts/tipi2.sol\":443:459  Status.Delivered */\n      0x01\n        /* \"contracts/tipi2.sol\":427:440  currentStatus */\n      0x0a\n      0x00\n        /* \"contracts/tipi2.sol\":427:459  currentStatus = Status.Delivered */\n      0x0100\n      exp\n      dup2\n      sload\n      dup2\n      0xff\n      mul\n      not\n      and\n      swap1\n      dup4\n      0x02\n      dup2\n      gt\n      iszero\n      tag_37\n      jumpi\n      tag_38\n      tag_35\n      jump\t// in\n    tag_38:\n    tag_37:\n      mul\n      or\n      swap1\n      sstore\n      pop\n        /* \"contracts/tipi2.sol\":388:467  function delivered() public {\r... */\n      jump\t// out\n        /* \"contracts/tipi2.sol\":97:118  uint[10] public items */\n    tag_17:\n      0x00\n      dup2\n      0x0a\n      dup2\n      lt\n      tag_39\n      jumpi\n      0x00\n      dup1\n      revert\n    tag_39:\n      add\n      0x00\n      swap2\n      pop\n      swap1\n      pop\n      sload\n      dup2\n      jump\t// out\n        /* \"contracts/tipi2.sol\":272:299  Status public currentStatus */\n    tag_21:\n      0x0a\n      0x00\n      swap1\n      sload\n      swap1\n      0x0100\n      exp\n      swap1\n      div\n      0xff\n      and\n      dup2\n      jump\t// out\n        /* \"#utility.yul\":7:146   */\n    tag_42:\n        /* \"#utility.yul\":53:58   */\n      0x00\n        /* \"#utility.yul\":91:97   */\n      dup2\n        /* \"#utility.yul\":78:98   */\n      calldataload\n        /* \"#utility.yul\":69:98   */\n      swap1\n      pop\n        /* \"#utility.yul\":107:140   */\n      tag_44\n        /* \"#utility.yul\":134:139   */\n      dup2\n        /* \"#utility.yul\":107:140   */\n      tag_45\n      jump\t// in\n    tag_44:\n        /* \"#utility.yul\":7:146   */\n      swap3\n      swap2\n      pop\n      pop\n      jump\t// out\n        /* \"#utility.yul\":152:481   */\n    tag_16:\n        /* \"#utility.yul\":211:217   */\n      0x00\n        /* \"#utility.yul\":260:262   */\n      0x20\n        /* \"#utility.yul\":248:257   */\n      dup3\n        /* \"#utility.yul\":239:246   */\n      dup5\n        /* \"#utility.yul\":235:258   */\n      sub\n        /* \"#utility.yul\":231:263   */\n      slt\n        /* \"#utility.yul\":228:347   */\n      iszero\n      tag_47\n      jumpi\n        /* \"#utility.yul\":266:345   */\n      tag_48\n      tag_49\n      jump\t// in\n    tag_48:\n        /* \"#utility.yul\":228:347   */\n    tag_47:\n        /* \"#utility.yul\":386:387   */\n      0x00\n        /* \"#utility.yul\":411:464   */\n      tag_50\n        /* \"#utility.yul\":456:463   */\n      dup5\n        /* \"#utility.yul\":447:453   */\n      dup3\n        /* \"#utility.yul\":436:445   */\n      dup6\n        /* \"#utility.yul\":432:454   */\n      add\n        /* \"#utility.yul\":411:464   */\n      tag_42\n      jump\t// in\n    tag_50:\n        /* \"#utility.yul\":401:464   */\n      swap2\n      pop\n        /* \"#utility.yul\":357:474   */\n      pop\n        /* \"#utility.yul\":152:481   */\n      swap3\n      swap2\n      pop\n      pop\n      jump\t// out\n        /* \"#utility.yul\":487:632   */\n    tag_51:\n        /* \"#utility.yul\":581:625   */\n      tag_53\n        /* \"#utility.yul\":619:624   */\n      dup2\n        /* \"#utility.yul\":581:625   */\n      tag_54\n      jump\t// in\n    tag_53:\n        /* \"#utility.yul\":576:579   */\n      dup3\n        /* \"#utility.yul\":569:626   */\n      mstore\n        /* \"#utility.yul\":487:632   */\n      pop\n      pop\n      jump\t// out\n        /* \"#utility.yul\":638:756   */\n    tag_55:\n        /* \"#utility.yul\":725:749   */\n      tag_57\n        /* \"#utility.yul\":743:748   */\n      dup2\n        /* \"#utility.yul\":725:749   */\n      tag_58\n      jump\t// in\n    tag_57:\n        /* \"#utility.yul\":720:723   */\n      dup3\n        /* \"#utility.yul\":713:750   */\n      mstore\n        /* \"#utility.yul\":638:756   */\n      pop\n      pop\n      jump\t// out\n        /* \"#utility.yul\":762:998   */\n    tag_23:\n        /* \"#utility.yul\":862:866   */\n      0x00\n        /* \"#utility.yul\":900:902   */\n      0x20\n        /* \"#utility.yul\":889:898   */\n      dup3\n        /* \"#utility.yul\":885:903   */\n      add\n        /* \"#utility.yul\":877:903   */\n      swap1\n      pop\n        /* \"#utility.yul\":913:991   */\n      tag_60\n        /* \"#utility.yul\":988:989   */\n      0x00\n        /* \"#utility.yul\":977:986   */\n      dup4\n        /* \"#utility.yul\":973:990   */\n      add\n        /* \"#utility.yul\":964:970   */\n      dup5\n        /* \"#utility.yul\":913:991   */\n      tag_51\n      jump\t// in\n    tag_60:\n        /* \"#utility.yul\":762:998   */\n      swap3\n      swap2\n      pop\n      pop\n      jump\t// out\n        /* \"#utility.yul\":1004:1226   */\n    tag_19:\n        /* \"#utility.yul\":1097:1101   */\n      0x00\n        /* \"#utility.yul\":1135:1137   */\n      0x20\n        /* \"#utility.yul\":1124:1133   */\n      dup3\n        /* \"#utility.yul\":1120:1138   */\n      add\n        /* \"#utility.yul\":1112:1138   */\n      swap1\n      pop\n        /* \"#utility.yul\":1148:1219   */\n      tag_62\n        /* \"#utility.yul\":1216:1217   */\n      0x00\n        /* \"#utility.yul\":1205:1214   */\n      dup4\n        /* \"#utility.yul\":1201:1218   */\n      add\n        /* \"#utility.yul\":1192:1198   */\n      dup5\n        /* \"#utility.yul\":1148:1219   */\n      tag_55\n      jump\t// in\n    tag_62:\n        /* \"#utility.yul\":1004:1226   */\n      swap3\n      swap2\n      pop\n      pop\n      jump\t// out\n        /* \"#utility.yul\":1313:1442   */\n    tag_65:\n        /* \"#utility.yul\":1359:1366   */\n      0x00\n        /* \"#utility.yul\":1388:1393   */\n      dup2\n        /* \"#utility.yul\":1377:1393   */\n      swap1\n      pop\n        /* \"#utility.yul\":1394:1436   */\n      tag_67\n        /* \"#utility.yul\":1430:1435   */\n      dup3\n        /* \"#utility.yul\":1394:1436   */\n      tag_68\n      jump\t// in\n    tag_67:\n        /* \"#utility.yul\":1313:1442   */\n      swap2\n      swap1\n      pop\n      jump\t// out\n        /* \"#utility.yul\":1448:1525   */\n    tag_58:\n        /* \"#utility.yul\":1485:1492   */\n      0x00\n        /* \"#utility.yul\":1514:1519   */\n      dup2\n        /* \"#utility.yul\":1503:1519   */\n      swap1\n      pop\n        /* \"#utility.yul\":1448:1525   */\n      swap2\n      swap1\n      pop\n      jump\t// out\n        /* \"#utility.yul\":1531:1660   */\n    tag_54:\n        /* \"#utility.yul\":1588:1597   */\n      0x00\n        /* \"#utility.yul\":1621:1654   */\n      tag_71\n        /* \"#utility.yul\":1648:1653   */\n      dup3\n        /* \"#utility.yul\":1621:1654   */\n      tag_65\n      jump\t// in\n    tag_71:\n        /* \"#utility.yul\":1608:1654   */\n      swap1\n      pop\n        /* \"#utility.yul\":1531:1660   */\n      swap2\n      swap1\n      pop\n      jump\t// out\n        /* \"#utility.yul\":1666:1846   */\n    tag_35:\n        /* \"#utility.yul\":1714:1791   */\n      0x4e487b7100000000000000000000000000000000000000000000000000000000\n        /* \"#utility.yul\":1711:1712   */\n      0x00\n        /* \"#utility.yul\":1704:1792   */\n      mstore\n        /* \"#utility.yul\":1811:1815   */\n      0x21\n        /* \"#utility.yul\":1808:1809   */\n      0x04\n        /* \"#utility.yul\":1801:1816   */\n      mstore\n        /* \"#utility.yul\":1835:1839   */\n      0x24\n        /* \"#utility.yul\":1832:1833   */\n      0x00\n        /* \"#utility.yul\":1825:1840   */\n      revert\n        /* \"#utility.yul\":1852:2032   */\n    tag_27:\n        /* \"#utility.yul\":1900:1977   */\n      0x4e487b7100000000000000000000000000000000000000000000000000000000\n        /* \"#utility.yul\":1897:1898   */\n      0x00\n        /* \"#utility.yul\":1890:1978   */\n      mstore\n        /* \"#utility.yul\":1997:2001   */\n      0x32\n        /* \"#utility.yul\":1994:1995   */\n      0x04\n        /* \"#utility.yul\":1987:2002   */\n      mstore\n        /* \"#utility.yul\":2021:2025   */\n      0x24\n        /* \"#utility.yul\":2018:2019   */\n      0x00\n        /* \"#utility.yul\":2011:2026   */\n      revert\n        /* \"#utility.yul\":2161:2278   */\n    tag_49:\n        /* \"#utility.yul\":2270:2271   */\n      0x00\n        /* \"#utility.yul\":2267:2268   */\n      dup1\n        /* \"#utility.yul\":2260:2272   */\n      revert\n        /* \"#utility.yul\":2284:2398   */\n    tag_68:\n        /* \"#utility.yul\":2366:2367   */\n      0x03\n        /* \"#utility.yul\":2359:2364   */\n      dup2\n        /* \"#utility.yul\":2356:2368   */\n      lt\n        /* \"#utility.yul\":2346:2392   */\n      tag_78\n      jumpi\n        /* \"#utility.yul\":2372:2390   */\n      tag_79\n      tag_35\n      jump\t// in\n    tag_79:\n        /* \"#utility.yul\":2346:2392   */\n    tag_78:\n        /* \"#utility.yul\":2284:2398   */\n      pop\n      jump\t// out\n        /* \"#utility.yul\":2404:2526   */\n    tag_45:\n        /* \"#utility.yul\":2477:2501   */\n      tag_81\n        /* \"#utility.yul\":2495:2500   */\n      dup2\n        /* \"#utility.yul\":2477:2501   */\n      tag_58\n      jump\t// in\n    tag_81:\n        /* \"#utility.yul\":2470:2475   */\n      dup2\n        /* \"#utility.yul\":2467:2502   */\n      eq\n        /* \"#utility.yul\":2457:2520   */\n      tag_82\n      jumpi\n        /* \"#utility.yul\":2516:2517   */\n      0x00\n        /* \"#utility.yul\":2513:2514   */\n      dup1\n        /* \"#utility.yul\":2506:2518   */\n      revert\n        /* \"#utility.yul\":2457:2520   */\n    tag_82:\n        /* \"#utility.yul\":2404:2526   */\n      pop\n      jump\t// out\n\n    auxdata: 0xa26469706673582212208ca493bf2cdf4b83b627fe1907d775201890d7821b11356faed01495c28686a064736f6c63430008070033\n}\n",
				"bytecode": {
					"linkReferences": {},
					"object": "608060405234801561001057600080fd5b50610313806100206000396000f3fe608060405234801561001057600080fd5b50600436106100575760003560e01c806301725a0b1461005c5780631b9265b814610066578063bbdfbfba14610070578063bfb231d21461007a578063ef8a9235146100aa575b600080fd5b6100646100c8565b005b61006e610102565b005b61007861012f565b005b610094600480360381019061008f919061019f565b61015c565b6040516100a19190610205565b60405180910390f35b6100b2610177565b6040516100bf91906101ea565b60405180910390f35b6064600080600a81106100de576100dd61027e565b5b01819055506101f460006005600a81106100fb576100fa61027e565b5b0181905550565b6000600a60006101000a81548160ff021916908360028111156101285761012761024f565b5b0217905550565b6001600a60006101000a81548160ff021916908360028111156101555761015461024f565b5b0217905550565b600081600a811061016c57600080fd5b016000915090505481565b600a60009054906101000a900460ff1681565b600081359050610199816102c6565b92915050565b6000602082840312156101b5576101b46102ad565b5b60006101c38482850161018a565b91505092915050565b6101d58161023d565b82525050565b6101e481610233565b82525050565b60006020820190506101ff60008301846101cc565b92915050565b600060208201905061021a60008301846101db565b92915050565b600081905061022e826102b2565b919050565b6000819050919050565b600061024882610220565b9050919050565b7f4e487b7100000000000000000000000000000000000000000000000000000000600052602160045260246000fd5b7f4e487b7100000000000000000000000000000000000000000000000000000000600052603260045260246000fd5b600080fd5b600381106102c3576102c261024f565b5b50565b6102cf81610233565b81146102da57600080fd5b5056fea26469706673582212208ca493bf2cdf4b83b627fe1907d775201890d7821b11356faed01495c28686a064736f6c63430008070033",
					"opcodes": "PUSH1 0x80 PUSH1 0x40 MSTORE CALLVALUE DUP1 ISZERO PUSH2 0x10 JUMPI PUSH1 0x0 DUP1 REVERT JUMPDEST POP PUSH2 0x313 DUP1 PUSH2 0x20 PUSH1 0x0 CODECOPY PUSH1 0x0 RETURN INVALID PUSH1 0x80 PUSH1 0x40 MSTORE CALLVALUE DUP1 ISZERO PUSH2 0x10 JUMPI PUSH1 0x0 DUP1 REVERT JUMPDEST POP PUSH1 0x4 CALLDATASIZE LT PUSH2 0x57 JUMPI PUSH1 0x0 CALLDATALOAD PUSH1 0xE0 SHR DUP1 PUSH4 0x1725A0B EQ PUSH2 0x5C JUMPI DUP1 PUSH4 0x1B9265B8 EQ PUSH2 0x66 JUMPI DUP1 PUSH4 0xBBDFBFBA EQ PUSH2 0x70 JUMPI DUP1 PUSH4 0xBFB231D2 EQ PUSH2 0x7A JUMPI DUP1 PUSH4 0xEF8A9235 EQ PUSH2 0xAA JUMPI JUMPDEST PUSH1 0x0 DUP1 REVERT JUMPDEST PUSH2 0x64 PUSH2 0xC8 JUMP JUMPDEST STOP JUMPDEST PUSH2 0x6E PUSH2 0x102 JUMP JUMPDEST STOP JUMPDEST PUSH2 0x78 PUSH2 0x12F JUMP JUMPDEST STOP JUMPDEST PUSH2 0x94 PUSH1 0x4 DUP1 CALLDATASIZE SUB DUP2 ADD SWAP1 PUSH2 0x8F SWAP2 SWAP1 PUSH2 0x19F JUMP JUMPDEST PUSH2 0x15C JUMP JUMPDEST PUSH1 0x40 MLOAD PUSH2 0xA1 SWAP2 SWAP1 PUSH2 0x205 JUMP JUMPDEST PUSH1 0x40 MLOAD DUP1 SWAP2 SUB SWAP1 RETURN JUMPDEST PUSH2 0xB2 PUSH2 0x177 JUMP JUMPDEST PUSH1 0x40 MLOAD PUSH2 0xBF SWAP2 SWAP1 PUSH2 0x1EA JUMP JUMPDEST PUSH1 0x40 MLOAD DUP1 SWAP2 SUB SWAP1 RETURN JUMPDEST PUSH1 0x64 PUSH1 0x0 DUP1 PUSH1 0xA DUP2 LT PUSH2 0xDE JUMPI PUSH2 0xDD PUSH2 0x27E JUMP JUMPDEST JUMPDEST ADD DUP2 SWAP1 SSTORE POP PUSH2 0x1F4 PUSH1 0x0 PUSH1 0x5 PUSH1 0xA DUP2 LT PUSH2 0xFB JUMPI PUSH2 0xFA PUSH2 0x27E JUMP JUMPDEST JUMPDEST ADD DUP2 SWAP1 SSTORE POP JUMP JUMPDEST PUSH1 0x0 PUSH1 0xA PUSH1 0x0 PUSH2 0x100 EXP DUP2 SLOAD DUP2 PUSH1 0xFF MUL NOT AND SWAP1 DUP4 PUSH1 0x2 DUP2 GT ISZERO PUSH2 0x128 JUMPI PUSH2 0x127 PUSH2 0x24F JUMP JUMPDEST JUMPDEST MUL OR SWAP1 SSTORE POP JUMP JUMPDEST PUSH1 0x1 PUSH1 0xA PUSH1 0x0 PUSH2 0x100 EXP DUP2 SLOAD DUP2 PUSH1 0xFF MUL NOT AND SWAP1 DUP4 PUSH1 0x2 DUP2 GT ISZERO PUSH2 0x155 JUMPI PUSH2 0x154 PUSH2 0x24F JUMP JUMPDEST JUMPDEST MUL OR SWAP1 SSTORE POP JUMP JUMPDEST PUSH1 0x0 DUP2 PUSH1 0xA DUP2 LT PUSH2 0x16C JUMPI PUSH1 0x0 DUP1 REVERT JUMPDEST ADD PUSH1 0x0 SWAP2 POP SWAP1 POP SLOAD DUP2 JUMP JUMPDEST PUSH1 0xA PUSH1 0x0 SWAP1 SLOAD SWAP1 PUSH2 0x100 EXP SWAP1 DIV PUSH1 0xFF AND DUP2 JUMP JUMPDEST PUSH1 0x0 DUP2 CALLDATALOAD SWAP1 POP PUSH2 0x199 DUP2 PUSH2 0x2C6 JUMP JUMPDEST SWAP3 SWAP2 POP POP JUMP JUMPDEST PUSH1 0x0 PUSH1 0x20 DUP3 DUP5 SUB SLT ISZERO PUSH2 0x1B5 JUMPI PUSH2 0x1B4 PUSH2 0x2AD JUMP JUMPDEST JUMPDEST PUSH1 0x0 PUSH2 0x1C3 DUP5 DUP3 DUP6 ADD PUSH2 0x18A JUMP JUMPDEST SWAP2 POP POP SWAP3 SWAP2 POP POP JUMP JUMPDEST PUSH2 0x1D5 DUP2 PUSH2 0x23D JUMP JUMPDEST DUP3 MSTORE POP POP JUMP JUMPDEST PUSH2 0x1E4 DUP2 PUSH2 0x233 JUMP JUMPDEST DUP3 MSTORE POP POP JUMP JUMPDEST PUSH1 0x0 PUSH1 0x20 DUP3 ADD SWAP1 POP PUSH2 0x1FF PUSH1 0x0 DUP4 ADD DUP5 PUSH2 0x1CC JUMP JUMPDEST SWAP3 SWAP2 POP POP JUMP JUMPDEST PUSH1 0x0 PUSH1 0x20 DUP3 ADD SWAP1 POP PUSH2 0x21A PUSH1 0x0 DUP4 ADD DUP5 PUSH2 0x1DB JUMP JUMPDEST SWAP3 SWAP2 POP POP JUMP JUMPDEST PUSH1 0x0 DUP2 SWAP1 POP PUSH2 0x22E DUP3 PUSH2 0x2B2 JUMP JUMPDEST SWAP2 SWAP1 POP JUMP JUMPDEST PUSH1 0x0 DUP2 SWAP1 POP SWAP2 SWAP1 POP JUMP JUMPDEST PUSH1 0x0 PUSH2 0x248 DUP3 PUSH2 0x220 JUMP JUMPDEST SWAP1 POP SWAP2 SWAP1 POP JUMP JUMPDEST PUSH32 0x4E487B7100000000000000000000000000000000000000000000000000000000 PUSH1 0x0 MSTORE PUSH1 0x21 PUSH1 0x4 MSTORE PUSH1 0x24 PUSH1 0x0 REVERT JUMPDEST PUSH32 0x4E487B7100000000000000000000000000000000000000000000000000000000 PUSH1 0x0 MSTORE PUSH1 0x32 PUSH1 0x4 MSTORE PUSH1 0x24 PUSH1 0x0 REVERT JUMPDEST PUSH1 0x0 DUP1 REVERT JUMPDEST PUSH1 0x3 DUP2 LT PUSH2 0x2C3 JUMPI PUSH2 0x2C2 PUSH2 0x24F JUMP JUMPDEST JUMPDEST POP JUMP JUMPDEST PUSH2 0x2CF DUP2 PUSH2 0x233 JUMP JUMPDEST DUP2 EQ PUSH2 0x2DA JUMPI PUSH1 0x0 DUP1 REVERT JUMPDEST POP JUMP INVALID LOG2 PUSH5 0x6970667358 0x22 SLT KECCAK256 DUP13 LOG4 SWAP4 0xBF 0x2C 0xDF 0x4B DUP4 0xB6 0x27 INVALID NOT SMOD 0xD7 PUSH22 0x201890D7821B11356FAED01495C28686A064736F6C63 NUMBER STOP ADDMOD SMOD STOP CALLER "
				},
				"gasEstimates": {
					"creation": {
						"codeDepositCost": "157400",
						"executionCost": "202",
						"totalCost": "157602"
					},
					"external": {
						"currentStatus()": "2626",
						"delivered()": "24453",
						"demo()": "44408",
						"items(uint256)": "infinite",
						"pay()": "24431"
					}
				},
				"methodIdentifiers": {
					"currentStatus()": "ef8a9235",
					"delivered()": "bbdfbfba",
					"demo()": "01725a0b",
					"items(uint256)": "bfb231d2",
					"pay()": "1b9265b8"
				}
			},
			"storageLayout": {
				"storage": [
					{
						"astId": 5,
						"contract": "contracts/tipi2.sol:Demo",
						"label": "items",
						"offset": 0,
						"slot": "0",
						"type": "t_array(t_uint256)10_storage"
					},
					{
						"astId": 28,
						"contract": "contracts/tipi2.sol:Demo",
						"label": "currentStatus",
						"offset": 0,
						"slot": "10",
						"type": "t_enum(Status)25"
					}
				],
				"types": {
					"t_array(t_uint256)10_storage": {
						"base": "t_uint256",
						"encoding": "inplace",
						"label": "uint256[10]",
						"numberOfBytes": "320"
					},
					"t_enum(Status)25": {
						"encoding": "inplace",
						"label": "enum Demo.Status",
						"numberOfBytes": "1"
					},
					"t_uint256": {
						"encoding": "inplace",
						"label": "uint256",
						"numberOfBytes": "32"
					}
				}
			},
			"userdoc": {
				"kind": "user",
				"methods": {},
				"version": 1
			}
		}
	}
}