{
	"contracts/tipi2.sol": {
		"Demo": {
			"abi": [
				{
					"inputs": [
						{
							"internalType": "address",
							"name": "",
							"type": "address"
						}
					],
					"name": "balances",
					"outputs": [
						{
							"internalType": "uint256",
							"name": "totalPayments",
							"type": "uint256"
						}
					],
					"stateMutability": "view",
					"type": "function"
				},
				{
					"inputs": [
						{
							"internalType": "address",
							"name": "_addr",
							"type": "address"
						},
						{
							"internalType": "uint256",
							"name": "_index",
							"type": "uint256"
						}
					],
					"name": "getPayment",
					"outputs": [
						{
							"components": [
								{
									"internalType": "uint256",
									"name": "amount",
									"type": "uint256"
								},
								{
									"internalType": "uint256",
									"name": "timestamp",
									"type": "uint256"
								},
								{
									"internalType": "address",
									"name": "from",
									"type": "address"
								},
								{
									"internalType": "string",
									"name": "message",
									"type": "string"
								}
							],
							"internalType": "struct Demo.Payment",
							"name": "",
							"type": "tuple"
						}
					],
					"stateMutability": "view",
					"type": "function"
				},
				{
					"inputs": [
						{
							"internalType": "string",
							"name": "message",
							"type": "string"
						}
					],
					"name": "pay",
					"outputs": [],
					"stateMutability": "payable",
					"type": "function"
				}
			],
			"devdoc": {
				"kind": "dev",
				"methods": {},
				"version": 1
			},
			"evm": {
				"assembly": "    /* \"contracts/tipi2.sol\":62:943  contract Demo {\r... */\n  mstore(0x40, 0x80)\n  callvalue\n  dup1\n  iszero\n  tag_1\n  jumpi\n  0x00\n  dup1\n  revert\ntag_1:\n  pop\n  dataSize(sub_0)\n  dup1\n  dataOffset(sub_0)\n  0x00\n  codecopy\n  0x00\n  return\nstop\n\nsub_0: assembly {\n        /* \"contracts/tipi2.sol\":62:943  contract Demo {\r... */\n      mstore(0x40, 0x80)\n      jumpi(tag_1, lt(calldatasize, 0x04))\n      shr(0xe0, calldataload(0x00))\n      dup1\n      0x27e235e3\n      eq\n      tag_2\n      jumpi\n      dup1\n      0x2b66d72e\n      eq\n      tag_3\n      jumpi\n      dup1\n      0x977a767c\n      eq\n      tag_4\n      jumpi\n    tag_1:\n      0x00\n      dup1\n      revert\n        /* \"contracts/tipi2.sol\":342:385  mapping(address => Balance) public balances */\n    tag_2:\n      callvalue\n      dup1\n      iszero\n      tag_5\n      jumpi\n      0x00\n      dup1\n      revert\n    tag_5:\n      pop\n      tag_6\n      0x04\n      dup1\n      calldatasize\n      sub\n      dup2\n      add\n      swap1\n      tag_7\n      swap2\n      swap1\n      tag_8\n      jump\t// in\n    tag_7:\n      tag_9\n      jump\t// in\n    tag_6:\n      mload(0x40)\n      tag_10\n      swap2\n      swap1\n      tag_11\n      jump\t// in\n    tag_10:\n      mload(0x40)\n      dup1\n      swap2\n      sub\n      swap1\n      return\n        /* \"contracts/tipi2.sol\":544:940  function pay(string memory message) public payable {\r... */\n    tag_3:\n      tag_12\n      0x04\n      dup1\n      calldatasize\n      sub\n      dup2\n      add\n      swap1\n      tag_13\n      swap2\n      swap1\n      tag_14\n      jump\t// in\n    tag_13:\n      tag_15\n      jump\t// in\n    tag_12:\n      stop\n        /* \"contracts/tipi2.sol\":394:536  function getPayment(address _addr, uint _index) public view returns(Payment memory) {\r... */\n    tag_4:\n      callvalue\n      dup1\n      iszero\n      tag_16\n      jumpi\n      0x00\n      dup1\n      revert\n    tag_16:\n      pop\n      tag_17\n      0x04\n      dup1\n      calldatasize\n      sub\n      dup2\n      add\n      swap1\n      tag_18\n      swap2\n      swap1\n      tag_19\n      jump\t// in\n    tag_18:\n      tag_20\n      jump\t// in\n    tag_17:\n      mload(0x40)\n      tag_21\n      swap2\n      swap1\n      tag_22\n      jump\t// in\n    tag_21:\n      mload(0x40)\n      dup1\n      swap2\n      sub\n      swap1\n      return\n        /* \"contracts/tipi2.sol\":342:385  mapping(address => Balance) public balances */\n    tag_9:\n      mstore(0x20, 0x00)\n      dup1\n      0x00\n      mstore\n      keccak256(0x00, 0x40)\n      0x00\n      swap2\n      pop\n      swap1\n      pop\n      dup1\n      0x00\n      add\n      sload\n      swap1\n      pop\n      dup2\n      jump\t// out\n        /* \"contracts/tipi2.sol\":544:940  function pay(string memory message) public payable {\r... */\n    tag_15:\n        /* \"contracts/tipi2.sol\":606:621  uint paymentNum */\n      0x00\n        /* \"contracts/tipi2.sol\":624:632  balances */\n      dup1\n        /* \"contracts/tipi2.sol\":624:644  balances[msg.sender] */\n      0x00\n        /* \"contracts/tipi2.sol\":633:643  msg.sender */\n      caller\n        /* \"contracts/tipi2.sol\":624:644  balances[msg.sender] */\n      0xffffffffffffffffffffffffffffffffffffffff\n      and\n      0xffffffffffffffffffffffffffffffffffffffff\n      and\n      dup2\n      mstore\n      0x20\n      add\n      swap1\n      dup2\n      mstore\n      0x20\n      add\n      0x00\n      keccak256\n        /* \"contracts/tipi2.sol\":624:658  balances[msg.sender].totalPayments */\n      0x00\n      add\n      sload\n        /* \"contracts/tipi2.sol\":606:658  uint paymentNum = balances[msg.sender].totalPayments */\n      swap1\n      pop\n        /* \"contracts/tipi2.sol\":669:677  balances */\n      0x00\n        /* \"contracts/tipi2.sol\":669:689  balances[msg.sender] */\n      dup1\n        /* \"contracts/tipi2.sol\":678:688  msg.sender */\n      caller\n        /* \"contracts/tipi2.sol\":669:689  balances[msg.sender] */\n      0xffffffffffffffffffffffffffffffffffffffff\n      and\n      0xffffffffffffffffffffffffffffffffffffffff\n      and\n      dup2\n      mstore\n      0x20\n      add\n      swap1\n      dup2\n      mstore\n      0x20\n      add\n      0x00\n      keccak256\n        /* \"contracts/tipi2.sol\":669:703  balances[msg.sender].totalPayments */\n      0x00\n      add\n      0x00\n        /* \"contracts/tipi2.sol\":669:705  balances[msg.sender].totalPayments++ */\n      dup2\n      sload\n      dup1\n      swap3\n      swap2\n      swap1\n      tag_24\n      swap1\n      tag_25\n      jump\t// in\n    tag_24:\n      swap2\n      swap1\n      pop\n      sstore\n      pop\n        /* \"contracts/tipi2.sol\":718:743  Payment memory newPayment */\n      0x00\n        /* \"contracts/tipi2.sol\":746:865  Payment(\r... */\n      mload(0x40)\n      dup1\n      0x80\n      add\n      0x40\n      mstore\n      dup1\n        /* \"contracts/tipi2.sol\":768:777  msg.value */\n      callvalue\n        /* \"contracts/tipi2.sol\":746:865  Payment(\r... */\n      dup2\n      mstore\n      0x20\n      add\n        /* \"contracts/tipi2.sol\":792:807  block.timestamp */\n      timestamp\n        /* \"contracts/tipi2.sol\":746:865  Payment(\r... */\n      dup2\n      mstore\n      0x20\n      add\n        /* \"contracts/tipi2.sol\":822:832  msg.sender */\n      caller\n        /* \"contracts/tipi2.sol\":746:865  Payment(\r... */\n      0xffffffffffffffffffffffffffffffffffffffff\n      and\n      dup2\n      mstore\n      0x20\n      add\n        /* \"contracts/tipi2.sol\":847:854  message */\n      dup5\n        /* \"contracts/tipi2.sol\":746:865  Payment(\r... */\n      dup2\n      mstore\n      pop\n        /* \"contracts/tipi2.sol\":718:865  Payment memory newPayment = Payment(\r... */\n      swap1\n      pop\n        /* \"contracts/tipi2.sol\":922:932  newPayment */\n      dup1\n        /* \"contracts/tipi2.sol\":878:886  balances */\n      0x00\n        /* \"contracts/tipi2.sol\":878:898  balances[msg.sender] */\n      dup1\n        /* \"contracts/tipi2.sol\":887:897  msg.sender */\n      caller\n        /* \"contracts/tipi2.sol\":878:898  balances[msg.sender] */\n      0xffffffffffffffffffffffffffffffffffffffff\n      and\n      0xffffffffffffffffffffffffffffffffffffffff\n      and\n      dup2\n      mstore\n      0x20\n      add\n      swap1\n      dup2\n      mstore\n      0x20\n      add\n      0x00\n      keccak256\n        /* \"contracts/tipi2.sol\":878:907  balances[msg.sender].payments */\n      0x01\n      add\n        /* \"contracts/tipi2.sol\":878:919  balances[msg.sender].payments[paymentNum] */\n      0x00\n        /* \"contracts/tipi2.sol\":908:918  paymentNum */\n      dup5\n        /* \"contracts/tipi2.sol\":878:919  balances[msg.sender].payments[paymentNum] */\n      dup2\n      mstore\n      0x20\n      add\n      swap1\n      dup2\n      mstore\n      0x20\n      add\n      0x00\n      keccak256\n        /* \"contracts/tipi2.sol\":878:932  balances[msg.sender].payments[paymentNum] = newPayment */\n      0x00\n      dup3\n      add\n      mload\n      dup2\n      0x00\n      add\n      sstore\n      0x20\n      dup3\n      add\n      mload\n      dup2\n      0x01\n      add\n      sstore\n      0x40\n      dup3\n      add\n      mload\n      dup2\n      0x02\n      add\n      exp(0x0100, 0x00)\n      dup2\n      sload\n      dup2\n      0xffffffffffffffffffffffffffffffffffffffff\n      mul\n      not\n      and\n      swap1\n      dup4\n      0xffffffffffffffffffffffffffffffffffffffff\n      and\n      mul\n      or\n      swap1\n      sstore\n      pop\n      0x60\n      dup3\n      add\n      mload\n      dup2\n      0x03\n      add\n      swap1\n      dup1\n      mload\n      swap1\n      0x20\n      add\n      swap1\n      tag_26\n      swap3\n      swap2\n      swap1\n      tag_27\n      jump\t// in\n    tag_26:\n      pop\n      swap1\n      pop\n      pop\n        /* \"contracts/tipi2.sol\":595:940  {\r... */\n      pop\n      pop\n        /* \"contracts/tipi2.sol\":544:940  function pay(string memory message) public payable {\r... */\n      pop\n      jump\t// out\n        /* \"contracts/tipi2.sol\":394:536  function getPayment(address _addr, uint _index) public view returns(Payment memory) {\r... */\n    tag_20:\n        /* \"contracts/tipi2.sol\":462:476  Payment memory */\n      tag_28\n      tag_29\n      jump\t// in\n    tag_28:\n        /* \"contracts/tipi2.sol\":496:504  balances */\n      0x00\n        /* \"contracts/tipi2.sol\":496:511  balances[_addr] */\n      dup1\n        /* \"contracts/tipi2.sol\":505:510  _addr */\n      dup5\n        /* \"contracts/tipi2.sol\":496:511  balances[_addr] */\n      0xffffffffffffffffffffffffffffffffffffffff\n      and\n      0xffffffffffffffffffffffffffffffffffffffff\n      and\n      dup2\n      mstore\n      0x20\n      add\n      swap1\n      dup2\n      mstore\n      0x20\n      add\n      0x00\n      keccak256\n        /* \"contracts/tipi2.sol\":496:520  balances[_addr].payments */\n      0x01\n      add\n        /* \"contracts/tipi2.sol\":496:528  balances[_addr].payments[_index] */\n      0x00\n        /* \"contracts/tipi2.sol\":521:527  _index */\n      dup4\n        /* \"contracts/tipi2.sol\":496:528  balances[_addr].payments[_index] */\n      dup2\n      mstore\n      0x20\n      add\n      swap1\n      dup2\n      mstore\n      0x20\n      add\n      0x00\n      keccak256\n        /* \"contracts/tipi2.sol\":489:528  return balances[_addr].payments[_index] */\n      mload(0x40)\n      dup1\n      0x80\n      add\n      0x40\n      mstore\n      swap1\n      dup2\n      0x00\n      dup3\n      add\n      sload\n      dup2\n      mstore\n      0x20\n      add\n      0x01\n      dup3\n      add\n      sload\n      dup2\n      mstore\n      0x20\n      add\n      0x02\n      dup3\n      add\n      0x00\n      swap1\n      sload\n      swap1\n      0x0100\n      exp\n      swap1\n      div\n      0xffffffffffffffffffffffffffffffffffffffff\n      and\n      0xffffffffffffffffffffffffffffffffffffffff\n      and\n      0xffffffffffffffffffffffffffffffffffffffff\n      and\n      dup2\n      mstore\n      0x20\n      add\n      0x03\n      dup3\n      add\n      dup1\n      sload\n      tag_31\n      swap1\n      tag_32\n      jump\t// in\n    tag_31:\n      dup1\n      0x1f\n      add\n      0x20\n      dup1\n      swap2\n      div\n      mul\n      0x20\n      add\n      mload(0x40)\n      swap1\n      dup2\n      add\n      0x40\n      mstore\n      dup1\n      swap3\n      swap2\n      swap1\n      dup2\n      dup2\n      mstore\n      0x20\n      add\n      dup3\n      dup1\n      sload\n      tag_33\n      swap1\n      tag_32\n      jump\t// in\n    tag_33:\n      dup1\n      iszero\n      tag_34\n      jumpi\n      dup1\n      0x1f\n      lt\n      tag_35\n      jumpi\n      0x0100\n      dup1\n      dup4\n      sload\n      div\n      mul\n      dup4\n      mstore\n      swap2\n      0x20\n      add\n      swap2\n      jump(tag_34)\n    tag_35:\n      dup3\n      add\n      swap2\n      swap1\n      0x00\n      mstore\n      keccak256(0x00, 0x20)\n      swap1\n    tag_36:\n      dup2\n      sload\n      dup2\n      mstore\n      swap1\n      0x01\n      add\n      swap1\n      0x20\n      add\n      dup1\n      dup4\n      gt\n      tag_36\n      jumpi\n      dup3\n      swap1\n      sub\n      0x1f\n      and\n      dup3\n      add\n      swap2\n    tag_34:\n      pop\n      pop\n      pop\n      pop\n      pop\n      dup2\n      mstore\n      pop\n      pop\n      swap1\n      pop\n        /* \"contracts/tipi2.sol\":394:536  function getPayment(address _addr, uint _index) public view returns(Payment memory) {\r... */\n      swap3\n      swap2\n      pop\n      pop\n      jump\t// out\n    tag_27:\n      dup3\n      dup1\n      sload\n      tag_37\n      swap1\n      tag_32\n      jump\t// in\n    tag_37:\n      swap1\n      0x00\n      mstore\n      keccak256(0x00, 0x20)\n      swap1\n      0x1f\n      add\n      0x20\n      swap1\n      div\n      dup2\n      add\n      swap3\n      dup3\n      tag_39\n      jumpi\n      0x00\n      dup6\n      sstore\n      jump(tag_38)\n    tag_39:\n      dup3\n      0x1f\n      lt\n      tag_40\n      jumpi\n      dup1\n      mload\n      not(0xff)\n      and\n      dup4\n      dup1\n      add\n      or\n      dup6\n      sstore\n      jump(tag_38)\n    tag_40:\n      dup3\n      dup1\n      add\n      0x01\n      add\n      dup6\n      sstore\n      dup3\n      iszero\n      tag_38\n      jumpi\n      swap2\n      dup3\n      add\n    tag_41:\n      dup3\n      dup2\n      gt\n      iszero\n      tag_42\n      jumpi\n      dup3\n      mload\n      dup3\n      sstore\n      swap2\n      0x20\n      add\n      swap2\n      swap1\n      0x01\n      add\n      swap1\n      jump(tag_41)\n    tag_42:\n    tag_38:\n      pop\n      swap1\n      pop\n      tag_43\n      swap2\n      swap1\n      tag_44\n      jump\t// in\n    tag_43:\n      pop\n      swap1\n      jump\t// out\n    tag_29:\n      mload(0x40)\n      dup1\n      0x80\n      add\n      0x40\n      mstore\n      dup1\n      0x00\n      dup2\n      mstore\n      0x20\n      add\n      0x00\n      dup2\n      mstore\n      0x20\n      add\n      and(0xffffffffffffffffffffffffffffffffffffffff, 0x00)\n      dup2\n      mstore\n      0x20\n      add\n      0x60\n      dup2\n      mstore\n      pop\n      swap1\n      jump\t// out\n    tag_44:\n    tag_45:\n      dup1\n      dup3\n      gt\n      iszero\n      tag_46\n      jumpi\n      0x00\n      dup2\n      0x00\n      swap1\n      sstore\n      pop\n      0x01\n      add\n      jump(tag_45)\n    tag_46:\n      pop\n      swap1\n      jump\t// out\n        /* \"#utility.yul\":7:419   */\n    tag_48:\n        /* \"#utility.yul\":85:90   */\n      0x00\n        /* \"#utility.yul\":110:176   */\n      tag_50\n        /* \"#utility.yul\":126:175   */\n      tag_51\n        /* \"#utility.yul\":168:174   */\n      dup5\n        /* \"#utility.yul\":126:175   */\n      tag_52\n      jump\t// in\n    tag_51:\n        /* \"#utility.yul\":110:176   */\n      tag_53\n      jump\t// in\n    tag_50:\n        /* \"#utility.yul\":101:176   */\n      swap1\n      pop\n        /* \"#utility.yul\":199:205   */\n      dup3\n        /* \"#utility.yul\":192:197   */\n      dup2\n        /* \"#utility.yul\":185:206   */\n      mstore\n        /* \"#utility.yul\":237:241   */\n      0x20\n        /* \"#utility.yul\":230:235   */\n      dup2\n        /* \"#utility.yul\":226:242   */\n      add\n        /* \"#utility.yul\":275:278   */\n      dup5\n        /* \"#utility.yul\":266:272   */\n      dup5\n        /* \"#utility.yul\":261:264   */\n      dup5\n        /* \"#utility.yul\":257:273   */\n      add\n        /* \"#utility.yul\":254:279   */\n      gt\n        /* \"#utility.yul\":251:363   */\n      iszero\n      tag_54\n      jumpi\n        /* \"#utility.yul\":282:361   */\n      tag_55\n      tag_56\n      jump\t// in\n    tag_55:\n        /* \"#utility.yul\":251:363   */\n    tag_54:\n        /* \"#utility.yul\":372:413   */\n      tag_57\n        /* \"#utility.yul\":406:412   */\n      dup5\n        /* \"#utility.yul\":401:404   */\n      dup3\n        /* \"#utility.yul\":396:399   */\n      dup6\n        /* \"#utility.yul\":372:413   */\n      tag_58\n      jump\t// in\n    tag_57:\n        /* \"#utility.yul\":91:419   */\n      pop\n        /* \"#utility.yul\":7:419   */\n      swap4\n      swap3\n      pop\n      pop\n      pop\n      jump\t// out\n        /* \"#utility.yul\":425:564   */\n    tag_59:\n        /* \"#utility.yul\":471:476   */\n      0x00\n        /* \"#utility.yul\":509:515   */\n      dup2\n        /* \"#utility.yul\":496:516   */\n      calldataload\n        /* \"#utility.yul\":487:516   */\n      swap1\n      pop\n        /* \"#utility.yul\":525:558   */\n      tag_61\n        /* \"#utility.yul\":552:557   */\n      dup2\n        /* \"#utility.yul\":525:558   */\n      tag_62\n      jump\t// in\n    tag_61:\n        /* \"#utility.yul\":425:564   */\n      swap3\n      swap2\n      pop\n      pop\n      jump\t// out\n        /* \"#utility.yul\":584:924   */\n    tag_63:\n        /* \"#utility.yul\":640:645   */\n      0x00\n        /* \"#utility.yul\":689:692   */\n      dup3\n        /* \"#utility.yul\":682:686   */\n      0x1f\n        /* \"#utility.yul\":674:680   */\n      dup4\n        /* \"#utility.yul\":670:687   */\n      add\n        /* \"#utility.yul\":666:693   */\n      slt\n        /* \"#utility.yul\":656:778   */\n      tag_65\n      jumpi\n        /* \"#utility.yul\":697:776   */\n      tag_66\n      tag_67\n      jump\t// in\n    tag_66:\n        /* \"#utility.yul\":656:778   */\n    tag_65:\n        /* \"#utility.yul\":814:820   */\n      dup2\n        /* \"#utility.yul\":801:821   */\n      calldataload\n        /* \"#utility.yul\":839:918   */\n      tag_68\n        /* \"#utility.yul\":914:917   */\n      dup5\n        /* \"#utility.yul\":906:912   */\n      dup3\n        /* \"#utility.yul\":899:903   */\n      0x20\n        /* \"#utility.yul\":891:897   */\n      dup7\n        /* \"#utility.yul\":887:904   */\n      add\n        /* \"#utility.yul\":839:918   */\n      tag_48\n      jump\t// in\n    tag_68:\n        /* \"#utility.yul\":830:918   */\n      swap2\n      pop\n        /* \"#utility.yul\":646:924   */\n      pop\n        /* \"#utility.yul\":584:924   */\n      swap3\n      swap2\n      pop\n      pop\n      jump\t// out\n        /* \"#utility.yul\":930:1069   */\n    tag_69:\n        /* \"#utility.yul\":976:981   */\n      0x00\n        /* \"#utility.yul\":1014:1020   */\n      dup2\n        /* \"#utility.yul\":1001:1021   */\n      calldataload\n        /* \"#utility.yul\":992:1021   */\n      swap1\n      pop\n        /* \"#utility.yul\":1030:1063   */\n      tag_71\n        /* \"#utility.yul\":1057:1062   */\n      dup2\n        /* \"#utility.yul\":1030:1063   */\n      tag_72\n      jump\t// in\n    tag_71:\n        /* \"#utility.yul\":930:1069   */\n      swap3\n      swap2\n      pop\n      pop\n      jump\t// out\n        /* \"#utility.yul\":1075:1404   */\n    tag_8:\n        /* \"#utility.yul\":1134:1140   */\n      0x00\n        /* \"#utility.yul\":1183:1185   */\n      0x20\n        /* \"#utility.yul\":1171:1180   */\n      dup3\n        /* \"#utility.yul\":1162:1169   */\n      dup5\n        /* \"#utility.yul\":1158:1181   */\n      sub\n        /* \"#utility.yul\":1154:1186   */\n      slt\n        /* \"#utility.yul\":1151:1270   */\n      iszero\n      tag_74\n      jumpi\n        /* \"#utility.yul\":1189:1268   */\n      tag_75\n      tag_76\n      jump\t// in\n    tag_75:\n        /* \"#utility.yul\":1151:1270   */\n    tag_74:\n        /* \"#utility.yul\":1309:1310   */\n      0x00\n        /* \"#utility.yul\":1334:1387   */\n      tag_77\n        /* \"#utility.yul\":1379:1386   */\n      dup5\n        /* \"#utility.yul\":1370:1376   */\n      dup3\n        /* \"#utility.yul\":1359:1368   */\n      dup6\n        /* \"#utility.yul\":1355:1377   */\n      add\n        /* \"#utility.yul\":1334:1387   */\n      tag_59\n      jump\t// in\n    tag_77:\n        /* \"#utility.yul\":1324:1387   */\n      swap2\n      pop\n        /* \"#utility.yul\":1280:1397   */\n      pop\n        /* \"#utility.yul\":1075:1404   */\n      swap3\n      swap2\n      pop\n      pop\n      jump\t// out\n        /* \"#utility.yul\":1410:1884   */\n    tag_19:\n        /* \"#utility.yul\":1478:1484   */\n      0x00\n        /* \"#utility.yul\":1486:1492   */\n      dup1\n        /* \"#utility.yul\":1535:1537   */\n      0x40\n        /* \"#utility.yul\":1523:1532   */\n      dup4\n        /* \"#utility.yul\":1514:1521   */\n      dup6\n        /* \"#utility.yul\":1510:1533   */\n      sub\n        /* \"#utility.yul\":1506:1538   */\n      slt\n        /* \"#utility.yul\":1503:1622   */\n      iszero\n      tag_79\n      jumpi\n        /* \"#utility.yul\":1541:1620   */\n      tag_80\n      tag_76\n      jump\t// in\n    tag_80:\n        /* \"#utility.yul\":1503:1622   */\n    tag_79:\n        /* \"#utility.yul\":1661:1662   */\n      0x00\n        /* \"#utility.yul\":1686:1739   */\n      tag_81\n        /* \"#utility.yul\":1731:1738   */\n      dup6\n        /* \"#utility.yul\":1722:1728   */\n      dup3\n        /* \"#utility.yul\":1711:1720   */\n      dup7\n        /* \"#utility.yul\":1707:1729   */\n      add\n        /* \"#utility.yul\":1686:1739   */\n      tag_59\n      jump\t// in\n    tag_81:\n        /* \"#utility.yul\":1676:1739   */\n      swap3\n      pop\n        /* \"#utility.yul\":1632:1749   */\n      pop\n        /* \"#utility.yul\":1788:1790   */\n      0x20\n        /* \"#utility.yul\":1814:1867   */\n      tag_82\n        /* \"#utility.yul\":1859:1866   */\n      dup6\n        /* \"#utility.yul\":1850:1856   */\n      dup3\n        /* \"#utility.yul\":1839:1848   */\n      dup7\n        /* \"#utility.yul\":1835:1857   */\n      add\n        /* \"#utility.yul\":1814:1867   */\n      tag_69\n      jump\t// in\n    tag_82:\n        /* \"#utility.yul\":1804:1867   */\n      swap2\n      pop\n        /* \"#utility.yul\":1759:1877   */\n      pop\n        /* \"#utility.yul\":1410:1884   */\n      swap3\n      pop\n      swap3\n      swap1\n      pop\n      jump\t// out\n        /* \"#utility.yul\":1890:2399   */\n    tag_14:\n        /* \"#utility.yul\":1959:1965   */\n      0x00\n        /* \"#utility.yul\":2008:2010   */\n      0x20\n        /* \"#utility.yul\":1996:2005   */\n      dup3\n        /* \"#utility.yul\":1987:1994   */\n      dup5\n        /* \"#utility.yul\":1983:2006   */\n      sub\n        /* \"#utility.yul\":1979:2011   */\n      slt\n        /* \"#utility.yul\":1976:2095   */\n      iszero\n      tag_84\n      jumpi\n        /* \"#utility.yul\":2014:2093   */\n      tag_85\n      tag_76\n      jump\t// in\n    tag_85:\n        /* \"#utility.yul\":1976:2095   */\n    tag_84:\n        /* \"#utility.yul\":2162:2163   */\n      0x00\n        /* \"#utility.yul\":2151:2160   */\n      dup3\n        /* \"#utility.yul\":2147:2164   */\n      add\n        /* \"#utility.yul\":2134:2165   */\n      calldataload\n        /* \"#utility.yul\":2192:2210   */\n      0xffffffffffffffff\n        /* \"#utility.yul\":2184:2190   */\n      dup2\n        /* \"#utility.yul\":2181:2211   */\n      gt\n        /* \"#utility.yul\":2178:2295   */\n      iszero\n      tag_86\n      jumpi\n        /* \"#utility.yul\":2214:2293   */\n      tag_87\n      tag_88\n      jump\t// in\n    tag_87:\n        /* \"#utility.yul\":2178:2295   */\n    tag_86:\n        /* \"#utility.yul\":2319:2382   */\n      tag_89\n        /* \"#utility.yul\":2374:2381   */\n      dup5\n        /* \"#utility.yul\":2365:2371   */\n      dup3\n        /* \"#utility.yul\":2354:2363   */\n      dup6\n        /* \"#utility.yul\":2350:2372   */\n      add\n        /* \"#utility.yul\":2319:2382   */\n      tag_63\n      jump\t// in\n    tag_89:\n        /* \"#utility.yul\":2309:2382   */\n      swap2\n      pop\n        /* \"#utility.yul\":2105:2392   */\n      pop\n        /* \"#utility.yul\":1890:2399   */\n      swap3\n      swap2\n      pop\n      pop\n      jump\t// out\n        /* \"#utility.yul\":2405:2513   */\n    tag_90:\n        /* \"#utility.yul\":2482:2506   */\n      tag_92\n        /* \"#utility.yul\":2500:2505   */\n      dup2\n        /* \"#utility.yul\":2482:2506   */\n      tag_93\n      jump\t// in\n    tag_92:\n        /* \"#utility.yul\":2477:2480   */\n      dup3\n        /* \"#utility.yul\":2470:2507   */\n      mstore\n        /* \"#utility.yul\":2405:2513   */\n      pop\n      pop\n      jump\t// out\n        /* \"#utility.yul\":2519:2863   */\n    tag_94:\n        /* \"#utility.yul\":2597:2600   */\n      0x00\n        /* \"#utility.yul\":2625:2664   */\n      tag_96\n        /* \"#utility.yul\":2658:2663   */\n      dup3\n        /* \"#utility.yul\":2625:2664   */\n      tag_97\n      jump\t// in\n    tag_96:\n        /* \"#utility.yul\":2680:2741   */\n      tag_98\n        /* \"#utility.yul\":2734:2740   */\n      dup2\n        /* \"#utility.yul\":2729:2732   */\n      dup6\n        /* \"#utility.yul\":2680:2741   */\n      tag_99\n      jump\t// in\n    tag_98:\n        /* \"#utility.yul\":2673:2741   */\n      swap4\n      pop\n        /* \"#utility.yul\":2750:2802   */\n      tag_100\n        /* \"#utility.yul\":2795:2801   */\n      dup2\n        /* \"#utility.yul\":2790:2793   */\n      dup6\n        /* \"#utility.yul\":2783:2787   */\n      0x20\n        /* \"#utility.yul\":2776:2781   */\n      dup7\n        /* \"#utility.yul\":2772:2788   */\n      add\n        /* \"#utility.yul\":2750:2802   */\n      tag_101\n      jump\t// in\n    tag_100:\n        /* \"#utility.yul\":2827:2856   */\n      tag_102\n        /* \"#utility.yul\":2849:2855   */\n      dup2\n        /* \"#utility.yul\":2827:2856   */\n      tag_103\n      jump\t// in\n    tag_102:\n        /* \"#utility.yul\":2822:2825   */\n      dup5\n        /* \"#utility.yul\":2818:2857   */\n      add\n        /* \"#utility.yul\":2811:2857   */\n      swap2\n      pop\n        /* \"#utility.yul\":2601:2863   */\n      pop\n        /* \"#utility.yul\":2519:2863   */\n      swap3\n      swap2\n      pop\n      pop\n      jump\t// out\n        /* \"#utility.yul\":2919:3879   */\n    tag_104:\n        /* \"#utility.yul\":3034:3037   */\n      0x00\n        /* \"#utility.yul\":3070:3074   */\n      0x80\n        /* \"#utility.yul\":3065:3068   */\n      dup4\n        /* \"#utility.yul\":3061:3075   */\n      add\n        /* \"#utility.yul\":3159:3163   */\n      0x00\n        /* \"#utility.yul\":3152:3157   */\n      dup4\n        /* \"#utility.yul\":3148:3164   */\n      add\n        /* \"#utility.yul\":3142:3165   */\n      mload\n        /* \"#utility.yul\":3178:3241   */\n      tag_106\n        /* \"#utility.yul\":3235:3239   */\n      0x00\n        /* \"#utility.yul\":3230:3233   */\n      dup7\n        /* \"#utility.yul\":3226:3240   */\n      add\n        /* \"#utility.yul\":3212:3224   */\n      dup3\n        /* \"#utility.yul\":3178:3241   */\n      tag_107\n      jump\t// in\n    tag_106:\n        /* \"#utility.yul\":3085:3251   */\n      pop\n        /* \"#utility.yul\":3338:3342   */\n      0x20\n        /* \"#utility.yul\":3331:3336   */\n      dup4\n        /* \"#utility.yul\":3327:3343   */\n      add\n        /* \"#utility.yul\":3321:3344   */\n      mload\n        /* \"#utility.yul\":3357:3420   */\n      tag_108\n        /* \"#utility.yul\":3414:3418   */\n      0x20\n        /* \"#utility.yul\":3409:3412   */\n      dup7\n        /* \"#utility.yul\":3405:3419   */\n      add\n        /* \"#utility.yul\":3391:3403   */\n      dup3\n        /* \"#utility.yul\":3357:3420   */\n      tag_107\n      jump\t// in\n    tag_108:\n        /* \"#utility.yul\":3261:3430   */\n      pop\n        /* \"#utility.yul\":3512:3516   */\n      0x40\n        /* \"#utility.yul\":3505:3510   */\n      dup4\n        /* \"#utility.yul\":3501:3517   */\n      add\n        /* \"#utility.yul\":3495:3518   */\n      mload\n        /* \"#utility.yul\":3531:3594   */\n      tag_109\n        /* \"#utility.yul\":3588:3592   */\n      0x40\n        /* \"#utility.yul\":3583:3586   */\n      dup7\n        /* \"#utility.yul\":3579:3593   */\n      add\n        /* \"#utility.yul\":3565:3577   */\n      dup3\n        /* \"#utility.yul\":3531:3594   */\n      tag_90\n      jump\t// in\n    tag_109:\n        /* \"#utility.yul\":3440:3604   */\n      pop\n        /* \"#utility.yul\":3689:3693   */\n      0x60\n        /* \"#utility.yul\":3682:3687   */\n      dup4\n        /* \"#utility.yul\":3678:3694   */\n      add\n        /* \"#utility.yul\":3672:3695   */\n      mload\n        /* \"#utility.yul\":3742:3745   */\n      dup5\n        /* \"#utility.yul\":3736:3740   */\n      dup3\n        /* \"#utility.yul\":3732:3746   */\n      sub\n        /* \"#utility.yul\":3725:3729   */\n      0x60\n        /* \"#utility.yul\":3720:3723   */\n      dup7\n        /* \"#utility.yul\":3716:3730   */\n      add\n        /* \"#utility.yul\":3709:3747   */\n      mstore\n        /* \"#utility.yul\":3768:3841   */\n      tag_110\n        /* \"#utility.yul\":3836:3840   */\n      dup3\n        /* \"#utility.yul\":3822:3834   */\n      dup3\n        /* \"#utility.yul\":3768:3841   */\n      tag_94\n      jump\t// in\n    tag_110:\n        /* \"#utility.yul\":3760:3841   */\n      swap2\n      pop\n        /* \"#utility.yul\":3614:3852   */\n      pop\n        /* \"#utility.yul\":3869:3873   */\n      dup1\n        /* \"#utility.yul\":3862:3873   */\n      swap2\n      pop\n        /* \"#utility.yul\":3039:3879   */\n      pop\n        /* \"#utility.yul\":2919:3879   */\n      swap3\n      swap2\n      pop\n      pop\n      jump\t// out\n        /* \"#utility.yul\":3885:3993   */\n    tag_107:\n        /* \"#utility.yul\":3962:3986   */\n      tag_112\n        /* \"#utility.yul\":3980:3985   */\n      dup2\n        /* \"#utility.yul\":3962:3986   */\n      tag_113\n      jump\t// in\n    tag_112:\n        /* \"#utility.yul\":3957:3960   */\n      dup3\n        /* \"#utility.yul\":3950:3987   */\n      mstore\n        /* \"#utility.yul\":3885:3993   */\n      pop\n      pop\n      jump\t// out\n        /* \"#utility.yul\":3999:4117   */\n    tag_114:\n        /* \"#utility.yul\":4086:4110   */\n      tag_116\n        /* \"#utility.yul\":4104:4109   */\n      dup2\n        /* \"#utility.yul\":4086:4110   */\n      tag_113\n      jump\t// in\n    tag_116:\n        /* \"#utility.yul\":4081:4084   */\n      dup3\n        /* \"#utility.yul\":4074:4111   */\n      mstore\n        /* \"#utility.yul\":3999:4117   */\n      pop\n      pop\n      jump\t// out\n        /* \"#utility.yul\":4123:4488   */\n    tag_22:\n        /* \"#utility.yul\":4262:4266   */\n      0x00\n        /* \"#utility.yul\":4300:4302   */\n      0x20\n        /* \"#utility.yul\":4289:4298   */\n      dup3\n        /* \"#utility.yul\":4285:4303   */\n      add\n        /* \"#utility.yul\":4277:4303   */\n      swap1\n      pop\n        /* \"#utility.yul\":4349:4358   */\n      dup2\n        /* \"#utility.yul\":4343:4347   */\n      dup2\n        /* \"#utility.yul\":4339:4359   */\n      sub\n        /* \"#utility.yul\":4335:4336   */\n      0x00\n        /* \"#utility.yul\":4324:4333   */\n      dup4\n        /* \"#utility.yul\":4320:4337   */\n      add\n        /* \"#utility.yul\":4313:4360   */\n      mstore\n        /* \"#utility.yul\":4377:4481   */\n      tag_118\n        /* \"#utility.yul\":4476:4480   */\n      dup2\n        /* \"#utility.yul\":4467:4473   */\n      dup5\n        /* \"#utility.yul\":4377:4481   */\n      tag_104\n      jump\t// in\n    tag_118:\n        /* \"#utility.yul\":4369:4481   */\n      swap1\n      pop\n        /* \"#utility.yul\":4123:4488   */\n      swap3\n      swap2\n      pop\n      pop\n      jump\t// out\n        /* \"#utility.yul\":4494:4716   */\n    tag_11:\n        /* \"#utility.yul\":4587:4591   */\n      0x00\n        /* \"#utility.yul\":4625:4627   */\n      0x20\n        /* \"#utility.yul\":4614:4623   */\n      dup3\n        /* \"#utility.yul\":4610:4628   */\n      add\n        /* \"#utility.yul\":4602:4628   */\n      swap1\n      pop\n        /* \"#utility.yul\":4638:4709   */\n      tag_120\n        /* \"#utility.yul\":4706:4707   */\n      0x00\n        /* \"#utility.yul\":4695:4704   */\n      dup4\n        /* \"#utility.yul\":4691:4708   */\n      add\n        /* \"#utility.yul\":4682:4688   */\n      dup5\n        /* \"#utility.yul\":4638:4709   */\n      tag_114\n      jump\t// in\n    tag_120:\n        /* \"#utility.yul\":4494:4716   */\n      swap3\n      swap2\n      pop\n      pop\n      jump\t// out\n        /* \"#utility.yul\":4722:4851   */\n    tag_53:\n        /* \"#utility.yul\":4756:4762   */\n      0x00\n        /* \"#utility.yul\":4783:4803   */\n      tag_122\n      tag_123\n      jump\t// in\n    tag_122:\n        /* \"#utility.yul\":4773:4803   */\n      swap1\n      pop\n        /* \"#utility.yul\":4812:4845   */\n      tag_124\n        /* \"#utility.yul\":4840:4844   */\n      dup3\n        /* \"#utility.yul\":4832:4838   */\n      dup3\n        /* \"#utility.yul\":4812:4845   */\n      tag_125\n      jump\t// in\n    tag_124:\n        /* \"#utility.yul\":4722:4851   */\n      swap2\n      swap1\n      pop\n      jump\t// out\n        /* \"#utility.yul\":4857:4932   */\n    tag_123:\n        /* \"#utility.yul\":4890:4896   */\n      0x00\n        /* \"#utility.yul\":4923:4925   */\n      0x40\n        /* \"#utility.yul\":4917:4926   */\n      mload\n        /* \"#utility.yul\":4907:4926   */\n      swap1\n      pop\n        /* \"#utility.yul\":4857:4932   */\n      swap1\n      jump\t// out\n        /* \"#utility.yul\":4938:5246   */\n    tag_52:\n        /* \"#utility.yul\":5000:5004   */\n      0x00\n        /* \"#utility.yul\":5090:5108   */\n      0xffffffffffffffff\n        /* \"#utility.yul\":5082:5088   */\n      dup3\n        /* \"#utility.yul\":5079:5109   */\n      gt\n        /* \"#utility.yul\":5076:5132   */\n      iszero\n      tag_128\n      jumpi\n        /* \"#utility.yul\":5112:5130   */\n      tag_129\n      tag_130\n      jump\t// in\n    tag_129:\n        /* \"#utility.yul\":5076:5132   */\n    tag_128:\n        /* \"#utility.yul\":5150:5179   */\n      tag_131\n        /* \"#utility.yul\":5172:5178   */\n      dup3\n        /* \"#utility.yul\":5150:5179   */\n      tag_103\n      jump\t// in\n    tag_131:\n        /* \"#utility.yul\":5142:5179   */\n      swap1\n      pop\n        /* \"#utility.yul\":5234:5238   */\n      0x20\n        /* \"#utility.yul\":5228:5232   */\n      dup2\n        /* \"#utility.yul\":5224:5239   */\n      add\n        /* \"#utility.yul\":5216:5239   */\n      swap1\n      pop\n        /* \"#utility.yul\":4938:5246   */\n      swap2\n      swap1\n      pop\n      jump\t// out\n        /* \"#utility.yul\":5252:5351   */\n    tag_97:\n        /* \"#utility.yul\":5304:5310   */\n      0x00\n        /* \"#utility.yul\":5338:5343   */\n      dup2\n        /* \"#utility.yul\":5332:5344   */\n      mload\n        /* \"#utility.yul\":5322:5344   */\n      swap1\n      pop\n        /* \"#utility.yul\":5252:5351   */\n      swap2\n      swap1\n      pop\n      jump\t// out\n        /* \"#utility.yul\":5357:5516   */\n    tag_99:\n        /* \"#utility.yul\":5431:5442   */\n      0x00\n        /* \"#utility.yul\":5465:5471   */\n      dup3\n        /* \"#utility.yul\":5460:5463   */\n      dup3\n        /* \"#utility.yul\":5453:5472   */\n      mstore\n        /* \"#utility.yul\":5505:5509   */\n      0x20\n        /* \"#utility.yul\":5500:5503   */\n      dup3\n        /* \"#utility.yul\":5496:5510   */\n      add\n        /* \"#utility.yul\":5481:5510   */\n      swap1\n      pop\n        /* \"#utility.yul\":5357:5516   */\n      swap3\n      swap2\n      pop\n      pop\n      jump\t// out\n        /* \"#utility.yul\":5522:5618   */\n    tag_93:\n        /* \"#utility.yul\":5559:5566   */\n      0x00\n        /* \"#utility.yul\":5588:5612   */\n      tag_135\n        /* \"#utility.yul\":5606:5611   */\n      dup3\n        /* \"#utility.yul\":5588:5612   */\n      tag_136\n      jump\t// in\n    tag_135:\n        /* \"#utility.yul\":5577:5612   */\n      swap1\n      pop\n        /* \"#utility.yul\":5522:5618   */\n      swap2\n      swap1\n      pop\n      jump\t// out\n        /* \"#utility.yul\":5624:5750   */\n    tag_136:\n        /* \"#utility.yul\":5661:5668   */\n      0x00\n        /* \"#utility.yul\":5701:5743   */\n      0xffffffffffffffffffffffffffffffffffffffff\n        /* \"#utility.yul\":5694:5699   */\n      dup3\n        /* \"#utility.yul\":5690:5744   */\n      and\n        /* \"#utility.yul\":5679:5744   */\n      swap1\n      pop\n        /* \"#utility.yul\":5624:5750   */\n      swap2\n      swap1\n      pop\n      jump\t// out\n        /* \"#utility.yul\":5756:5833   */\n    tag_113:\n        /* \"#utility.yul\":5793:5800   */\n      0x00\n        /* \"#utility.yul\":5822:5827   */\n      dup2\n        /* \"#utility.yul\":5811:5827   */\n      swap1\n      pop\n        /* \"#utility.yul\":5756:5833   */\n      swap2\n      swap1\n      pop\n      jump\t// out\n        /* \"#utility.yul\":5839:5993   */\n    tag_58:\n        /* \"#utility.yul\":5923:5929   */\n      dup3\n        /* \"#utility.yul\":5918:5921   */\n      dup2\n        /* \"#utility.yul\":5913:5916   */\n      dup4\n        /* \"#utility.yul\":5900:5930   */\n      calldatacopy\n        /* \"#utility.yul\":5985:5986   */\n      0x00\n        /* \"#utility.yul\":5976:5982   */\n      dup4\n        /* \"#utility.yul\":5971:5974   */\n      dup4\n        /* \"#utility.yul\":5967:5983   */\n      add\n        /* \"#utility.yul\":5960:5987   */\n      mstore\n        /* \"#utility.yul\":5839:5993   */\n      pop\n      pop\n      pop\n      jump\t// out\n        /* \"#utility.yul\":5999:6306   */\n    tag_101:\n        /* \"#utility.yul\":6067:6068   */\n      0x00\n        /* \"#utility.yul\":6077:6190   */\n    tag_141:\n        /* \"#utility.yul\":6091:6097   */\n      dup4\n        /* \"#utility.yul\":6088:6089   */\n      dup2\n        /* \"#utility.yul\":6085:6098   */\n      lt\n        /* \"#utility.yul\":6077:6190   */\n      iszero\n      tag_143\n      jumpi\n        /* \"#utility.yul\":6176:6177   */\n      dup1\n        /* \"#utility.yul\":6171:6174   */\n      dup3\n        /* \"#utility.yul\":6167:6178   */\n      add\n        /* \"#utility.yul\":6161:6179   */\n      mload\n        /* \"#utility.yul\":6157:6158   */\n      dup2\n        /* \"#utility.yul\":6152:6155   */\n      dup5\n        /* \"#utility.yul\":6148:6159   */\n      add\n        /* \"#utility.yul\":6141:6180   */\n      mstore\n        /* \"#utility.yul\":6113:6115   */\n      0x20\n        /* \"#utility.yul\":6110:6111   */\n      dup2\n        /* \"#utility.yul\":6106:6116   */\n      add\n        /* \"#utility.yul\":6101:6116   */\n      swap1\n      pop\n        /* \"#utility.yul\":6077:6190   */\n      jump(tag_141)\n    tag_143:\n        /* \"#utility.yul\":6208:6214   */\n      dup4\n        /* \"#utility.yul\":6205:6206   */\n      dup2\n        /* \"#utility.yul\":6202:6215   */\n      gt\n        /* \"#utility.yul\":6199:6300   */\n      iszero\n      tag_144\n      jumpi\n        /* \"#utility.yul\":6288:6289   */\n      0x00\n        /* \"#utility.yul\":6279:6285   */\n      dup5\n        /* \"#utility.yul\":6274:6277   */\n      dup5\n        /* \"#utility.yul\":6270:6286   */\n      add\n        /* \"#utility.yul\":6263:6290   */\n      mstore\n        /* \"#utility.yul\":6199:6300   */\n    tag_144:\n        /* \"#utility.yul\":6048:6306   */\n      pop\n        /* \"#utility.yul\":5999:6306   */\n      pop\n      pop\n      pop\n      jump\t// out\n        /* \"#utility.yul\":6312:6632   */\n    tag_32:\n        /* \"#utility.yul\":6356:6362   */\n      0x00\n        /* \"#utility.yul\":6393:6394   */\n      0x02\n        /* \"#utility.yul\":6387:6391   */\n      dup3\n        /* \"#utility.yul\":6383:6395   */\n      div\n        /* \"#utility.yul\":6373:6395   */\n      swap1\n      pop\n        /* \"#utility.yul\":6440:6441   */\n      0x01\n        /* \"#utility.yul\":6434:6438   */\n      dup3\n        /* \"#utility.yul\":6430:6442   */\n      and\n        /* \"#utility.yul\":6461:6479   */\n      dup1\n        /* \"#utility.yul\":6451:6532   */\n      tag_146\n      jumpi\n        /* \"#utility.yul\":6517:6521   */\n      0x7f\n        /* \"#utility.yul\":6509:6515   */\n      dup3\n        /* \"#utility.yul\":6505:6522   */\n      and\n        /* \"#utility.yul\":6495:6522   */\n      swap2\n      pop\n        /* \"#utility.yul\":6451:6532   */\n    tag_146:\n        /* \"#utility.yul\":6579:6581   */\n      0x20\n        /* \"#utility.yul\":6571:6577   */\n      dup3\n        /* \"#utility.yul\":6568:6582   */\n      lt\n        /* \"#utility.yul\":6548:6566   */\n      dup2\n        /* \"#utility.yul\":6545:6583   */\n      eq\n        /* \"#utility.yul\":6542:6626   */\n      iszero\n      tag_147\n      jumpi\n        /* \"#utility.yul\":6598:6616   */\n      tag_148\n      tag_149\n      jump\t// in\n    tag_148:\n        /* \"#utility.yul\":6542:6626   */\n    tag_147:\n        /* \"#utility.yul\":6363:6632   */\n      pop\n        /* \"#utility.yul\":6312:6632   */\n      swap2\n      swap1\n      pop\n      jump\t// out\n        /* \"#utility.yul\":6638:6919   */\n    tag_125:\n        /* \"#utility.yul\":6721:6748   */\n      tag_151\n        /* \"#utility.yul\":6743:6747   */\n      dup3\n        /* \"#utility.yul\":6721:6748   */\n      tag_103\n      jump\t// in\n    tag_151:\n        /* \"#utility.yul\":6713:6719   */\n      dup2\n        /* \"#utility.yul\":6709:6749   */\n      add\n        /* \"#utility.yul\":6851:6857   */\n      dup2\n        /* \"#utility.yul\":6839:6849   */\n      dup2\n        /* \"#utility.yul\":6836:6858   */\n      lt\n        /* \"#utility.yul\":6815:6833   */\n      0xffffffffffffffff\n        /* \"#utility.yul\":6803:6813   */\n      dup3\n        /* \"#utility.yul\":6800:6834   */\n      gt\n        /* \"#utility.yul\":6797:6859   */\n      or\n        /* \"#utility.yul\":6794:6882   */\n      iszero\n      tag_152\n      jumpi\n        /* \"#utility.yul\":6862:6880   */\n      tag_153\n      tag_130\n      jump\t// in\n    tag_153:\n        /* \"#utility.yul\":6794:6882   */\n    tag_152:\n        /* \"#utility.yul\":6902:6912   */\n      dup1\n        /* \"#utility.yul\":6898:6900   */\n      0x40\n        /* \"#utility.yul\":6891:6913   */\n      mstore\n        /* \"#utility.yul\":6681:6919   */\n      pop\n        /* \"#utility.yul\":6638:6919   */\n      pop\n      pop\n      jump\t// out\n        /* \"#utility.yul\":6925:7158   */\n    tag_25:\n        /* \"#utility.yul\":6964:6967   */\n      0x00\n        /* \"#utility.yul\":6987:7011   */\n      tag_155\n        /* \"#utility.yul\":7005:7010   */\n      dup3\n        /* \"#utility.yul\":6987:7011   */\n      tag_113\n      jump\t// in\n    tag_155:\n        /* \"#utility.yul\":6978:7011   */\n      swap2\n      pop\n        /* \"#utility.yul\":7033:7099   */\n      0xffffffffffffffffffffffffffffffffffffffffffffffffffffffffffffffff\n        /* \"#utility.yul\":7026:7031   */\n      dup3\n        /* \"#utility.yul\":7023:7100   */\n      eq\n        /* \"#utility.yul\":7020:7123   */\n      iszero\n      tag_156\n      jumpi\n        /* \"#utility.yul\":7103:7121   */\n      tag_157\n      tag_158\n      jump\t// in\n    tag_157:\n        /* \"#utility.yul\":7020:7123   */\n    tag_156:\n        /* \"#utility.yul\":7150:7151   */\n      0x01\n        /* \"#utility.yul\":7143:7148   */\n      dup3\n        /* \"#utility.yul\":7139:7152   */\n      add\n        /* \"#utility.yul\":7132:7152   */\n      swap1\n      pop\n        /* \"#utility.yul\":6925:7158   */\n      swap2\n      swap1\n      pop\n      jump\t// out\n        /* \"#utility.yul\":7164:7344   */\n    tag_158:\n        /* \"#utility.yul\":7212:7289   */\n      0x4e487b7100000000000000000000000000000000000000000000000000000000\n        /* \"#utility.yul\":7209:7210   */\n      0x00\n        /* \"#utility.yul\":7202:7290   */\n      mstore\n        /* \"#utility.yul\":7309:7313   */\n      0x11\n        /* \"#utility.yul\":7306:7307   */\n      0x04\n        /* \"#utility.yul\":7299:7314   */\n      mstore\n        /* \"#utility.yul\":7333:7337   */\n      0x24\n        /* \"#utility.yul\":7330:7331   */\n      0x00\n        /* \"#utility.yul\":7323:7338   */\n      revert\n        /* \"#utility.yul\":7350:7530   */\n    tag_149:\n        /* \"#utility.yul\":7398:7475   */\n      0x4e487b7100000000000000000000000000000000000000000000000000000000\n        /* \"#utility.yul\":7395:7396   */\n      0x00\n        /* \"#utility.yul\":7388:7476   */\n      mstore\n        /* \"#utility.yul\":7495:7499   */\n      0x22\n        /* \"#utility.yul\":7492:7493   */\n      0x04\n        /* \"#utility.yul\":7485:7500   */\n      mstore\n        /* \"#utility.yul\":7519:7523   */\n      0x24\n        /* \"#utility.yul\":7516:7517   */\n      0x00\n        /* \"#utility.yul\":7509:7524   */\n      revert\n        /* \"#utility.yul\":7536:7716   */\n    tag_130:\n        /* \"#utility.yul\":7584:7661   */\n      0x4e487b7100000000000000000000000000000000000000000000000000000000\n        /* \"#utility.yul\":7581:7582   */\n      0x00\n        /* \"#utility.yul\":7574:7662   */\n      mstore\n        /* \"#utility.yul\":7681:7685   */\n      0x41\n        /* \"#utility.yul\":7678:7679   */\n      0x04\n        /* \"#utility.yul\":7671:7686   */\n      mstore\n        /* \"#utility.yul\":7705:7709   */\n      0x24\n        /* \"#utility.yul\":7702:7703   */\n      0x00\n        /* \"#utility.yul\":7695:7710   */\n      revert\n        /* \"#utility.yul\":7722:7839   */\n    tag_67:\n        /* \"#utility.yul\":7831:7832   */\n      0x00\n        /* \"#utility.yul\":7828:7829   */\n      dup1\n        /* \"#utility.yul\":7821:7833   */\n      revert\n        /* \"#utility.yul\":7845:7962   */\n    tag_56:\n        /* \"#utility.yul\":7954:7955   */\n      0x00\n        /* \"#utility.yul\":7951:7952   */\n      dup1\n        /* \"#utility.yul\":7944:7956   */\n      revert\n        /* \"#utility.yul\":7968:8085   */\n    tag_88:\n        /* \"#utility.yul\":8077:8078   */\n      0x00\n        /* \"#utility.yul\":8074:8075   */\n      dup1\n        /* \"#utility.yul\":8067:8079   */\n      revert\n        /* \"#utility.yul\":8091:8208   */\n    tag_76:\n        /* \"#utility.yul\":8200:8201   */\n      0x00\n        /* \"#utility.yul\":8197:8198   */\n      dup1\n        /* \"#utility.yul\":8190:8202   */\n      revert\n        /* \"#utility.yul\":8214:8316   */\n    tag_103:\n        /* \"#utility.yul\":8255:8261   */\n      0x00\n        /* \"#utility.yul\":8306:8308   */\n      0x1f\n        /* \"#utility.yul\":8302:8309   */\n      not\n        /* \"#utility.yul\":8297:8299   */\n      0x1f\n        /* \"#utility.yul\":8290:8295   */\n      dup4\n        /* \"#utility.yul\":8286:8300   */\n      add\n        /* \"#utility.yul\":8282:8310   */\n      and\n        /* \"#utility.yul\":8272:8310   */\n      swap1\n      pop\n        /* \"#utility.yul\":8214:8316   */\n      swap2\n      swap1\n      pop\n      jump\t// out\n        /* \"#utility.yul\":8322:8444   */\n    tag_62:\n        /* \"#utility.yul\":8395:8419   */\n      tag_168\n        /* \"#utility.yul\":8413:8418   */\n      dup2\n        /* \"#utility.yul\":8395:8419   */\n      tag_93\n      jump\t// in\n    tag_168:\n        /* \"#utility.yul\":8388:8393   */\n      dup2\n        /* \"#utility.yul\":8385:8420   */\n      eq\n        /* \"#utility.yul\":8375:8438   */\n      tag_169\n      jumpi\n        /* \"#utility.yul\":8434:8435   */\n      0x00\n        /* \"#utility.yul\":8431:8432   */\n      dup1\n        /* \"#utility.yul\":8424:8436   */\n      revert\n        /* \"#utility.yul\":8375:8438   */\n    tag_169:\n        /* \"#utility.yul\":8322:8444   */\n      pop\n      jump\t// out\n        /* \"#utility.yul\":8450:8572   */\n    tag_72:\n        /* \"#utility.yul\":8523:8547   */\n      tag_171\n        /* \"#utility.yul\":8541:8546   */\n      dup2\n        /* \"#utility.yul\":8523:8547   */\n      tag_113\n      jump\t// in\n    tag_171:\n        /* \"#utility.yul\":8516:8521   */\n      dup2\n        /* \"#utility.yul\":8513:8548   */\n      eq\n        /* \"#utility.yul\":8503:8566   */\n      tag_172\n      jumpi\n        /* \"#utility.yul\":8562:8563   */\n      0x00\n        /* \"#utility.yul\":8559:8560   */\n      dup1\n        /* \"#utility.yul\":8552:8564   */\n      revert\n        /* \"#utility.yul\":8503:8566   */\n    tag_172:\n        /* \"#utility.yul\":8450:8572   */\n      pop\n      jump\t// out\n\n    auxdata: 0xa264697066735822122041018c8518397ac58b455a9c33e67606ca6313c38fbabe840bb9745e039b4a1b64736f6c63430008070033\n}\n",
				"bytecode": {
					"linkReferences": {},
					"object": "608060405234801561001057600080fd5b506109ea806100206000396000f3fe6080604052600436106100345760003560e01c806327e235e3146100395780632b66d72e14610076578063977a767c14610092575b600080fd5b34801561004557600080fd5b50610060600480360381019061005b919061057c565b6100cf565b60405161006d919061071d565b60405180910390f35b610090600480360381019061008b91906105e9565b6100ed565b005b34801561009e57600080fd5b506100b960048036038101906100b491906105a9565b610298565b6040516100c691906106fb565b60405180910390f35b60006020528060005260406000206000915090508060000154905081565b60008060003373ffffffffffffffffffffffffffffffffffffffff1673ffffffffffffffffffffffffffffffffffffffff1681526020019081526020016000206000015490506000803373ffffffffffffffffffffffffffffffffffffffff1673ffffffffffffffffffffffffffffffffffffffff16815260200190815260200160002060000160008154809291906101859061088b565b9190505550600060405180608001604052803481526020014281526020013373ffffffffffffffffffffffffffffffffffffffff168152602001848152509050806000803373ffffffffffffffffffffffffffffffffffffffff1673ffffffffffffffffffffffffffffffffffffffff1681526020019081526020016000206001016000848152602001908152602001600020600082015181600001556020820151816001015560408201518160020160006101000a81548173ffffffffffffffffffffffffffffffffffffffff021916908373ffffffffffffffffffffffffffffffffffffffff160217905550606082015181600301908051906020019061028f929190610401565b50905050505050565b6102a0610487565b6000808473ffffffffffffffffffffffffffffffffffffffff1673ffffffffffffffffffffffffffffffffffffffff168152602001908152602001600020600101600083815260200190815260200160002060405180608001604052908160008201548152602001600182015481526020016002820160009054906101000a900473ffffffffffffffffffffffffffffffffffffffff1673ffffffffffffffffffffffffffffffffffffffff1673ffffffffffffffffffffffffffffffffffffffff16815260200160038201805461037790610828565b80601f01602080910402602001604051908101604052809291908181526020018280546103a390610828565b80156103f05780601f106103c5576101008083540402835291602001916103f0565b820191906000526020600020905b8154815290600101906020018083116103d357829003601f168201915b505050505081525050905092915050565b82805461040d90610828565b90600052602060002090601f01602090048101928261042f5760008555610476565b82601f1061044857805160ff1916838001178555610476565b82800160010185558215610476579182015b8281111561047557825182559160200191906001019061045a565b5b50905061048391906104c5565b5090565b60405180608001604052806000815260200160008152602001600073ffffffffffffffffffffffffffffffffffffffff168152602001606081525090565b5b808211156104de5760008160009055506001016104c6565b5090565b60006104f56104f08461075d565b610738565b90508281526020810184848401111561051157610510610966565b5b61051c8482856107e6565b509392505050565b60008135905061053381610986565b92915050565b600082601f83011261054e5761054d610961565b5b813561055e8482602086016104e2565b91505092915050565b6000813590506105768161099d565b92915050565b60006020828403121561059257610591610970565b5b60006105a084828501610524565b91505092915050565b600080604083850312156105c0576105bf610970565b5b60006105ce85828601610524565b92505060206105df85828601610567565b9150509250929050565b6000602082840312156105ff576105fe610970565b5b600082013567ffffffffffffffff81111561061d5761061c61096b565b5b61062984828501610539565b91505092915050565b61063b816107aa565b82525050565b600061064c8261078e565b6106568185610799565b93506106668185602086016107f5565b61066f81610975565b840191505092915050565b600060808301600083015161069260008601826106dd565b5060208301516106a560208601826106dd565b5060408301516106b86040860182610632565b50606083015184820360608601526106d08282610641565b9150508091505092915050565b6106e6816107dc565b82525050565b6106f5816107dc565b82525050565b60006020820190508181036000830152610715818461067a565b905092915050565b600060208201905061073260008301846106ec565b92915050565b6000610742610753565b905061074e828261085a565b919050565b6000604051905090565b600067ffffffffffffffff82111561077857610777610932565b5b61078182610975565b9050602081019050919050565b600081519050919050565b600082825260208201905092915050565b60006107b5826107bc565b9050919050565b600073ffffffffffffffffffffffffffffffffffffffff82169050919050565b6000819050919050565b82818337600083830152505050565b60005b838110156108135780820151818401526020810190506107f8565b83811115610822576000848401525b50505050565b6000600282049050600182168061084057607f821691505b6020821081141561085457610853610903565b5b50919050565b61086382610975565b810181811067ffffffffffffffff8211171561088257610881610932565b5b80604052505050565b6000610896826107dc565b91507fffffffffffffffffffffffffffffffffffffffffffffffffffffffffffffffff8214156108c9576108c86108d4565b5b600182019050919050565b7f4e487b7100000000000000000000000000000000000000000000000000000000600052601160045260246000fd5b7f4e487b7100000000000000000000000000000000000000000000000000000000600052602260045260246000fd5b7f4e487b7100000000000000000000000000000000000000000000000000000000600052604160045260246000fd5b600080fd5b600080fd5b600080fd5b600080fd5b6000601f19601f8301169050919050565b61098f816107aa565b811461099a57600080fd5b50565b6109a6816107dc565b81146109b157600080fd5b5056fea264697066735822122041018c8518397ac58b455a9c33e67606ca6313c38fbabe840bb9745e039b4a1b64736f6c63430008070033",
					"opcodes": "PUSH1 0x80 PUSH1 0x40 MSTORE CALLVALUE DUP1 ISZERO PUSH2 0x10 JUMPI PUSH1 0x0 DUP1 REVERT JUMPDEST POP PUSH2 0x9EA DUP1 PUSH2 0x20 PUSH1 0x0 CODECOPY PUSH1 0x0 RETURN INVALID PUSH1 0x80 PUSH1 0x40 MSTORE PUSH1 0x4 CALLDATASIZE LT PUSH2 0x34 JUMPI PUSH1 0x0 CALLDATALOAD PUSH1 0xE0 SHR DUP1 PUSH4 0x27E235E3 EQ PUSH2 0x39 JUMPI DUP1 PUSH4 0x2B66D72E EQ PUSH2 0x76 JUMPI DUP1 PUSH4 0x977A767C EQ PUSH2 0x92 JUMPI JUMPDEST PUSH1 0x0 DUP1 REVERT JUMPDEST CALLVALUE DUP1 ISZERO PUSH2 0x45 JUMPI PUSH1 0x0 DUP1 REVERT JUMPDEST POP PUSH2 0x60 PUSH1 0x4 DUP1 CALLDATASIZE SUB DUP2 ADD SWAP1 PUSH2 0x5B SWAP2 SWAP1 PUSH2 0x57C JUMP JUMPDEST PUSH2 0xCF JUMP JUMPDEST PUSH1 0x40 MLOAD PUSH2 0x6D SWAP2 SWAP1 PUSH2 0x71D JUMP JUMPDEST PUSH1 0x40 MLOAD DUP1 SWAP2 SUB SWAP1 RETURN JUMPDEST PUSH2 0x90 PUSH1 0x4 DUP1 CALLDATASIZE SUB DUP2 ADD SWAP1 PUSH2 0x8B SWAP2 SWAP1 PUSH2 0x5E9 JUMP JUMPDEST PUSH2 0xED JUMP JUMPDEST STOP JUMPDEST CALLVALUE DUP1 ISZERO PUSH2 0x9E JUMPI PUSH1 0x0 DUP1 REVERT JUMPDEST POP PUSH2 0xB9 PUSH1 0x4 DUP1 CALLDATASIZE SUB DUP2 ADD SWAP1 PUSH2 0xB4 SWAP2 SWAP1 PUSH2 0x5A9 JUMP JUMPDEST PUSH2 0x298 JUMP JUMPDEST PUSH1 0x40 MLOAD PUSH2 0xC6 SWAP2 SWAP1 PUSH2 0x6FB JUMP JUMPDEST PUSH1 0x40 MLOAD DUP1 SWAP2 SUB SWAP1 RETURN JUMPDEST PUSH1 0x0 PUSH1 0x20 MSTORE DUP1 PUSH1 0x0 MSTORE PUSH1 0x40 PUSH1 0x0 KECCAK256 PUSH1 0x0 SWAP2 POP SWAP1 POP DUP1 PUSH1 0x0 ADD SLOAD SWAP1 POP DUP2 JUMP JUMPDEST PUSH1 0x0 DUP1 PUSH1 0x0 CALLER PUSH20 0xFFFFFFFFFFFFFFFFFFFFFFFFFFFFFFFFFFFFFFFF AND PUSH20 0xFFFFFFFFFFFFFFFFFFFFFFFFFFFFFFFFFFFFFFFF AND DUP2 MSTORE PUSH1 0x20 ADD SWAP1 DUP2 MSTORE PUSH1 0x20 ADD PUSH1 0x0 KECCAK256 PUSH1 0x0 ADD SLOAD SWAP1 POP PUSH1 0x0 DUP1 CALLER PUSH20 0xFFFFFFFFFFFFFFFFFFFFFFFFFFFFFFFFFFFFFFFF AND PUSH20 0xFFFFFFFFFFFFFFFFFFFFFFFFFFFFFFFFFFFFFFFF AND DUP2 MSTORE PUSH1 0x20 ADD SWAP1 DUP2 MSTORE PUSH1 0x20 ADD PUSH1 0x0 KECCAK256 PUSH1 0x0 ADD PUSH1 0x0 DUP2 SLOAD DUP1 SWAP3 SWAP2 SWAP1 PUSH2 0x185 SWAP1 PUSH2 0x88B JUMP JUMPDEST SWAP2 SWAP1 POP SSTORE POP PUSH1 0x0 PUSH1 0x40 MLOAD DUP1 PUSH1 0x80 ADD PUSH1 0x40 MSTORE DUP1 CALLVALUE DUP2 MSTORE PUSH1 0x20 ADD TIMESTAMP DUP2 MSTORE PUSH1 0x20 ADD CALLER PUSH20 0xFFFFFFFFFFFFFFFFFFFFFFFFFFFFFFFFFFFFFFFF AND DUP2 MSTORE PUSH1 0x20 ADD DUP5 DUP2 MSTORE POP SWAP1 POP DUP1 PUSH1 0x0 DUP1 CALLER PUSH20 0xFFFFFFFFFFFFFFFFFFFFFFFFFFFFFFFFFFFFFFFF AND PUSH20 0xFFFFFFFFFFFFFFFFFFFFFFFFFFFFFFFFFFFFFFFF AND DUP2 MSTORE PUSH1 0x20 ADD SWAP1 DUP2 MSTORE PUSH1 0x20 ADD PUSH1 0x0 KECCAK256 PUSH1 0x1 ADD PUSH1 0x0 DUP5 DUP2 MSTORE PUSH1 0x20 ADD SWAP1 DUP2 MSTORE PUSH1 0x20 ADD PUSH1 0x0 KECCAK256 PUSH1 0x0 DUP3 ADD MLOAD DUP2 PUSH1 0x0 ADD SSTORE PUSH1 0x20 DUP3 ADD MLOAD DUP2 PUSH1 0x1 ADD SSTORE PUSH1 0x40 DUP3 ADD MLOAD DUP2 PUSH1 0x2 ADD PUSH1 0x0 PUSH2 0x100 EXP DUP2 SLOAD DUP2 PUSH20 0xFFFFFFFFFFFFFFFFFFFFFFFFFFFFFFFFFFFFFFFF MUL NOT AND SWAP1 DUP4 PUSH20 0xFFFFFFFFFFFFFFFFFFFFFFFFFFFFFFFFFFFFFFFF AND MUL OR SWAP1 SSTORE POP PUSH1 0x60 DUP3 ADD MLOAD DUP2 PUSH1 0x3 ADD SWAP1 DUP1 MLOAD SWAP1 PUSH1 0x20 ADD SWAP1 PUSH2 0x28F SWAP3 SWAP2 SWAP1 PUSH2 0x401 JUMP JUMPDEST POP SWAP1 POP POP POP POP POP JUMP JUMPDEST PUSH2 0x2A0 PUSH2 0x487 JUMP JUMPDEST PUSH1 0x0 DUP1 DUP5 PUSH20 0xFFFFFFFFFFFFFFFFFFFFFFFFFFFFFFFFFFFFFFFF AND PUSH20 0xFFFFFFFFFFFFFFFFFFFFFFFFFFFFFFFFFFFFFFFF AND DUP2 MSTORE PUSH1 0x20 ADD SWAP1 DUP2 MSTORE PUSH1 0x20 ADD PUSH1 0x0 KECCAK256 PUSH1 0x1 ADD PUSH1 0x0 DUP4 DUP2 MSTORE PUSH1 0x20 ADD SWAP1 DUP2 MSTORE PUSH1 0x20 ADD PUSH1 0x0 KECCAK256 PUSH1 0x40 MLOAD DUP1 PUSH1 0x80 ADD PUSH1 0x40 MSTORE SWAP1 DUP2 PUSH1 0x0 DUP3 ADD SLOAD DUP2 MSTORE PUSH1 0x20 ADD PUSH1 0x1 DUP3 ADD SLOAD DUP2 MSTORE PUSH1 0x20 ADD PUSH1 0x2 DUP3 ADD PUSH1 0x0 SWAP1 SLOAD SWAP1 PUSH2 0x100 EXP SWAP1 DIV PUSH20 0xFFFFFFFFFFFFFFFFFFFFFFFFFFFFFFFFFFFFFFFF AND PUSH20 0xFFFFFFFFFFFFFFFFFFFFFFFFFFFFFFFFFFFFFFFF AND PUSH20 0xFFFFFFFFFFFFFFFFFFFFFFFFFFFFFFFFFFFFFFFF AND DUP2 MSTORE PUSH1 0x20 ADD PUSH1 0x3 DUP3 ADD DUP1 SLOAD PUSH2 0x377 SWAP1 PUSH2 0x828 JUMP JUMPDEST DUP1 PUSH1 0x1F ADD PUSH1 0x20 DUP1 SWAP2 DIV MUL PUSH1 0x20 ADD PUSH1 0x40 MLOAD SWAP1 DUP2 ADD PUSH1 0x40 MSTORE DUP1 SWAP3 SWAP2 SWAP1 DUP2 DUP2 MSTORE PUSH1 0x20 ADD DUP3 DUP1 SLOAD PUSH2 0x3A3 SWAP1 PUSH2 0x828 JUMP JUMPDEST DUP1 ISZERO PUSH2 0x3F0 JUMPI DUP1 PUSH1 0x1F LT PUSH2 0x3C5 JUMPI PUSH2 0x100 DUP1 DUP4 SLOAD DIV MUL DUP4 MSTORE SWAP2 PUSH1 0x20 ADD SWAP2 PUSH2 0x3F0 JUMP JUMPDEST DUP3 ADD SWAP2 SWAP1 PUSH1 0x0 MSTORE PUSH1 0x20 PUSH1 0x0 KECCAK256 SWAP1 JUMPDEST DUP2 SLOAD DUP2 MSTORE SWAP1 PUSH1 0x1 ADD SWAP1 PUSH1 0x20 ADD DUP1 DUP4 GT PUSH2 0x3D3 JUMPI DUP3 SWAP1 SUB PUSH1 0x1F AND DUP3 ADD SWAP2 JUMPDEST POP POP POP POP POP DUP2 MSTORE POP POP SWAP1 POP SWAP3 SWAP2 POP POP JUMP JUMPDEST DUP3 DUP1 SLOAD PUSH2 0x40D SWAP1 PUSH2 0x828 JUMP JUMPDEST SWAP1 PUSH1 0x0 MSTORE PUSH1 0x20 PUSH1 0x0 KECCAK256 SWAP1 PUSH1 0x1F ADD PUSH1 0x20 SWAP1 DIV DUP2 ADD SWAP3 DUP3 PUSH2 0x42F JUMPI PUSH1 0x0 DUP6 SSTORE PUSH2 0x476 JUMP JUMPDEST DUP3 PUSH1 0x1F LT PUSH2 0x448 JUMPI DUP1 MLOAD PUSH1 0xFF NOT AND DUP4 DUP1 ADD OR DUP6 SSTORE PUSH2 0x476 JUMP JUMPDEST DUP3 DUP1 ADD PUSH1 0x1 ADD DUP6 SSTORE DUP3 ISZERO PUSH2 0x476 JUMPI SWAP2 DUP3 ADD JUMPDEST DUP3 DUP2 GT ISZERO PUSH2 0x475 JUMPI DUP3 MLOAD DUP3 SSTORE SWAP2 PUSH1 0x20 ADD SWAP2 SWAP1 PUSH1 0x1 ADD SWAP1 PUSH2 0x45A JUMP JUMPDEST JUMPDEST POP SWAP1 POP PUSH2 0x483 SWAP2 SWAP1 PUSH2 0x4C5 JUMP JUMPDEST POP SWAP1 JUMP JUMPDEST PUSH1 0x40 MLOAD DUP1 PUSH1 0x80 ADD PUSH1 0x40 MSTORE DUP1 PUSH1 0x0 DUP2 MSTORE PUSH1 0x20 ADD PUSH1 0x0 DUP2 MSTORE PUSH1 0x20 ADD PUSH1 0x0 PUSH20 0xFFFFFFFFFFFFFFFFFFFFFFFFFFFFFFFFFFFFFFFF AND DUP2 MSTORE PUSH1 0x20 ADD PUSH1 0x60 DUP2 MSTORE POP SWAP1 JUMP JUMPDEST JUMPDEST DUP1 DUP3 GT ISZERO PUSH2 0x4DE JUMPI PUSH1 0x0 DUP2 PUSH1 0x0 SWAP1 SSTORE POP PUSH1 0x1 ADD PUSH2 0x4C6 JUMP JUMPDEST POP SWAP1 JUMP JUMPDEST PUSH1 0x0 PUSH2 0x4F5 PUSH2 0x4F0 DUP5 PUSH2 0x75D JUMP JUMPDEST PUSH2 0x738 JUMP JUMPDEST SWAP1 POP DUP3 DUP2 MSTORE PUSH1 0x20 DUP2 ADD DUP5 DUP5 DUP5 ADD GT ISZERO PUSH2 0x511 JUMPI PUSH2 0x510 PUSH2 0x966 JUMP JUMPDEST JUMPDEST PUSH2 0x51C DUP5 DUP3 DUP6 PUSH2 0x7E6 JUMP JUMPDEST POP SWAP4 SWAP3 POP POP POP JUMP JUMPDEST PUSH1 0x0 DUP2 CALLDATALOAD SWAP1 POP PUSH2 0x533 DUP2 PUSH2 0x986 JUMP JUMPDEST SWAP3 SWAP2 POP POP JUMP JUMPDEST PUSH1 0x0 DUP3 PUSH1 0x1F DUP4 ADD SLT PUSH2 0x54E JUMPI PUSH2 0x54D PUSH2 0x961 JUMP JUMPDEST JUMPDEST DUP2 CALLDATALOAD PUSH2 0x55E DUP5 DUP3 PUSH1 0x20 DUP7 ADD PUSH2 0x4E2 JUMP JUMPDEST SWAP2 POP POP SWAP3 SWAP2 POP POP JUMP JUMPDEST PUSH1 0x0 DUP2 CALLDATALOAD SWAP1 POP PUSH2 0x576 DUP2 PUSH2 0x99D JUMP JUMPDEST SWAP3 SWAP2 POP POP JUMP JUMPDEST PUSH1 0x0 PUSH1 0x20 DUP3 DUP5 SUB SLT ISZERO PUSH2 0x592 JUMPI PUSH2 0x591 PUSH2 0x970 JUMP JUMPDEST JUMPDEST PUSH1 0x0 PUSH2 0x5A0 DUP5 DUP3 DUP6 ADD PUSH2 0x524 JUMP JUMPDEST SWAP2 POP POP SWAP3 SWAP2 POP POP JUMP JUMPDEST PUSH1 0x0 DUP1 PUSH1 0x40 DUP4 DUP6 SUB SLT ISZERO PUSH2 0x5C0 JUMPI PUSH2 0x5BF PUSH2 0x970 JUMP JUMPDEST JUMPDEST PUSH1 0x0 PUSH2 0x5CE DUP6 DUP3 DUP7 ADD PUSH2 0x524 JUMP JUMPDEST SWAP3 POP POP PUSH1 0x20 PUSH2 0x5DF DUP6 DUP3 DUP7 ADD PUSH2 0x567 JUMP JUMPDEST SWAP2 POP POP SWAP3 POP SWAP3 SWAP1 POP JUMP JUMPDEST PUSH1 0x0 PUSH1 0x20 DUP3 DUP5 SUB SLT ISZERO PUSH2 0x5FF JUMPI PUSH2 0x5FE PUSH2 0x970 JUMP JUMPDEST JUMPDEST PUSH1 0x0 DUP3 ADD CALLDATALOAD PUSH8 0xFFFFFFFFFFFFFFFF DUP2 GT ISZERO PUSH2 0x61D JUMPI PUSH2 0x61C PUSH2 0x96B JUMP JUMPDEST JUMPDEST PUSH2 0x629 DUP5 DUP3 DUP6 ADD PUSH2 0x539 JUMP JUMPDEST SWAP2 POP POP SWAP3 SWAP2 POP POP JUMP JUMPDEST PUSH2 0x63B DUP2 PUSH2 0x7AA JUMP JUMPDEST DUP3 MSTORE POP POP JUMP JUMPDEST PUSH1 0x0 PUSH2 0x64C DUP3 PUSH2 0x78E JUMP JUMPDEST PUSH2 0x656 DUP2 DUP6 PUSH2 0x799 JUMP JUMPDEST SWAP4 POP PUSH2 0x666 DUP2 DUP6 PUSH1 0x20 DUP7 ADD PUSH2 0x7F5 JUMP JUMPDEST PUSH2 0x66F DUP2 PUSH2 0x975 JUMP JUMPDEST DUP5 ADD SWAP2 POP POP SWAP3 SWAP2 POP POP JUMP JUMPDEST PUSH1 0x0 PUSH1 0x80 DUP4 ADD PUSH1 0x0 DUP4 ADD MLOAD PUSH2 0x692 PUSH1 0x0 DUP7 ADD DUP3 PUSH2 0x6DD JUMP JUMPDEST POP PUSH1 0x20 DUP4 ADD MLOAD PUSH2 0x6A5 PUSH1 0x20 DUP7 ADD DUP3 PUSH2 0x6DD JUMP JUMPDEST POP PUSH1 0x40 DUP4 ADD MLOAD PUSH2 0x6B8 PUSH1 0x40 DUP7 ADD DUP3 PUSH2 0x632 JUMP JUMPDEST POP PUSH1 0x60 DUP4 ADD MLOAD DUP5 DUP3 SUB PUSH1 0x60 DUP7 ADD MSTORE PUSH2 0x6D0 DUP3 DUP3 PUSH2 0x641 JUMP JUMPDEST SWAP2 POP POP DUP1 SWAP2 POP POP SWAP3 SWAP2 POP POP JUMP JUMPDEST PUSH2 0x6E6 DUP2 PUSH2 0x7DC JUMP JUMPDEST DUP3 MSTORE POP POP JUMP JUMPDEST PUSH2 0x6F5 DUP2 PUSH2 0x7DC JUMP JUMPDEST DUP3 MSTORE POP POP JUMP JUMPDEST PUSH1 0x0 PUSH1 0x20 DUP3 ADD SWAP1 POP DUP2 DUP2 SUB PUSH1 0x0 DUP4 ADD MSTORE PUSH2 0x715 DUP2 DUP5 PUSH2 0x67A JUMP JUMPDEST SWAP1 POP SWAP3 SWAP2 POP POP JUMP JUMPDEST PUSH1 0x0 PUSH1 0x20 DUP3 ADD SWAP1 POP PUSH2 0x732 PUSH1 0x0 DUP4 ADD DUP5 PUSH2 0x6EC JUMP JUMPDEST SWAP3 SWAP2 POP POP JUMP JUMPDEST PUSH1 0x0 PUSH2 0x742 PUSH2 0x753 JUMP JUMPDEST SWAP1 POP PUSH2 0x74E DUP3 DUP3 PUSH2 0x85A JUMP JUMPDEST SWAP2 SWAP1 POP JUMP JUMPDEST PUSH1 0x0 PUSH1 0x40 MLOAD SWAP1 POP SWAP1 JUMP JUMPDEST PUSH1 0x0 PUSH8 0xFFFFFFFFFFFFFFFF DUP3 GT ISZERO PUSH2 0x778 JUMPI PUSH2 0x777 PUSH2 0x932 JUMP JUMPDEST JUMPDEST PUSH2 0x781 DUP3 PUSH2 0x975 JUMP JUMPDEST SWAP1 POP PUSH1 0x20 DUP2 ADD SWAP1 POP SWAP2 SWAP1 POP JUMP JUMPDEST PUSH1 0x0 DUP2 MLOAD SWAP1 POP SWAP2 SWAP1 POP JUMP JUMPDEST PUSH1 0x0 DUP3 DUP3 MSTORE PUSH1 0x20 DUP3 ADD SWAP1 POP SWAP3 SWAP2 POP POP JUMP JUMPDEST PUSH1 0x0 PUSH2 0x7B5 DUP3 PUSH2 0x7BC JUMP JUMPDEST SWAP1 POP SWAP2 SWAP1 POP JUMP JUMPDEST PUSH1 0x0 PUSH20 0xFFFFFFFFFFFFFFFFFFFFFFFFFFFFFFFFFFFFFFFF DUP3 AND SWAP1 POP SWAP2 SWAP1 POP JUMP JUMPDEST PUSH1 0x0 DUP2 SWAP1 POP SWAP2 SWAP1 POP JUMP JUMPDEST DUP3 DUP2 DUP4 CALLDATACOPY PUSH1 0x0 DUP4 DUP4 ADD MSTORE POP POP POP JUMP JUMPDEST PUSH1 0x0 JUMPDEST DUP4 DUP2 LT ISZERO PUSH2 0x813 JUMPI DUP1 DUP3 ADD MLOAD DUP2 DUP5 ADD MSTORE PUSH1 0x20 DUP2 ADD SWAP1 POP PUSH2 0x7F8 JUMP JUMPDEST DUP4 DUP2 GT ISZERO PUSH2 0x822 JUMPI PUSH1 0x0 DUP5 DUP5 ADD MSTORE JUMPDEST POP POP POP POP JUMP JUMPDEST PUSH1 0x0 PUSH1 0x2 DUP3 DIV SWAP1 POP PUSH1 0x1 DUP3 AND DUP1 PUSH2 0x840 JUMPI PUSH1 0x7F DUP3 AND SWAP2 POP JUMPDEST PUSH1 0x20 DUP3 LT DUP2 EQ ISZERO PUSH2 0x854 JUMPI PUSH2 0x853 PUSH2 0x903 JUMP JUMPDEST JUMPDEST POP SWAP2 SWAP1 POP JUMP JUMPDEST PUSH2 0x863 DUP3 PUSH2 0x975 JUMP JUMPDEST DUP2 ADD DUP2 DUP2 LT PUSH8 0xFFFFFFFFFFFFFFFF DUP3 GT OR ISZERO PUSH2 0x882 JUMPI PUSH2 0x881 PUSH2 0x932 JUMP JUMPDEST JUMPDEST DUP1 PUSH1 0x40 MSTORE POP POP POP JUMP JUMPDEST PUSH1 0x0 PUSH2 0x896 DUP3 PUSH2 0x7DC JUMP JUMPDEST SWAP2 POP PUSH32 0xFFFFFFFFFFFFFFFFFFFFFFFFFFFFFFFFFFFFFFFFFFFFFFFFFFFFFFFFFFFFFFFF DUP3 EQ ISZERO PUSH2 0x8C9 JUMPI PUSH2 0x8C8 PUSH2 0x8D4 JUMP JUMPDEST JUMPDEST PUSH1 0x1 DUP3 ADD SWAP1 POP SWAP2 SWAP1 POP JUMP JUMPDEST PUSH32 0x4E487B7100000000000000000000000000000000000000000000000000000000 PUSH1 0x0 MSTORE PUSH1 0x11 PUSH1 0x4 MSTORE PUSH1 0x24 PUSH1 0x0 REVERT JUMPDEST PUSH32 0x4E487B7100000000000000000000000000000000000000000000000000000000 PUSH1 0x0 MSTORE PUSH1 0x22 PUSH1 0x4 MSTORE PUSH1 0x24 PUSH1 0x0 REVERT JUMPDEST PUSH32 0x4E487B7100000000000000000000000000000000000000000000000000000000 PUSH1 0x0 MSTORE PUSH1 0x41 PUSH1 0x4 MSTORE PUSH1 0x24 PUSH1 0x0 REVERT JUMPDEST PUSH1 0x0 DUP1 REVERT JUMPDEST PUSH1 0x0 DUP1 REVERT JUMPDEST PUSH1 0x0 DUP1 REVERT JUMPDEST PUSH1 0x0 DUP1 REVERT JUMPDEST PUSH1 0x0 PUSH1 0x1F NOT PUSH1 0x1F DUP4 ADD AND SWAP1 POP SWAP2 SWAP1 POP JUMP JUMPDEST PUSH2 0x98F DUP2 PUSH2 0x7AA JUMP JUMPDEST DUP2 EQ PUSH2 0x99A JUMPI PUSH1 0x0 DUP1 REVERT JUMPDEST POP JUMP JUMPDEST PUSH2 0x9A6 DUP2 PUSH2 0x7DC JUMP JUMPDEST DUP2 EQ PUSH2 0x9B1 JUMPI PUSH1 0x0 DUP1 REVERT JUMPDEST POP JUMP INVALID LOG2 PUSH5 0x6970667358 0x22 SLT KECCAK256 COINBASE ADD DUP13 DUP6 XOR CODECOPY PUSH27 0xC58B455A9C33E67606CA6313C38FBABE840BB9745E039B4A1B6473 PUSH16 0x6C634300080700330000000000000000 "
				},
				"gasEstimates": {
					"creation": {
						"codeDepositCost": "507600",
						"executionCost": "543",
						"totalCost": "508143"
					},
					"external": {
						"balances(address)": "2806",
						"getPayment(address,uint256)": "infinite",
						"pay(string)": "infinite"
					}
				},
				"methodIdentifiers": {
					"balances(address)": "27e235e3",
					"getPayment(address,uint256)": "977a767c",
					"pay(string)": "2b66d72e"
				}
			},
			"storageLayout": {
				"storage": [
					{
						"astId": 23,
						"contract": "contracts/tipi2.sol:Demo",
						"label": "balances",
						"offset": 0,
						"slot": "0",
						"type": "t_mapping(t_address,t_struct(Balance)18_storage)"
					}
				],
				"types": {
					"t_address": {
						"encoding": "inplace",
						"label": "address",
						"numberOfBytes": "20"
					},
					"t_mapping(t_address,t_struct(Balance)18_storage)": {
						"encoding": "mapping",
						"key": "t_address",
						"label": "mapping(address => struct Demo.Balance)",
						"numberOfBytes": "32",
						"value": "t_struct(Balance)18_storage"
					},
					"t_mapping(t_uint256,t_struct(Payment)10_storage)": {
						"encoding": "mapping",
						"key": "t_uint256",
						"label": "mapping(uint256 => struct Demo.Payment)",
						"numberOfBytes": "32",
						"value": "t_struct(Payment)10_storage"
					},
					"t_string_storage": {
						"encoding": "bytes",
						"label": "string",
						"numberOfBytes": "32"
					},
					"t_struct(Balance)18_storage": {
						"encoding": "inplace",
						"label": "struct Demo.Balance",
						"members": [
							{
								"astId": 12,
								"contract": "contracts/tipi2.sol:Demo",
								"label": "totalPayments",
								"offset": 0,
								"slot": "0",
								"type": "t_uint256"
							},
							{
								"astId": 17,
								"contract": "contracts/tipi2.sol:Demo",
								"label": "payments",
								"offset": 0,
								"slot": "1",
								"type": "t_mapping(t_uint256,t_struct(Payment)10_storage)"
							}
						],
						"numberOfBytes": "64"
					},
					"t_struct(Payment)10_storage": {
						"encoding": "inplace",
						"label": "struct Demo.Payment",
						"members": [
							{
								"astId": 3,
								"contract": "contracts/tipi2.sol:Demo",
								"label": "amount",
								"offset": 0,
								"slot": "0",
								"type": "t_uint256"
							},
							{
								"astId": 5,
								"contract": "contracts/tipi2.sol:Demo",
								"label": "timestamp",
								"offset": 0,
								"slot": "1",
								"type": "t_uint256"
							},
							{
								"astId": 7,
								"contract": "contracts/tipi2.sol:Demo",
								"label": "from",
								"offset": 0,
								"slot": "2",
								"type": "t_address"
							},
							{
								"astId": 9,
								"contract": "contracts/tipi2.sol:Demo",
								"label": "message",
								"offset": 0,
								"slot": "3",
								"type": "t_string_storage"
							}
						],
						"numberOfBytes": "128"
					},
					"t_uint256": {
						"encoding": "inplace",
						"label": "uint256",
						"numberOfBytes": "32"
					}
				}
			},
			"userdoc": {
				"kind": "user",
				"methods": {},
				"version": 1
			}
		}
	}
}