{
	"contracts/tipi2.sol": {
		"Demo": {
			"abi": [
				{
					"inputs": [],
					"name": "currentStatus",
					"outputs": [
						{
							"internalType": "enum Demo.Status",
							"name": "",
							"type": "uint8"
						}
					],
					"stateMutability": "view",
					"type": "function"
				},
				{
					"inputs": [],
					"name": "pay",
					"outputs": [],
					"stateMutability": "nonpayable",
					"type": "function"
				}
			],
			"devdoc": {
				"kind": "dev",
				"methods": {},
				"version": 1
			},
			"evm": {
				"assembly": "    /* \"contracts/tipi2.sol\":62:245  contract Demo {\r... */\n  mstore(0x40, 0x80)\n  callvalue\n  dup1\n  iszero\n  tag_1\n  jumpi\n  0x00\n  dup1\n  revert\ntag_1:\n  pop\n  dataSize(sub_0)\n  dup1\n  dataOffset(sub_0)\n  0x00\n  codecopy\n  0x00\n  return\nstop\n\nsub_0: assembly {\n        /* \"contracts/tipi2.sol\":62:245  contract Demo {\r... */\n      mstore(0x40, 0x80)\n      callvalue\n      dup1\n      iszero\n      tag_1\n      jumpi\n      0x00\n      dup1\n      revert\n    tag_1:\n      pop\n      jumpi(tag_2, lt(calldatasize, 0x04))\n      shr(0xe0, calldataload(0x00))\n      dup1\n      0x1b9265b8\n      eq\n      tag_3\n      jumpi\n      dup1\n      0xef8a9235\n      eq\n      tag_4\n      jumpi\n    tag_2:\n      0x00\n      dup1\n      revert\n        /* \"contracts/tipi2.sol\":166:234  function pay() public {\r... */\n    tag_3:\n      tag_5\n      tag_6\n      jump\t// in\n    tag_5:\n      stop\n        /* \"contracts/tipi2.sol\":130:157  Status public currentStatus */\n    tag_4:\n      tag_7\n      tag_8\n      jump\t// in\n    tag_7:\n      mload(0x40)\n      tag_9\n      swap2\n      swap1\n      tag_10\n      jump\t// in\n    tag_9:\n      mload(0x40)\n      dup1\n      swap2\n      sub\n      swap1\n      return\n        /* \"contracts/tipi2.sol\":166:234  function pay() public {\r... */\n    tag_6:\n        /* \"contracts/tipi2.sol\":215:226  Status.Paid */\n      0x00\n        /* \"contracts/tipi2.sol\":199:212  currentStatus */\n      dup1\n      0x00\n        /* \"contracts/tipi2.sol\":199:226  currentStatus = Status.Paid */\n      0x0100\n      exp\n      dup2\n      sload\n      dup2\n      0xff\n      mul\n      not\n      and\n      swap1\n      dup4\n      0x02\n      dup2\n      gt\n      iszero\n      tag_12\n      jumpi\n      tag_13\n      tag_14\n      jump\t// in\n    tag_13:\n    tag_12:\n      mul\n      or\n      swap1\n      sstore\n      pop\n        /* \"contracts/tipi2.sol\":166:234  function pay() public {\r... */\n      jump\t// out\n        /* \"contracts/tipi2.sol\":130:157  Status public currentStatus */\n    tag_8:\n      0x00\n      dup1\n      sload\n      swap1\n      0x0100\n      exp\n      swap1\n      div\n      0xff\n      and\n      dup2\n      jump\t// out\n        /* \"#utility.yul\":7:150   */\n    tag_16:\n        /* \"#utility.yul\":100:143   */\n      tag_18\n        /* \"#utility.yul\":137:142   */\n      dup2\n        /* \"#utility.yul\":100:143   */\n      tag_19\n      jump\t// in\n    tag_18:\n        /* \"#utility.yul\":95:98   */\n      dup3\n        /* \"#utility.yul\":88:144   */\n      mstore\n        /* \"#utility.yul\":7:150   */\n      pop\n      pop\n      jump\t// out\n        /* \"#utility.yul\":156:390   */\n    tag_10:\n        /* \"#utility.yul\":255:259   */\n      0x00\n        /* \"#utility.yul\":293:295   */\n      0x20\n        /* \"#utility.yul\":282:291   */\n      dup3\n        /* \"#utility.yul\":278:296   */\n      add\n        /* \"#utility.yul\":270:296   */\n      swap1\n      pop\n        /* \"#utility.yul\":306:383   */\n      tag_21\n        /* \"#utility.yul\":380:381   */\n      0x00\n        /* \"#utility.yul\":369:378   */\n      dup4\n        /* \"#utility.yul\":365:382   */\n      add\n        /* \"#utility.yul\":356:362   */\n      dup5\n        /* \"#utility.yul\":306:383   */\n      tag_16\n      jump\t// in\n    tag_21:\n        /* \"#utility.yul\":156:390   */\n      swap3\n      swap2\n      pop\n      pop\n      jump\t// out\n        /* \"#utility.yul\":396:523   */\n    tag_22:\n        /* \"#utility.yul\":441:448   */\n      0x00\n        /* \"#utility.yul\":470:475   */\n      dup2\n        /* \"#utility.yul\":459:475   */\n      swap1\n      pop\n        /* \"#utility.yul\":476:517   */\n      tag_24\n        /* \"#utility.yul\":511:516   */\n      dup3\n        /* \"#utility.yul\":476:517   */\n      tag_25\n      jump\t// in\n    tag_24:\n        /* \"#utility.yul\":396:523   */\n      swap2\n      swap1\n      pop\n      jump\t// out\n        /* \"#utility.yul\":529:656   */\n    tag_19:\n        /* \"#utility.yul\":585:594   */\n      0x00\n        /* \"#utility.yul\":618:650   */\n      tag_27\n        /* \"#utility.yul\":644:649   */\n      dup3\n        /* \"#utility.yul\":618:650   */\n      tag_22\n      jump\t// in\n    tag_27:\n        /* \"#utility.yul\":605:650   */\n      swap1\n      pop\n        /* \"#utility.yul\":529:656   */\n      swap2\n      swap1\n      pop\n      jump\t// out\n        /* \"#utility.yul\":662:842   */\n    tag_14:\n        /* \"#utility.yul\":710:787   */\n      0x4e487b7100000000000000000000000000000000000000000000000000000000\n        /* \"#utility.yul\":707:708   */\n      0x00\n        /* \"#utility.yul\":700:788   */\n      mstore\n        /* \"#utility.yul\":807:811   */\n      0x21\n        /* \"#utility.yul\":804:805   */\n      0x04\n        /* \"#utility.yul\":797:812   */\n      mstore\n        /* \"#utility.yul\":831:835   */\n      0x24\n        /* \"#utility.yul\":828:829   */\n      0x00\n        /* \"#utility.yul\":821:836   */\n      revert\n        /* \"#utility.yul\":848:961   */\n    tag_25:\n        /* \"#utility.yul\":929:930   */\n      0x03\n        /* \"#utility.yul\":922:927   */\n      dup2\n        /* \"#utility.yul\":919:931   */\n      lt\n        /* \"#utility.yul\":909:955   */\n      tag_30\n      jumpi\n        /* \"#utility.yul\":935:953   */\n      tag_31\n      tag_14\n      jump\t// in\n    tag_31:\n        /* \"#utility.yul\":909:955   */\n    tag_30:\n        /* \"#utility.yul\":848:961   */\n      pop\n      jump\t// out\n\n    auxdata: 0xa264697066735822122015a092a44fb4f1fa7a20fc740c6ddd4773ac4081d98d8aa6b425ef25388b503264736f6c63430008070033\n}\n",
				"bytecode": {
					"linkReferences": {},
					"object": "608060405234801561001057600080fd5b50610168806100206000396000f3fe608060405234801561001057600080fd5b50600436106100365760003560e01c80631b9265b81461003b578063ef8a923514610045575b600080fd5b610043610063565b005b61004d61008f565b60405161005a91906100af565b60405180910390f35b60008060006101000a81548160ff02191690836002811115610088576100876100ef565b5b0217905550565b60008054906101000a900460ff1681565b6100a9816100dd565b82525050565b60006020820190506100c460008301846100a0565b92915050565b60008190506100d88261011e565b919050565b60006100e8826100ca565b9050919050565b7f4e487b7100000000000000000000000000000000000000000000000000000000600052602160045260246000fd5b6003811061012f5761012e6100ef565b5b5056fea264697066735822122015a092a44fb4f1fa7a20fc740c6ddd4773ac4081d98d8aa6b425ef25388b503264736f6c63430008070033",
					"opcodes": "PUSH1 0x80 PUSH1 0x40 MSTORE CALLVALUE DUP1 ISZERO PUSH2 0x10 JUMPI PUSH1 0x0 DUP1 REVERT JUMPDEST POP PUSH2 0x168 DUP1 PUSH2 0x20 PUSH1 0x0 CODECOPY PUSH1 0x0 RETURN INVALID PUSH1 0x80 PUSH1 0x40 MSTORE CALLVALUE DUP1 ISZERO PUSH2 0x10 JUMPI PUSH1 0x0 DUP1 REVERT JUMPDEST POP PUSH1 0x4 CALLDATASIZE LT PUSH2 0x36 JUMPI PUSH1 0x0 CALLDATALOAD PUSH1 0xE0 SHR DUP1 PUSH4 0x1B9265B8 EQ PUSH2 0x3B JUMPI DUP1 PUSH4 0xEF8A9235 EQ PUSH2 0x45 JUMPI JUMPDEST PUSH1 0x0 DUP1 REVERT JUMPDEST PUSH2 0x43 PUSH2 0x63 JUMP JUMPDEST STOP JUMPDEST PUSH2 0x4D PUSH2 0x8F JUMP JUMPDEST PUSH1 0x40 MLOAD PUSH2 0x5A SWAP2 SWAP1 PUSH2 0xAF JUMP JUMPDEST PUSH1 0x40 MLOAD DUP1 SWAP2 SUB SWAP1 RETURN JUMPDEST PUSH1 0x0 DUP1 PUSH1 0x0 PUSH2 0x100 EXP DUP2 SLOAD DUP2 PUSH1 0xFF MUL NOT AND SWAP1 DUP4 PUSH1 0x2 DUP2 GT ISZERO PUSH2 0x88 JUMPI PUSH2 0x87 PUSH2 0xEF JUMP JUMPDEST JUMPDEST MUL OR SWAP1 SSTORE POP JUMP JUMPDEST PUSH1 0x0 DUP1 SLOAD SWAP1 PUSH2 0x100 EXP SWAP1 DIV PUSH1 0xFF AND DUP2 JUMP JUMPDEST PUSH2 0xA9 DUP2 PUSH2 0xDD JUMP JUMPDEST DUP3 MSTORE POP POP JUMP JUMPDEST PUSH1 0x0 PUSH1 0x20 DUP3 ADD SWAP1 POP PUSH2 0xC4 PUSH1 0x0 DUP4 ADD DUP5 PUSH2 0xA0 JUMP JUMPDEST SWAP3 SWAP2 POP POP JUMP JUMPDEST PUSH1 0x0 DUP2 SWAP1 POP PUSH2 0xD8 DUP3 PUSH2 0x11E JUMP JUMPDEST SWAP2 SWAP1 POP JUMP JUMPDEST PUSH1 0x0 PUSH2 0xE8 DUP3 PUSH2 0xCA JUMP JUMPDEST SWAP1 POP SWAP2 SWAP1 POP JUMP JUMPDEST PUSH32 0x4E487B7100000000000000000000000000000000000000000000000000000000 PUSH1 0x0 MSTORE PUSH1 0x21 PUSH1 0x4 MSTORE PUSH1 0x24 PUSH1 0x0 REVERT JUMPDEST PUSH1 0x3 DUP2 LT PUSH2 0x12F JUMPI PUSH2 0x12E PUSH2 0xEF JUMP JUMPDEST JUMPDEST POP JUMP INVALID LOG2 PUSH5 0x6970667358 0x22 SLT KECCAK256 ISZERO LOG0 SWAP3 LOG4 0x4F 0xB4 CALL STATICCALL PUSH27 0x20FC740C6DDD4773AC4081D98D8AA6B425EF25388B503264736F6C PUSH4 0x43000807 STOP CALLER "
				},
				"gasEstimates": {
					"creation": {
						"codeDepositCost": "72000",
						"executionCost": "123",
						"totalCost": "72123"
					},
					"external": {
						"currentStatus()": "2557",
						"pay()": "24409"
					}
				},
				"methodIdentifiers": {
					"currentStatus()": "ef8a9235",
					"pay()": "1b9265b8"
				}
			},
			"storageLayout": {
				"storage": [
					{
						"astId": 8,
						"contract": "contracts/tipi2.sol:Demo",
						"label": "currentStatus",
						"offset": 0,
						"slot": "0",
						"type": "t_enum(Status)5"
					}
				],
				"types": {
					"t_enum(Status)5": {
						"encoding": "inplace",
						"label": "enum Demo.Status",
						"numberOfBytes": "1"
					}
				}
			},
			"userdoc": {
				"kind": "user",
				"methods": {},
				"version": 1
			}
		}
	}
}